{
	"contracts/qlsv/IClassManager.sol": {
		"StudentManager": {
			"abi": [
				{
					"inputs": [
						{
							"internalType": "address",
							"name": "_classContractAddress",
							"type": "address"
						}
					],
					"stateMutability": "nonpayable",
					"type": "constructor"
				},
				{
					"inputs": [
						{
							"internalType": "string",
							"name": "_name",
							"type": "string"
						},
						{
							"internalType": "string",
							"name": "_className",
							"type": "string"
						},
						{
							"internalType": "uint256",
							"name": "_age",
							"type": "uint256"
						}
					],
					"name": "addStudent",
					"outputs": [],
					"stateMutability": "nonpayable",
					"type": "function"
				},
				{
					"inputs": [],
					"name": "classContract",
					"outputs": [
						{
							"internalType": "contract IClassManager",
							"name": "",
							"type": "address"
						}
					],
					"stateMutability": "view",
					"type": "function"
				},
				{
					"inputs": [
						{
							"internalType": "string",
							"name": "_className",
							"type": "string"
						}
					],
					"name": "countCurLimit",
					"outputs": [
						{
							"internalType": "uint256",
							"name": "",
							"type": "uint256"
						},
						{
							"internalType": "uint256",
							"name": "",
							"type": "uint256"
						}
					],
					"stateMutability": "view",
					"type": "function"
				},
				{
					"inputs": [
						{
							"internalType": "uint256",
							"name": "_id",
							"type": "uint256"
						},
						{
							"internalType": "string",
							"name": "_className",
							"type": "string"
						}
					],
					"name": "deleteStudent",
					"outputs": [],
					"stateMutability": "nonpayable",
					"type": "function"
				},
				{
					"inputs": [
						{
							"internalType": "uint256",
							"name": "_id",
							"type": "uint256"
						}
					],
					"name": "getStudent",
					"outputs": [
						{
							"components": [
								{
									"internalType": "uint256",
									"name": "id",
									"type": "uint256"
								},
								{
									"internalType": "string",
									"name": "name",
									"type": "string"
								},
								{
									"internalType": "string",
									"name": "className",
									"type": "string"
								},
								{
									"internalType": "string",
									"name": "level",
									"type": "string"
								},
								{
									"internalType": "uint256",
									"name": "age",
									"type": "uint256"
								}
							],
							"internalType": "struct StudentManager.Student",
							"name": "",
							"type": "tuple"
						}
					],
					"stateMutability": "view",
					"type": "function"
				},
				{
					"inputs": [],
					"name": "studentCount",
					"outputs": [
						{
							"internalType": "uint256",
							"name": "",
							"type": "uint256"
						}
					],
					"stateMutability": "view",
					"type": "function"
				},
				{
					"inputs": [
						{
							"internalType": "uint256",
							"name": "",
							"type": "uint256"
						}
					],
					"name": "students",
					"outputs": [
						{
							"internalType": "uint256",
							"name": "id",
							"type": "uint256"
						},
						{
							"internalType": "string",
							"name": "name",
							"type": "string"
						},
						{
							"internalType": "string",
							"name": "className",
							"type": "string"
						},
						{
							"internalType": "string",
							"name": "level",
							"type": "string"
						},
						{
							"internalType": "uint256",
							"name": "age",
							"type": "uint256"
						}
					],
					"stateMutability": "view",
					"type": "function"
				}
			],
			"devdoc": {
				"kind": "dev",
				"methods": {},
				"version": 1
			},
			"evm": {
				"assembly": "    /* \"contracts/qlsv/IClassManager.sol\":469:1890  contract StudentManager {... */\n  mstore(0x40, 0x80)\n    /* \"contracts/qlsv/IClassManager.sol\":759:873  constructor(address _classContractAddress) {... */\n  callvalue\n  dup1\n  iszero\n  tag_1\n  jumpi\n  revert(0x00, 0x00)\ntag_1:\n  pop\n  mload(0x40)\n  sub(codesize, bytecodeSize)\n  dup1\n  bytecodeSize\n  dup4\n  codecopy\n  dup2\n  dup2\n  add\n  0x40\n  mstore\n  dup2\n  add\n  swap1\n  tag_2\n  swap2\n  swap1\n  tag_3\n  jump\t// in\ntag_2:\n    /* \"contracts/qlsv/IClassManager.sol\":843:864  _classContractAddress */\n  dup1\n    /* \"contracts/qlsv/IClassManager.sol\":813:826  classContract */\n  0x00\n  0x00\n    /* \"contracts/qlsv/IClassManager.sol\":813:865  classContract = IClassManager(_classContractAddress) */\n  0x0100\n  exp\n  dup2\n  sload\n  dup2\n  0xffffffffffffffffffffffffffffffffffffffff\n  mul\n  not\n  and\n  swap1\n  dup4\n  0xffffffffffffffffffffffffffffffffffffffff\n  and\n  mul\n  or\n  swap1\n  sstore\n  pop\n    /* \"contracts/qlsv/IClassManager.sol\":759:873  constructor(address _classContractAddress) {... */\n  pop\n    /* \"contracts/qlsv/IClassManager.sol\":469:1890  contract StudentManager {... */\n  jump(tag_6)\n    /* \"#utility.yul\":88:205   */\ntag_8:\n    /* \"#utility.yul\":197:198   */\n  0x00\n    /* \"#utility.yul\":194:195   */\n  0x00\n    /* \"#utility.yul\":187:199   */\n  revert\n    /* \"#utility.yul\":334:460   */\ntag_10:\n    /* \"#utility.yul\":371:378   */\n  0x00\n    /* \"#utility.yul\":411:453   */\n  0xffffffffffffffffffffffffffffffffffffffff\n    /* \"#utility.yul\":404:409   */\n  dup3\n    /* \"#utility.yul\":400:454   */\n  and\n    /* \"#utility.yul\":389:454   */\n  swap1\n  pop\n    /* \"#utility.yul\":334:460   */\n  swap2\n  swap1\n  pop\n  jump\t// out\n    /* \"#utility.yul\":466:562   */\ntag_11:\n    /* \"#utility.yul\":503:510   */\n  0x00\n    /* \"#utility.yul\":532:556   */\n  tag_20\n    /* \"#utility.yul\":550:555   */\n  dup3\n    /* \"#utility.yul\":532:556   */\n  tag_10\n  jump\t// in\ntag_20:\n    /* \"#utility.yul\":521:556   */\n  swap1\n  pop\n    /* \"#utility.yul\":466:562   */\n  swap2\n  swap1\n  pop\n  jump\t// out\n    /* \"#utility.yul\":568:690   */\ntag_12:\n    /* \"#utility.yul\":641:665   */\n  tag_22\n    /* \"#utility.yul\":659:664   */\n  dup2\n    /* \"#utility.yul\":641:665   */\n  tag_11\n  jump\t// in\ntag_22:\n    /* \"#utility.yul\":634:639   */\n  dup2\n    /* \"#utility.yul\":631:666   */\n  eq\n    /* \"#utility.yul\":621:684   */\n  tag_23\n  jumpi\n    /* \"#utility.yul\":680:681   */\n  0x00\n    /* \"#utility.yul\":677:678   */\n  0x00\n    /* \"#utility.yul\":670:682   */\n  revert\n    /* \"#utility.yul\":621:684   */\ntag_23:\n    /* \"#utility.yul\":568:690   */\n  pop\n  jump\t// out\n    /* \"#utility.yul\":696:839   */\ntag_13:\n    /* \"#utility.yul\":753:758   */\n  0x00\n    /* \"#utility.yul\":784:790   */\n  dup2\n    /* \"#utility.yul\":778:791   */\n  mload\n    /* \"#utility.yul\":769:791   */\n  swap1\n  pop\n    /* \"#utility.yul\":800:833   */\n  tag_25\n    /* \"#utility.yul\":827:832   */\n  dup2\n    /* \"#utility.yul\":800:833   */\n  tag_12\n  jump\t// in\ntag_25:\n    /* \"#utility.yul\":696:839   */\n  swap3\n  swap2\n  pop\n  pop\n  jump\t// out\n    /* \"#utility.yul\":845:1196   */\ntag_3:\n    /* \"#utility.yul\":915:921   */\n  0x00\n    /* \"#utility.yul\":964:966   */\n  0x20\n    /* \"#utility.yul\":952:961   */\n  dup3\n    /* \"#utility.yul\":943:950   */\n  dup5\n    /* \"#utility.yul\":939:962   */\n  sub\n    /* \"#utility.yul\":935:967   */\n  slt\n    /* \"#utility.yul\":932:1051   */\n  iszero\n  tag_27\n  jumpi\n    /* \"#utility.yul\":970:1049   */\n  tag_28\n  tag_8\n  jump\t// in\ntag_28:\n    /* \"#utility.yul\":932:1051   */\ntag_27:\n    /* \"#utility.yul\":1090:1091   */\n  0x00\n    /* \"#utility.yul\":1115:1179   */\n  tag_29\n    /* \"#utility.yul\":1171:1178   */\n  dup5\n    /* \"#utility.yul\":1162:1168   */\n  dup3\n    /* \"#utility.yul\":1151:1160   */\n  dup6\n    /* \"#utility.yul\":1147:1169   */\n  add\n    /* \"#utility.yul\":1115:1179   */\n  tag_13\n  jump\t// in\ntag_29:\n    /* \"#utility.yul\":1105:1179   */\n  swap2\n  pop\n    /* \"#utility.yul\":1061:1189   */\n  pop\n    /* \"#utility.yul\":845:1196   */\n  swap3\n  swap2\n  pop\n  pop\n  jump\t// out\n    /* \"contracts/qlsv/IClassManager.sol\":469:1890  contract StudentManager {... */\ntag_6:\n  dataSize(sub_0)\n  dup1\n  dataOffset(sub_0)\n  0x00\n  codecopy\n  0x00\n  return\nstop\n\nsub_0: assembly {\n        /* \"contracts/qlsv/IClassManager.sol\":469:1890  contract StudentManager {... */\n      mstore(0x40, 0x80)\n      callvalue\n      dup1\n      iszero\n      tag_1\n      jumpi\n      revert(0x00, 0x00)\n    tag_1:\n      pop\n      jumpi(tag_2, lt(calldatasize, 0x04))\n      shr(0xe0, calldataload(0x00))\n      dup1\n      0x642f9163\n      gt\n      tag_10\n      jumpi\n      dup1\n      0x642f9163\n      eq\n      tag_6\n      jumpi\n      dup1\n      0x9cc8f139\n      eq\n      tag_7\n      jumpi\n      dup1\n      0xdf50ca89\n      eq\n      tag_8\n      jumpi\n      dup1\n      0xe581f9ee\n      eq\n      tag_9\n      jumpi\n      jump(tag_2)\n    tag_10:\n      dup1\n      0x06ead22e\n      eq\n      tag_3\n      jumpi\n      dup1\n      0x262e3ec3\n      eq\n      tag_4\n      jumpi\n      dup1\n      0x4f78668c\n      eq\n      tag_5\n      jumpi\n    tag_2:\n      revert(0x00, 0x00)\n        /* \"contracts/qlsv/IClassManager.sol\":679:719  mapping(uint => Student) public students */\n    tag_3:\n      tag_11\n      0x04\n      dup1\n      calldatasize\n      sub\n      dup2\n      add\n      swap1\n      tag_12\n      swap2\n      swap1\n      tag_13\n      jump\t// in\n    tag_12:\n      tag_14\n      jump\t// in\n    tag_11:\n      mload(0x40)\n      tag_15\n      swap6\n      swap5\n      swap4\n      swap3\n      swap2\n      swap1\n      tag_16\n      jump\t// in\n    tag_15:\n      mload(0x40)\n      dup1\n      swap2\n      sub\n      swap1\n      return\n        /* \"contracts/qlsv/IClassManager.sol\":638:672  IClassManager public classContract */\n    tag_4:\n      tag_17\n      tag_18\n      jump\t// in\n    tag_17:\n      mload(0x40)\n      tag_19\n      swap2\n      swap1\n      tag_20\n      jump\t// in\n    tag_19:\n      mload(0x40)\n      dup1\n      swap2\n      sub\n      swap1\n      return\n        /* \"contracts/qlsv/IClassManager.sol\":1554:1701  function countCurLimit(string memory _className) public view returns (uint,uint){... */\n    tag_5:\n      tag_21\n      0x04\n      dup1\n      calldatasize\n      sub\n      dup2\n      add\n      swap1\n      tag_22\n      swap2\n      swap1\n      tag_23\n      jump\t// in\n    tag_22:\n      tag_24\n      jump\t// in\n    tag_21:\n      mload(0x40)\n      tag_25\n      swap3\n      swap2\n      swap1\n      tag_26\n      jump\t// in\n    tag_25:\n      mload(0x40)\n      dup1\n      swap2\n      sub\n      swap1\n      return\n        /* \"contracts/qlsv/IClassManager.sol\":1440:1546  function getStudent(uint _id) public view returns (Student memory) {... */\n    tag_6:\n      tag_27\n      0x04\n      dup1\n      calldatasize\n      sub\n      dup2\n      add\n      swap1\n      tag_28\n      swap2\n      swap1\n      tag_13\n      jump\t// in\n    tag_28:\n      tag_29\n      jump\t// in\n    tag_27:\n      mload(0x40)\n      tag_30\n      swap2\n      swap1\n      tag_31\n      jump\t// in\n    tag_30:\n      mload(0x40)\n      dup1\n      swap2\n      sub\n      swap1\n      return\n        /* \"contracts/qlsv/IClassManager.sol\":881:1434  function addStudent(string memory _name, string memory _className, uint _age) public {... */\n    tag_7:\n      tag_32\n      0x04\n      dup1\n      calldatasize\n      sub\n      dup2\n      add\n      swap1\n      tag_33\n      swap2\n      swap1\n      tag_34\n      jump\t// in\n    tag_33:\n      tag_35\n      jump\t// in\n    tag_32:\n      stop\n        /* \"contracts/qlsv/IClassManager.sol\":1717:1885  function deleteStudent(uint _id, string memory _className) public {... */\n    tag_8:\n      tag_36\n      0x04\n      dup1\n      calldatasize\n      sub\n      dup2\n      add\n      swap1\n      tag_37\n      swap2\n      swap1\n      tag_38\n      jump\t// in\n    tag_37:\n      tag_39\n      jump\t// in\n    tag_36:\n      stop\n        /* \"contracts/qlsv/IClassManager.sol\":726:750  uint public studentCount */\n    tag_9:\n      tag_40\n      tag_41\n      jump\t// in\n    tag_40:\n      mload(0x40)\n      tag_42\n      swap2\n      swap1\n      tag_43\n      jump\t// in\n    tag_42:\n      mload(0x40)\n      dup1\n      swap2\n      sub\n      swap1\n      return\n        /* \"contracts/qlsv/IClassManager.sol\":679:719  mapping(uint => Student) public students */\n    tag_14:\n      mstore(0x20, 0x01)\n      dup1\n      0x00\n      mstore\n      keccak256(0x00, 0x40)\n      0x00\n      swap2\n      pop\n      swap1\n      pop\n      dup1\n      0x00\n      add\n      sload\n      swap1\n      dup1\n      0x01\n      add\n      dup1\n      sload\n      tag_44\n      swap1\n      tag_45\n      jump\t// in\n    tag_44:\n      dup1\n      0x1f\n      add\n      0x20\n      dup1\n      swap2\n      div\n      mul\n      0x20\n      add\n      mload(0x40)\n      swap1\n      dup2\n      add\n      0x40\n      mstore\n      dup1\n      swap3\n      swap2\n      swap1\n      dup2\n      dup2\n      mstore\n      0x20\n      add\n      dup3\n      dup1\n      sload\n      tag_46\n      swap1\n      tag_45\n      jump\t// in\n    tag_46:\n      dup1\n      iszero\n      tag_47\n      jumpi\n      dup1\n      0x1f\n      lt\n      tag_48\n      jumpi\n      0x0100\n      dup1\n      dup4\n      sload\n      div\n      mul\n      dup4\n      mstore\n      swap2\n      0x20\n      add\n      swap2\n      jump(tag_47)\n    tag_48:\n      dup3\n      add\n      swap2\n      swap1\n      0x00\n      mstore\n      keccak256(0x00, 0x20)\n      swap1\n    tag_49:\n      dup2\n      sload\n      dup2\n      mstore\n      swap1\n      0x01\n      add\n      swap1\n      0x20\n      add\n      dup1\n      dup4\n      gt\n      tag_49\n      jumpi\n      dup3\n      swap1\n      sub\n      0x1f\n      and\n      dup3\n      add\n      swap2\n    tag_47:\n      pop\n      pop\n      pop\n      pop\n      pop\n      swap1\n      dup1\n      0x02\n      add\n      dup1\n      sload\n      tag_50\n      swap1\n      tag_45\n      jump\t// in\n    tag_50:\n      dup1\n      0x1f\n      add\n      0x20\n      dup1\n      swap2\n      div\n      mul\n      0x20\n      add\n      mload(0x40)\n      swap1\n      dup2\n      add\n      0x40\n      mstore\n      dup1\n      swap3\n      swap2\n      swap1\n      dup2\n      dup2\n      mstore\n      0x20\n      add\n      dup3\n      dup1\n      sload\n      tag_51\n      swap1\n      tag_45\n      jump\t// in\n    tag_51:\n      dup1\n      iszero\n      tag_52\n      jumpi\n      dup1\n      0x1f\n      lt\n      tag_53\n      jumpi\n      0x0100\n      dup1\n      dup4\n      sload\n      div\n      mul\n      dup4\n      mstore\n      swap2\n      0x20\n      add\n      swap2\n      jump(tag_52)\n    tag_53:\n      dup3\n      add\n      swap2\n      swap1\n      0x00\n      mstore\n      keccak256(0x00, 0x20)\n      swap1\n    tag_54:\n      dup2\n      sload\n      dup2\n      mstore\n      swap1\n      0x01\n      add\n      swap1\n      0x20\n      add\n      dup1\n      dup4\n      gt\n      tag_54\n      jumpi\n      dup3\n      swap1\n      sub\n      0x1f\n      and\n      dup3\n      add\n      swap2\n    tag_52:\n      pop\n      pop\n      pop\n      pop\n      pop\n      swap1\n      dup1\n      0x03\n      add\n      dup1\n      sload\n      tag_55\n      swap1\n      tag_45\n      jump\t// in\n    tag_55:\n      dup1\n      0x1f\n      add\n      0x20\n      dup1\n      swap2\n      div\n      mul\n      0x20\n      add\n      mload(0x40)\n      swap1\n      dup2\n      add\n      0x40\n      mstore\n      dup1\n      swap3\n      swap2\n      swap1\n      dup2\n      dup2\n      mstore\n      0x20\n      add\n      dup3\n      dup1\n      sload\n      tag_56\n      swap1\n      tag_45\n      jump\t// in\n    tag_56:\n      dup1\n      iszero\n      tag_57\n      jumpi\n      dup1\n      0x1f\n      lt\n      tag_58\n      jumpi\n      0x0100\n      dup1\n      dup4\n      sload\n      div\n      mul\n      dup4\n      mstore\n      swap2\n      0x20\n      add\n      swap2\n      jump(tag_57)\n    tag_58:\n      dup3\n      add\n      swap2\n      swap1\n      0x00\n      mstore\n      keccak256(0x00, 0x20)\n      swap1\n    tag_59:\n      dup2\n      sload\n      dup2\n      mstore\n      swap1\n      0x01\n      add\n      swap1\n      0x20\n      add\n      dup1\n      dup4\n      gt\n      tag_59\n      jumpi\n      dup3\n      swap1\n      sub\n      0x1f\n      and\n      dup3\n      add\n      swap2\n    tag_57:\n      pop\n      pop\n      pop\n      pop\n      pop\n      swap1\n      dup1\n      0x04\n      add\n      sload\n      swap1\n      pop\n      dup6\n      jump\t// out\n        /* \"contracts/qlsv/IClassManager.sol\":638:672  IClassManager public classContract */\n    tag_18:\n      0x00\n      0x00\n      swap1\n      sload\n      swap1\n      0x0100\n      exp\n      swap1\n      div\n      0xffffffffffffffffffffffffffffffffffffffff\n      and\n      dup2\n      jump\t// out\n        /* \"contracts/qlsv/IClassManager.sol\":1554:1701  function countCurLimit(string memory _className) public view returns (uint,uint){... */\n    tag_24:\n        /* \"contracts/qlsv/IClassManager.sol\":1624:1628  uint */\n      0x00\n        /* \"contracts/qlsv/IClassManager.sol\":1629:1633  uint */\n      0x00\n        /* \"contracts/qlsv/IClassManager.sol\":1652:1665  classContract */\n      0x00\n      0x00\n      swap1\n      sload\n      swap1\n      0x0100\n      exp\n      swap1\n      div\n      0xffffffffffffffffffffffffffffffffffffffff\n      and\n        /* \"contracts/qlsv/IClassManager.sol\":1652:1681  classContract.getStudentLimit */\n      0xffffffffffffffffffffffffffffffffffffffff\n      and\n      0x6ceb5453\n        /* \"contracts/qlsv/IClassManager.sol\":1682:1692  _className */\n      dup5\n        /* \"contracts/qlsv/IClassManager.sol\":1652:1693  classContract.getStudentLimit(_className) */\n      mload(0x40)\n      dup3\n      0xffffffff\n      and\n      0xe0\n      shl\n      dup2\n      mstore\n      0x04\n      add\n      tag_61\n      swap2\n      swap1\n      tag_62\n      jump\t// in\n    tag_61:\n      0x40\n      dup1\n      mload\n      dup1\n      dup4\n      sub\n      dup2\n      dup7\n      gas\n      staticcall\n      iszero\n      dup1\n      iszero\n      tag_64\n      jumpi\n      returndatacopy(0x00, 0x00, returndatasize)\n      revert(0x00, returndatasize)\n    tag_64:\n      pop\n      pop\n      pop\n      pop\n      mload(0x40)\n      returndatasize\n      not(0x1f)\n      0x1f\n      dup3\n      add\n      and\n      dup3\n      add\n      dup1\n      0x40\n      mstore\n      pop\n      dup2\n      add\n      swap1\n      tag_65\n      swap2\n      swap1\n      tag_66\n      jump\t// in\n    tag_65:\n        /* \"contracts/qlsv/IClassManager.sol\":1645:1693  return classContract.getStudentLimit(_className) */\n      swap2\n      pop\n      swap2\n      pop\n        /* \"contracts/qlsv/IClassManager.sol\":1554:1701  function countCurLimit(string memory _className) public view returns (uint,uint){... */\n      swap2\n      pop\n      swap2\n      jump\t// out\n        /* \"contracts/qlsv/IClassManager.sol\":1440:1546  function getStudent(uint _id) public view returns (Student memory) {... */\n    tag_29:\n        /* \"contracts/qlsv/IClassManager.sol\":1491:1505  Student memory */\n      tag_67\n      tag_68\n      jump\t// in\n    tag_67:\n        /* \"contracts/qlsv/IClassManager.sol\":1525:1533  students */\n      0x01\n        /* \"contracts/qlsv/IClassManager.sol\":1525:1538  students[_id] */\n      0x00\n        /* \"contracts/qlsv/IClassManager.sol\":1534:1537  _id */\n      dup4\n        /* \"contracts/qlsv/IClassManager.sol\":1525:1538  students[_id] */\n      dup2\n      mstore\n      0x20\n      add\n      swap1\n      dup2\n      mstore\n      0x20\n      add\n      0x00\n      keccak256\n        /* \"contracts/qlsv/IClassManager.sol\":1518:1538  return students[_id] */\n      mload(0x40)\n      dup1\n      0xa0\n      add\n      0x40\n      mstore\n      swap1\n      dup2\n      0x00\n      dup3\n      add\n      sload\n      dup2\n      mstore\n      0x20\n      add\n      0x01\n      dup3\n      add\n      dup1\n      sload\n      tag_70\n      swap1\n      tag_45\n      jump\t// in\n    tag_70:\n      dup1\n      0x1f\n      add\n      0x20\n      dup1\n      swap2\n      div\n      mul\n      0x20\n      add\n      mload(0x40)\n      swap1\n      dup2\n      add\n      0x40\n      mstore\n      dup1\n      swap3\n      swap2\n      swap1\n      dup2\n      dup2\n      mstore\n      0x20\n      add\n      dup3\n      dup1\n      sload\n      tag_71\n      swap1\n      tag_45\n      jump\t// in\n    tag_71:\n      dup1\n      iszero\n      tag_72\n      jumpi\n      dup1\n      0x1f\n      lt\n      tag_73\n      jumpi\n      0x0100\n      dup1\n      dup4\n      sload\n      div\n      mul\n      dup4\n      mstore\n      swap2\n      0x20\n      add\n      swap2\n      jump(tag_72)\n    tag_73:\n      dup3\n      add\n      swap2\n      swap1\n      0x00\n      mstore\n      keccak256(0x00, 0x20)\n      swap1\n    tag_74:\n      dup2\n      sload\n      dup2\n      mstore\n      swap1\n      0x01\n      add\n      swap1\n      0x20\n      add\n      dup1\n      dup4\n      gt\n      tag_74\n      jumpi\n      dup3\n      swap1\n      sub\n      0x1f\n      and\n      dup3\n      add\n      swap2\n    tag_72:\n      pop\n      pop\n      pop\n      pop\n      pop\n      dup2\n      mstore\n      0x20\n      add\n      0x02\n      dup3\n      add\n      dup1\n      sload\n      tag_75\n      swap1\n      tag_45\n      jump\t// in\n    tag_75:\n      dup1\n      0x1f\n      add\n      0x20\n      dup1\n      swap2\n      div\n      mul\n      0x20\n      add\n      mload(0x40)\n      swap1\n      dup2\n      add\n      0x40\n      mstore\n      dup1\n      swap3\n      swap2\n      swap1\n      dup2\n      dup2\n      mstore\n      0x20\n      add\n      dup3\n      dup1\n      sload\n      tag_76\n      swap1\n      tag_45\n      jump\t// in\n    tag_76:\n      dup1\n      iszero\n      tag_77\n      jumpi\n      dup1\n      0x1f\n      lt\n      tag_78\n      jumpi\n      0x0100\n      dup1\n      dup4\n      sload\n      div\n      mul\n      dup4\n      mstore\n      swap2\n      0x20\n      add\n      swap2\n      jump(tag_77)\n    tag_78:\n      dup3\n      add\n      swap2\n      swap1\n      0x00\n      mstore\n      keccak256(0x00, 0x20)\n      swap1\n    tag_79:\n      dup2\n      sload\n      dup2\n      mstore\n      swap1\n      0x01\n      add\n      swap1\n      0x20\n      add\n      dup1\n      dup4\n      gt\n      tag_79\n      jumpi\n      dup3\n      swap1\n      sub\n      0x1f\n      and\n      dup3\n      add\n      swap2\n    tag_77:\n      pop\n      pop\n      pop\n      pop\n      pop\n      dup2\n      mstore\n      0x20\n      add\n      0x03\n      dup3\n      add\n      dup1\n      sload\n      tag_80\n      swap1\n      tag_45\n      jump\t// in\n    tag_80:\n      dup1\n      0x1f\n      add\n      0x20\n      dup1\n      swap2\n      div\n      mul\n      0x20\n      add\n      mload(0x40)\n      swap1\n      dup2\n      add\n      0x40\n      mstore\n      dup1\n      swap3\n      swap2\n      swap1\n      dup2\n      dup2\n      mstore\n      0x20\n      add\n      dup3\n      dup1\n      sload\n      tag_81\n      swap1\n      tag_45\n      jump\t// in\n    tag_81:\n      dup1\n      iszero\n      tag_82\n      jumpi\n      dup1\n      0x1f\n      lt\n      tag_83\n      jumpi\n      0x0100\n      dup1\n      dup4\n      sload\n      div\n      mul\n      dup4\n      mstore\n      swap2\n      0x20\n      add\n      swap2\n      jump(tag_82)\n    tag_83:\n      dup3\n      add\n      swap2\n      swap1\n      0x00\n      mstore\n      keccak256(0x00, 0x20)\n      swap1\n    tag_84:\n      dup2\n      sload\n      dup2\n      mstore\n      swap1\n      0x01\n      add\n      swap1\n      0x20\n      add\n      dup1\n      dup4\n      gt\n      tag_84\n      jumpi\n      dup3\n      swap1\n      sub\n      0x1f\n      and\n      dup3\n      add\n      swap2\n    tag_82:\n      pop\n      pop\n      pop\n      pop\n      pop\n      dup2\n      mstore\n      0x20\n      add\n      0x04\n      dup3\n      add\n      sload\n      dup2\n      mstore\n      pop\n      pop\n      swap1\n      pop\n        /* \"contracts/qlsv/IClassManager.sol\":1440:1546  function getStudent(uint _id) public view returns (Student memory) {... */\n      swap2\n      swap1\n      pop\n      jump\t// out\n        /* \"contracts/qlsv/IClassManager.sol\":881:1434  function addStudent(string memory _name, string memory _className, uint _age) public {... */\n    tag_35:\n        /* \"contracts/qlsv/IClassManager.sol\":985:998  classContract */\n      0x00\n      0x00\n      swap1\n      sload\n      swap1\n      0x0100\n      exp\n      swap1\n      div\n      0xffffffffffffffffffffffffffffffffffffffff\n      and\n        /* \"contracts/qlsv/IClassManager.sol\":985:1011  classContract.isClassExist */\n      0xffffffffffffffffffffffffffffffffffffffff\n      and\n      0xe250250b\n        /* \"contracts/qlsv/IClassManager.sol\":1012:1022  _className */\n      dup4\n        /* \"contracts/qlsv/IClassManager.sol\":985:1023  classContract.isClassExist(_className) */\n      mload(0x40)\n      dup3\n      0xffffffff\n      and\n      0xe0\n      shl\n      dup2\n      mstore\n      0x04\n      add\n      tag_86\n      swap2\n      swap1\n      tag_62\n      jump\t// in\n    tag_86:\n      0x20\n      mload(0x40)\n      dup1\n      dup4\n      sub\n      dup2\n      dup7\n      gas\n      staticcall\n      iszero\n      dup1\n      iszero\n      tag_88\n      jumpi\n      returndatacopy(0x00, 0x00, returndatasize)\n      revert(0x00, returndatasize)\n    tag_88:\n      pop\n      pop\n      pop\n      pop\n      mload(0x40)\n      returndatasize\n      not(0x1f)\n      0x1f\n      dup3\n      add\n      and\n      dup3\n      add\n      dup1\n      0x40\n      mstore\n      pop\n      dup2\n      add\n      swap1\n      tag_89\n      swap2\n      swap1\n      tag_90\n      jump\t// in\n    tag_89:\n        /* \"contracts/qlsv/IClassManager.sol\":977:1048  require(classContract.isClassExist(_className), \"Class does not exist\") */\n      tag_91\n      jumpi\n      mload(0x40)\n      0x08c379a000000000000000000000000000000000000000000000000000000000\n      dup2\n      mstore\n      0x04\n      add\n      tag_92\n      swap1\n      tag_93\n      jump\t// in\n    tag_92:\n      mload(0x40)\n      dup1\n      swap2\n      sub\n      swap1\n      revert\n    tag_91:\n        /* \"contracts/qlsv/IClassManager.sol\":1062:1074  uint current */\n      0x00\n        /* \"contracts/qlsv/IClassManager.sol\":1076:1086  uint limit */\n      0x00\n        /* \"contracts/qlsv/IClassManager.sol\":1090:1103  classContract */\n      0x00\n      0x00\n      swap1\n      sload\n      swap1\n      0x0100\n      exp\n      swap1\n      div\n      0xffffffffffffffffffffffffffffffffffffffff\n      and\n        /* \"contracts/qlsv/IClassManager.sol\":1090:1119  classContract.getStudentLimit */\n      0xffffffffffffffffffffffffffffffffffffffff\n      and\n      0x6ceb5453\n        /* \"contracts/qlsv/IClassManager.sol\":1120:1130  _className */\n      dup6\n        /* \"contracts/qlsv/IClassManager.sol\":1090:1131  classContract.getStudentLimit(_className) */\n      mload(0x40)\n      dup3\n      0xffffffff\n      and\n      0xe0\n      shl\n      dup2\n      mstore\n      0x04\n      add\n      tag_94\n      swap2\n      swap1\n      tag_62\n      jump\t// in\n    tag_94:\n      0x40\n      dup1\n      mload\n      dup1\n      dup4\n      sub\n      dup2\n      dup7\n      gas\n      staticcall\n      iszero\n      dup1\n      iszero\n      tag_96\n      jumpi\n      returndatacopy(0x00, 0x00, returndatasize)\n      revert(0x00, returndatasize)\n    tag_96:\n      pop\n      pop\n      pop\n      pop\n      mload(0x40)\n      returndatasize\n      not(0x1f)\n      0x1f\n      dup3\n      add\n      and\n      dup3\n      add\n      dup1\n      0x40\n      mstore\n      pop\n      dup2\n      add\n      swap1\n      tag_97\n      swap2\n      swap1\n      tag_66\n      jump\t// in\n    tag_97:\n        /* \"contracts/qlsv/IClassManager.sol\":1061:1131  (uint current, uint limit) = classContract.getStudentLimit(_className) */\n      swap2\n      pop\n      swap2\n      pop\n        /* \"contracts/qlsv/IClassManager.sol\":1160:1165  limit */\n      dup1\n        /* \"contracts/qlsv/IClassManager.sol\":1150:1157  current */\n      dup3\n        /* \"contracts/qlsv/IClassManager.sol\":1150:1165  current < limit */\n      lt\n        /* \"contracts/qlsv/IClassManager.sol\":1142:1183  require(current < limit, \"Class is full\") */\n      tag_98\n      jumpi\n      mload(0x40)\n      0x08c379a000000000000000000000000000000000000000000000000000000000\n      dup2\n      mstore\n      0x04\n      add\n      tag_99\n      swap1\n      tag_100\n      jump\t// in\n    tag_99:\n      mload(0x40)\n      dup1\n      swap2\n      sub\n      swap1\n      revert\n    tag_98:\n        /* \"contracts/qlsv/IClassManager.sol\":1196:1215  string memory level */\n      0x00\n        /* \"contracts/qlsv/IClassManager.sol\":1218:1231  classContract */\n      0x00\n      0x00\n      swap1\n      sload\n      swap1\n      0x0100\n      exp\n      swap1\n      div\n      0xffffffffffffffffffffffffffffffffffffffff\n      and\n        /* \"contracts/qlsv/IClassManager.sol\":1218:1245  classContract.getClassLevel */\n      0xffffffffffffffffffffffffffffffffffffffff\n      and\n      0xdd98e2bb\n        /* \"contracts/qlsv/IClassManager.sol\":1246:1256  _className */\n      dup7\n        /* \"contracts/qlsv/IClassManager.sol\":1218:1257  classContract.getClassLevel(_className) */\n      mload(0x40)\n      dup3\n      0xffffffff\n      and\n      0xe0\n      shl\n      dup2\n      mstore\n      0x04\n      add\n      tag_101\n      swap2\n      swap1\n      tag_62\n      jump\t// in\n    tag_101:\n      0x00\n      mload(0x40)\n      dup1\n      dup4\n      sub\n      dup2\n      dup7\n      gas\n      staticcall\n      iszero\n      dup1\n      iszero\n      tag_103\n      jumpi\n      returndatacopy(0x00, 0x00, returndatasize)\n      revert(0x00, returndatasize)\n    tag_103:\n      pop\n      pop\n      pop\n      pop\n      mload(0x40)\n      returndatasize\n      0x00\n      dup3\n      returndatacopy\n      returndatasize\n      not(0x1f)\n      0x1f\n      dup3\n      add\n      and\n      dup3\n      add\n      dup1\n      0x40\n      mstore\n      pop\n      dup2\n      add\n      swap1\n      tag_104\n      swap2\n      swap1\n      tag_105\n      jump\t// in\n    tag_104:\n        /* \"contracts/qlsv/IClassManager.sol\":1196:1257  string memory level = classContract.getClassLevel(_className) */\n      swap1\n      pop\n        /* \"contracts/qlsv/IClassManager.sol\":1295:1348  Student(studentCount, _name, _className, level, _age) */\n      mload(0x40)\n      dup1\n      0xa0\n      add\n      0x40\n      mstore\n      dup1\n        /* \"contracts/qlsv/IClassManager.sol\":1303:1315  studentCount */\n      sload(0x02)\n        /* \"contracts/qlsv/IClassManager.sol\":1295:1348  Student(studentCount, _name, _className, level, _age) */\n      dup2\n      mstore\n      0x20\n      add\n        /* \"contracts/qlsv/IClassManager.sol\":1317:1322  _name */\n      dup8\n        /* \"contracts/qlsv/IClassManager.sol\":1295:1348  Student(studentCount, _name, _className, level, _age) */\n      dup2\n      mstore\n      0x20\n      add\n        /* \"contracts/qlsv/IClassManager.sol\":1324:1334  _className */\n      dup7\n        /* \"contracts/qlsv/IClassManager.sol\":1295:1348  Student(studentCount, _name, _className, level, _age) */\n      dup2\n      mstore\n      0x20\n      add\n        /* \"contracts/qlsv/IClassManager.sol\":1336:1341  level */\n      dup3\n        /* \"contracts/qlsv/IClassManager.sol\":1295:1348  Student(studentCount, _name, _className, level, _age) */\n      dup2\n      mstore\n      0x20\n      add\n        /* \"contracts/qlsv/IClassManager.sol\":1343:1347  _age */\n      dup6\n        /* \"contracts/qlsv/IClassManager.sol\":1295:1348  Student(studentCount, _name, _className, level, _age) */\n      dup2\n      mstore\n      pop\n        /* \"contracts/qlsv/IClassManager.sol\":1270:1278  students */\n      0x01\n        /* \"contracts/qlsv/IClassManager.sol\":1270:1292  students[studentCount] */\n      0x00\n        /* \"contracts/qlsv/IClassManager.sol\":1279:1291  studentCount */\n      sload(0x02)\n        /* \"contracts/qlsv/IClassManager.sol\":1270:1292  students[studentCount] */\n      dup2\n      mstore\n      0x20\n      add\n      swap1\n      dup2\n      mstore\n      0x20\n      add\n      0x00\n      keccak256\n        /* \"contracts/qlsv/IClassManager.sol\":1270:1348  students[studentCount] = Student(studentCount, _name, _className, level, _age) */\n      0x00\n      dup3\n      add\n      mload\n      dup2\n      0x00\n      add\n      sstore\n      0x20\n      dup3\n      add\n      mload\n      dup2\n      0x01\n      add\n      swap1\n      dup2\n      tag_106\n      swap2\n      swap1\n      tag_107\n      jump\t// in\n    tag_106:\n      pop\n      0x40\n      dup3\n      add\n      mload\n      dup2\n      0x02\n      add\n      swap1\n      dup2\n      tag_108\n      swap2\n      swap1\n      tag_107\n      jump\t// in\n    tag_108:\n      pop\n      0x60\n      dup3\n      add\n      mload\n      dup2\n      0x03\n      add\n      swap1\n      dup2\n      tag_109\n      swap2\n      swap1\n      tag_107\n      jump\t// in\n    tag_109:\n      pop\n      0x80\n      dup3\n      add\n      mload\n      dup2\n      0x04\n      add\n      sstore\n      swap1\n      pop\n      pop\n        /* \"contracts/qlsv/IClassManager.sol\":1359:1372  classContract */\n      0x00\n      0x00\n      swap1\n      sload\n      swap1\n      0x0100\n      exp\n      swap1\n      div\n      0xffffffffffffffffffffffffffffffffffffffff\n      and\n        /* \"contracts/qlsv/IClassManager.sol\":1359:1389  classContract.incrementStudent */\n      0xffffffffffffffffffffffffffffffffffffffff\n      and\n      0x6ca617d8\n        /* \"contracts/qlsv/IClassManager.sol\":1390:1400  _className */\n      dup7\n        /* \"contracts/qlsv/IClassManager.sol\":1359:1401  classContract.incrementStudent(_className) */\n      mload(0x40)\n      dup3\n      0xffffffff\n      and\n      0xe0\n      shl\n      dup2\n      mstore\n      0x04\n      add\n      tag_110\n      swap2\n      swap1\n      tag_62\n      jump\t// in\n    tag_110:\n      0x00\n      mload(0x40)\n      dup1\n      dup4\n      sub\n      dup2\n      0x00\n      dup8\n      dup1\n      extcodesize\n      iszero\n      dup1\n      iszero\n      tag_111\n      jumpi\n      revert(0x00, 0x00)\n    tag_111:\n      pop\n      gas\n      call\n      iszero\n      dup1\n      iszero\n      tag_113\n      jumpi\n      returndatacopy(0x00, 0x00, returndatasize)\n      revert(0x00, returndatasize)\n    tag_113:\n      pop\n      pop\n      pop\n      pop\n        /* \"contracts/qlsv/IClassManager.sol\":1412:1424  studentCount */\n      0x02\n      0x00\n        /* \"contracts/qlsv/IClassManager.sol\":1412:1426  studentCount++ */\n      dup2\n      sload\n      dup1\n      swap3\n      swap2\n      swap1\n      tag_114\n      swap1\n      tag_115\n      jump\t// in\n    tag_114:\n      swap2\n      swap1\n      pop\n      sstore\n      pop\n        /* \"contracts/qlsv/IClassManager.sol\":966:1434  {... */\n      pop\n      pop\n      pop\n        /* \"contracts/qlsv/IClassManager.sol\":881:1434  function addStudent(string memory _name, string memory _className, uint _age) public {... */\n      pop\n      pop\n      pop\n      jump\t// out\n        /* \"contracts/qlsv/IClassManager.sol\":1717:1885  function deleteStudent(uint _id, string memory _className) public {... */\n    tag_39:\n        /* \"contracts/qlsv/IClassManager.sol\":1811:1819  students */\n      0x01\n        /* \"contracts/qlsv/IClassManager.sol\":1811:1824  students[_id] */\n      0x00\n        /* \"contracts/qlsv/IClassManager.sol\":1820:1823  _id */\n      dup4\n        /* \"contracts/qlsv/IClassManager.sol\":1811:1824  students[_id] */\n      dup2\n      mstore\n      0x20\n      add\n      swap1\n      dup2\n      mstore\n      0x20\n      add\n      0x00\n      keccak256\n      0x00\n        /* \"contracts/qlsv/IClassManager.sol\":1804:1824  delete students[_id] */\n      0x00\n      dup3\n      add\n      0x00\n      swap1\n      sstore\n      0x01\n      dup3\n      add\n      0x00\n      tag_117\n      swap2\n      swap1\n      tag_118\n      jump\t// in\n    tag_117:\n      0x02\n      dup3\n      add\n      0x00\n      tag_119\n      swap2\n      swap1\n      tag_118\n      jump\t// in\n    tag_119:\n      0x03\n      dup3\n      add\n      0x00\n      tag_120\n      swap2\n      swap1\n      tag_118\n      jump\t// in\n    tag_120:\n      0x04\n      dup3\n      add\n      0x00\n      swap1\n      sstore\n      pop\n      pop\n        /* \"contracts/qlsv/IClassManager.sol\":1835:1848  classContract */\n      0x00\n      0x00\n      swap1\n      sload\n      swap1\n      0x0100\n      exp\n      swap1\n      div\n      0xffffffffffffffffffffffffffffffffffffffff\n      and\n        /* \"contracts/qlsv/IClassManager.sol\":1835:1865  classContract.decrementStudent */\n      0xffffffffffffffffffffffffffffffffffffffff\n      and\n      0x8b20e1ad\n        /* \"contracts/qlsv/IClassManager.sol\":1866:1876  _className */\n      dup3\n        /* \"contracts/qlsv/IClassManager.sol\":1835:1877  classContract.decrementStudent(_className) */\n      mload(0x40)\n      dup3\n      0xffffffff\n      and\n      0xe0\n      shl\n      dup2\n      mstore\n      0x04\n      add\n      tag_121\n      swap2\n      swap1\n      tag_62\n      jump\t// in\n    tag_121:\n      0x00\n      mload(0x40)\n      dup1\n      dup4\n      sub\n      dup2\n      0x00\n      dup8\n      dup1\n      extcodesize\n      iszero\n      dup1\n      iszero\n      tag_122\n      jumpi\n      revert(0x00, 0x00)\n    tag_122:\n      pop\n      gas\n      call\n      iszero\n      dup1\n      iszero\n      tag_124\n      jumpi\n      returndatacopy(0x00, 0x00, returndatasize)\n      revert(0x00, returndatasize)\n    tag_124:\n      pop\n      pop\n      pop\n      pop\n        /* \"contracts/qlsv/IClassManager.sol\":1717:1885  function deleteStudent(uint _id, string memory _className) public {... */\n      pop\n      pop\n      jump\t// out\n        /* \"contracts/qlsv/IClassManager.sol\":726:750  uint public studentCount */\n    tag_41:\n      sload(0x02)\n      dup2\n      jump\t// out\n    tag_68:\n      mload(0x40)\n      dup1\n      0xa0\n      add\n      0x40\n      mstore\n      dup1\n      0x00\n      dup2\n      mstore\n      0x20\n      add\n      0x60\n      dup2\n      mstore\n      0x20\n      add\n      0x60\n      dup2\n      mstore\n      0x20\n      add\n      0x60\n      dup2\n      mstore\n      0x20\n      add\n      0x00\n      dup2\n      mstore\n      pop\n      swap1\n      jump\t// out\n    tag_118:\n      pop\n      dup1\n      sload\n      tag_125\n      swap1\n      tag_45\n      jump\t// in\n    tag_125:\n      0x00\n      dup3\n      sstore\n      dup1\n      0x1f\n      lt\n      tag_127\n      jumpi\n      pop\n      jump(tag_126)\n    tag_127:\n      0x1f\n      add\n      0x20\n      swap1\n      div\n      swap1\n      0x00\n      mstore\n      keccak256(0x00, 0x20)\n      swap1\n      dup2\n      add\n      swap1\n      tag_128\n      swap2\n      swap1\n      tag_129\n      jump\t// in\n    tag_128:\n    tag_126:\n      pop\n      jump\t// out\n    tag_129:\n    tag_130:\n      dup1\n      dup3\n      gt\n      iszero\n      tag_131\n      jumpi\n      0x00\n      dup2\n      0x00\n      swap1\n      sstore\n      pop\n      0x01\n      add\n      jump(tag_130)\n    tag_131:\n      pop\n      swap1\n      jump\t// out\n        /* \"#utility.yul\":7:82   */\n    tag_132:\n        /* \"#utility.yul\":40:46   */\n      0x00\n        /* \"#utility.yul\":73:75   */\n      0x40\n        /* \"#utility.yul\":67:76   */\n      mload\n        /* \"#utility.yul\":57:76   */\n      swap1\n      pop\n        /* \"#utility.yul\":7:82   */\n      swap1\n      jump\t// out\n        /* \"#utility.yul\":88:205   */\n    tag_133:\n        /* \"#utility.yul\":197:198   */\n      0x00\n        /* \"#utility.yul\":194:195   */\n      0x00\n        /* \"#utility.yul\":187:199   */\n      revert\n        /* \"#utility.yul\":211:328   */\n    tag_134:\n        /* \"#utility.yul\":320:321   */\n      0x00\n        /* \"#utility.yul\":317:318   */\n      0x00\n        /* \"#utility.yul\":310:322   */\n      revert\n        /* \"#utility.yul\":334:411   */\n    tag_135:\n        /* \"#utility.yul\":371:378   */\n      0x00\n        /* \"#utility.yul\":400:405   */\n      dup2\n        /* \"#utility.yul\":389:405   */\n      swap1\n      pop\n        /* \"#utility.yul\":334:411   */\n      swap2\n      swap1\n      pop\n      jump\t// out\n        /* \"#utility.yul\":417:539   */\n    tag_136:\n        /* \"#utility.yul\":490:514   */\n      tag_195\n        /* \"#utility.yul\":508:513   */\n      dup2\n        /* \"#utility.yul\":490:514   */\n      tag_135\n      jump\t// in\n    tag_195:\n        /* \"#utility.yul\":483:488   */\n      dup2\n        /* \"#utility.yul\":480:515   */\n      eq\n        /* \"#utility.yul\":470:533   */\n      tag_196\n      jumpi\n        /* \"#utility.yul\":529:530   */\n      0x00\n        /* \"#utility.yul\":526:527   */\n      0x00\n        /* \"#utility.yul\":519:531   */\n      revert\n        /* \"#utility.yul\":470:533   */\n    tag_196:\n        /* \"#utility.yul\":417:539   */\n      pop\n      jump\t// out\n        /* \"#utility.yul\":545:684   */\n    tag_137:\n        /* \"#utility.yul\":591:596   */\n      0x00\n        /* \"#utility.yul\":629:635   */\n      dup2\n        /* \"#utility.yul\":616:636   */\n      calldataload\n        /* \"#utility.yul\":607:636   */\n      swap1\n      pop\n        /* \"#utility.yul\":645:678   */\n      tag_198\n        /* \"#utility.yul\":672:677   */\n      dup2\n        /* \"#utility.yul\":645:678   */\n      tag_136\n      jump\t// in\n    tag_198:\n        /* \"#utility.yul\":545:684   */\n      swap3\n      swap2\n      pop\n      pop\n      jump\t// out\n        /* \"#utility.yul\":690:1019   */\n    tag_13:\n        /* \"#utility.yul\":749:755   */\n      0x00\n        /* \"#utility.yul\":798:800   */\n      0x20\n        /* \"#utility.yul\":786:795   */\n      dup3\n        /* \"#utility.yul\":777:784   */\n      dup5\n        /* \"#utility.yul\":773:796   */\n      sub\n        /* \"#utility.yul\":769:801   */\n      slt\n        /* \"#utility.yul\":766:885   */\n      iszero\n      tag_200\n      jumpi\n        /* \"#utility.yul\":804:883   */\n      tag_201\n      tag_133\n      jump\t// in\n    tag_201:\n        /* \"#utility.yul\":766:885   */\n    tag_200:\n        /* \"#utility.yul\":924:925   */\n      0x00\n        /* \"#utility.yul\":949:1002   */\n      tag_202\n        /* \"#utility.yul\":994:1001   */\n      dup5\n        /* \"#utility.yul\":985:991   */\n      dup3\n        /* \"#utility.yul\":974:983   */\n      dup6\n        /* \"#utility.yul\":970:992   */\n      add\n        /* \"#utility.yul\":949:1002   */\n      tag_137\n      jump\t// in\n    tag_202:\n        /* \"#utility.yul\":939:1002   */\n      swap2\n      pop\n        /* \"#utility.yul\":895:1012   */\n      pop\n        /* \"#utility.yul\":690:1019   */\n      swap3\n      swap2\n      pop\n      pop\n      jump\t// out\n        /* \"#utility.yul\":1025:1143   */\n    tag_138:\n        /* \"#utility.yul\":1112:1136   */\n      tag_204\n        /* \"#utility.yul\":1130:1135   */\n      dup2\n        /* \"#utility.yul\":1112:1136   */\n      tag_135\n      jump\t// in\n    tag_204:\n        /* \"#utility.yul\":1107:1110   */\n      dup3\n        /* \"#utility.yul\":1100:1137   */\n      mstore\n        /* \"#utility.yul\":1025:1143   */\n      pop\n      pop\n      jump\t// out\n        /* \"#utility.yul\":1149:1248   */\n    tag_139:\n        /* \"#utility.yul\":1201:1207   */\n      0x00\n        /* \"#utility.yul\":1235:1240   */\n      dup2\n        /* \"#utility.yul\":1229:1241   */\n      mload\n        /* \"#utility.yul\":1219:1241   */\n      swap1\n      pop\n        /* \"#utility.yul\":1149:1248   */\n      swap2\n      swap1\n      pop\n      jump\t// out\n        /* \"#utility.yul\":1254:1423   */\n    tag_140:\n        /* \"#utility.yul\":1338:1349   */\n      0x00\n        /* \"#utility.yul\":1372:1378   */\n      dup3\n        /* \"#utility.yul\":1367:1370   */\n      dup3\n        /* \"#utility.yul\":1360:1379   */\n      mstore\n        /* \"#utility.yul\":1412:1416   */\n      0x20\n        /* \"#utility.yul\":1407:1410   */\n      dup3\n        /* \"#utility.yul\":1403:1417   */\n      add\n        /* \"#utility.yul\":1388:1417   */\n      swap1\n      pop\n        /* \"#utility.yul\":1254:1423   */\n      swap3\n      swap2\n      pop\n      pop\n      jump\t// out\n        /* \"#utility.yul\":1429:1568   */\n    tag_141:\n        /* \"#utility.yul\":1518:1524   */\n      dup3\n        /* \"#utility.yul\":1513:1516   */\n      dup2\n        /* \"#utility.yul\":1508:1511   */\n      dup4\n        /* \"#utility.yul\":1502:1525   */\n      mcopy\n        /* \"#utility.yul\":1559:1560   */\n      0x00\n        /* \"#utility.yul\":1550:1556   */\n      dup4\n        /* \"#utility.yul\":1545:1548   */\n      dup4\n        /* \"#utility.yul\":1541:1557   */\n      add\n        /* \"#utility.yul\":1534:1561   */\n      mstore\n        /* \"#utility.yul\":1429:1568   */\n      pop\n      pop\n      pop\n      jump\t// out\n        /* \"#utility.yul\":1574:1676   */\n    tag_142:\n        /* \"#utility.yul\":1615:1621   */\n      0x00\n        /* \"#utility.yul\":1666:1668   */\n      0x1f\n        /* \"#utility.yul\":1662:1669   */\n      not\n        /* \"#utility.yul\":1657:1659   */\n      0x1f\n        /* \"#utility.yul\":1650:1655   */\n      dup4\n        /* \"#utility.yul\":1646:1660   */\n      add\n        /* \"#utility.yul\":1642:1670   */\n      and\n        /* \"#utility.yul\":1632:1670   */\n      swap1\n      pop\n        /* \"#utility.yul\":1574:1676   */\n      swap2\n      swap1\n      pop\n      jump\t// out\n        /* \"#utility.yul\":1682:2059   */\n    tag_143:\n        /* \"#utility.yul\":1770:1773   */\n      0x00\n        /* \"#utility.yul\":1798:1837   */\n      tag_210\n        /* \"#utility.yul\":1831:1836   */\n      dup3\n        /* \"#utility.yul\":1798:1837   */\n      tag_139\n      jump\t// in\n    tag_210:\n        /* \"#utility.yul\":1853:1924   */\n      tag_211\n        /* \"#utility.yul\":1917:1923   */\n      dup2\n        /* \"#utility.yul\":1912:1915   */\n      dup6\n        /* \"#utility.yul\":1853:1924   */\n      tag_140\n      jump\t// in\n    tag_211:\n        /* \"#utility.yul\":1846:1924   */\n      swap4\n      pop\n        /* \"#utility.yul\":1933:1998   */\n      tag_212\n        /* \"#utility.yul\":1991:1997   */\n      dup2\n        /* \"#utility.yul\":1986:1989   */\n      dup6\n        /* \"#utility.yul\":1979:1983   */\n      0x20\n        /* \"#utility.yul\":1972:1977   */\n      dup7\n        /* \"#utility.yul\":1968:1984   */\n      add\n        /* \"#utility.yul\":1933:1998   */\n      tag_141\n      jump\t// in\n    tag_212:\n        /* \"#utility.yul\":2023:2052   */\n      tag_213\n        /* \"#utility.yul\":2045:2051   */\n      dup2\n        /* \"#utility.yul\":2023:2052   */\n      tag_142\n      jump\t// in\n    tag_213:\n        /* \"#utility.yul\":2018:2021   */\n      dup5\n        /* \"#utility.yul\":2014:2053   */\n      add\n        /* \"#utility.yul\":2007:2053   */\n      swap2\n      pop\n        /* \"#utility.yul\":1774:2059   */\n      pop\n        /* \"#utility.yul\":1682:2059   */\n      swap3\n      swap2\n      pop\n      pop\n      jump\t// out\n        /* \"#utility.yul\":2065:3002   */\n    tag_16:\n        /* \"#utility.yul\":2330:2334   */\n      0x00\n        /* \"#utility.yul\":2368:2371   */\n      0xa0\n        /* \"#utility.yul\":2357:2366   */\n      dup3\n        /* \"#utility.yul\":2353:2372   */\n      add\n        /* \"#utility.yul\":2345:2372   */\n      swap1\n      pop\n        /* \"#utility.yul\":2382:2453   */\n      tag_215\n        /* \"#utility.yul\":2450:2451   */\n      0x00\n        /* \"#utility.yul\":2439:2448   */\n      dup4\n        /* \"#utility.yul\":2435:2452   */\n      add\n        /* \"#utility.yul\":2426:2432   */\n      dup9\n        /* \"#utility.yul\":2382:2453   */\n      tag_138\n      jump\t// in\n    tag_215:\n        /* \"#utility.yul\":2500:2509   */\n      dup2\n        /* \"#utility.yul\":2494:2498   */\n      dup2\n        /* \"#utility.yul\":2490:2510   */\n      sub\n        /* \"#utility.yul\":2485:2487   */\n      0x20\n        /* \"#utility.yul\":2474:2483   */\n      dup4\n        /* \"#utility.yul\":2470:2488   */\n      add\n        /* \"#utility.yul\":2463:2511   */\n      mstore\n        /* \"#utility.yul\":2528:2606   */\n      tag_216\n        /* \"#utility.yul\":2601:2605   */\n      dup2\n        /* \"#utility.yul\":2592:2598   */\n      dup8\n        /* \"#utility.yul\":2528:2606   */\n      tag_143\n      jump\t// in\n    tag_216:\n        /* \"#utility.yul\":2520:2606   */\n      swap1\n      pop\n        /* \"#utility.yul\":2653:2662   */\n      dup2\n        /* \"#utility.yul\":2647:2651   */\n      dup2\n        /* \"#utility.yul\":2643:2663   */\n      sub\n        /* \"#utility.yul\":2638:2640   */\n      0x40\n        /* \"#utility.yul\":2627:2636   */\n      dup4\n        /* \"#utility.yul\":2623:2641   */\n      add\n        /* \"#utility.yul\":2616:2664   */\n      mstore\n        /* \"#utility.yul\":2681:2759   */\n      tag_217\n        /* \"#utility.yul\":2754:2758   */\n      dup2\n        /* \"#utility.yul\":2745:2751   */\n      dup7\n        /* \"#utility.yul\":2681:2759   */\n      tag_143\n      jump\t// in\n    tag_217:\n        /* \"#utility.yul\":2673:2759   */\n      swap1\n      pop\n        /* \"#utility.yul\":2806:2815   */\n      dup2\n        /* \"#utility.yul\":2800:2804   */\n      dup2\n        /* \"#utility.yul\":2796:2816   */\n      sub\n        /* \"#utility.yul\":2791:2793   */\n      0x60\n        /* \"#utility.yul\":2780:2789   */\n      dup4\n        /* \"#utility.yul\":2776:2794   */\n      add\n        /* \"#utility.yul\":2769:2817   */\n      mstore\n        /* \"#utility.yul\":2834:2912   */\n      tag_218\n        /* \"#utility.yul\":2907:2911   */\n      dup2\n        /* \"#utility.yul\":2898:2904   */\n      dup6\n        /* \"#utility.yul\":2834:2912   */\n      tag_143\n      jump\t// in\n    tag_218:\n        /* \"#utility.yul\":2826:2912   */\n      swap1\n      pop\n        /* \"#utility.yul\":2922:2995   */\n      tag_219\n        /* \"#utility.yul\":2990:2993   */\n      0x80\n        /* \"#utility.yul\":2979:2988   */\n      dup4\n        /* \"#utility.yul\":2975:2994   */\n      add\n        /* \"#utility.yul\":2966:2972   */\n      dup5\n        /* \"#utility.yul\":2922:2995   */\n      tag_138\n      jump\t// in\n    tag_219:\n        /* \"#utility.yul\":2065:3002   */\n      swap7\n      swap6\n      pop\n      pop\n      pop\n      pop\n      pop\n      pop\n      jump\t// out\n        /* \"#utility.yul\":3008:3134   */\n    tag_144:\n        /* \"#utility.yul\":3045:3052   */\n      0x00\n        /* \"#utility.yul\":3085:3127   */\n      0xffffffffffffffffffffffffffffffffffffffff\n        /* \"#utility.yul\":3078:3083   */\n      dup3\n        /* \"#utility.yul\":3074:3128   */\n      and\n        /* \"#utility.yul\":3063:3128   */\n      swap1\n      pop\n        /* \"#utility.yul\":3008:3134   */\n      swap2\n      swap1\n      pop\n      jump\t// out\n        /* \"#utility.yul\":3140:3200   */\n    tag_145:\n        /* \"#utility.yul\":3168:3171   */\n      0x00\n        /* \"#utility.yul\":3189:3194   */\n      dup2\n        /* \"#utility.yul\":3182:3194   */\n      swap1\n      pop\n        /* \"#utility.yul\":3140:3200   */\n      swap2\n      swap1\n      pop\n      jump\t// out\n        /* \"#utility.yul\":3206:3348   */\n    tag_146:\n        /* \"#utility.yul\":3256:3265   */\n      0x00\n        /* \"#utility.yul\":3289:3342   */\n      tag_223\n        /* \"#utility.yul\":3307:3341   */\n      tag_224\n        /* \"#utility.yul\":3316:3340   */\n      tag_225\n        /* \"#utility.yul\":3334:3339   */\n      dup5\n        /* \"#utility.yul\":3316:3340   */\n      tag_144\n      jump\t// in\n    tag_225:\n        /* \"#utility.yul\":3307:3341   */\n      tag_145\n      jump\t// in\n    tag_224:\n        /* \"#utility.yul\":3289:3342   */\n      tag_144\n      jump\t// in\n    tag_223:\n        /* \"#utility.yul\":3276:3342   */\n      swap1\n      pop\n        /* \"#utility.yul\":3206:3348   */\n      swap2\n      swap1\n      pop\n      jump\t// out\n        /* \"#utility.yul\":3354:3480   */\n    tag_147:\n        /* \"#utility.yul\":3404:3413   */\n      0x00\n        /* \"#utility.yul\":3437:3474   */\n      tag_227\n        /* \"#utility.yul\":3468:3473   */\n      dup3\n        /* \"#utility.yul\":3437:3474   */\n      tag_146\n      jump\t// in\n    tag_227:\n        /* \"#utility.yul\":3424:3474   */\n      swap1\n      pop\n        /* \"#utility.yul\":3354:3480   */\n      swap2\n      swap1\n      pop\n      jump\t// out\n        /* \"#utility.yul\":3486:3632   */\n    tag_148:\n        /* \"#utility.yul\":3556:3565   */\n      0x00\n        /* \"#utility.yul\":3589:3626   */\n      tag_229\n        /* \"#utility.yul\":3620:3625   */\n      dup3\n        /* \"#utility.yul\":3589:3626   */\n      tag_147\n      jump\t// in\n    tag_229:\n        /* \"#utility.yul\":3576:3626   */\n      swap1\n      pop\n        /* \"#utility.yul\":3486:3632   */\n      swap2\n      swap1\n      pop\n      jump\t// out\n        /* \"#utility.yul\":3638:3809   */\n    tag_149:\n        /* \"#utility.yul\":3745:3802   */\n      tag_231\n        /* \"#utility.yul\":3796:3801   */\n      dup2\n        /* \"#utility.yul\":3745:3802   */\n      tag_148\n      jump\t// in\n    tag_231:\n        /* \"#utility.yul\":3740:3743   */\n      dup3\n        /* \"#utility.yul\":3733:3803   */\n      mstore\n        /* \"#utility.yul\":3638:3809   */\n      pop\n      pop\n      jump\t// out\n        /* \"#utility.yul\":3815:4077   */\n    tag_20:\n        /* \"#utility.yul\":3928:3932   */\n      0x00\n        /* \"#utility.yul\":3966:3968   */\n      0x20\n        /* \"#utility.yul\":3955:3964   */\n      dup3\n        /* \"#utility.yul\":3951:3969   */\n      add\n        /* \"#utility.yul\":3943:3969   */\n      swap1\n      pop\n        /* \"#utility.yul\":3979:4070   */\n      tag_233\n        /* \"#utility.yul\":4067:4068   */\n      0x00\n        /* \"#utility.yul\":4056:4065   */\n      dup4\n        /* \"#utility.yul\":4052:4069   */\n      add\n        /* \"#utility.yul\":4043:4049   */\n      dup5\n        /* \"#utility.yul\":3979:4070   */\n      tag_149\n      jump\t// in\n    tag_233:\n        /* \"#utility.yul\":3815:4077   */\n      swap3\n      swap2\n      pop\n      pop\n      jump\t// out\n        /* \"#utility.yul\":4083:4200   */\n    tag_150:\n        /* \"#utility.yul\":4192:4193   */\n      0x00\n        /* \"#utility.yul\":4189:4190   */\n      0x00\n        /* \"#utility.yul\":4182:4194   */\n      revert\n        /* \"#utility.yul\":4206:4323   */\n    tag_151:\n        /* \"#utility.yul\":4315:4316   */\n      0x00\n        /* \"#utility.yul\":4312:4313   */\n      0x00\n        /* \"#utility.yul\":4305:4317   */\n      revert\n        /* \"#utility.yul\":4329:4509   */\n    tag_152:\n        /* \"#utility.yul\":4377:4454   */\n      0x4e487b7100000000000000000000000000000000000000000000000000000000\n        /* \"#utility.yul\":4374:4375   */\n      0x00\n        /* \"#utility.yul\":4367:4455   */\n      mstore\n        /* \"#utility.yul\":4474:4478   */\n      0x41\n        /* \"#utility.yul\":4471:4472   */\n      0x04\n        /* \"#utility.yul\":4464:4479   */\n      mstore\n        /* \"#utility.yul\":4498:4502   */\n      0x24\n        /* \"#utility.yul\":4495:4496   */\n      0x00\n        /* \"#utility.yul\":4488:4503   */\n      revert\n        /* \"#utility.yul\":4515:4796   */\n    tag_153:\n        /* \"#utility.yul\":4598:4625   */\n      tag_238\n        /* \"#utility.yul\":4620:4624   */\n      dup3\n        /* \"#utility.yul\":4598:4625   */\n      tag_142\n      jump\t// in\n    tag_238:\n        /* \"#utility.yul\":4590:4596   */\n      dup2\n        /* \"#utility.yul\":4586:4626   */\n      add\n        /* \"#utility.yul\":4728:4734   */\n      dup2\n        /* \"#utility.yul\":4716:4726   */\n      dup2\n        /* \"#utility.yul\":4713:4735   */\n      lt\n        /* \"#utility.yul\":4692:4710   */\n      0xffffffffffffffff\n        /* \"#utility.yul\":4680:4690   */\n      dup3\n        /* \"#utility.yul\":4677:4711   */\n      gt\n        /* \"#utility.yul\":4674:4736   */\n      or\n        /* \"#utility.yul\":4671:4759   */\n      iszero\n      tag_239\n      jumpi\n        /* \"#utility.yul\":4739:4757   */\n      tag_240\n      tag_152\n      jump\t// in\n    tag_240:\n        /* \"#utility.yul\":4671:4759   */\n    tag_239:\n        /* \"#utility.yul\":4779:4789   */\n      dup1\n        /* \"#utility.yul\":4775:4777   */\n      0x40\n        /* \"#utility.yul\":4768:4790   */\n      mstore\n        /* \"#utility.yul\":4558:4796   */\n      pop\n        /* \"#utility.yul\":4515:4796   */\n      pop\n      pop\n      jump\t// out\n        /* \"#utility.yul\":4802:4931   */\n    tag_154:\n        /* \"#utility.yul\":4836:4842   */\n      0x00\n        /* \"#utility.yul\":4863:4883   */\n      tag_242\n      tag_132\n      jump\t// in\n    tag_242:\n        /* \"#utility.yul\":4853:4883   */\n      swap1\n      pop\n        /* \"#utility.yul\":4892:4925   */\n      tag_243\n        /* \"#utility.yul\":4920:4924   */\n      dup3\n        /* \"#utility.yul\":4912:4918   */\n      dup3\n        /* \"#utility.yul\":4892:4925   */\n      tag_153\n      jump\t// in\n    tag_243:\n        /* \"#utility.yul\":4802:4931   */\n      swap2\n      swap1\n      pop\n      jump\t// out\n        /* \"#utility.yul\":4937:5245   */\n    tag_155:\n        /* \"#utility.yul\":4999:5003   */\n      0x00\n        /* \"#utility.yul\":5089:5107   */\n      0xffffffffffffffff\n        /* \"#utility.yul\":5081:5087   */\n      dup3\n        /* \"#utility.yul\":5078:5108   */\n      gt\n        /* \"#utility.yul\":5075:5131   */\n      iszero\n      tag_245\n      jumpi\n        /* \"#utility.yul\":5111:5129   */\n      tag_246\n      tag_152\n      jump\t// in\n    tag_246:\n        /* \"#utility.yul\":5075:5131   */\n    tag_245:\n        /* \"#utility.yul\":5149:5178   */\n      tag_247\n        /* \"#utility.yul\":5171:5177   */\n      dup3\n        /* \"#utility.yul\":5149:5178   */\n      tag_142\n      jump\t// in\n    tag_247:\n        /* \"#utility.yul\":5141:5178   */\n      swap1\n      pop\n        /* \"#utility.yul\":5233:5237   */\n      0x20\n        /* \"#utility.yul\":5227:5231   */\n      dup2\n        /* \"#utility.yul\":5223:5238   */\n      add\n        /* \"#utility.yul\":5215:5238   */\n      swap1\n      pop\n        /* \"#utility.yul\":4937:5245   */\n      swap2\n      swap1\n      pop\n      jump\t// out\n        /* \"#utility.yul\":5251:5399   */\n    tag_156:\n        /* \"#utility.yul\":5349:5355   */\n      dup3\n        /* \"#utility.yul\":5344:5347   */\n      dup2\n        /* \"#utility.yul\":5339:5342   */\n      dup4\n        /* \"#utility.yul\":5326:5356   */\n      calldatacopy\n        /* \"#utility.yul\":5390:5391   */\n      0x00\n        /* \"#utility.yul\":5381:5387   */\n      dup4\n        /* \"#utility.yul\":5376:5379   */\n      dup4\n        /* \"#utility.yul\":5372:5388   */\n      add\n        /* \"#utility.yul\":5365:5392   */\n      mstore\n        /* \"#utility.yul\":5251:5399   */\n      pop\n      pop\n      pop\n      jump\t// out\n        /* \"#utility.yul\":5405:5830   */\n    tag_157:\n        /* \"#utility.yul\":5483:5488   */\n      0x00\n        /* \"#utility.yul\":5508:5574   */\n      tag_250\n        /* \"#utility.yul\":5524:5573   */\n      tag_251\n        /* \"#utility.yul\":5566:5572   */\n      dup5\n        /* \"#utility.yul\":5524:5573   */\n      tag_155\n      jump\t// in\n    tag_251:\n        /* \"#utility.yul\":5508:5574   */\n      tag_154\n      jump\t// in\n    tag_250:\n        /* \"#utility.yul\":5499:5574   */\n      swap1\n      pop\n        /* \"#utility.yul\":5597:5603   */\n      dup3\n        /* \"#utility.yul\":5590:5595   */\n      dup2\n        /* \"#utility.yul\":5583:5604   */\n      mstore\n        /* \"#utility.yul\":5635:5639   */\n      0x20\n        /* \"#utility.yul\":5628:5633   */\n      dup2\n        /* \"#utility.yul\":5624:5640   */\n      add\n        /* \"#utility.yul\":5673:5676   */\n      dup5\n        /* \"#utility.yul\":5664:5670   */\n      dup5\n        /* \"#utility.yul\":5659:5662   */\n      dup5\n        /* \"#utility.yul\":5655:5671   */\n      add\n        /* \"#utility.yul\":5652:5677   */\n      gt\n        /* \"#utility.yul\":5649:5761   */\n      iszero\n      tag_252\n      jumpi\n        /* \"#utility.yul\":5680:5759   */\n      tag_253\n      tag_151\n      jump\t// in\n    tag_253:\n        /* \"#utility.yul\":5649:5761   */\n    tag_252:\n        /* \"#utility.yul\":5770:5824   */\n      tag_254\n        /* \"#utility.yul\":5817:5823   */\n      dup5\n        /* \"#utility.yul\":5812:5815   */\n      dup3\n        /* \"#utility.yul\":5807:5810   */\n      dup6\n        /* \"#utility.yul\":5770:5824   */\n      tag_156\n      jump\t// in\n    tag_254:\n        /* \"#utility.yul\":5489:5830   */\n      pop\n        /* \"#utility.yul\":5405:5830   */\n      swap4\n      swap3\n      pop\n      pop\n      pop\n      jump\t// out\n        /* \"#utility.yul\":5850:6190   */\n    tag_158:\n        /* \"#utility.yul\":5906:5911   */\n      0x00\n        /* \"#utility.yul\":5955:5958   */\n      dup3\n        /* \"#utility.yul\":5948:5952   */\n      0x1f\n        /* \"#utility.yul\":5940:5946   */\n      dup4\n        /* \"#utility.yul\":5936:5953   */\n      add\n        /* \"#utility.yul\":5932:5959   */\n      slt\n        /* \"#utility.yul\":5922:6044   */\n      tag_256\n      jumpi\n        /* \"#utility.yul\":5963:6042   */\n      tag_257\n      tag_150\n      jump\t// in\n    tag_257:\n        /* \"#utility.yul\":5922:6044   */\n    tag_256:\n        /* \"#utility.yul\":6080:6086   */\n      dup2\n        /* \"#utility.yul\":6067:6087   */\n      calldataload\n        /* \"#utility.yul\":6105:6184   */\n      tag_258\n        /* \"#utility.yul\":6180:6183   */\n      dup5\n        /* \"#utility.yul\":6172:6178   */\n      dup3\n        /* \"#utility.yul\":6165:6169   */\n      0x20\n        /* \"#utility.yul\":6157:6163   */\n      dup7\n        /* \"#utility.yul\":6153:6170   */\n      add\n        /* \"#utility.yul\":6105:6184   */\n      tag_157\n      jump\t// in\n    tag_258:\n        /* \"#utility.yul\":6096:6184   */\n      swap2\n      pop\n        /* \"#utility.yul\":5912:6190   */\n      pop\n        /* \"#utility.yul\":5850:6190   */\n      swap3\n      swap2\n      pop\n      pop\n      jump\t// out\n        /* \"#utility.yul\":6196:6705   */\n    tag_23:\n        /* \"#utility.yul\":6265:6271   */\n      0x00\n        /* \"#utility.yul\":6314:6316   */\n      0x20\n        /* \"#utility.yul\":6302:6311   */\n      dup3\n        /* \"#utility.yul\":6293:6300   */\n      dup5\n        /* \"#utility.yul\":6289:6312   */\n      sub\n        /* \"#utility.yul\":6285:6317   */\n      slt\n        /* \"#utility.yul\":6282:6401   */\n      iszero\n      tag_260\n      jumpi\n        /* \"#utility.yul\":6320:6399   */\n      tag_261\n      tag_133\n      jump\t// in\n    tag_261:\n        /* \"#utility.yul\":6282:6401   */\n    tag_260:\n        /* \"#utility.yul\":6468:6469   */\n      0x00\n        /* \"#utility.yul\":6457:6466   */\n      dup3\n        /* \"#utility.yul\":6453:6470   */\n      add\n        /* \"#utility.yul\":6440:6471   */\n      calldataload\n        /* \"#utility.yul\":6498:6516   */\n      0xffffffffffffffff\n        /* \"#utility.yul\":6490:6496   */\n      dup2\n        /* \"#utility.yul\":6487:6517   */\n      gt\n        /* \"#utility.yul\":6484:6601   */\n      iszero\n      tag_262\n      jumpi\n        /* \"#utility.yul\":6520:6599   */\n      tag_263\n      tag_134\n      jump\t// in\n    tag_263:\n        /* \"#utility.yul\":6484:6601   */\n    tag_262:\n        /* \"#utility.yul\":6625:6688   */\n      tag_264\n        /* \"#utility.yul\":6680:6687   */\n      dup5\n        /* \"#utility.yul\":6671:6677   */\n      dup3\n        /* \"#utility.yul\":6660:6669   */\n      dup6\n        /* \"#utility.yul\":6656:6678   */\n      add\n        /* \"#utility.yul\":6625:6688   */\n      tag_158\n      jump\t// in\n    tag_264:\n        /* \"#utility.yul\":6615:6688   */\n      swap2\n      pop\n        /* \"#utility.yul\":6411:6698   */\n      pop\n        /* \"#utility.yul\":6196:6705   */\n      swap3\n      swap2\n      pop\n      pop\n      jump\t// out\n        /* \"#utility.yul\":6711:7043   */\n    tag_26:\n        /* \"#utility.yul\":6832:6836   */\n      0x00\n        /* \"#utility.yul\":6870:6872   */\n      0x40\n        /* \"#utility.yul\":6859:6868   */\n      dup3\n        /* \"#utility.yul\":6855:6873   */\n      add\n        /* \"#utility.yul\":6847:6873   */\n      swap1\n      pop\n        /* \"#utility.yul\":6883:6954   */\n      tag_266\n        /* \"#utility.yul\":6951:6952   */\n      0x00\n        /* \"#utility.yul\":6940:6949   */\n      dup4\n        /* \"#utility.yul\":6936:6953   */\n      add\n        /* \"#utility.yul\":6927:6933   */\n      dup6\n        /* \"#utility.yul\":6883:6954   */\n      tag_138\n      jump\t// in\n    tag_266:\n        /* \"#utility.yul\":6964:7036   */\n      tag_267\n        /* \"#utility.yul\":7032:7034   */\n      0x20\n        /* \"#utility.yul\":7021:7030   */\n      dup4\n        /* \"#utility.yul\":7017:7035   */\n      add\n        /* \"#utility.yul\":7008:7014   */\n      dup5\n        /* \"#utility.yul\":6964:7036   */\n      tag_138\n      jump\t// in\n    tag_267:\n        /* \"#utility.yul\":6711:7043   */\n      swap4\n      swap3\n      pop\n      pop\n      pop\n      jump\t// out\n        /* \"#utility.yul\":7049:7157   */\n    tag_159:\n        /* \"#utility.yul\":7126:7150   */\n      tag_269\n        /* \"#utility.yul\":7144:7149   */\n      dup2\n        /* \"#utility.yul\":7126:7150   */\n      tag_135\n      jump\t// in\n    tag_269:\n        /* \"#utility.yul\":7121:7124   */\n      dup3\n        /* \"#utility.yul\":7114:7151   */\n      mstore\n        /* \"#utility.yul\":7049:7157   */\n      pop\n      pop\n      jump\t// out\n        /* \"#utility.yul\":7163:7322   */\n    tag_160:\n        /* \"#utility.yul\":7237:7248   */\n      0x00\n        /* \"#utility.yul\":7271:7277   */\n      dup3\n        /* \"#utility.yul\":7266:7269   */\n      dup3\n        /* \"#utility.yul\":7259:7278   */\n      mstore\n        /* \"#utility.yul\":7311:7315   */\n      0x20\n        /* \"#utility.yul\":7306:7309   */\n      dup3\n        /* \"#utility.yul\":7302:7316   */\n      add\n        /* \"#utility.yul\":7287:7316   */\n      swap1\n      pop\n        /* \"#utility.yul\":7163:7322   */\n      swap3\n      swap2\n      pop\n      pop\n      jump\t// out\n        /* \"#utility.yul\":7328:7685   */\n    tag_161:\n        /* \"#utility.yul\":7406:7409   */\n      0x00\n        /* \"#utility.yul\":7434:7473   */\n      tag_272\n        /* \"#utility.yul\":7467:7472   */\n      dup3\n        /* \"#utility.yul\":7434:7473   */\n      tag_139\n      jump\t// in\n    tag_272:\n        /* \"#utility.yul\":7489:7550   */\n      tag_273\n        /* \"#utility.yul\":7543:7549   */\n      dup2\n        /* \"#utility.yul\":7538:7541   */\n      dup6\n        /* \"#utility.yul\":7489:7550   */\n      tag_160\n      jump\t// in\n    tag_273:\n        /* \"#utility.yul\":7482:7550   */\n      swap4\n      pop\n        /* \"#utility.yul\":7559:7624   */\n      tag_274\n        /* \"#utility.yul\":7617:7623   */\n      dup2\n        /* \"#utility.yul\":7612:7615   */\n      dup6\n        /* \"#utility.yul\":7605:7609   */\n      0x20\n        /* \"#utility.yul\":7598:7603   */\n      dup7\n        /* \"#utility.yul\":7594:7610   */\n      add\n        /* \"#utility.yul\":7559:7624   */\n      tag_141\n      jump\t// in\n    tag_274:\n        /* \"#utility.yul\":7649:7678   */\n      tag_275\n        /* \"#utility.yul\":7671:7677   */\n      dup2\n        /* \"#utility.yul\":7649:7678   */\n      tag_142\n      jump\t// in\n    tag_275:\n        /* \"#utility.yul\":7644:7647   */\n      dup5\n        /* \"#utility.yul\":7640:7679   */\n      add\n        /* \"#utility.yul\":7633:7679   */\n      swap2\n      pop\n        /* \"#utility.yul\":7410:7685   */\n      pop\n        /* \"#utility.yul\":7328:7685   */\n      swap3\n      swap2\n      pop\n      pop\n      jump\t// out\n        /* \"#utility.yul\":7761:9030   */\n    tag_162:\n        /* \"#utility.yul\":7876:7879   */\n      0x00\n        /* \"#utility.yul\":7912:7916   */\n      0xa0\n        /* \"#utility.yul\":7907:7910   */\n      dup4\n        /* \"#utility.yul\":7903:7917   */\n      add\n        /* \"#utility.yul\":7997:8001   */\n      0x00\n        /* \"#utility.yul\":7990:7995   */\n      dup4\n        /* \"#utility.yul\":7986:8002   */\n      add\n        /* \"#utility.yul\":7980:8003   */\n      mload\n        /* \"#utility.yul\":8016:8079   */\n      tag_277\n        /* \"#utility.yul\":8073:8077   */\n      0x00\n        /* \"#utility.yul\":8068:8071   */\n      dup7\n        /* \"#utility.yul\":8064:8078   */\n      add\n        /* \"#utility.yul\":8050:8062   */\n      dup3\n        /* \"#utility.yul\":8016:8079   */\n      tag_159\n      jump\t// in\n    tag_277:\n        /* \"#utility.yul\":7927:8089   */\n      pop\n        /* \"#utility.yul\":8171:8175   */\n      0x20\n        /* \"#utility.yul\":8164:8169   */\n      dup4\n        /* \"#utility.yul\":8160:8176   */\n      add\n        /* \"#utility.yul\":8154:8177   */\n      mload\n        /* \"#utility.yul\":8224:8227   */\n      dup5\n        /* \"#utility.yul\":8218:8222   */\n      dup3\n        /* \"#utility.yul\":8214:8228   */\n      sub\n        /* \"#utility.yul\":8207:8211   */\n      0x20\n        /* \"#utility.yul\":8202:8205   */\n      dup7\n        /* \"#utility.yul\":8198:8212   */\n      add\n        /* \"#utility.yul\":8191:8229   */\n      mstore\n        /* \"#utility.yul\":8250:8323   */\n      tag_278\n        /* \"#utility.yul\":8318:8322   */\n      dup3\n        /* \"#utility.yul\":8304:8316   */\n      dup3\n        /* \"#utility.yul\":8250:8323   */\n      tag_161\n      jump\t// in\n    tag_278:\n        /* \"#utility.yul\":8242:8323   */\n      swap2\n      pop\n        /* \"#utility.yul\":8099:8334   */\n      pop\n        /* \"#utility.yul\":8421:8425   */\n      0x40\n        /* \"#utility.yul\":8414:8419   */\n      dup4\n        /* \"#utility.yul\":8410:8426   */\n      add\n        /* \"#utility.yul\":8404:8427   */\n      mload\n        /* \"#utility.yul\":8474:8477   */\n      dup5\n        /* \"#utility.yul\":8468:8472   */\n      dup3\n        /* \"#utility.yul\":8464:8478   */\n      sub\n        /* \"#utility.yul\":8457:8461   */\n      0x40\n        /* \"#utility.yul\":8452:8455   */\n      dup7\n        /* \"#utility.yul\":8448:8462   */\n      add\n        /* \"#utility.yul\":8441:8479   */\n      mstore\n        /* \"#utility.yul\":8500:8573   */\n      tag_279\n        /* \"#utility.yul\":8568:8572   */\n      dup3\n        /* \"#utility.yul\":8554:8566   */\n      dup3\n        /* \"#utility.yul\":8500:8573   */\n      tag_161\n      jump\t// in\n    tag_279:\n        /* \"#utility.yul\":8492:8573   */\n      swap2\n      pop\n        /* \"#utility.yul\":8344:8584   */\n      pop\n        /* \"#utility.yul\":8667:8671   */\n      0x60\n        /* \"#utility.yul\":8660:8665   */\n      dup4\n        /* \"#utility.yul\":8656:8672   */\n      add\n        /* \"#utility.yul\":8650:8673   */\n      mload\n        /* \"#utility.yul\":8720:8723   */\n      dup5\n        /* \"#utility.yul\":8714:8718   */\n      dup3\n        /* \"#utility.yul\":8710:8724   */\n      sub\n        /* \"#utility.yul\":8703:8707   */\n      0x60\n        /* \"#utility.yul\":8698:8701   */\n      dup7\n        /* \"#utility.yul\":8694:8708   */\n      add\n        /* \"#utility.yul\":8687:8725   */\n      mstore\n        /* \"#utility.yul\":8746:8819   */\n      tag_280\n        /* \"#utility.yul\":8814:8818   */\n      dup3\n        /* \"#utility.yul\":8800:8812   */\n      dup3\n        /* \"#utility.yul\":8746:8819   */\n      tag_161\n      jump\t// in\n    tag_280:\n        /* \"#utility.yul\":8738:8819   */\n      swap2\n      pop\n        /* \"#utility.yul\":8594:8830   */\n      pop\n        /* \"#utility.yul\":8911:8915   */\n      0x80\n        /* \"#utility.yul\":8904:8909   */\n      dup4\n        /* \"#utility.yul\":8900:8916   */\n      add\n        /* \"#utility.yul\":8894:8917   */\n      mload\n        /* \"#utility.yul\":8930:8993   */\n      tag_281\n        /* \"#utility.yul\":8987:8991   */\n      0x80\n        /* \"#utility.yul\":8982:8985   */\n      dup7\n        /* \"#utility.yul\":8978:8992   */\n      add\n        /* \"#utility.yul\":8964:8976   */\n      dup3\n        /* \"#utility.yul\":8930:8993   */\n      tag_159\n      jump\t// in\n    tag_281:\n        /* \"#utility.yul\":8840:9003   */\n      pop\n        /* \"#utility.yul\":9020:9024   */\n      dup1\n        /* \"#utility.yul\":9013:9024   */\n      swap2\n      pop\n        /* \"#utility.yul\":7881:9030   */\n      pop\n        /* \"#utility.yul\":7761:9030   */\n      swap3\n      swap2\n      pop\n      pop\n      jump\t// out\n        /* \"#utility.yul\":9036:9401   */\n    tag_31:\n        /* \"#utility.yul\":9175:9179   */\n      0x00\n        /* \"#utility.yul\":9213:9215   */\n      0x20\n        /* \"#utility.yul\":9202:9211   */\n      dup3\n        /* \"#utility.yul\":9198:9216   */\n      add\n        /* \"#utility.yul\":9190:9216   */\n      swap1\n      pop\n        /* \"#utility.yul\":9262:9271   */\n      dup2\n        /* \"#utility.yul\":9256:9260   */\n      dup2\n        /* \"#utility.yul\":9252:9272   */\n      sub\n        /* \"#utility.yul\":9248:9249   */\n      0x00\n        /* \"#utility.yul\":9237:9246   */\n      dup4\n        /* \"#utility.yul\":9233:9250   */\n      add\n        /* \"#utility.yul\":9226:9273   */\n      mstore\n        /* \"#utility.yul\":9290:9394   */\n      tag_283\n        /* \"#utility.yul\":9389:9393   */\n      dup2\n        /* \"#utility.yul\":9380:9386   */\n      dup5\n        /* \"#utility.yul\":9290:9394   */\n      tag_162\n      jump\t// in\n    tag_283:\n        /* \"#utility.yul\":9282:9394   */\n      swap1\n      pop\n        /* \"#utility.yul\":9036:9401   */\n      swap3\n      swap2\n      pop\n      pop\n      jump\t// out\n        /* \"#utility.yul\":9407:10386   */\n    tag_34:\n        /* \"#utility.yul\":9504:9510   */\n      0x00\n        /* \"#utility.yul\":9512:9518   */\n      0x00\n        /* \"#utility.yul\":9520:9526   */\n      0x00\n        /* \"#utility.yul\":9569:9571   */\n      0x60\n        /* \"#utility.yul\":9557:9566   */\n      dup5\n        /* \"#utility.yul\":9548:9555   */\n      dup7\n        /* \"#utility.yul\":9544:9567   */\n      sub\n        /* \"#utility.yul\":9540:9572   */\n      slt\n        /* \"#utility.yul\":9537:9656   */\n      iszero\n      tag_285\n      jumpi\n        /* \"#utility.yul\":9575:9654   */\n      tag_286\n      tag_133\n      jump\t// in\n    tag_286:\n        /* \"#utility.yul\":9537:9656   */\n    tag_285:\n        /* \"#utility.yul\":9723:9724   */\n      0x00\n        /* \"#utility.yul\":9712:9721   */\n      dup5\n        /* \"#utility.yul\":9708:9725   */\n      add\n        /* \"#utility.yul\":9695:9726   */\n      calldataload\n        /* \"#utility.yul\":9753:9771   */\n      0xffffffffffffffff\n        /* \"#utility.yul\":9745:9751   */\n      dup2\n        /* \"#utility.yul\":9742:9772   */\n      gt\n        /* \"#utility.yul\":9739:9856   */\n      iszero\n      tag_287\n      jumpi\n        /* \"#utility.yul\":9775:9854   */\n      tag_288\n      tag_134\n      jump\t// in\n    tag_288:\n        /* \"#utility.yul\":9739:9856   */\n    tag_287:\n        /* \"#utility.yul\":9880:9943   */\n      tag_289\n        /* \"#utility.yul\":9935:9942   */\n      dup7\n        /* \"#utility.yul\":9926:9932   */\n      dup3\n        /* \"#utility.yul\":9915:9924   */\n      dup8\n        /* \"#utility.yul\":9911:9933   */\n      add\n        /* \"#utility.yul\":9880:9943   */\n      tag_158\n      jump\t// in\n    tag_289:\n        /* \"#utility.yul\":9870:9943   */\n      swap4\n      pop\n        /* \"#utility.yul\":9666:9953   */\n      pop\n        /* \"#utility.yul\":10020:10022   */\n      0x20\n        /* \"#utility.yul\":10009:10018   */\n      dup5\n        /* \"#utility.yul\":10005:10023   */\n      add\n        /* \"#utility.yul\":9992:10024   */\n      calldataload\n        /* \"#utility.yul\":10051:10069   */\n      0xffffffffffffffff\n        /* \"#utility.yul\":10043:10049   */\n      dup2\n        /* \"#utility.yul\":10040:10070   */\n      gt\n        /* \"#utility.yul\":10037:10154   */\n      iszero\n      tag_290\n      jumpi\n        /* \"#utility.yul\":10073:10152   */\n      tag_291\n      tag_134\n      jump\t// in\n    tag_291:\n        /* \"#utility.yul\":10037:10154   */\n    tag_290:\n        /* \"#utility.yul\":10178:10241   */\n      tag_292\n        /* \"#utility.yul\":10233:10240   */\n      dup7\n        /* \"#utility.yul\":10224:10230   */\n      dup3\n        /* \"#utility.yul\":10213:10222   */\n      dup8\n        /* \"#utility.yul\":10209:10231   */\n      add\n        /* \"#utility.yul\":10178:10241   */\n      tag_158\n      jump\t// in\n    tag_292:\n        /* \"#utility.yul\":10168:10241   */\n      swap3\n      pop\n        /* \"#utility.yul\":9963:10251   */\n      pop\n        /* \"#utility.yul\":10290:10292   */\n      0x40\n        /* \"#utility.yul\":10316:10369   */\n      tag_293\n        /* \"#utility.yul\":10361:10368   */\n      dup7\n        /* \"#utility.yul\":10352:10358   */\n      dup3\n        /* \"#utility.yul\":10341:10350   */\n      dup8\n        /* \"#utility.yul\":10337:10359   */\n      add\n        /* \"#utility.yul\":10316:10369   */\n      tag_137\n      jump\t// in\n    tag_293:\n        /* \"#utility.yul\":10306:10369   */\n      swap2\n      pop\n        /* \"#utility.yul\":10261:10379   */\n      pop\n        /* \"#utility.yul\":9407:10386   */\n      swap3\n      pop\n      swap3\n      pop\n      swap3\n      jump\t// out\n        /* \"#utility.yul\":10392:11046   */\n    tag_38:\n        /* \"#utility.yul\":10470:10476   */\n      0x00\n        /* \"#utility.yul\":10478:10484   */\n      0x00\n        /* \"#utility.yul\":10527:10529   */\n      0x40\n        /* \"#utility.yul\":10515:10524   */\n      dup4\n        /* \"#utility.yul\":10506:10513   */\n      dup6\n        /* \"#utility.yul\":10502:10525   */\n      sub\n        /* \"#utility.yul\":10498:10530   */\n      slt\n        /* \"#utility.yul\":10495:10614   */\n      iszero\n      tag_295\n      jumpi\n        /* \"#utility.yul\":10533:10612   */\n      tag_296\n      tag_133\n      jump\t// in\n    tag_296:\n        /* \"#utility.yul\":10495:10614   */\n    tag_295:\n        /* \"#utility.yul\":10653:10654   */\n      0x00\n        /* \"#utility.yul\":10678:10731   */\n      tag_297\n        /* \"#utility.yul\":10723:10730   */\n      dup6\n        /* \"#utility.yul\":10714:10720   */\n      dup3\n        /* \"#utility.yul\":10703:10712   */\n      dup7\n        /* \"#utility.yul\":10699:10721   */\n      add\n        /* \"#utility.yul\":10678:10731   */\n      tag_137\n      jump\t// in\n    tag_297:\n        /* \"#utility.yul\":10668:10731   */\n      swap3\n      pop\n        /* \"#utility.yul\":10624:10741   */\n      pop\n        /* \"#utility.yul\":10808:10810   */\n      0x20\n        /* \"#utility.yul\":10797:10806   */\n      dup4\n        /* \"#utility.yul\":10793:10811   */\n      add\n        /* \"#utility.yul\":10780:10812   */\n      calldataload\n        /* \"#utility.yul\":10839:10857   */\n      0xffffffffffffffff\n        /* \"#utility.yul\":10831:10837   */\n      dup2\n        /* \"#utility.yul\":10828:10858   */\n      gt\n        /* \"#utility.yul\":10825:10942   */\n      iszero\n      tag_298\n      jumpi\n        /* \"#utility.yul\":10861:10940   */\n      tag_299\n      tag_134\n      jump\t// in\n    tag_299:\n        /* \"#utility.yul\":10825:10942   */\n    tag_298:\n        /* \"#utility.yul\":10966:11029   */\n      tag_300\n        /* \"#utility.yul\":11021:11028   */\n      dup6\n        /* \"#utility.yul\":11012:11018   */\n      dup3\n        /* \"#utility.yul\":11001:11010   */\n      dup7\n        /* \"#utility.yul\":10997:11019   */\n      add\n        /* \"#utility.yul\":10966:11029   */\n      tag_158\n      jump\t// in\n    tag_300:\n        /* \"#utility.yul\":10956:11029   */\n      swap2\n      pop\n        /* \"#utility.yul\":10751:11039   */\n      pop\n        /* \"#utility.yul\":10392:11046   */\n      swap3\n      pop\n      swap3\n      swap1\n      pop\n      jump\t// out\n        /* \"#utility.yul\":11052:11274   */\n    tag_43:\n        /* \"#utility.yul\":11145:11149   */\n      0x00\n        /* \"#utility.yul\":11183:11185   */\n      0x20\n        /* \"#utility.yul\":11172:11181   */\n      dup3\n        /* \"#utility.yul\":11168:11186   */\n      add\n        /* \"#utility.yul\":11160:11186   */\n      swap1\n      pop\n        /* \"#utility.yul\":11196:11267   */\n      tag_302\n        /* \"#utility.yul\":11264:11265   */\n      0x00\n        /* \"#utility.yul\":11253:11262   */\n      dup4\n        /* \"#utility.yul\":11249:11266   */\n      add\n        /* \"#utility.yul\":11240:11246   */\n      dup5\n        /* \"#utility.yul\":11196:11267   */\n      tag_138\n      jump\t// in\n    tag_302:\n        /* \"#utility.yul\":11052:11274   */\n      swap3\n      swap2\n      pop\n      pop\n      jump\t// out\n        /* \"#utility.yul\":11280:11460   */\n    tag_163:\n        /* \"#utility.yul\":11328:11405   */\n      0x4e487b7100000000000000000000000000000000000000000000000000000000\n        /* \"#utility.yul\":11325:11326   */\n      0x00\n        /* \"#utility.yul\":11318:11406   */\n      mstore\n        /* \"#utility.yul\":11425:11429   */\n      0x22\n        /* \"#utility.yul\":11422:11423   */\n      0x04\n        /* \"#utility.yul\":11415:11430   */\n      mstore\n        /* \"#utility.yul\":11449:11453   */\n      0x24\n        /* \"#utility.yul\":11446:11447   */\n      0x00\n        /* \"#utility.yul\":11439:11454   */\n      revert\n        /* \"#utility.yul\":11466:11786   */\n    tag_45:\n        /* \"#utility.yul\":11510:11516   */\n      0x00\n        /* \"#utility.yul\":11547:11548   */\n      0x02\n        /* \"#utility.yul\":11541:11545   */\n      dup3\n        /* \"#utility.yul\":11537:11549   */\n      div\n        /* \"#utility.yul\":11527:11549   */\n      swap1\n      pop\n        /* \"#utility.yul\":11594:11595   */\n      0x01\n        /* \"#utility.yul\":11588:11592   */\n      dup3\n        /* \"#utility.yul\":11584:11596   */\n      and\n        /* \"#utility.yul\":11615:11633   */\n      dup1\n        /* \"#utility.yul\":11605:11686   */\n      tag_305\n      jumpi\n        /* \"#utility.yul\":11671:11675   */\n      0x7f\n        /* \"#utility.yul\":11663:11669   */\n      dup3\n        /* \"#utility.yul\":11659:11676   */\n      and\n        /* \"#utility.yul\":11649:11676   */\n      swap2\n      pop\n        /* \"#utility.yul\":11605:11686   */\n    tag_305:\n        /* \"#utility.yul\":11733:11735   */\n      0x20\n        /* \"#utility.yul\":11725:11731   */\n      dup3\n        /* \"#utility.yul\":11722:11736   */\n      lt\n        /* \"#utility.yul\":11702:11720   */\n      dup2\n        /* \"#utility.yul\":11699:11737   */\n      sub\n        /* \"#utility.yul\":11696:11780   */\n      tag_306\n      jumpi\n        /* \"#utility.yul\":11752:11770   */\n      tag_307\n      tag_163\n      jump\t// in\n    tag_307:\n        /* \"#utility.yul\":11696:11780   */\n    tag_306:\n        /* \"#utility.yul\":11517:11786   */\n      pop\n        /* \"#utility.yul\":11466:11786   */\n      swap2\n      swap1\n      pop\n      jump\t// out\n        /* \"#utility.yul\":11792:12105   */\n    tag_62:\n        /* \"#utility.yul\":11905:11909   */\n      0x00\n        /* \"#utility.yul\":11943:11945   */\n      0x20\n        /* \"#utility.yul\":11932:11941   */\n      dup3\n        /* \"#utility.yul\":11928:11946   */\n      add\n        /* \"#utility.yul\":11920:11946   */\n      swap1\n      pop\n        /* \"#utility.yul\":11992:12001   */\n      dup2\n        /* \"#utility.yul\":11986:11990   */\n      dup2\n        /* \"#utility.yul\":11982:12002   */\n      sub\n        /* \"#utility.yul\":11978:11979   */\n      0x00\n        /* \"#utility.yul\":11967:11976   */\n      dup4\n        /* \"#utility.yul\":11963:11980   */\n      add\n        /* \"#utility.yul\":11956:12003   */\n      mstore\n        /* \"#utility.yul\":12020:12098   */\n      tag_309\n        /* \"#utility.yul\":12093:12097   */\n      dup2\n        /* \"#utility.yul\":12084:12090   */\n      dup5\n        /* \"#utility.yul\":12020:12098   */\n      tag_143\n      jump\t// in\n    tag_309:\n        /* \"#utility.yul\":12012:12098   */\n      swap1\n      pop\n        /* \"#utility.yul\":11792:12105   */\n      swap3\n      swap2\n      pop\n      pop\n      jump\t// out\n        /* \"#utility.yul\":12111:12254   */\n    tag_164:\n        /* \"#utility.yul\":12168:12173   */\n      0x00\n        /* \"#utility.yul\":12199:12205   */\n      dup2\n        /* \"#utility.yul\":12193:12206   */\n      mload\n        /* \"#utility.yul\":12184:12206   */\n      swap1\n      pop\n        /* \"#utility.yul\":12215:12248   */\n      tag_311\n        /* \"#utility.yul\":12242:12247   */\n      dup2\n        /* \"#utility.yul\":12215:12248   */\n      tag_136\n      jump\t// in\n    tag_311:\n        /* \"#utility.yul\":12111:12254   */\n      swap3\n      swap2\n      pop\n      pop\n      jump\t// out\n        /* \"#utility.yul\":12260:12767   */\n    tag_66:\n        /* \"#utility.yul\":12339:12345   */\n      0x00\n        /* \"#utility.yul\":12347:12353   */\n      0x00\n        /* \"#utility.yul\":12396:12398   */\n      0x40\n        /* \"#utility.yul\":12384:12393   */\n      dup4\n        /* \"#utility.yul\":12375:12382   */\n      dup6\n        /* \"#utility.yul\":12371:12394   */\n      sub\n        /* \"#utility.yul\":12367:12399   */\n      slt\n        /* \"#utility.yul\":12364:12483   */\n      iszero\n      tag_313\n      jumpi\n        /* \"#utility.yul\":12402:12481   */\n      tag_314\n      tag_133\n      jump\t// in\n    tag_314:\n        /* \"#utility.yul\":12364:12483   */\n    tag_313:\n        /* \"#utility.yul\":12522:12523   */\n      0x00\n        /* \"#utility.yul\":12547:12611   */\n      tag_315\n        /* \"#utility.yul\":12603:12610   */\n      dup6\n        /* \"#utility.yul\":12594:12600   */\n      dup3\n        /* \"#utility.yul\":12583:12592   */\n      dup7\n        /* \"#utility.yul\":12579:12601   */\n      add\n        /* \"#utility.yul\":12547:12611   */\n      tag_164\n      jump\t// in\n    tag_315:\n        /* \"#utility.yul\":12537:12611   */\n      swap3\n      pop\n        /* \"#utility.yul\":12493:12621   */\n      pop\n        /* \"#utility.yul\":12660:12662   */\n      0x20\n        /* \"#utility.yul\":12686:12750   */\n      tag_316\n        /* \"#utility.yul\":12742:12749   */\n      dup6\n        /* \"#utility.yul\":12733:12739   */\n      dup3\n        /* \"#utility.yul\":12722:12731   */\n      dup7\n        /* \"#utility.yul\":12718:12740   */\n      add\n        /* \"#utility.yul\":12686:12750   */\n      tag_164\n      jump\t// in\n    tag_316:\n        /* \"#utility.yul\":12676:12750   */\n      swap2\n      pop\n        /* \"#utility.yul\":12631:12760   */\n      pop\n        /* \"#utility.yul\":12260:12767   */\n      swap3\n      pop\n      swap3\n      swap1\n      pop\n      jump\t// out\n        /* \"#utility.yul\":12773:12863   */\n    tag_165:\n        /* \"#utility.yul\":12807:12814   */\n      0x00\n        /* \"#utility.yul\":12850:12855   */\n      dup2\n        /* \"#utility.yul\":12843:12856   */\n      iszero\n        /* \"#utility.yul\":12836:12857   */\n      iszero\n        /* \"#utility.yul\":12825:12857   */\n      swap1\n      pop\n        /* \"#utility.yul\":12773:12863   */\n      swap2\n      swap1\n      pop\n      jump\t// out\n        /* \"#utility.yul\":12869:12985   */\n    tag_166:\n        /* \"#utility.yul\":12939:12960   */\n      tag_319\n        /* \"#utility.yul\":12954:12959   */\n      dup2\n        /* \"#utility.yul\":12939:12960   */\n      tag_165\n      jump\t// in\n    tag_319:\n        /* \"#utility.yul\":12932:12937   */\n      dup2\n        /* \"#utility.yul\":12929:12961   */\n      eq\n        /* \"#utility.yul\":12919:12979   */\n      tag_320\n      jumpi\n        /* \"#utility.yul\":12975:12976   */\n      0x00\n        /* \"#utility.yul\":12972:12973   */\n      0x00\n        /* \"#utility.yul\":12965:12977   */\n      revert\n        /* \"#utility.yul\":12919:12979   */\n    tag_320:\n        /* \"#utility.yul\":12869:12985   */\n      pop\n      jump\t// out\n        /* \"#utility.yul\":12991:13128   */\n    tag_167:\n        /* \"#utility.yul\":13045:13050   */\n      0x00\n        /* \"#utility.yul\":13076:13082   */\n      dup2\n        /* \"#utility.yul\":13070:13083   */\n      mload\n        /* \"#utility.yul\":13061:13083   */\n      swap1\n      pop\n        /* \"#utility.yul\":13092:13122   */\n      tag_322\n        /* \"#utility.yul\":13116:13121   */\n      dup2\n        /* \"#utility.yul\":13092:13122   */\n      tag_166\n      jump\t// in\n    tag_322:\n        /* \"#utility.yul\":12991:13128   */\n      swap3\n      swap2\n      pop\n      pop\n      jump\t// out\n        /* \"#utility.yul\":13134:13479   */\n    tag_90:\n        /* \"#utility.yul\":13201:13207   */\n      0x00\n        /* \"#utility.yul\":13250:13252   */\n      0x20\n        /* \"#utility.yul\":13238:13247   */\n      dup3\n        /* \"#utility.yul\":13229:13236   */\n      dup5\n        /* \"#utility.yul\":13225:13248   */\n      sub\n        /* \"#utility.yul\":13221:13253   */\n      slt\n        /* \"#utility.yul\":13218:13337   */\n      iszero\n      tag_324\n      jumpi\n        /* \"#utility.yul\":13256:13335   */\n      tag_325\n      tag_133\n      jump\t// in\n    tag_325:\n        /* \"#utility.yul\":13218:13337   */\n    tag_324:\n        /* \"#utility.yul\":13376:13377   */\n      0x00\n        /* \"#utility.yul\":13401:13462   */\n      tag_326\n        /* \"#utility.yul\":13454:13461   */\n      dup5\n        /* \"#utility.yul\":13445:13451   */\n      dup3\n        /* \"#utility.yul\":13434:13443   */\n      dup6\n        /* \"#utility.yul\":13430:13452   */\n      add\n        /* \"#utility.yul\":13401:13462   */\n      tag_167\n      jump\t// in\n    tag_326:\n        /* \"#utility.yul\":13391:13462   */\n      swap2\n      pop\n        /* \"#utility.yul\":13347:13472   */\n      pop\n        /* \"#utility.yul\":13134:13479   */\n      swap3\n      swap2\n      pop\n      pop\n      jump\t// out\n        /* \"#utility.yul\":13485:13655   */\n    tag_168:\n        /* \"#utility.yul\":13625:13647   */\n      0x436c61737320646f6573206e6f74206578697374000000000000000000000000\n        /* \"#utility.yul\":13621:13622   */\n      0x00\n        /* \"#utility.yul\":13613:13619   */\n      dup3\n        /* \"#utility.yul\":13609:13623   */\n      add\n        /* \"#utility.yul\":13602:13648   */\n      mstore\n        /* \"#utility.yul\":13485:13655   */\n      pop\n      jump\t// out\n        /* \"#utility.yul\":13661:14027   */\n    tag_169:\n        /* \"#utility.yul\":13803:13806   */\n      0x00\n        /* \"#utility.yul\":13824:13891   */\n      tag_329\n        /* \"#utility.yul\":13888:13890   */\n      0x14\n        /* \"#utility.yul\":13883:13886   */\n      dup4\n        /* \"#utility.yul\":13824:13891   */\n      tag_140\n      jump\t// in\n    tag_329:\n        /* \"#utility.yul\":13817:13891   */\n      swap2\n      pop\n        /* \"#utility.yul\":13900:13993   */\n      tag_330\n        /* \"#utility.yul\":13989:13992   */\n      dup3\n        /* \"#utility.yul\":13900:13993   */\n      tag_168\n      jump\t// in\n    tag_330:\n        /* \"#utility.yul\":14018:14020   */\n      0x20\n        /* \"#utility.yul\":14013:14016   */\n      dup3\n        /* \"#utility.yul\":14009:14021   */\n      add\n        /* \"#utility.yul\":14002:14021   */\n      swap1\n      pop\n        /* \"#utility.yul\":13661:14027   */\n      swap2\n      swap1\n      pop\n      jump\t// out\n        /* \"#utility.yul\":14033:14452   */\n    tag_93:\n        /* \"#utility.yul\":14199:14203   */\n      0x00\n        /* \"#utility.yul\":14237:14239   */\n      0x20\n        /* \"#utility.yul\":14226:14235   */\n      dup3\n        /* \"#utility.yul\":14222:14240   */\n      add\n        /* \"#utility.yul\":14214:14240   */\n      swap1\n      pop\n        /* \"#utility.yul\":14286:14295   */\n      dup2\n        /* \"#utility.yul\":14280:14284   */\n      dup2\n        /* \"#utility.yul\":14276:14296   */\n      sub\n        /* \"#utility.yul\":14272:14273   */\n      0x00\n        /* \"#utility.yul\":14261:14270   */\n      dup4\n        /* \"#utility.yul\":14257:14274   */\n      add\n        /* \"#utility.yul\":14250:14297   */\n      mstore\n        /* \"#utility.yul\":14314:14445   */\n      tag_332\n        /* \"#utility.yul\":14440:14444   */\n      dup2\n        /* \"#utility.yul\":14314:14445   */\n      tag_169\n      jump\t// in\n    tag_332:\n        /* \"#utility.yul\":14306:14445   */\n      swap1\n      pop\n        /* \"#utility.yul\":14033:14452   */\n      swap2\n      swap1\n      pop\n      jump\t// out\n        /* \"#utility.yul\":14458:14621   */\n    tag_170:\n        /* \"#utility.yul\":14598:14613   */\n      0x436c6173732069732066756c6c00000000000000000000000000000000000000\n        /* \"#utility.yul\":14594:14595   */\n      0x00\n        /* \"#utility.yul\":14586:14592   */\n      dup3\n        /* \"#utility.yul\":14582:14596   */\n      add\n        /* \"#utility.yul\":14575:14614   */\n      mstore\n        /* \"#utility.yul\":14458:14621   */\n      pop\n      jump\t// out\n        /* \"#utility.yul\":14627:14993   */\n    tag_171:\n        /* \"#utility.yul\":14769:14772   */\n      0x00\n        /* \"#utility.yul\":14790:14857   */\n      tag_335\n        /* \"#utility.yul\":14854:14856   */\n      0x0d\n        /* \"#utility.yul\":14849:14852   */\n      dup4\n        /* \"#utility.yul\":14790:14857   */\n      tag_140\n      jump\t// in\n    tag_335:\n        /* \"#utility.yul\":14783:14857   */\n      swap2\n      pop\n        /* \"#utility.yul\":14866:14959   */\n      tag_336\n        /* \"#utility.yul\":14955:14958   */\n      dup3\n        /* \"#utility.yul\":14866:14959   */\n      tag_170\n      jump\t// in\n    tag_336:\n        /* \"#utility.yul\":14984:14986   */\n      0x20\n        /* \"#utility.yul\":14979:14982   */\n      dup3\n        /* \"#utility.yul\":14975:14987   */\n      add\n        /* \"#utility.yul\":14968:14987   */\n      swap1\n      pop\n        /* \"#utility.yul\":14627:14993   */\n      swap2\n      swap1\n      pop\n      jump\t// out\n        /* \"#utility.yul\":14999:15418   */\n    tag_100:\n        /* \"#utility.yul\":15165:15169   */\n      0x00\n        /* \"#utility.yul\":15203:15205   */\n      0x20\n        /* \"#utility.yul\":15192:15201   */\n      dup3\n        /* \"#utility.yul\":15188:15206   */\n      add\n        /* \"#utility.yul\":15180:15206   */\n      swap1\n      pop\n        /* \"#utility.yul\":15252:15261   */\n      dup2\n        /* \"#utility.yul\":15246:15250   */\n      dup2\n        /* \"#utility.yul\":15242:15262   */\n      sub\n        /* \"#utility.yul\":15238:15239   */\n      0x00\n        /* \"#utility.yul\":15227:15236   */\n      dup4\n        /* \"#utility.yul\":15223:15240   */\n      add\n        /* \"#utility.yul\":15216:15263   */\n      mstore\n        /* \"#utility.yul\":15280:15411   */\n      tag_338\n        /* \"#utility.yul\":15406:15410   */\n      dup2\n        /* \"#utility.yul\":15280:15411   */\n      tag_171\n      jump\t// in\n    tag_338:\n        /* \"#utility.yul\":15272:15411   */\n      swap1\n      pop\n        /* \"#utility.yul\":14999:15418   */\n      swap2\n      swap1\n      pop\n      jump\t// out\n        /* \"#utility.yul\":15424:15858   */\n    tag_172:\n        /* \"#utility.yul\":15513:15518   */\n      0x00\n        /* \"#utility.yul\":15538:15604   */\n      tag_340\n        /* \"#utility.yul\":15554:15603   */\n      tag_341\n        /* \"#utility.yul\":15596:15602   */\n      dup5\n        /* \"#utility.yul\":15554:15603   */\n      tag_155\n      jump\t// in\n    tag_341:\n        /* \"#utility.yul\":15538:15604   */\n      tag_154\n      jump\t// in\n    tag_340:\n        /* \"#utility.yul\":15529:15604   */\n      swap1\n      pop\n        /* \"#utility.yul\":15627:15633   */\n      dup3\n        /* \"#utility.yul\":15620:15625   */\n      dup2\n        /* \"#utility.yul\":15613:15634   */\n      mstore\n        /* \"#utility.yul\":15665:15669   */\n      0x20\n        /* \"#utility.yul\":15658:15663   */\n      dup2\n        /* \"#utility.yul\":15654:15670   */\n      add\n        /* \"#utility.yul\":15703:15706   */\n      dup5\n        /* \"#utility.yul\":15694:15700   */\n      dup5\n        /* \"#utility.yul\":15689:15692   */\n      dup5\n        /* \"#utility.yul\":15685:15701   */\n      add\n        /* \"#utility.yul\":15682:15707   */\n      gt\n        /* \"#utility.yul\":15679:15791   */\n      iszero\n      tag_342\n      jumpi\n        /* \"#utility.yul\":15710:15789   */\n      tag_343\n      tag_151\n      jump\t// in\n    tag_343:\n        /* \"#utility.yul\":15679:15791   */\n    tag_342:\n        /* \"#utility.yul\":15800:15852   */\n      tag_344\n        /* \"#utility.yul\":15845:15851   */\n      dup5\n        /* \"#utility.yul\":15840:15843   */\n      dup3\n        /* \"#utility.yul\":15835:15838   */\n      dup6\n        /* \"#utility.yul\":15800:15852   */\n      tag_141\n      jump\t// in\n    tag_344:\n        /* \"#utility.yul\":15519:15858   */\n      pop\n        /* \"#utility.yul\":15424:15858   */\n      swap4\n      swap3\n      pop\n      pop\n      pop\n      jump\t// out\n        /* \"#utility.yul\":15878:16233   */\n    tag_173:\n        /* \"#utility.yul\":15945:15950   */\n      0x00\n        /* \"#utility.yul\":15994:15997   */\n      dup3\n        /* \"#utility.yul\":15987:15991   */\n      0x1f\n        /* \"#utility.yul\":15979:15985   */\n      dup4\n        /* \"#utility.yul\":15975:15992   */\n      add\n        /* \"#utility.yul\":15971:15998   */\n      slt\n        /* \"#utility.yul\":15961:16083   */\n      tag_346\n      jumpi\n        /* \"#utility.yul\":16002:16081   */\n      tag_347\n      tag_150\n      jump\t// in\n    tag_347:\n        /* \"#utility.yul\":15961:16083   */\n    tag_346:\n        /* \"#utility.yul\":16112:16118   */\n      dup2\n        /* \"#utility.yul\":16106:16119   */\n      mload\n        /* \"#utility.yul\":16137:16227   */\n      tag_348\n        /* \"#utility.yul\":16223:16226   */\n      dup5\n        /* \"#utility.yul\":16215:16221   */\n      dup3\n        /* \"#utility.yul\":16208:16212   */\n      0x20\n        /* \"#utility.yul\":16200:16206   */\n      dup7\n        /* \"#utility.yul\":16196:16213   */\n      add\n        /* \"#utility.yul\":16137:16227   */\n      tag_172\n      jump\t// in\n    tag_348:\n        /* \"#utility.yul\":16128:16227   */\n      swap2\n      pop\n        /* \"#utility.yul\":15951:16233   */\n      pop\n        /* \"#utility.yul\":15878:16233   */\n      swap3\n      swap2\n      pop\n      pop\n      jump\t// out\n        /* \"#utility.yul\":16239:16763   */\n    tag_105:\n        /* \"#utility.yul\":16319:16325   */\n      0x00\n        /* \"#utility.yul\":16368:16370   */\n      0x20\n        /* \"#utility.yul\":16356:16365   */\n      dup3\n        /* \"#utility.yul\":16347:16354   */\n      dup5\n        /* \"#utility.yul\":16343:16366   */\n      sub\n        /* \"#utility.yul\":16339:16371   */\n      slt\n        /* \"#utility.yul\":16336:16455   */\n      iszero\n      tag_350\n      jumpi\n        /* \"#utility.yul\":16374:16453   */\n      tag_351\n      tag_133\n      jump\t// in\n    tag_351:\n        /* \"#utility.yul\":16336:16455   */\n    tag_350:\n        /* \"#utility.yul\":16515:16516   */\n      0x00\n        /* \"#utility.yul\":16504:16513   */\n      dup3\n        /* \"#utility.yul\":16500:16517   */\n      add\n        /* \"#utility.yul\":16494:16518   */\n      mload\n        /* \"#utility.yul\":16545:16563   */\n      0xffffffffffffffff\n        /* \"#utility.yul\":16537:16543   */\n      dup2\n        /* \"#utility.yul\":16534:16564   */\n      gt\n        /* \"#utility.yul\":16531:16648   */\n      iszero\n      tag_352\n      jumpi\n        /* \"#utility.yul\":16567:16646   */\n      tag_353\n      tag_134\n      jump\t// in\n    tag_353:\n        /* \"#utility.yul\":16531:16648   */\n    tag_352:\n        /* \"#utility.yul\":16672:16746   */\n      tag_354\n        /* \"#utility.yul\":16738:16745   */\n      dup5\n        /* \"#utility.yul\":16729:16735   */\n      dup3\n        /* \"#utility.yul\":16718:16727   */\n      dup6\n        /* \"#utility.yul\":16714:16736   */\n      add\n        /* \"#utility.yul\":16672:16746   */\n      tag_173\n      jump\t// in\n    tag_354:\n        /* \"#utility.yul\":16662:16746   */\n      swap2\n      pop\n        /* \"#utility.yul\":16465:16756   */\n      pop\n        /* \"#utility.yul\":16239:16763   */\n      swap3\n      swap2\n      pop\n      pop\n      jump\t// out\n        /* \"#utility.yul\":16769:16910   */\n    tag_174:\n        /* \"#utility.yul\":16818:16822   */\n      0x00\n        /* \"#utility.yul\":16841:16844   */\n      dup2\n        /* \"#utility.yul\":16833:16844   */\n      swap1\n      pop\n        /* \"#utility.yul\":16864:16867   */\n      dup2\n        /* \"#utility.yul\":16861:16862   */\n      0x00\n        /* \"#utility.yul\":16854:16868   */\n      mstore\n        /* \"#utility.yul\":16898:16902   */\n      0x20\n        /* \"#utility.yul\":16895:16896   */\n      0x00\n        /* \"#utility.yul\":16885:16903   */\n      keccak256\n        /* \"#utility.yul\":16877:16903   */\n      swap1\n      pop\n        /* \"#utility.yul\":16769:16910   */\n      swap2\n      swap1\n      pop\n      jump\t// out\n        /* \"#utility.yul\":16916:17009   */\n    tag_175:\n        /* \"#utility.yul\":16953:16959   */\n      0x00\n        /* \"#utility.yul\":17000:17002   */\n      0x20\n        /* \"#utility.yul\":16995:16997   */\n      0x1f\n        /* \"#utility.yul\":16988:16993   */\n      dup4\n        /* \"#utility.yul\":16984:16998   */\n      add\n        /* \"#utility.yul\":16980:17003   */\n      div\n        /* \"#utility.yul\":16970:17003   */\n      swap1\n      pop\n        /* \"#utility.yul\":16916:17009   */\n      swap2\n      swap1\n      pop\n      jump\t// out\n        /* \"#utility.yul\":17015:17122   */\n    tag_176:\n        /* \"#utility.yul\":17059:17067   */\n      0x00\n        /* \"#utility.yul\":17109:17114   */\n      dup3\n        /* \"#utility.yul\":17103:17107   */\n      dup3\n        /* \"#utility.yul\":17099:17115   */\n      shl\n        /* \"#utility.yul\":17078:17115   */\n      swap1\n      pop\n        /* \"#utility.yul\":17015:17122   */\n      swap3\n      swap2\n      pop\n      pop\n      jump\t// out\n        /* \"#utility.yul\":17128:17521   */\n    tag_177:\n        /* \"#utility.yul\":17197:17203   */\n      0x00\n        /* \"#utility.yul\":17247:17248   */\n      0x08\n        /* \"#utility.yul\":17235:17245   */\n      dup4\n        /* \"#utility.yul\":17231:17249   */\n      mul\n        /* \"#utility.yul\":17270:17367   */\n      tag_359\n        /* \"#utility.yul\":17300:17366   */\n      0xffffffffffffffffffffffffffffffffffffffffffffffffffffffffffffffff\n        /* \"#utility.yul\":17289:17298   */\n      dup3\n        /* \"#utility.yul\":17270:17367   */\n      tag_176\n      jump\t// in\n    tag_359:\n        /* \"#utility.yul\":17388:17427   */\n      tag_360\n        /* \"#utility.yul\":17418:17426   */\n      dup7\n        /* \"#utility.yul\":17407:17416   */\n      dup4\n        /* \"#utility.yul\":17388:17427   */\n      tag_176\n      jump\t// in\n    tag_360:\n        /* \"#utility.yul\":17376:17427   */\n      swap6\n      pop\n        /* \"#utility.yul\":17460:17464   */\n      dup1\n        /* \"#utility.yul\":17456:17465   */\n      not\n        /* \"#utility.yul\":17449:17454   */\n      dup5\n        /* \"#utility.yul\":17445:17466   */\n      and\n        /* \"#utility.yul\":17436:17466   */\n      swap4\n      pop\n        /* \"#utility.yul\":17509:17513   */\n      dup1\n        /* \"#utility.yul\":17499:17507   */\n      dup7\n        /* \"#utility.yul\":17495:17514   */\n      and\n        /* \"#utility.yul\":17488:17493   */\n      dup5\n        /* \"#utility.yul\":17485:17515   */\n      or\n        /* \"#utility.yul\":17475:17515   */\n      swap3\n      pop\n        /* \"#utility.yul\":17204:17521   */\n      pop\n      pop\n        /* \"#utility.yul\":17128:17521   */\n      swap4\n      swap3\n      pop\n      pop\n      pop\n      jump\t// out\n        /* \"#utility.yul\":17527:17669   */\n    tag_178:\n        /* \"#utility.yul\":17577:17586   */\n      0x00\n        /* \"#utility.yul\":17610:17663   */\n      tag_362\n        /* \"#utility.yul\":17628:17662   */\n      tag_363\n        /* \"#utility.yul\":17637:17661   */\n      tag_364\n        /* \"#utility.yul\":17655:17660   */\n      dup5\n        /* \"#utility.yul\":17637:17661   */\n      tag_135\n      jump\t// in\n    tag_364:\n        /* \"#utility.yul\":17628:17662   */\n      tag_145\n      jump\t// in\n    tag_363:\n        /* \"#utility.yul\":17610:17663   */\n      tag_135\n      jump\t// in\n    tag_362:\n        /* \"#utility.yul\":17597:17663   */\n      swap1\n      pop\n        /* \"#utility.yul\":17527:17669   */\n      swap2\n      swap1\n      pop\n      jump\t// out\n        /* \"#utility.yul\":17675:17750   */\n    tag_179:\n        /* \"#utility.yul\":17718:17721   */\n      0x00\n        /* \"#utility.yul\":17739:17744   */\n      dup2\n        /* \"#utility.yul\":17732:17744   */\n      swap1\n      pop\n        /* \"#utility.yul\":17675:17750   */\n      swap2\n      swap1\n      pop\n      jump\t// out\n        /* \"#utility.yul\":17756:18025   */\n    tag_180:\n        /* \"#utility.yul\":17866:17905   */\n      tag_367\n        /* \"#utility.yul\":17897:17904   */\n      dup4\n        /* \"#utility.yul\":17866:17905   */\n      tag_178\n      jump\t// in\n    tag_367:\n        /* \"#utility.yul\":17927:18018   */\n      tag_368\n        /* \"#utility.yul\":17976:18017   */\n      tag_369\n        /* \"#utility.yul\":18000:18016   */\n      dup3\n        /* \"#utility.yul\":17976:18017   */\n      tag_179\n      jump\t// in\n    tag_369:\n        /* \"#utility.yul\":17968:17974   */\n      dup5\n        /* \"#utility.yul\":17961:17965   */\n      dup5\n        /* \"#utility.yul\":17955:17966   */\n      sload\n        /* \"#utility.yul\":17927:18018   */\n      tag_177\n      jump\t// in\n    tag_368:\n        /* \"#utility.yul\":17921:17925   */\n      dup3\n        /* \"#utility.yul\":17914:18019   */\n      sstore\n        /* \"#utility.yul\":17832:18025   */\n      pop\n        /* \"#utility.yul\":17756:18025   */\n      pop\n      pop\n      pop\n      jump\t// out\n        /* \"#utility.yul\":18031:18104   */\n    tag_181:\n        /* \"#utility.yul\":18076:18079   */\n      0x00\n        /* \"#utility.yul\":18097:18098   */\n      0x00\n        /* \"#utility.yul\":18090:18098   */\n      swap1\n      pop\n        /* \"#utility.yul\":18031:18104   */\n      swap1\n      jump\t// out\n        /* \"#utility.yul\":18110:18299   */\n    tag_182:\n        /* \"#utility.yul\":18187:18219   */\n      tag_372\n      tag_181\n      jump\t// in\n    tag_372:\n        /* \"#utility.yul\":18228:18293   */\n      tag_373\n        /* \"#utility.yul\":18286:18292   */\n      dup2\n        /* \"#utility.yul\":18278:18284   */\n      dup5\n        /* \"#utility.yul\":18272:18276   */\n      dup5\n        /* \"#utility.yul\":18228:18293   */\n      tag_180\n      jump\t// in\n    tag_373:\n        /* \"#utility.yul\":18163:18299   */\n      pop\n        /* \"#utility.yul\":18110:18299   */\n      pop\n      pop\n      jump\t// out\n        /* \"#utility.yul\":18305:18491   */\n    tag_183:\n        /* \"#utility.yul\":18365:18485   */\n    tag_375:\n        /* \"#utility.yul\":18382:18385   */\n      dup2\n        /* \"#utility.yul\":18375:18380   */\n      dup2\n        /* \"#utility.yul\":18372:18386   */\n      lt\n        /* \"#utility.yul\":18365:18485   */\n      iszero\n      tag_377\n      jumpi\n        /* \"#utility.yul\":18436:18475   */\n      tag_378\n        /* \"#utility.yul\":18473:18474   */\n      0x00\n        /* \"#utility.yul\":18466:18471   */\n      dup3\n        /* \"#utility.yul\":18436:18475   */\n      tag_182\n      jump\t// in\n    tag_378:\n        /* \"#utility.yul\":18409:18410   */\n      0x01\n        /* \"#utility.yul\":18402:18407   */\n      dup2\n        /* \"#utility.yul\":18398:18411   */\n      add\n        /* \"#utility.yul\":18389:18411   */\n      swap1\n      pop\n        /* \"#utility.yul\":18365:18485   */\n      jump(tag_375)\n    tag_377:\n        /* \"#utility.yul\":18305:18491   */\n      pop\n      pop\n      jump\t// out\n        /* \"#utility.yul\":18497:19040   */\n    tag_184:\n        /* \"#utility.yul\":18598:18600   */\n      0x1f\n        /* \"#utility.yul\":18593:18596   */\n      dup3\n        /* \"#utility.yul\":18590:18601   */\n      gt\n        /* \"#utility.yul\":18587:19033   */\n      iszero\n      tag_380\n      jumpi\n        /* \"#utility.yul\":18632:18670   */\n      tag_381\n        /* \"#utility.yul\":18664:18669   */\n      dup2\n        /* \"#utility.yul\":18632:18670   */\n      tag_174\n      jump\t// in\n    tag_381:\n        /* \"#utility.yul\":18716:18745   */\n      tag_382\n        /* \"#utility.yul\":18734:18744   */\n      dup5\n        /* \"#utility.yul\":18716:18745   */\n      tag_175\n      jump\t// in\n    tag_382:\n        /* \"#utility.yul\":18706:18714   */\n      dup2\n        /* \"#utility.yul\":18702:18746   */\n      add\n        /* \"#utility.yul\":18899:18901   */\n      0x20\n        /* \"#utility.yul\":18887:18897   */\n      dup6\n        /* \"#utility.yul\":18884:18902   */\n      lt\n        /* \"#utility.yul\":18881:18930   */\n      iszero\n      tag_383\n      jumpi\n        /* \"#utility.yul\":18920:18928   */\n      dup2\n        /* \"#utility.yul\":18905:18928   */\n      swap1\n      pop\n        /* \"#utility.yul\":18881:18930   */\n    tag_383:\n        /* \"#utility.yul\":18943:19023   */\n      tag_384\n        /* \"#utility.yul\":18999:19021   */\n      tag_385\n        /* \"#utility.yul\":19017:19020   */\n      dup6\n        /* \"#utility.yul\":18999:19021   */\n      tag_175\n      jump\t// in\n    tag_385:\n        /* \"#utility.yul\":18989:18997   */\n      dup4\n        /* \"#utility.yul\":18985:19022   */\n      add\n        /* \"#utility.yul\":18972:18983   */\n      dup3\n        /* \"#utility.yul\":18943:19023   */\n      tag_183\n      jump\t// in\n    tag_384:\n        /* \"#utility.yul\":18602:19033   */\n      pop\n      pop\n        /* \"#utility.yul\":18587:19033   */\n    tag_380:\n        /* \"#utility.yul\":18497:19040   */\n      pop\n      pop\n      pop\n      jump\t// out\n        /* \"#utility.yul\":19046:19163   */\n    tag_185:\n        /* \"#utility.yul\":19100:19108   */\n      0x00\n        /* \"#utility.yul\":19150:19155   */\n      dup3\n        /* \"#utility.yul\":19144:19148   */\n      dup3\n        /* \"#utility.yul\":19140:19156   */\n      shr\n        /* \"#utility.yul\":19119:19156   */\n      swap1\n      pop\n        /* \"#utility.yul\":19046:19163   */\n      swap3\n      swap2\n      pop\n      pop\n      jump\t// out\n        /* \"#utility.yul\":19169:19338   */\n    tag_186:\n        /* \"#utility.yul\":19213:19219   */\n      0x00\n        /* \"#utility.yul\":19246:19297   */\n      tag_388\n        /* \"#utility.yul\":19294:19295   */\n      0x00\n        /* \"#utility.yul\":19290:19296   */\n      not\n        /* \"#utility.yul\":19282:19287   */\n      dup5\n        /* \"#utility.yul\":19279:19280   */\n      0x08\n        /* \"#utility.yul\":19275:19288   */\n      mul\n        /* \"#utility.yul\":19246:19297   */\n      tag_185\n      jump\t// in\n    tag_388:\n        /* \"#utility.yul\":19242:19298   */\n      not\n        /* \"#utility.yul\":19327:19331   */\n      dup1\n        /* \"#utility.yul\":19321:19325   */\n      dup4\n        /* \"#utility.yul\":19317:19332   */\n      and\n        /* \"#utility.yul\":19307:19332   */\n      swap2\n      pop\n        /* \"#utility.yul\":19220:19338   */\n      pop\n        /* \"#utility.yul\":19169:19338   */\n      swap3\n      swap2\n      pop\n      pop\n      jump\t// out\n        /* \"#utility.yul\":19343:19638   */\n    tag_187:\n        /* \"#utility.yul\":19419:19423   */\n      0x00\n        /* \"#utility.yul\":19565:19594   */\n      tag_390\n        /* \"#utility.yul\":19590:19593   */\n      dup4\n        /* \"#utility.yul\":19584:19588   */\n      dup4\n        /* \"#utility.yul\":19565:19594   */\n      tag_186\n      jump\t// in\n    tag_390:\n        /* \"#utility.yul\":19557:19594   */\n      swap2\n      pop\n        /* \"#utility.yul\":19627:19630   */\n      dup3\n        /* \"#utility.yul\":19624:19625   */\n      0x02\n        /* \"#utility.yul\":19620:19631   */\n      mul\n        /* \"#utility.yul\":19614:19618   */\n      dup3\n        /* \"#utility.yul\":19611:19632   */\n      or\n        /* \"#utility.yul\":19603:19632   */\n      swap1\n      pop\n        /* \"#utility.yul\":19343:19638   */\n      swap3\n      swap2\n      pop\n      pop\n      jump\t// out\n        /* \"#utility.yul\":19643:21038   */\n    tag_107:\n        /* \"#utility.yul\":19760:19797   */\n      tag_392\n        /* \"#utility.yul\":19793:19796   */\n      dup3\n        /* \"#utility.yul\":19760:19797   */\n      tag_139\n      jump\t// in\n    tag_392:\n        /* \"#utility.yul\":19862:19880   */\n      0xffffffffffffffff\n        /* \"#utility.yul\":19854:19860   */\n      dup2\n        /* \"#utility.yul\":19851:19881   */\n      gt\n        /* \"#utility.yul\":19848:19904   */\n      iszero\n      tag_393\n      jumpi\n        /* \"#utility.yul\":19884:19902   */\n      tag_394\n      tag_152\n      jump\t// in\n    tag_394:\n        /* \"#utility.yul\":19848:19904   */\n    tag_393:\n        /* \"#utility.yul\":19928:19966   */\n      tag_395\n        /* \"#utility.yul\":19960:19964   */\n      dup3\n        /* \"#utility.yul\":19954:19965   */\n      sload\n        /* \"#utility.yul\":19928:19966   */\n      tag_45\n      jump\t// in\n    tag_395:\n        /* \"#utility.yul\":20013:20080   */\n      tag_396\n        /* \"#utility.yul\":20073:20079   */\n      dup3\n        /* \"#utility.yul\":20065:20071   */\n      dup3\n        /* \"#utility.yul\":20059:20063   */\n      dup6\n        /* \"#utility.yul\":20013:20080   */\n      tag_184\n      jump\t// in\n    tag_396:\n        /* \"#utility.yul\":20107:20108   */\n      0x00\n        /* \"#utility.yul\":20131:20135   */\n      0x20\n        /* \"#utility.yul\":20118:20135   */\n      swap1\n      pop\n        /* \"#utility.yul\":20163:20165   */\n      0x1f\n        /* \"#utility.yul\":20155:20161   */\n      dup4\n        /* \"#utility.yul\":20152:20166   */\n      gt\n        /* \"#utility.yul\":20180:20181   */\n      0x01\n        /* \"#utility.yul\":20175:20793   */\n      dup2\n      eq\n      tag_398\n      jumpi\n        /* \"#utility.yul\":20837:20838   */\n      0x00\n        /* \"#utility.yul\":20854:20860   */\n      dup5\n        /* \"#utility.yul\":20851:20928   */\n      iszero\n      tag_399\n      jumpi\n        /* \"#utility.yul\":20903:20912   */\n      dup3\n        /* \"#utility.yul\":20898:20901   */\n      dup8\n        /* \"#utility.yul\":20894:20913   */\n      add\n        /* \"#utility.yul\":20888:20914   */\n      mload\n        /* \"#utility.yul\":20879:20914   */\n      swap1\n      pop\n        /* \"#utility.yul\":20851:20928   */\n    tag_399:\n        /* \"#utility.yul\":20954:21021   */\n      tag_400\n        /* \"#utility.yul\":21014:21020   */\n      dup6\n        /* \"#utility.yul\":21007:21012   */\n      dup3\n        /* \"#utility.yul\":20954:21021   */\n      tag_187\n      jump\t// in\n    tag_400:\n        /* \"#utility.yul\":20948:20952   */\n      dup7\n        /* \"#utility.yul\":20941:21022   */\n      sstore\n        /* \"#utility.yul\":20810:21032   */\n      pop\n        /* \"#utility.yul\":20145:21032   */\n      jump(tag_397)\n        /* \"#utility.yul\":20175:20793   */\n    tag_398:\n        /* \"#utility.yul\":20227:20231   */\n      0x1f\n        /* \"#utility.yul\":20223:20232   */\n      not\n        /* \"#utility.yul\":20215:20221   */\n      dup5\n        /* \"#utility.yul\":20211:20233   */\n      and\n        /* \"#utility.yul\":20261:20298   */\n      tag_401\n        /* \"#utility.yul\":20293:20297   */\n      dup7\n        /* \"#utility.yul\":20261:20298   */\n      tag_174\n      jump\t// in\n    tag_401:\n        /* \"#utility.yul\":20320:20321   */\n      0x00\n        /* \"#utility.yul\":20334:20542   */\n    tag_402:\n        /* \"#utility.yul\":20348:20355   */\n      dup3\n        /* \"#utility.yul\":20345:20346   */\n      dup2\n        /* \"#utility.yul\":20342:20356   */\n      lt\n        /* \"#utility.yul\":20334:20542   */\n      iszero\n      tag_404\n      jumpi\n        /* \"#utility.yul\":20427:20436   */\n      dup5\n        /* \"#utility.yul\":20422:20425   */\n      dup10\n        /* \"#utility.yul\":20418:20437   */\n      add\n        /* \"#utility.yul\":20412:20438   */\n      mload\n        /* \"#utility.yul\":20404:20410   */\n      dup3\n        /* \"#utility.yul\":20397:20439   */\n      sstore\n        /* \"#utility.yul\":20478:20479   */\n      0x01\n        /* \"#utility.yul\":20470:20476   */\n      dup3\n        /* \"#utility.yul\":20466:20480   */\n      add\n        /* \"#utility.yul\":20456:20480   */\n      swap2\n      pop\n        /* \"#utility.yul\":20525:20527   */\n      0x20\n        /* \"#utility.yul\":20514:20523   */\n      dup6\n        /* \"#utility.yul\":20510:20528   */\n      add\n        /* \"#utility.yul\":20497:20528   */\n      swap5\n      pop\n        /* \"#utility.yul\":20371:20375   */\n      0x20\n        /* \"#utility.yul\":20368:20369   */\n      dup2\n        /* \"#utility.yul\":20364:20376   */\n      add\n        /* \"#utility.yul\":20359:20376   */\n      swap1\n      pop\n        /* \"#utility.yul\":20334:20542   */\n      jump(tag_402)\n    tag_404:\n        /* \"#utility.yul\":20570:20576   */\n      dup7\n        /* \"#utility.yul\":20561:20568   */\n      dup4\n        /* \"#utility.yul\":20558:20577   */\n      lt\n        /* \"#utility.yul\":20555:20734   */\n      iszero\n      tag_405\n      jumpi\n        /* \"#utility.yul\":20628:20637   */\n      dup5\n        /* \"#utility.yul\":20623:20626   */\n      dup10\n        /* \"#utility.yul\":20619:20638   */\n      add\n        /* \"#utility.yul\":20613:20639   */\n      mload\n        /* \"#utility.yul\":20671:20719   */\n      tag_406\n        /* \"#utility.yul\":20713:20717   */\n      0x1f\n        /* \"#utility.yul\":20705:20711   */\n      dup10\n        /* \"#utility.yul\":20701:20718   */\n      and\n        /* \"#utility.yul\":20690:20699   */\n      dup3\n        /* \"#utility.yul\":20671:20719   */\n      tag_186\n      jump\t// in\n    tag_406:\n        /* \"#utility.yul\":20663:20669   */\n      dup4\n        /* \"#utility.yul\":20656:20720   */\n      sstore\n        /* \"#utility.yul\":20578:20734   */\n      pop\n        /* \"#utility.yul\":20555:20734   */\n    tag_405:\n        /* \"#utility.yul\":20780:20781   */\n      0x01\n        /* \"#utility.yul\":20776:20777   */\n      0x02\n        /* \"#utility.yul\":20768:20774   */\n      dup9\n        /* \"#utility.yul\":20764:20778   */\n      mul\n        /* \"#utility.yul\":20760:20782   */\n      add\n        /* \"#utility.yul\":20754:20758   */\n      dup9\n        /* \"#utility.yul\":20747:20783   */\n      sstore\n        /* \"#utility.yul\":20182:20793   */\n      pop\n      pop\n      pop\n        /* \"#utility.yul\":20145:21032   */\n    tag_397:\n      pop\n        /* \"#utility.yul\":19735:21038   */\n      pop\n      pop\n      pop\n        /* \"#utility.yul\":19643:21038   */\n      pop\n      pop\n      jump\t// out\n        /* \"#utility.yul\":21044:21224   */\n    tag_188:\n        /* \"#utility.yul\":21092:21169   */\n      0x4e487b7100000000000000000000000000000000000000000000000000000000\n        /* \"#utility.yul\":21089:21090   */\n      0x00\n        /* \"#utility.yul\":21082:21170   */\n      mstore\n        /* \"#utility.yul\":21189:21193   */\n      0x11\n        /* \"#utility.yul\":21186:21187   */\n      0x04\n        /* \"#utility.yul\":21179:21194   */\n      mstore\n        /* \"#utility.yul\":21213:21217   */\n      0x24\n        /* \"#utility.yul\":21210:21211   */\n      0x00\n        /* \"#utility.yul\":21203:21218   */\n      revert\n        /* \"#utility.yul\":21230:21463   */\n    tag_115:\n        /* \"#utility.yul\":21269:21272   */\n      0x00\n        /* \"#utility.yul\":21292:21316   */\n      tag_409\n        /* \"#utility.yul\":21310:21315   */\n      dup3\n        /* \"#utility.yul\":21292:21316   */\n      tag_135\n      jump\t// in\n    tag_409:\n        /* \"#utility.yul\":21283:21316   */\n      swap2\n      pop\n        /* \"#utility.yul\":21338:21404   */\n      0xffffffffffffffffffffffffffffffffffffffffffffffffffffffffffffffff\n        /* \"#utility.yul\":21331:21336   */\n      dup3\n        /* \"#utility.yul\":21328:21405   */\n      sub\n        /* \"#utility.yul\":21325:21428   */\n      tag_410\n      jumpi\n        /* \"#utility.yul\":21408:21426   */\n      tag_411\n      tag_188\n      jump\t// in\n    tag_411:\n        /* \"#utility.yul\":21325:21428   */\n    tag_410:\n        /* \"#utility.yul\":21455:21456   */\n      0x01\n        /* \"#utility.yul\":21448:21453   */\n      dup3\n        /* \"#utility.yul\":21444:21457   */\n      add\n        /* \"#utility.yul\":21437:21457   */\n      swap1\n      pop\n        /* \"#utility.yul\":21230:21463   */\n      swap2\n      swap1\n      pop\n      jump\t// out\n\n    auxdata: 0xa2646970667358221220e995a92ed90d123e0076755fcc34d9ce08d0aee5f5aaf390bd05d6a1c2e8c57c64736f6c634300081e0033\n}\n",
				"bytecode": {
					"linkReferences": {},
					"object": "608060405234801561000f575f5ffd5b50604051611733380380611733833981810160405281019061003191906100d4565b805f5f6101000a81548173ffffffffffffffffffffffffffffffffffffffff021916908373ffffffffffffffffffffffffffffffffffffffff160217905550506100ff565b5f5ffd5b5f73ffffffffffffffffffffffffffffffffffffffff82169050919050565b5f6100a38261007a565b9050919050565b6100b381610099565b81146100bd575f5ffd5b50565b5f815190506100ce816100aa565b92915050565b5f602082840312156100e9576100e8610076565b5b5f6100f6848285016100c0565b91505092915050565b6116278061010c5f395ff3fe608060405234801561000f575f5ffd5b506004361061007b575f3560e01c8063642f916311610059578063642f9163146101025780639cc8f13914610132578063df50ca891461014e578063e581f9ee1461016a5761007b565b806306ead22e1461007f578063262e3ec3146100b35780634f78668c146100d1575b5f5ffd5b61009960048036038101906100949190610b33565b610188565b6040516100aa959493929190610bdd565b60405180910390f35b6100bb61034c565b6040516100c89190610cbd565b60405180910390f35b6100eb60048036038101906100e69190610e02565b610370565b6040516100f9929190610e49565b60405180910390f35b61011c60048036038101906101179190610b33565b610412565b6040516101299190610f48565b60405180910390f35b61014c60048036038101906101479190610f68565b610600565b005b61016860048036038101906101639190610ff0565b61098c565b005b610172610a64565b60405161017f919061104a565b60405180910390f35b6001602052805f5260405f205f91509050805f0154908060010180546101ad90611090565b80601f01602080910402602001604051908101604052809291908181526020018280546101d990611090565b80156102245780601f106101fb57610100808354040283529160200191610224565b820191905f5260205f20905b81548152906001019060200180831161020757829003601f168201915b50505050509080600201805461023990611090565b80601f016020809104026020016040519081016040528092919081815260200182805461026590611090565b80156102b05780601f10610287576101008083540402835291602001916102b0565b820191905f5260205f20905b81548152906001019060200180831161029357829003601f168201915b5050505050908060030180546102c590611090565b80601f01602080910402602001604051908101604052809291908181526020018280546102f190611090565b801561033c5780601f106103135761010080835404028352916020019161033c565b820191905f5260205f20905b81548152906001019060200180831161031f57829003601f168201915b5050505050908060040154905085565b5f5f9054906101000a900473ffffffffffffffffffffffffffffffffffffffff1681565b5f5f5f5f9054906101000a900473ffffffffffffffffffffffffffffffffffffffff1673ffffffffffffffffffffffffffffffffffffffff16636ceb5453846040518263ffffffff1660e01b81526004016103cb91906110c0565b6040805180830381865afa1580156103e5573d5f5f3e3d5ffd5b505050506040513d601f19601f8201168201806040525081019061040991906110f4565b91509150915091565b61041a610a6a565b60015f8381526020019081526020015f206040518060a00160405290815f820154815260200160018201805461044f90611090565b80601f016020809104026020016040519081016040528092919081815260200182805461047b90611090565b80156104c65780601f1061049d576101008083540402835291602001916104c6565b820191905f5260205f20905b8154815290600101906020018083116104a957829003601f168201915b505050505081526020016002820180546104df90611090565b80601f016020809104026020016040519081016040528092919081815260200182805461050b90611090565b80156105565780601f1061052d57610100808354040283529160200191610556565b820191905f5260205f20905b81548152906001019060200180831161053957829003601f168201915b5050505050815260200160038201805461056f90611090565b80601f016020809104026020016040519081016040528092919081815260200182805461059b90611090565b80156105e65780601f106105bd576101008083540402835291602001916105e6565b820191905f5260205f20905b8154815290600101906020018083116105c957829003601f168201915b505050505081526020016004820154815250509050919050565b5f5f9054906101000a900473ffffffffffffffffffffffffffffffffffffffff1673ffffffffffffffffffffffffffffffffffffffff1663e250250b836040518263ffffffff1660e01b815260040161065991906110c0565b602060405180830381865afa158015610674573d5f5f3e3d5ffd5b505050506040513d601f19601f820116820180604052508101906106989190611167565b6106d7576040517f08c379a00000000000000000000000000000000000000000000000000000000081526004016106ce906111dc565b60405180910390fd5b5f5f5f5f9054906101000a900473ffffffffffffffffffffffffffffffffffffffff1673ffffffffffffffffffffffffffffffffffffffff16636ceb5453856040518263ffffffff1660e01b815260040161073291906110c0565b6040805180830381865afa15801561074c573d5f5f3e3d5ffd5b505050506040513d601f19601f8201168201806040525081019061077091906110f4565b915091508082106107b6576040517f08c379a00000000000000000000000000000000000000000000000000000000081526004016107ad90611244565b60405180910390fd5b5f5f5f9054906101000a900473ffffffffffffffffffffffffffffffffffffffff1673ffffffffffffffffffffffffffffffffffffffff1663dd98e2bb866040518263ffffffff1660e01b815260040161081091906110c0565b5f60405180830381865afa15801561082a573d5f5f3e3d5ffd5b505050506040513d5f823e3d601f19601f8201168201806040525081019061085291906112d0565b90506040518060a0016040528060025481526020018781526020018681526020018281526020018581525060015f60025481526020019081526020015f205f820151815f015560208201518160010190816108ad91906114ae565b5060408201518160020190816108c391906114ae565b5060608201518160030190816108d991906114ae565b50608082015181600401559050505f5f9054906101000a900473ffffffffffffffffffffffffffffffffffffffff1673ffffffffffffffffffffffffffffffffffffffff16636ca617d8866040518263ffffffff1660e01b815260040161094091906110c0565b5f604051808303815f87803b158015610957575f5ffd5b505af1158015610969573d5f5f3e3d5ffd5b5050505060025f81548092919061097f906115aa565b9190505550505050505050565b60015f8381526020019081526020015f205f5f82015f9055600182015f6109b39190610a97565b600282015f6109c29190610a97565b600382015f6109d19190610a97565b600482015f905550505f5f9054906101000a900473ffffffffffffffffffffffffffffffffffffffff1673ffffffffffffffffffffffffffffffffffffffff16638b20e1ad826040518263ffffffff1660e01b8152600401610a3391906110c0565b5f604051808303815f87803b158015610a4a575f5ffd5b505af1158015610a5c573d5f5f3e3d5ffd5b505050505050565b60025481565b6040518060a001604052805f81526020016060815260200160608152602001606081526020015f81525090565b508054610aa390611090565b5f825580601f10610ab45750610ad1565b601f0160209004905f5260205f2090810190610ad09190610ad4565b5b50565b5b80821115610aeb575f815f905550600101610ad5565b5090565b5f604051905090565b5f5ffd5b5f5ffd5b5f819050919050565b610b1281610b00565b8114610b1c575f5ffd5b50565b5f81359050610b2d81610b09565b92915050565b5f60208284031215610b4857610b47610af8565b5b5f610b5584828501610b1f565b91505092915050565b610b6781610b00565b82525050565b5f81519050919050565b5f82825260208201905092915050565b8281835e5f83830152505050565b5f601f19601f8301169050919050565b5f610baf82610b6d565b610bb98185610b77565b9350610bc9818560208601610b87565b610bd281610b95565b840191505092915050565b5f60a082019050610bf05f830188610b5e565b8181036020830152610c028187610ba5565b90508181036040830152610c168186610ba5565b90508181036060830152610c2a8185610ba5565b9050610c396080830184610b5e565b9695505050505050565b5f73ffffffffffffffffffffffffffffffffffffffff82169050919050565b5f819050919050565b5f610c85610c80610c7b84610c43565b610c62565b610c43565b9050919050565b5f610c9682610c6b565b9050919050565b5f610ca782610c8c565b9050919050565b610cb781610c9d565b82525050565b5f602082019050610cd05f830184610cae565b92915050565b5f5ffd5b5f5ffd5b7f4e487b71000000000000000000000000000000000000000000000000000000005f52604160045260245ffd5b610d1482610b95565b810181811067ffffffffffffffff82111715610d3357610d32610cde565b5b80604052505050565b5f610d45610aef565b9050610d518282610d0b565b919050565b5f67ffffffffffffffff821115610d7057610d6f610cde565b5b610d7982610b95565b9050602081019050919050565b828183375f83830152505050565b5f610da6610da184610d56565b610d3c565b905082815260208101848484011115610dc257610dc1610cda565b5b610dcd848285610d86565b509392505050565b5f82601f830112610de957610de8610cd6565b5b8135610df9848260208601610d94565b91505092915050565b5f60208284031215610e1757610e16610af8565b5b5f82013567ffffffffffffffff811115610e3457610e33610afc565b5b610e4084828501610dd5565b91505092915050565b5f604082019050610e5c5f830185610b5e565b610e696020830184610b5e565b9392505050565b610e7981610b00565b82525050565b5f82825260208201905092915050565b5f610e9982610b6d565b610ea38185610e7f565b9350610eb3818560208601610b87565b610ebc81610b95565b840191505092915050565b5f60a083015f830151610edc5f860182610e70565b5060208301518482036020860152610ef48282610e8f565b91505060408301518482036040860152610f0e8282610e8f565b91505060608301518482036060860152610f288282610e8f565b9150506080830151610f3d6080860182610e70565b508091505092915050565b5f6020820190508181035f830152610f608184610ec7565b905092915050565b5f5f5f60608486031215610f7f57610f7e610af8565b5b5f84013567ffffffffffffffff811115610f9c57610f9b610afc565b5b610fa886828701610dd5565b935050602084013567ffffffffffffffff811115610fc957610fc8610afc565b5b610fd586828701610dd5565b9250506040610fe686828701610b1f565b9150509250925092565b5f5f6040838503121561100657611005610af8565b5b5f61101385828601610b1f565b925050602083013567ffffffffffffffff81111561103457611033610afc565b5b61104085828601610dd5565b9150509250929050565b5f60208201905061105d5f830184610b5e565b92915050565b7f4e487b71000000000000000000000000000000000000000000000000000000005f52602260045260245ffd5b5f60028204905060018216806110a757607f821691505b6020821081036110ba576110b9611063565b5b50919050565b5f6020820190508181035f8301526110d88184610ba5565b905092915050565b5f815190506110ee81610b09565b92915050565b5f5f6040838503121561110a57611109610af8565b5b5f611117858286016110e0565b9250506020611128858286016110e0565b9150509250929050565b5f8115159050919050565b61114681611132565b8114611150575f5ffd5b50565b5f815190506111618161113d565b92915050565b5f6020828403121561117c5761117b610af8565b5b5f61118984828501611153565b91505092915050565b7f436c61737320646f6573206e6f742065786973740000000000000000000000005f82015250565b5f6111c6601483610b77565b91506111d182611192565b602082019050919050565b5f6020820190508181035f8301526111f3816111ba565b9050919050565b7f436c6173732069732066756c6c000000000000000000000000000000000000005f82015250565b5f61122e600d83610b77565b9150611239826111fa565b602082019050919050565b5f6020820190508181035f83015261125b81611222565b9050919050565b5f61127461126f84610d56565b610d3c565b9050828152602081018484840111156112905761128f610cda565b5b61129b848285610b87565b509392505050565b5f82601f8301126112b7576112b6610cd6565b5b81516112c7848260208601611262565b91505092915050565b5f602082840312156112e5576112e4610af8565b5b5f82015167ffffffffffffffff81111561130257611301610afc565b5b61130e848285016112a3565b91505092915050565b5f819050815f5260205f209050919050565b5f6020601f8301049050919050565b5f82821b905092915050565b5f600883026113737fffffffffffffffffffffffffffffffffffffffffffffffffffffffffffffffff82611338565b61137d8683611338565b95508019841693508086168417925050509392505050565b5f6113af6113aa6113a584610b00565b610c62565b610b00565b9050919050565b5f819050919050565b6113c883611395565b6113dc6113d4826113b6565b848454611344565b825550505050565b5f5f905090565b6113f36113e4565b6113fe8184846113bf565b505050565b5b81811015611421576114165f826113eb565b600181019050611404565b5050565b601f8211156114665761143781611317565b61144084611329565b8101602085101561144f578190505b61146361145b85611329565b830182611403565b50505b505050565b5f82821c905092915050565b5f6114865f198460080261146b565b1980831691505092915050565b5f61149e8383611477565b9150826002028217905092915050565b6114b782610b6d565b67ffffffffffffffff8111156114d0576114cf610cde565b5b6114da8254611090565b6114e5828285611425565b5f60209050601f831160018114611516575f8415611504578287015190505b61150e8582611493565b865550611575565b601f19841661152486611317565b5f5b8281101561154b57848901518255600182019150602085019450602081019050611526565b868310156115685784890151611564601f891682611477565b8355505b6001600288020188555050505b505050505050565b7f4e487b71000000000000000000000000000000000000000000000000000000005f52601160045260245ffd5b5f6115b482610b00565b91507fffffffffffffffffffffffffffffffffffffffffffffffffffffffffffffffff82036115e6576115e561157d565b5b60018201905091905056fea2646970667358221220e995a92ed90d123e0076755fcc34d9ce08d0aee5f5aaf390bd05d6a1c2e8c57c64736f6c634300081e0033",
					"opcodes": "PUSH1 0x80 PUSH1 0x40 MSTORE CALLVALUE DUP1 ISZERO PUSH2 0xF JUMPI PUSH0 PUSH0 REVERT JUMPDEST POP PUSH1 0x40 MLOAD PUSH2 0x1733 CODESIZE SUB DUP1 PUSH2 0x1733 DUP4 CODECOPY DUP2 DUP2 ADD PUSH1 0x40 MSTORE DUP2 ADD SWAP1 PUSH2 0x31 SWAP2 SWAP1 PUSH2 0xD4 JUMP JUMPDEST DUP1 PUSH0 PUSH0 PUSH2 0x100 EXP DUP2 SLOAD DUP2 PUSH20 0xFFFFFFFFFFFFFFFFFFFFFFFFFFFFFFFFFFFFFFFF MUL NOT AND SWAP1 DUP4 PUSH20 0xFFFFFFFFFFFFFFFFFFFFFFFFFFFFFFFFFFFFFFFF AND MUL OR SWAP1 SSTORE POP POP PUSH2 0xFF JUMP JUMPDEST PUSH0 PUSH0 REVERT JUMPDEST PUSH0 PUSH20 0xFFFFFFFFFFFFFFFFFFFFFFFFFFFFFFFFFFFFFFFF DUP3 AND SWAP1 POP SWAP2 SWAP1 POP JUMP JUMPDEST PUSH0 PUSH2 0xA3 DUP3 PUSH2 0x7A JUMP JUMPDEST SWAP1 POP SWAP2 SWAP1 POP JUMP JUMPDEST PUSH2 0xB3 DUP2 PUSH2 0x99 JUMP JUMPDEST DUP2 EQ PUSH2 0xBD JUMPI PUSH0 PUSH0 REVERT JUMPDEST POP JUMP JUMPDEST PUSH0 DUP2 MLOAD SWAP1 POP PUSH2 0xCE DUP2 PUSH2 0xAA JUMP JUMPDEST SWAP3 SWAP2 POP POP JUMP JUMPDEST PUSH0 PUSH1 0x20 DUP3 DUP5 SUB SLT ISZERO PUSH2 0xE9 JUMPI PUSH2 0xE8 PUSH2 0x76 JUMP JUMPDEST JUMPDEST PUSH0 PUSH2 0xF6 DUP5 DUP3 DUP6 ADD PUSH2 0xC0 JUMP JUMPDEST SWAP2 POP POP SWAP3 SWAP2 POP POP JUMP JUMPDEST PUSH2 0x1627 DUP1 PUSH2 0x10C PUSH0 CODECOPY PUSH0 RETURN INVALID PUSH1 0x80 PUSH1 0x40 MSTORE CALLVALUE DUP1 ISZERO PUSH2 0xF JUMPI PUSH0 PUSH0 REVERT JUMPDEST POP PUSH1 0x4 CALLDATASIZE LT PUSH2 0x7B JUMPI PUSH0 CALLDATALOAD PUSH1 0xE0 SHR DUP1 PUSH4 0x642F9163 GT PUSH2 0x59 JUMPI DUP1 PUSH4 0x642F9163 EQ PUSH2 0x102 JUMPI DUP1 PUSH4 0x9CC8F139 EQ PUSH2 0x132 JUMPI DUP1 PUSH4 0xDF50CA89 EQ PUSH2 0x14E JUMPI DUP1 PUSH4 0xE581F9EE EQ PUSH2 0x16A JUMPI PUSH2 0x7B JUMP JUMPDEST DUP1 PUSH4 0x6EAD22E EQ PUSH2 0x7F JUMPI DUP1 PUSH4 0x262E3EC3 EQ PUSH2 0xB3 JUMPI DUP1 PUSH4 0x4F78668C EQ PUSH2 0xD1 JUMPI JUMPDEST PUSH0 PUSH0 REVERT JUMPDEST PUSH2 0x99 PUSH1 0x4 DUP1 CALLDATASIZE SUB DUP2 ADD SWAP1 PUSH2 0x94 SWAP2 SWAP1 PUSH2 0xB33 JUMP JUMPDEST PUSH2 0x188 JUMP JUMPDEST PUSH1 0x40 MLOAD PUSH2 0xAA SWAP6 SWAP5 SWAP4 SWAP3 SWAP2 SWAP1 PUSH2 0xBDD JUMP JUMPDEST PUSH1 0x40 MLOAD DUP1 SWAP2 SUB SWAP1 RETURN JUMPDEST PUSH2 0xBB PUSH2 0x34C JUMP JUMPDEST PUSH1 0x40 MLOAD PUSH2 0xC8 SWAP2 SWAP1 PUSH2 0xCBD JUMP JUMPDEST PUSH1 0x40 MLOAD DUP1 SWAP2 SUB SWAP1 RETURN JUMPDEST PUSH2 0xEB PUSH1 0x4 DUP1 CALLDATASIZE SUB DUP2 ADD SWAP1 PUSH2 0xE6 SWAP2 SWAP1 PUSH2 0xE02 JUMP JUMPDEST PUSH2 0x370 JUMP JUMPDEST PUSH1 0x40 MLOAD PUSH2 0xF9 SWAP3 SWAP2 SWAP1 PUSH2 0xE49 JUMP JUMPDEST PUSH1 0x40 MLOAD DUP1 SWAP2 SUB SWAP1 RETURN JUMPDEST PUSH2 0x11C PUSH1 0x4 DUP1 CALLDATASIZE SUB DUP2 ADD SWAP1 PUSH2 0x117 SWAP2 SWAP1 PUSH2 0xB33 JUMP JUMPDEST PUSH2 0x412 JUMP JUMPDEST PUSH1 0x40 MLOAD PUSH2 0x129 SWAP2 SWAP1 PUSH2 0xF48 JUMP JUMPDEST PUSH1 0x40 MLOAD DUP1 SWAP2 SUB SWAP1 RETURN JUMPDEST PUSH2 0x14C PUSH1 0x4 DUP1 CALLDATASIZE SUB DUP2 ADD SWAP1 PUSH2 0x147 SWAP2 SWAP1 PUSH2 0xF68 JUMP JUMPDEST PUSH2 0x600 JUMP JUMPDEST STOP JUMPDEST PUSH2 0x168 PUSH1 0x4 DUP1 CALLDATASIZE SUB DUP2 ADD SWAP1 PUSH2 0x163 SWAP2 SWAP1 PUSH2 0xFF0 JUMP JUMPDEST PUSH2 0x98C JUMP JUMPDEST STOP JUMPDEST PUSH2 0x172 PUSH2 0xA64 JUMP JUMPDEST PUSH1 0x40 MLOAD PUSH2 0x17F SWAP2 SWAP1 PUSH2 0x104A JUMP JUMPDEST PUSH1 0x40 MLOAD DUP1 SWAP2 SUB SWAP1 RETURN JUMPDEST PUSH1 0x1 PUSH1 0x20 MSTORE DUP1 PUSH0 MSTORE PUSH1 0x40 PUSH0 KECCAK256 PUSH0 SWAP2 POP SWAP1 POP DUP1 PUSH0 ADD SLOAD SWAP1 DUP1 PUSH1 0x1 ADD DUP1 SLOAD PUSH2 0x1AD SWAP1 PUSH2 0x1090 JUMP JUMPDEST DUP1 PUSH1 0x1F ADD PUSH1 0x20 DUP1 SWAP2 DIV MUL PUSH1 0x20 ADD PUSH1 0x40 MLOAD SWAP1 DUP2 ADD PUSH1 0x40 MSTORE DUP1 SWAP3 SWAP2 SWAP1 DUP2 DUP2 MSTORE PUSH1 0x20 ADD DUP3 DUP1 SLOAD PUSH2 0x1D9 SWAP1 PUSH2 0x1090 JUMP JUMPDEST DUP1 ISZERO PUSH2 0x224 JUMPI DUP1 PUSH1 0x1F LT PUSH2 0x1FB JUMPI PUSH2 0x100 DUP1 DUP4 SLOAD DIV MUL DUP4 MSTORE SWAP2 PUSH1 0x20 ADD SWAP2 PUSH2 0x224 JUMP JUMPDEST DUP3 ADD SWAP2 SWAP1 PUSH0 MSTORE PUSH1 0x20 PUSH0 KECCAK256 SWAP1 JUMPDEST DUP2 SLOAD DUP2 MSTORE SWAP1 PUSH1 0x1 ADD SWAP1 PUSH1 0x20 ADD DUP1 DUP4 GT PUSH2 0x207 JUMPI DUP3 SWAP1 SUB PUSH1 0x1F AND DUP3 ADD SWAP2 JUMPDEST POP POP POP POP POP SWAP1 DUP1 PUSH1 0x2 ADD DUP1 SLOAD PUSH2 0x239 SWAP1 PUSH2 0x1090 JUMP JUMPDEST DUP1 PUSH1 0x1F ADD PUSH1 0x20 DUP1 SWAP2 DIV MUL PUSH1 0x20 ADD PUSH1 0x40 MLOAD SWAP1 DUP2 ADD PUSH1 0x40 MSTORE DUP1 SWAP3 SWAP2 SWAP1 DUP2 DUP2 MSTORE PUSH1 0x20 ADD DUP3 DUP1 SLOAD PUSH2 0x265 SWAP1 PUSH2 0x1090 JUMP JUMPDEST DUP1 ISZERO PUSH2 0x2B0 JUMPI DUP1 PUSH1 0x1F LT PUSH2 0x287 JUMPI PUSH2 0x100 DUP1 DUP4 SLOAD DIV MUL DUP4 MSTORE SWAP2 PUSH1 0x20 ADD SWAP2 PUSH2 0x2B0 JUMP JUMPDEST DUP3 ADD SWAP2 SWAP1 PUSH0 MSTORE PUSH1 0x20 PUSH0 KECCAK256 SWAP1 JUMPDEST DUP2 SLOAD DUP2 MSTORE SWAP1 PUSH1 0x1 ADD SWAP1 PUSH1 0x20 ADD DUP1 DUP4 GT PUSH2 0x293 JUMPI DUP3 SWAP1 SUB PUSH1 0x1F AND DUP3 ADD SWAP2 JUMPDEST POP POP POP POP POP SWAP1 DUP1 PUSH1 0x3 ADD DUP1 SLOAD PUSH2 0x2C5 SWAP1 PUSH2 0x1090 JUMP JUMPDEST DUP1 PUSH1 0x1F ADD PUSH1 0x20 DUP1 SWAP2 DIV MUL PUSH1 0x20 ADD PUSH1 0x40 MLOAD SWAP1 DUP2 ADD PUSH1 0x40 MSTORE DUP1 SWAP3 SWAP2 SWAP1 DUP2 DUP2 MSTORE PUSH1 0x20 ADD DUP3 DUP1 SLOAD PUSH2 0x2F1 SWAP1 PUSH2 0x1090 JUMP JUMPDEST DUP1 ISZERO PUSH2 0x33C JUMPI DUP1 PUSH1 0x1F LT PUSH2 0x313 JUMPI PUSH2 0x100 DUP1 DUP4 SLOAD DIV MUL DUP4 MSTORE SWAP2 PUSH1 0x20 ADD SWAP2 PUSH2 0x33C JUMP JUMPDEST DUP3 ADD SWAP2 SWAP1 PUSH0 MSTORE PUSH1 0x20 PUSH0 KECCAK256 SWAP1 JUMPDEST DUP2 SLOAD DUP2 MSTORE SWAP1 PUSH1 0x1 ADD SWAP1 PUSH1 0x20 ADD DUP1 DUP4 GT PUSH2 0x31F JUMPI DUP3 SWAP1 SUB PUSH1 0x1F AND DUP3 ADD SWAP2 JUMPDEST POP POP POP POP POP SWAP1 DUP1 PUSH1 0x4 ADD SLOAD SWAP1 POP DUP6 JUMP JUMPDEST PUSH0 PUSH0 SWAP1 SLOAD SWAP1 PUSH2 0x100 EXP SWAP1 DIV PUSH20 0xFFFFFFFFFFFFFFFFFFFFFFFFFFFFFFFFFFFFFFFF AND DUP2 JUMP JUMPDEST PUSH0 PUSH0 PUSH0 PUSH0 SWAP1 SLOAD SWAP1 PUSH2 0x100 EXP SWAP1 DIV PUSH20 0xFFFFFFFFFFFFFFFFFFFFFFFFFFFFFFFFFFFFFFFF AND PUSH20 0xFFFFFFFFFFFFFFFFFFFFFFFFFFFFFFFFFFFFFFFF AND PUSH4 0x6CEB5453 DUP5 PUSH1 0x40 MLOAD DUP3 PUSH4 0xFFFFFFFF AND PUSH1 0xE0 SHL DUP2 MSTORE PUSH1 0x4 ADD PUSH2 0x3CB SWAP2 SWAP1 PUSH2 0x10C0 JUMP JUMPDEST PUSH1 0x40 DUP1 MLOAD DUP1 DUP4 SUB DUP2 DUP7 GAS STATICCALL ISZERO DUP1 ISZERO PUSH2 0x3E5 JUMPI RETURNDATASIZE PUSH0 PUSH0 RETURNDATACOPY RETURNDATASIZE PUSH0 REVERT JUMPDEST POP POP POP POP PUSH1 0x40 MLOAD RETURNDATASIZE PUSH1 0x1F NOT PUSH1 0x1F DUP3 ADD AND DUP3 ADD DUP1 PUSH1 0x40 MSTORE POP DUP2 ADD SWAP1 PUSH2 0x409 SWAP2 SWAP1 PUSH2 0x10F4 JUMP JUMPDEST SWAP2 POP SWAP2 POP SWAP2 POP SWAP2 JUMP JUMPDEST PUSH2 0x41A PUSH2 0xA6A JUMP JUMPDEST PUSH1 0x1 PUSH0 DUP4 DUP2 MSTORE PUSH1 0x20 ADD SWAP1 DUP2 MSTORE PUSH1 0x20 ADD PUSH0 KECCAK256 PUSH1 0x40 MLOAD DUP1 PUSH1 0xA0 ADD PUSH1 0x40 MSTORE SWAP1 DUP2 PUSH0 DUP3 ADD SLOAD DUP2 MSTORE PUSH1 0x20 ADD PUSH1 0x1 DUP3 ADD DUP1 SLOAD PUSH2 0x44F SWAP1 PUSH2 0x1090 JUMP JUMPDEST DUP1 PUSH1 0x1F ADD PUSH1 0x20 DUP1 SWAP2 DIV MUL PUSH1 0x20 ADD PUSH1 0x40 MLOAD SWAP1 DUP2 ADD PUSH1 0x40 MSTORE DUP1 SWAP3 SWAP2 SWAP1 DUP2 DUP2 MSTORE PUSH1 0x20 ADD DUP3 DUP1 SLOAD PUSH2 0x47B SWAP1 PUSH2 0x1090 JUMP JUMPDEST DUP1 ISZERO PUSH2 0x4C6 JUMPI DUP1 PUSH1 0x1F LT PUSH2 0x49D JUMPI PUSH2 0x100 DUP1 DUP4 SLOAD DIV MUL DUP4 MSTORE SWAP2 PUSH1 0x20 ADD SWAP2 PUSH2 0x4C6 JUMP JUMPDEST DUP3 ADD SWAP2 SWAP1 PUSH0 MSTORE PUSH1 0x20 PUSH0 KECCAK256 SWAP1 JUMPDEST DUP2 SLOAD DUP2 MSTORE SWAP1 PUSH1 0x1 ADD SWAP1 PUSH1 0x20 ADD DUP1 DUP4 GT PUSH2 0x4A9 JUMPI DUP3 SWAP1 SUB PUSH1 0x1F AND DUP3 ADD SWAP2 JUMPDEST POP POP POP POP POP DUP2 MSTORE PUSH1 0x20 ADD PUSH1 0x2 DUP3 ADD DUP1 SLOAD PUSH2 0x4DF SWAP1 PUSH2 0x1090 JUMP JUMPDEST DUP1 PUSH1 0x1F ADD PUSH1 0x20 DUP1 SWAP2 DIV MUL PUSH1 0x20 ADD PUSH1 0x40 MLOAD SWAP1 DUP2 ADD PUSH1 0x40 MSTORE DUP1 SWAP3 SWAP2 SWAP1 DUP2 DUP2 MSTORE PUSH1 0x20 ADD DUP3 DUP1 SLOAD PUSH2 0x50B SWAP1 PUSH2 0x1090 JUMP JUMPDEST DUP1 ISZERO PUSH2 0x556 JUMPI DUP1 PUSH1 0x1F LT PUSH2 0x52D JUMPI PUSH2 0x100 DUP1 DUP4 SLOAD DIV MUL DUP4 MSTORE SWAP2 PUSH1 0x20 ADD SWAP2 PUSH2 0x556 JUMP JUMPDEST DUP3 ADD SWAP2 SWAP1 PUSH0 MSTORE PUSH1 0x20 PUSH0 KECCAK256 SWAP1 JUMPDEST DUP2 SLOAD DUP2 MSTORE SWAP1 PUSH1 0x1 ADD SWAP1 PUSH1 0x20 ADD DUP1 DUP4 GT PUSH2 0x539 JUMPI DUP3 SWAP1 SUB PUSH1 0x1F AND DUP3 ADD SWAP2 JUMPDEST POP POP POP POP POP DUP2 MSTORE PUSH1 0x20 ADD PUSH1 0x3 DUP3 ADD DUP1 SLOAD PUSH2 0x56F SWAP1 PUSH2 0x1090 JUMP JUMPDEST DUP1 PUSH1 0x1F ADD PUSH1 0x20 DUP1 SWAP2 DIV MUL PUSH1 0x20 ADD PUSH1 0x40 MLOAD SWAP1 DUP2 ADD PUSH1 0x40 MSTORE DUP1 SWAP3 SWAP2 SWAP1 DUP2 DUP2 MSTORE PUSH1 0x20 ADD DUP3 DUP1 SLOAD PUSH2 0x59B SWAP1 PUSH2 0x1090 JUMP JUMPDEST DUP1 ISZERO PUSH2 0x5E6 JUMPI DUP1 PUSH1 0x1F LT PUSH2 0x5BD JUMPI PUSH2 0x100 DUP1 DUP4 SLOAD DIV MUL DUP4 MSTORE SWAP2 PUSH1 0x20 ADD SWAP2 PUSH2 0x5E6 JUMP JUMPDEST DUP3 ADD SWAP2 SWAP1 PUSH0 MSTORE PUSH1 0x20 PUSH0 KECCAK256 SWAP1 JUMPDEST DUP2 SLOAD DUP2 MSTORE SWAP1 PUSH1 0x1 ADD SWAP1 PUSH1 0x20 ADD DUP1 DUP4 GT PUSH2 0x5C9 JUMPI DUP3 SWAP1 SUB PUSH1 0x1F AND DUP3 ADD SWAP2 JUMPDEST POP POP POP POP POP DUP2 MSTORE PUSH1 0x20 ADD PUSH1 0x4 DUP3 ADD SLOAD DUP2 MSTORE POP POP SWAP1 POP SWAP2 SWAP1 POP JUMP JUMPDEST PUSH0 PUSH0 SWAP1 SLOAD SWAP1 PUSH2 0x100 EXP SWAP1 DIV PUSH20 0xFFFFFFFFFFFFFFFFFFFFFFFFFFFFFFFFFFFFFFFF AND PUSH20 0xFFFFFFFFFFFFFFFFFFFFFFFFFFFFFFFFFFFFFFFF AND PUSH4 0xE250250B DUP4 PUSH1 0x40 MLOAD DUP3 PUSH4 0xFFFFFFFF AND PUSH1 0xE0 SHL DUP2 MSTORE PUSH1 0x4 ADD PUSH2 0x659 SWAP2 SWAP1 PUSH2 0x10C0 JUMP JUMPDEST PUSH1 0x20 PUSH1 0x40 MLOAD DUP1 DUP4 SUB DUP2 DUP7 GAS STATICCALL ISZERO DUP1 ISZERO PUSH2 0x674 JUMPI RETURNDATASIZE PUSH0 PUSH0 RETURNDATACOPY RETURNDATASIZE PUSH0 REVERT JUMPDEST POP POP POP POP PUSH1 0x40 MLOAD RETURNDATASIZE PUSH1 0x1F NOT PUSH1 0x1F DUP3 ADD AND DUP3 ADD DUP1 PUSH1 0x40 MSTORE POP DUP2 ADD SWAP1 PUSH2 0x698 SWAP2 SWAP1 PUSH2 0x1167 JUMP JUMPDEST PUSH2 0x6D7 JUMPI PUSH1 0x40 MLOAD PUSH32 0x8C379A000000000000000000000000000000000000000000000000000000000 DUP2 MSTORE PUSH1 0x4 ADD PUSH2 0x6CE SWAP1 PUSH2 0x11DC JUMP JUMPDEST PUSH1 0x40 MLOAD DUP1 SWAP2 SUB SWAP1 REVERT JUMPDEST PUSH0 PUSH0 PUSH0 PUSH0 SWAP1 SLOAD SWAP1 PUSH2 0x100 EXP SWAP1 DIV PUSH20 0xFFFFFFFFFFFFFFFFFFFFFFFFFFFFFFFFFFFFFFFF AND PUSH20 0xFFFFFFFFFFFFFFFFFFFFFFFFFFFFFFFFFFFFFFFF AND PUSH4 0x6CEB5453 DUP6 PUSH1 0x40 MLOAD DUP3 PUSH4 0xFFFFFFFF AND PUSH1 0xE0 SHL DUP2 MSTORE PUSH1 0x4 ADD PUSH2 0x732 SWAP2 SWAP1 PUSH2 0x10C0 JUMP JUMPDEST PUSH1 0x40 DUP1 MLOAD DUP1 DUP4 SUB DUP2 DUP7 GAS STATICCALL ISZERO DUP1 ISZERO PUSH2 0x74C JUMPI RETURNDATASIZE PUSH0 PUSH0 RETURNDATACOPY RETURNDATASIZE PUSH0 REVERT JUMPDEST POP POP POP POP PUSH1 0x40 MLOAD RETURNDATASIZE PUSH1 0x1F NOT PUSH1 0x1F DUP3 ADD AND DUP3 ADD DUP1 PUSH1 0x40 MSTORE POP DUP2 ADD SWAP1 PUSH2 0x770 SWAP2 SWAP1 PUSH2 0x10F4 JUMP JUMPDEST SWAP2 POP SWAP2 POP DUP1 DUP3 LT PUSH2 0x7B6 JUMPI PUSH1 0x40 MLOAD PUSH32 0x8C379A000000000000000000000000000000000000000000000000000000000 DUP2 MSTORE PUSH1 0x4 ADD PUSH2 0x7AD SWAP1 PUSH2 0x1244 JUMP JUMPDEST PUSH1 0x40 MLOAD DUP1 SWAP2 SUB SWAP1 REVERT JUMPDEST PUSH0 PUSH0 PUSH0 SWAP1 SLOAD SWAP1 PUSH2 0x100 EXP SWAP1 DIV PUSH20 0xFFFFFFFFFFFFFFFFFFFFFFFFFFFFFFFFFFFFFFFF AND PUSH20 0xFFFFFFFFFFFFFFFFFFFFFFFFFFFFFFFFFFFFFFFF AND PUSH4 0xDD98E2BB DUP7 PUSH1 0x40 MLOAD DUP3 PUSH4 0xFFFFFFFF AND PUSH1 0xE0 SHL DUP2 MSTORE PUSH1 0x4 ADD PUSH2 0x810 SWAP2 SWAP1 PUSH2 0x10C0 JUMP JUMPDEST PUSH0 PUSH1 0x40 MLOAD DUP1 DUP4 SUB DUP2 DUP7 GAS STATICCALL ISZERO DUP1 ISZERO PUSH2 0x82A JUMPI RETURNDATASIZE PUSH0 PUSH0 RETURNDATACOPY RETURNDATASIZE PUSH0 REVERT JUMPDEST POP POP POP POP PUSH1 0x40 MLOAD RETURNDATASIZE PUSH0 DUP3 RETURNDATACOPY RETURNDATASIZE PUSH1 0x1F NOT PUSH1 0x1F DUP3 ADD AND DUP3 ADD DUP1 PUSH1 0x40 MSTORE POP DUP2 ADD SWAP1 PUSH2 0x852 SWAP2 SWAP1 PUSH2 0x12D0 JUMP JUMPDEST SWAP1 POP PUSH1 0x40 MLOAD DUP1 PUSH1 0xA0 ADD PUSH1 0x40 MSTORE DUP1 PUSH1 0x2 SLOAD DUP2 MSTORE PUSH1 0x20 ADD DUP8 DUP2 MSTORE PUSH1 0x20 ADD DUP7 DUP2 MSTORE PUSH1 0x20 ADD DUP3 DUP2 MSTORE PUSH1 0x20 ADD DUP6 DUP2 MSTORE POP PUSH1 0x1 PUSH0 PUSH1 0x2 SLOAD DUP2 MSTORE PUSH1 0x20 ADD SWAP1 DUP2 MSTORE PUSH1 0x20 ADD PUSH0 KECCAK256 PUSH0 DUP3 ADD MLOAD DUP2 PUSH0 ADD SSTORE PUSH1 0x20 DUP3 ADD MLOAD DUP2 PUSH1 0x1 ADD SWAP1 DUP2 PUSH2 0x8AD SWAP2 SWAP1 PUSH2 0x14AE JUMP JUMPDEST POP PUSH1 0x40 DUP3 ADD MLOAD DUP2 PUSH1 0x2 ADD SWAP1 DUP2 PUSH2 0x8C3 SWAP2 SWAP1 PUSH2 0x14AE JUMP JUMPDEST POP PUSH1 0x60 DUP3 ADD MLOAD DUP2 PUSH1 0x3 ADD SWAP1 DUP2 PUSH2 0x8D9 SWAP2 SWAP1 PUSH2 0x14AE JUMP JUMPDEST POP PUSH1 0x80 DUP3 ADD MLOAD DUP2 PUSH1 0x4 ADD SSTORE SWAP1 POP POP PUSH0 PUSH0 SWAP1 SLOAD SWAP1 PUSH2 0x100 EXP SWAP1 DIV PUSH20 0xFFFFFFFFFFFFFFFFFFFFFFFFFFFFFFFFFFFFFFFF AND PUSH20 0xFFFFFFFFFFFFFFFFFFFFFFFFFFFFFFFFFFFFFFFF AND PUSH4 0x6CA617D8 DUP7 PUSH1 0x40 MLOAD DUP3 PUSH4 0xFFFFFFFF AND PUSH1 0xE0 SHL DUP2 MSTORE PUSH1 0x4 ADD PUSH2 0x940 SWAP2 SWAP1 PUSH2 0x10C0 JUMP JUMPDEST PUSH0 PUSH1 0x40 MLOAD DUP1 DUP4 SUB DUP2 PUSH0 DUP8 DUP1 EXTCODESIZE ISZERO DUP1 ISZERO PUSH2 0x957 JUMPI PUSH0 PUSH0 REVERT JUMPDEST POP GAS CALL ISZERO DUP1 ISZERO PUSH2 0x969 JUMPI RETURNDATASIZE PUSH0 PUSH0 RETURNDATACOPY RETURNDATASIZE PUSH0 REVERT JUMPDEST POP POP POP POP PUSH1 0x2 PUSH0 DUP2 SLOAD DUP1 SWAP3 SWAP2 SWAP1 PUSH2 0x97F SWAP1 PUSH2 0x15AA JUMP JUMPDEST SWAP2 SWAP1 POP SSTORE POP POP POP POP POP POP POP JUMP JUMPDEST PUSH1 0x1 PUSH0 DUP4 DUP2 MSTORE PUSH1 0x20 ADD SWAP1 DUP2 MSTORE PUSH1 0x20 ADD PUSH0 KECCAK256 PUSH0 PUSH0 DUP3 ADD PUSH0 SWAP1 SSTORE PUSH1 0x1 DUP3 ADD PUSH0 PUSH2 0x9B3 SWAP2 SWAP1 PUSH2 0xA97 JUMP JUMPDEST PUSH1 0x2 DUP3 ADD PUSH0 PUSH2 0x9C2 SWAP2 SWAP1 PUSH2 0xA97 JUMP JUMPDEST PUSH1 0x3 DUP3 ADD PUSH0 PUSH2 0x9D1 SWAP2 SWAP1 PUSH2 0xA97 JUMP JUMPDEST PUSH1 0x4 DUP3 ADD PUSH0 SWAP1 SSTORE POP POP PUSH0 PUSH0 SWAP1 SLOAD SWAP1 PUSH2 0x100 EXP SWAP1 DIV PUSH20 0xFFFFFFFFFFFFFFFFFFFFFFFFFFFFFFFFFFFFFFFF AND PUSH20 0xFFFFFFFFFFFFFFFFFFFFFFFFFFFFFFFFFFFFFFFF AND PUSH4 0x8B20E1AD DUP3 PUSH1 0x40 MLOAD DUP3 PUSH4 0xFFFFFFFF AND PUSH1 0xE0 SHL DUP2 MSTORE PUSH1 0x4 ADD PUSH2 0xA33 SWAP2 SWAP1 PUSH2 0x10C0 JUMP JUMPDEST PUSH0 PUSH1 0x40 MLOAD DUP1 DUP4 SUB DUP2 PUSH0 DUP8 DUP1 EXTCODESIZE ISZERO DUP1 ISZERO PUSH2 0xA4A JUMPI PUSH0 PUSH0 REVERT JUMPDEST POP GAS CALL ISZERO DUP1 ISZERO PUSH2 0xA5C JUMPI RETURNDATASIZE PUSH0 PUSH0 RETURNDATACOPY RETURNDATASIZE PUSH0 REVERT JUMPDEST POP POP POP POP POP POP JUMP JUMPDEST PUSH1 0x2 SLOAD DUP2 JUMP JUMPDEST PUSH1 0x40 MLOAD DUP1 PUSH1 0xA0 ADD PUSH1 0x40 MSTORE DUP1 PUSH0 DUP2 MSTORE PUSH1 0x20 ADD PUSH1 0x60 DUP2 MSTORE PUSH1 0x20 ADD PUSH1 0x60 DUP2 MSTORE PUSH1 0x20 ADD PUSH1 0x60 DUP2 MSTORE PUSH1 0x20 ADD PUSH0 DUP2 MSTORE POP SWAP1 JUMP JUMPDEST POP DUP1 SLOAD PUSH2 0xAA3 SWAP1 PUSH2 0x1090 JUMP JUMPDEST PUSH0 DUP3 SSTORE DUP1 PUSH1 0x1F LT PUSH2 0xAB4 JUMPI POP PUSH2 0xAD1 JUMP JUMPDEST PUSH1 0x1F ADD PUSH1 0x20 SWAP1 DIV SWAP1 PUSH0 MSTORE PUSH1 0x20 PUSH0 KECCAK256 SWAP1 DUP2 ADD SWAP1 PUSH2 0xAD0 SWAP2 SWAP1 PUSH2 0xAD4 JUMP JUMPDEST JUMPDEST POP JUMP JUMPDEST JUMPDEST DUP1 DUP3 GT ISZERO PUSH2 0xAEB JUMPI PUSH0 DUP2 PUSH0 SWAP1 SSTORE POP PUSH1 0x1 ADD PUSH2 0xAD5 JUMP JUMPDEST POP SWAP1 JUMP JUMPDEST PUSH0 PUSH1 0x40 MLOAD SWAP1 POP SWAP1 JUMP JUMPDEST PUSH0 PUSH0 REVERT JUMPDEST PUSH0 PUSH0 REVERT JUMPDEST PUSH0 DUP2 SWAP1 POP SWAP2 SWAP1 POP JUMP JUMPDEST PUSH2 0xB12 DUP2 PUSH2 0xB00 JUMP JUMPDEST DUP2 EQ PUSH2 0xB1C JUMPI PUSH0 PUSH0 REVERT JUMPDEST POP JUMP JUMPDEST PUSH0 DUP2 CALLDATALOAD SWAP1 POP PUSH2 0xB2D DUP2 PUSH2 0xB09 JUMP JUMPDEST SWAP3 SWAP2 POP POP JUMP JUMPDEST PUSH0 PUSH1 0x20 DUP3 DUP5 SUB SLT ISZERO PUSH2 0xB48 JUMPI PUSH2 0xB47 PUSH2 0xAF8 JUMP JUMPDEST JUMPDEST PUSH0 PUSH2 0xB55 DUP5 DUP3 DUP6 ADD PUSH2 0xB1F JUMP JUMPDEST SWAP2 POP POP SWAP3 SWAP2 POP POP JUMP JUMPDEST PUSH2 0xB67 DUP2 PUSH2 0xB00 JUMP JUMPDEST DUP3 MSTORE POP POP JUMP JUMPDEST PUSH0 DUP2 MLOAD SWAP1 POP SWAP2 SWAP1 POP JUMP JUMPDEST PUSH0 DUP3 DUP3 MSTORE PUSH1 0x20 DUP3 ADD SWAP1 POP SWAP3 SWAP2 POP POP JUMP JUMPDEST DUP3 DUP2 DUP4 MCOPY PUSH0 DUP4 DUP4 ADD MSTORE POP POP POP JUMP JUMPDEST PUSH0 PUSH1 0x1F NOT PUSH1 0x1F DUP4 ADD AND SWAP1 POP SWAP2 SWAP1 POP JUMP JUMPDEST PUSH0 PUSH2 0xBAF DUP3 PUSH2 0xB6D JUMP JUMPDEST PUSH2 0xBB9 DUP2 DUP6 PUSH2 0xB77 JUMP JUMPDEST SWAP4 POP PUSH2 0xBC9 DUP2 DUP6 PUSH1 0x20 DUP7 ADD PUSH2 0xB87 JUMP JUMPDEST PUSH2 0xBD2 DUP2 PUSH2 0xB95 JUMP JUMPDEST DUP5 ADD SWAP2 POP POP SWAP3 SWAP2 POP POP JUMP JUMPDEST PUSH0 PUSH1 0xA0 DUP3 ADD SWAP1 POP PUSH2 0xBF0 PUSH0 DUP4 ADD DUP9 PUSH2 0xB5E JUMP JUMPDEST DUP2 DUP2 SUB PUSH1 0x20 DUP4 ADD MSTORE PUSH2 0xC02 DUP2 DUP8 PUSH2 0xBA5 JUMP JUMPDEST SWAP1 POP DUP2 DUP2 SUB PUSH1 0x40 DUP4 ADD MSTORE PUSH2 0xC16 DUP2 DUP7 PUSH2 0xBA5 JUMP JUMPDEST SWAP1 POP DUP2 DUP2 SUB PUSH1 0x60 DUP4 ADD MSTORE PUSH2 0xC2A DUP2 DUP6 PUSH2 0xBA5 JUMP JUMPDEST SWAP1 POP PUSH2 0xC39 PUSH1 0x80 DUP4 ADD DUP5 PUSH2 0xB5E JUMP JUMPDEST SWAP7 SWAP6 POP POP POP POP POP POP JUMP JUMPDEST PUSH0 PUSH20 0xFFFFFFFFFFFFFFFFFFFFFFFFFFFFFFFFFFFFFFFF DUP3 AND SWAP1 POP SWAP2 SWAP1 POP JUMP JUMPDEST PUSH0 DUP2 SWAP1 POP SWAP2 SWAP1 POP JUMP JUMPDEST PUSH0 PUSH2 0xC85 PUSH2 0xC80 PUSH2 0xC7B DUP5 PUSH2 0xC43 JUMP JUMPDEST PUSH2 0xC62 JUMP JUMPDEST PUSH2 0xC43 JUMP JUMPDEST SWAP1 POP SWAP2 SWAP1 POP JUMP JUMPDEST PUSH0 PUSH2 0xC96 DUP3 PUSH2 0xC6B JUMP JUMPDEST SWAP1 POP SWAP2 SWAP1 POP JUMP JUMPDEST PUSH0 PUSH2 0xCA7 DUP3 PUSH2 0xC8C JUMP JUMPDEST SWAP1 POP SWAP2 SWAP1 POP JUMP JUMPDEST PUSH2 0xCB7 DUP2 PUSH2 0xC9D JUMP JUMPDEST DUP3 MSTORE POP POP JUMP JUMPDEST PUSH0 PUSH1 0x20 DUP3 ADD SWAP1 POP PUSH2 0xCD0 PUSH0 DUP4 ADD DUP5 PUSH2 0xCAE JUMP JUMPDEST SWAP3 SWAP2 POP POP JUMP JUMPDEST PUSH0 PUSH0 REVERT JUMPDEST PUSH0 PUSH0 REVERT JUMPDEST PUSH32 0x4E487B7100000000000000000000000000000000000000000000000000000000 PUSH0 MSTORE PUSH1 0x41 PUSH1 0x4 MSTORE PUSH1 0x24 PUSH0 REVERT JUMPDEST PUSH2 0xD14 DUP3 PUSH2 0xB95 JUMP JUMPDEST DUP2 ADD DUP2 DUP2 LT PUSH8 0xFFFFFFFFFFFFFFFF DUP3 GT OR ISZERO PUSH2 0xD33 JUMPI PUSH2 0xD32 PUSH2 0xCDE JUMP JUMPDEST JUMPDEST DUP1 PUSH1 0x40 MSTORE POP POP POP JUMP JUMPDEST PUSH0 PUSH2 0xD45 PUSH2 0xAEF JUMP JUMPDEST SWAP1 POP PUSH2 0xD51 DUP3 DUP3 PUSH2 0xD0B JUMP JUMPDEST SWAP2 SWAP1 POP JUMP JUMPDEST PUSH0 PUSH8 0xFFFFFFFFFFFFFFFF DUP3 GT ISZERO PUSH2 0xD70 JUMPI PUSH2 0xD6F PUSH2 0xCDE JUMP JUMPDEST JUMPDEST PUSH2 0xD79 DUP3 PUSH2 0xB95 JUMP JUMPDEST SWAP1 POP PUSH1 0x20 DUP2 ADD SWAP1 POP SWAP2 SWAP1 POP JUMP JUMPDEST DUP3 DUP2 DUP4 CALLDATACOPY PUSH0 DUP4 DUP4 ADD MSTORE POP POP POP JUMP JUMPDEST PUSH0 PUSH2 0xDA6 PUSH2 0xDA1 DUP5 PUSH2 0xD56 JUMP JUMPDEST PUSH2 0xD3C JUMP JUMPDEST SWAP1 POP DUP3 DUP2 MSTORE PUSH1 0x20 DUP2 ADD DUP5 DUP5 DUP5 ADD GT ISZERO PUSH2 0xDC2 JUMPI PUSH2 0xDC1 PUSH2 0xCDA JUMP JUMPDEST JUMPDEST PUSH2 0xDCD DUP5 DUP3 DUP6 PUSH2 0xD86 JUMP JUMPDEST POP SWAP4 SWAP3 POP POP POP JUMP JUMPDEST PUSH0 DUP3 PUSH1 0x1F DUP4 ADD SLT PUSH2 0xDE9 JUMPI PUSH2 0xDE8 PUSH2 0xCD6 JUMP JUMPDEST JUMPDEST DUP2 CALLDATALOAD PUSH2 0xDF9 DUP5 DUP3 PUSH1 0x20 DUP7 ADD PUSH2 0xD94 JUMP JUMPDEST SWAP2 POP POP SWAP3 SWAP2 POP POP JUMP JUMPDEST PUSH0 PUSH1 0x20 DUP3 DUP5 SUB SLT ISZERO PUSH2 0xE17 JUMPI PUSH2 0xE16 PUSH2 0xAF8 JUMP JUMPDEST JUMPDEST PUSH0 DUP3 ADD CALLDATALOAD PUSH8 0xFFFFFFFFFFFFFFFF DUP2 GT ISZERO PUSH2 0xE34 JUMPI PUSH2 0xE33 PUSH2 0xAFC JUMP JUMPDEST JUMPDEST PUSH2 0xE40 DUP5 DUP3 DUP6 ADD PUSH2 0xDD5 JUMP JUMPDEST SWAP2 POP POP SWAP3 SWAP2 POP POP JUMP JUMPDEST PUSH0 PUSH1 0x40 DUP3 ADD SWAP1 POP PUSH2 0xE5C PUSH0 DUP4 ADD DUP6 PUSH2 0xB5E JUMP JUMPDEST PUSH2 0xE69 PUSH1 0x20 DUP4 ADD DUP5 PUSH2 0xB5E JUMP JUMPDEST SWAP4 SWAP3 POP POP POP JUMP JUMPDEST PUSH2 0xE79 DUP2 PUSH2 0xB00 JUMP JUMPDEST DUP3 MSTORE POP POP JUMP JUMPDEST PUSH0 DUP3 DUP3 MSTORE PUSH1 0x20 DUP3 ADD SWAP1 POP SWAP3 SWAP2 POP POP JUMP JUMPDEST PUSH0 PUSH2 0xE99 DUP3 PUSH2 0xB6D JUMP JUMPDEST PUSH2 0xEA3 DUP2 DUP6 PUSH2 0xE7F JUMP JUMPDEST SWAP4 POP PUSH2 0xEB3 DUP2 DUP6 PUSH1 0x20 DUP7 ADD PUSH2 0xB87 JUMP JUMPDEST PUSH2 0xEBC DUP2 PUSH2 0xB95 JUMP JUMPDEST DUP5 ADD SWAP2 POP POP SWAP3 SWAP2 POP POP JUMP JUMPDEST PUSH0 PUSH1 0xA0 DUP4 ADD PUSH0 DUP4 ADD MLOAD PUSH2 0xEDC PUSH0 DUP7 ADD DUP3 PUSH2 0xE70 JUMP JUMPDEST POP PUSH1 0x20 DUP4 ADD MLOAD DUP5 DUP3 SUB PUSH1 0x20 DUP7 ADD MSTORE PUSH2 0xEF4 DUP3 DUP3 PUSH2 0xE8F JUMP JUMPDEST SWAP2 POP POP PUSH1 0x40 DUP4 ADD MLOAD DUP5 DUP3 SUB PUSH1 0x40 DUP7 ADD MSTORE PUSH2 0xF0E DUP3 DUP3 PUSH2 0xE8F JUMP JUMPDEST SWAP2 POP POP PUSH1 0x60 DUP4 ADD MLOAD DUP5 DUP3 SUB PUSH1 0x60 DUP7 ADD MSTORE PUSH2 0xF28 DUP3 DUP3 PUSH2 0xE8F JUMP JUMPDEST SWAP2 POP POP PUSH1 0x80 DUP4 ADD MLOAD PUSH2 0xF3D PUSH1 0x80 DUP7 ADD DUP3 PUSH2 0xE70 JUMP JUMPDEST POP DUP1 SWAP2 POP POP SWAP3 SWAP2 POP POP JUMP JUMPDEST PUSH0 PUSH1 0x20 DUP3 ADD SWAP1 POP DUP2 DUP2 SUB PUSH0 DUP4 ADD MSTORE PUSH2 0xF60 DUP2 DUP5 PUSH2 0xEC7 JUMP JUMPDEST SWAP1 POP SWAP3 SWAP2 POP POP JUMP JUMPDEST PUSH0 PUSH0 PUSH0 PUSH1 0x60 DUP5 DUP7 SUB SLT ISZERO PUSH2 0xF7F JUMPI PUSH2 0xF7E PUSH2 0xAF8 JUMP JUMPDEST JUMPDEST PUSH0 DUP5 ADD CALLDATALOAD PUSH8 0xFFFFFFFFFFFFFFFF DUP2 GT ISZERO PUSH2 0xF9C JUMPI PUSH2 0xF9B PUSH2 0xAFC JUMP JUMPDEST JUMPDEST PUSH2 0xFA8 DUP7 DUP3 DUP8 ADD PUSH2 0xDD5 JUMP JUMPDEST SWAP4 POP POP PUSH1 0x20 DUP5 ADD CALLDATALOAD PUSH8 0xFFFFFFFFFFFFFFFF DUP2 GT ISZERO PUSH2 0xFC9 JUMPI PUSH2 0xFC8 PUSH2 0xAFC JUMP JUMPDEST JUMPDEST PUSH2 0xFD5 DUP7 DUP3 DUP8 ADD PUSH2 0xDD5 JUMP JUMPDEST SWAP3 POP POP PUSH1 0x40 PUSH2 0xFE6 DUP7 DUP3 DUP8 ADD PUSH2 0xB1F JUMP JUMPDEST SWAP2 POP POP SWAP3 POP SWAP3 POP SWAP3 JUMP JUMPDEST PUSH0 PUSH0 PUSH1 0x40 DUP4 DUP6 SUB SLT ISZERO PUSH2 0x1006 JUMPI PUSH2 0x1005 PUSH2 0xAF8 JUMP JUMPDEST JUMPDEST PUSH0 PUSH2 0x1013 DUP6 DUP3 DUP7 ADD PUSH2 0xB1F JUMP JUMPDEST SWAP3 POP POP PUSH1 0x20 DUP4 ADD CALLDATALOAD PUSH8 0xFFFFFFFFFFFFFFFF DUP2 GT ISZERO PUSH2 0x1034 JUMPI PUSH2 0x1033 PUSH2 0xAFC JUMP JUMPDEST JUMPDEST PUSH2 0x1040 DUP6 DUP3 DUP7 ADD PUSH2 0xDD5 JUMP JUMPDEST SWAP2 POP POP SWAP3 POP SWAP3 SWAP1 POP JUMP JUMPDEST PUSH0 PUSH1 0x20 DUP3 ADD SWAP1 POP PUSH2 0x105D PUSH0 DUP4 ADD DUP5 PUSH2 0xB5E JUMP JUMPDEST SWAP3 SWAP2 POP POP JUMP JUMPDEST PUSH32 0x4E487B7100000000000000000000000000000000000000000000000000000000 PUSH0 MSTORE PUSH1 0x22 PUSH1 0x4 MSTORE PUSH1 0x24 PUSH0 REVERT JUMPDEST PUSH0 PUSH1 0x2 DUP3 DIV SWAP1 POP PUSH1 0x1 DUP3 AND DUP1 PUSH2 0x10A7 JUMPI PUSH1 0x7F DUP3 AND SWAP2 POP JUMPDEST PUSH1 0x20 DUP3 LT DUP2 SUB PUSH2 0x10BA JUMPI PUSH2 0x10B9 PUSH2 0x1063 JUMP JUMPDEST JUMPDEST POP SWAP2 SWAP1 POP JUMP JUMPDEST PUSH0 PUSH1 0x20 DUP3 ADD SWAP1 POP DUP2 DUP2 SUB PUSH0 DUP4 ADD MSTORE PUSH2 0x10D8 DUP2 DUP5 PUSH2 0xBA5 JUMP JUMPDEST SWAP1 POP SWAP3 SWAP2 POP POP JUMP JUMPDEST PUSH0 DUP2 MLOAD SWAP1 POP PUSH2 0x10EE DUP2 PUSH2 0xB09 JUMP JUMPDEST SWAP3 SWAP2 POP POP JUMP JUMPDEST PUSH0 PUSH0 PUSH1 0x40 DUP4 DUP6 SUB SLT ISZERO PUSH2 0x110A JUMPI PUSH2 0x1109 PUSH2 0xAF8 JUMP JUMPDEST JUMPDEST PUSH0 PUSH2 0x1117 DUP6 DUP3 DUP7 ADD PUSH2 0x10E0 JUMP JUMPDEST SWAP3 POP POP PUSH1 0x20 PUSH2 0x1128 DUP6 DUP3 DUP7 ADD PUSH2 0x10E0 JUMP JUMPDEST SWAP2 POP POP SWAP3 POP SWAP3 SWAP1 POP JUMP JUMPDEST PUSH0 DUP2 ISZERO ISZERO SWAP1 POP SWAP2 SWAP1 POP JUMP JUMPDEST PUSH2 0x1146 DUP2 PUSH2 0x1132 JUMP JUMPDEST DUP2 EQ PUSH2 0x1150 JUMPI PUSH0 PUSH0 REVERT JUMPDEST POP JUMP JUMPDEST PUSH0 DUP2 MLOAD SWAP1 POP PUSH2 0x1161 DUP2 PUSH2 0x113D JUMP JUMPDEST SWAP3 SWAP2 POP POP JUMP JUMPDEST PUSH0 PUSH1 0x20 DUP3 DUP5 SUB SLT ISZERO PUSH2 0x117C JUMPI PUSH2 0x117B PUSH2 0xAF8 JUMP JUMPDEST JUMPDEST PUSH0 PUSH2 0x1189 DUP5 DUP3 DUP6 ADD PUSH2 0x1153 JUMP JUMPDEST SWAP2 POP POP SWAP3 SWAP2 POP POP JUMP JUMPDEST PUSH32 0x436C61737320646F6573206E6F74206578697374000000000000000000000000 PUSH0 DUP3 ADD MSTORE POP JUMP JUMPDEST PUSH0 PUSH2 0x11C6 PUSH1 0x14 DUP4 PUSH2 0xB77 JUMP JUMPDEST SWAP2 POP PUSH2 0x11D1 DUP3 PUSH2 0x1192 JUMP JUMPDEST PUSH1 0x20 DUP3 ADD SWAP1 POP SWAP2 SWAP1 POP JUMP JUMPDEST PUSH0 PUSH1 0x20 DUP3 ADD SWAP1 POP DUP2 DUP2 SUB PUSH0 DUP4 ADD MSTORE PUSH2 0x11F3 DUP2 PUSH2 0x11BA JUMP JUMPDEST SWAP1 POP SWAP2 SWAP1 POP JUMP JUMPDEST PUSH32 0x436C6173732069732066756C6C00000000000000000000000000000000000000 PUSH0 DUP3 ADD MSTORE POP JUMP JUMPDEST PUSH0 PUSH2 0x122E PUSH1 0xD DUP4 PUSH2 0xB77 JUMP JUMPDEST SWAP2 POP PUSH2 0x1239 DUP3 PUSH2 0x11FA JUMP JUMPDEST PUSH1 0x20 DUP3 ADD SWAP1 POP SWAP2 SWAP1 POP JUMP JUMPDEST PUSH0 PUSH1 0x20 DUP3 ADD SWAP1 POP DUP2 DUP2 SUB PUSH0 DUP4 ADD MSTORE PUSH2 0x125B DUP2 PUSH2 0x1222 JUMP JUMPDEST SWAP1 POP SWAP2 SWAP1 POP JUMP JUMPDEST PUSH0 PUSH2 0x1274 PUSH2 0x126F DUP5 PUSH2 0xD56 JUMP JUMPDEST PUSH2 0xD3C JUMP JUMPDEST SWAP1 POP DUP3 DUP2 MSTORE PUSH1 0x20 DUP2 ADD DUP5 DUP5 DUP5 ADD GT ISZERO PUSH2 0x1290 JUMPI PUSH2 0x128F PUSH2 0xCDA JUMP JUMPDEST JUMPDEST PUSH2 0x129B DUP5 DUP3 DUP6 PUSH2 0xB87 JUMP JUMPDEST POP SWAP4 SWAP3 POP POP POP JUMP JUMPDEST PUSH0 DUP3 PUSH1 0x1F DUP4 ADD SLT PUSH2 0x12B7 JUMPI PUSH2 0x12B6 PUSH2 0xCD6 JUMP JUMPDEST JUMPDEST DUP2 MLOAD PUSH2 0x12C7 DUP5 DUP3 PUSH1 0x20 DUP7 ADD PUSH2 0x1262 JUMP JUMPDEST SWAP2 POP POP SWAP3 SWAP2 POP POP JUMP JUMPDEST PUSH0 PUSH1 0x20 DUP3 DUP5 SUB SLT ISZERO PUSH2 0x12E5 JUMPI PUSH2 0x12E4 PUSH2 0xAF8 JUMP JUMPDEST JUMPDEST PUSH0 DUP3 ADD MLOAD PUSH8 0xFFFFFFFFFFFFFFFF DUP2 GT ISZERO PUSH2 0x1302 JUMPI PUSH2 0x1301 PUSH2 0xAFC JUMP JUMPDEST JUMPDEST PUSH2 0x130E DUP5 DUP3 DUP6 ADD PUSH2 0x12A3 JUMP JUMPDEST SWAP2 POP POP SWAP3 SWAP2 POP POP JUMP JUMPDEST PUSH0 DUP2 SWAP1 POP DUP2 PUSH0 MSTORE PUSH1 0x20 PUSH0 KECCAK256 SWAP1 POP SWAP2 SWAP1 POP JUMP JUMPDEST PUSH0 PUSH1 0x20 PUSH1 0x1F DUP4 ADD DIV SWAP1 POP SWAP2 SWAP1 POP JUMP JUMPDEST PUSH0 DUP3 DUP3 SHL SWAP1 POP SWAP3 SWAP2 POP POP JUMP JUMPDEST PUSH0 PUSH1 0x8 DUP4 MUL PUSH2 0x1373 PUSH32 0xFFFFFFFFFFFFFFFFFFFFFFFFFFFFFFFFFFFFFFFFFFFFFFFFFFFFFFFFFFFFFFFF DUP3 PUSH2 0x1338 JUMP JUMPDEST PUSH2 0x137D DUP7 DUP4 PUSH2 0x1338 JUMP JUMPDEST SWAP6 POP DUP1 NOT DUP5 AND SWAP4 POP DUP1 DUP7 AND DUP5 OR SWAP3 POP POP POP SWAP4 SWAP3 POP POP POP JUMP JUMPDEST PUSH0 PUSH2 0x13AF PUSH2 0x13AA PUSH2 0x13A5 DUP5 PUSH2 0xB00 JUMP JUMPDEST PUSH2 0xC62 JUMP JUMPDEST PUSH2 0xB00 JUMP JUMPDEST SWAP1 POP SWAP2 SWAP1 POP JUMP JUMPDEST PUSH0 DUP2 SWAP1 POP SWAP2 SWAP1 POP JUMP JUMPDEST PUSH2 0x13C8 DUP4 PUSH2 0x1395 JUMP JUMPDEST PUSH2 0x13DC PUSH2 0x13D4 DUP3 PUSH2 0x13B6 JUMP JUMPDEST DUP5 DUP5 SLOAD PUSH2 0x1344 JUMP JUMPDEST DUP3 SSTORE POP POP POP POP JUMP JUMPDEST PUSH0 PUSH0 SWAP1 POP SWAP1 JUMP JUMPDEST PUSH2 0x13F3 PUSH2 0x13E4 JUMP JUMPDEST PUSH2 0x13FE DUP2 DUP5 DUP5 PUSH2 0x13BF JUMP JUMPDEST POP POP POP JUMP JUMPDEST JUMPDEST DUP2 DUP2 LT ISZERO PUSH2 0x1421 JUMPI PUSH2 0x1416 PUSH0 DUP3 PUSH2 0x13EB JUMP JUMPDEST PUSH1 0x1 DUP2 ADD SWAP1 POP PUSH2 0x1404 JUMP JUMPDEST POP POP JUMP JUMPDEST PUSH1 0x1F DUP3 GT ISZERO PUSH2 0x1466 JUMPI PUSH2 0x1437 DUP2 PUSH2 0x1317 JUMP JUMPDEST PUSH2 0x1440 DUP5 PUSH2 0x1329 JUMP JUMPDEST DUP2 ADD PUSH1 0x20 DUP6 LT ISZERO PUSH2 0x144F JUMPI DUP2 SWAP1 POP JUMPDEST PUSH2 0x1463 PUSH2 0x145B DUP6 PUSH2 0x1329 JUMP JUMPDEST DUP4 ADD DUP3 PUSH2 0x1403 JUMP JUMPDEST POP POP JUMPDEST POP POP POP JUMP JUMPDEST PUSH0 DUP3 DUP3 SHR SWAP1 POP SWAP3 SWAP2 POP POP JUMP JUMPDEST PUSH0 PUSH2 0x1486 PUSH0 NOT DUP5 PUSH1 0x8 MUL PUSH2 0x146B JUMP JUMPDEST NOT DUP1 DUP4 AND SWAP2 POP POP SWAP3 SWAP2 POP POP JUMP JUMPDEST PUSH0 PUSH2 0x149E DUP4 DUP4 PUSH2 0x1477 JUMP JUMPDEST SWAP2 POP DUP3 PUSH1 0x2 MUL DUP3 OR SWAP1 POP SWAP3 SWAP2 POP POP JUMP JUMPDEST PUSH2 0x14B7 DUP3 PUSH2 0xB6D JUMP JUMPDEST PUSH8 0xFFFFFFFFFFFFFFFF DUP2 GT ISZERO PUSH2 0x14D0 JUMPI PUSH2 0x14CF PUSH2 0xCDE JUMP JUMPDEST JUMPDEST PUSH2 0x14DA DUP3 SLOAD PUSH2 0x1090 JUMP JUMPDEST PUSH2 0x14E5 DUP3 DUP3 DUP6 PUSH2 0x1425 JUMP JUMPDEST PUSH0 PUSH1 0x20 SWAP1 POP PUSH1 0x1F DUP4 GT PUSH1 0x1 DUP2 EQ PUSH2 0x1516 JUMPI PUSH0 DUP5 ISZERO PUSH2 0x1504 JUMPI DUP3 DUP8 ADD MLOAD SWAP1 POP JUMPDEST PUSH2 0x150E DUP6 DUP3 PUSH2 0x1493 JUMP JUMPDEST DUP7 SSTORE POP PUSH2 0x1575 JUMP JUMPDEST PUSH1 0x1F NOT DUP5 AND PUSH2 0x1524 DUP7 PUSH2 0x1317 JUMP JUMPDEST PUSH0 JUMPDEST DUP3 DUP2 LT ISZERO PUSH2 0x154B JUMPI DUP5 DUP10 ADD MLOAD DUP3 SSTORE PUSH1 0x1 DUP3 ADD SWAP2 POP PUSH1 0x20 DUP6 ADD SWAP5 POP PUSH1 0x20 DUP2 ADD SWAP1 POP PUSH2 0x1526 JUMP JUMPDEST DUP7 DUP4 LT ISZERO PUSH2 0x1568 JUMPI DUP5 DUP10 ADD MLOAD PUSH2 0x1564 PUSH1 0x1F DUP10 AND DUP3 PUSH2 0x1477 JUMP JUMPDEST DUP4 SSTORE POP JUMPDEST PUSH1 0x1 PUSH1 0x2 DUP9 MUL ADD DUP9 SSTORE POP POP POP JUMPDEST POP POP POP POP POP POP JUMP JUMPDEST PUSH32 0x4E487B7100000000000000000000000000000000000000000000000000000000 PUSH0 MSTORE PUSH1 0x11 PUSH1 0x4 MSTORE PUSH1 0x24 PUSH0 REVERT JUMPDEST PUSH0 PUSH2 0x15B4 DUP3 PUSH2 0xB00 JUMP JUMPDEST SWAP2 POP PUSH32 0xFFFFFFFFFFFFFFFFFFFFFFFFFFFFFFFFFFFFFFFFFFFFFFFFFFFFFFFFFFFFFFFF DUP3 SUB PUSH2 0x15E6 JUMPI PUSH2 0x15E5 PUSH2 0x157D JUMP JUMPDEST JUMPDEST PUSH1 0x1 DUP3 ADD SWAP1 POP SWAP2 SWAP1 POP JUMP INVALID LOG2 PUSH5 0x6970667358 0x22 SLT KECCAK256 0xE9 SWAP6 0xA9 0x2E 0xD9 0xD SLT RETURNDATACOPY STOP PUSH23 0x755FCC34D9CE08D0AEE5F5AAF390BD05D6A1C2E8C57C64 PUSH20 0x6F6C634300081E00330000000000000000000000 "
				},
				"gasEstimates": {
					"creation": {
						"codeDepositCost": "1134200",
						"executionCost": "infinite",
						"totalCost": "infinite"
					},
					"external": {
						"addStudent(string,string,uint256)": "infinite",
						"classContract()": "infinite",
						"countCurLimit(string)": "infinite",
						"deleteStudent(uint256,string)": "infinite",
						"getStudent(uint256)": "infinite",
						"studentCount()": "2491",
						"students(uint256)": "infinite"
					}
				},
				"methodIdentifiers": {
					"addStudent(string,string,uint256)": "9cc8f139",
					"classContract()": "262e3ec3",
					"countCurLimit(string)": "4f78668c",
					"deleteStudent(uint256,string)": "df50ca89",
					"getStudent(uint256)": "642f9163",
					"studentCount()": "e581f9ee",
					"students(uint256)": "06ead22e"
				}
			},
			"storageLayout": {
				"storage": [
					{
						"astId": 49,
						"contract": "contracts/qlsv/IClassManager.sol:StudentManager",
						"label": "classContract",
						"offset": 0,
						"slot": "0",
						"type": "t_contract(IClassManager)35"
					},
					{
						"astId": 54,
						"contract": "contracts/qlsv/IClassManager.sol:StudentManager",
						"label": "students",
						"offset": 0,
						"slot": "1",
						"type": "t_mapping(t_uint256,t_struct(Student)46_storage)"
					},
					{
						"astId": 56,
						"contract": "contracts/qlsv/IClassManager.sol:StudentManager",
						"label": "studentCount",
						"offset": 0,
						"slot": "2",
						"type": "t_uint256"
					}
				],
				"types": {
					"t_contract(IClassManager)35": {
						"encoding": "inplace",
						"label": "contract IClassManager",
						"numberOfBytes": "20"
					},
					"t_mapping(t_uint256,t_struct(Student)46_storage)": {
						"encoding": "mapping",
						"key": "t_uint256",
						"label": "mapping(uint256 => struct StudentManager.Student)",
						"numberOfBytes": "32",
						"value": "t_struct(Student)46_storage"
					},
					"t_string_storage": {
						"encoding": "bytes",
						"label": "string",
						"numberOfBytes": "32"
					},
					"t_struct(Student)46_storage": {
						"encoding": "inplace",
						"label": "struct StudentManager.Student",
						"members": [
							{
								"astId": 37,
								"contract": "contracts/qlsv/IClassManager.sol:StudentManager",
								"label": "id",
								"offset": 0,
								"slot": "0",
								"type": "t_uint256"
							},
							{
								"astId": 39,
								"contract": "contracts/qlsv/IClassManager.sol:StudentManager",
								"label": "name",
								"offset": 0,
								"slot": "1",
								"type": "t_string_storage"
							},
							{
								"astId": 41,
								"contract": "contracts/qlsv/IClassManager.sol:StudentManager",
								"label": "className",
								"offset": 0,
								"slot": "2",
								"type": "t_string_storage"
							},
							{
								"astId": 43,
								"contract": "contracts/qlsv/IClassManager.sol:StudentManager",
								"label": "level",
								"offset": 0,
								"slot": "3",
								"type": "t_string_storage"
							},
							{
								"astId": 45,
								"contract": "contracts/qlsv/IClassManager.sol:StudentManager",
								"label": "age",
								"offset": 0,
								"slot": "4",
								"type": "t_uint256"
							}
						],
						"numberOfBytes": "160"
					},
					"t_uint256": {
						"encoding": "inplace",
						"label": "uint256",
						"numberOfBytes": "32"
					}
				}
			},
			"userdoc": {
				"kind": "user",
				"methods": {},
				"version": 1
			}
		}
	}
}