{
	"contracts/qlsv/ClassManager.sol": {
		"ClassManager": {
			"abi": [
				{
					"inputs": [
						{
							"internalType": "string",
							"name": "_name",
							"type": "string"
						},
						{
							"internalType": "string",
							"name": "_level",
							"type": "string"
						},
						{
							"internalType": "uint256",
							"name": "_maxStudents",
							"type": "uint256"
						}
					],
					"name": "addClass",
					"outputs": [],
					"stateMutability": "nonpayable",
					"type": "function"
				},
				{
					"inputs": [
						{
							"internalType": "string",
							"name": "",
							"type": "string"
						}
					],
					"name": "classes",
					"outputs": [
						{
							"internalType": "string",
							"name": "name",
							"type": "string"
						},
						{
							"internalType": "string",
							"name": "level",
							"type": "string"
						},
						{
							"internalType": "uint256",
							"name": "maxStudents",
							"type": "uint256"
						},
						{
							"internalType": "uint256",
							"name": "currentStudents",
							"type": "uint256"
						}
					],
					"stateMutability": "view",
					"type": "function"
				},
				{
					"inputs": [
						{
							"internalType": "string",
							"name": "_name",
							"type": "string"
						}
					],
					"name": "decrementStudent",
					"outputs": [],
					"stateMutability": "nonpayable",
					"type": "function"
				},
				{
					"inputs": [
						{
							"internalType": "string",
							"name": "_name",
							"type": "string"
						}
					],
					"name": "getClassLevel",
					"outputs": [
						{
							"internalType": "string",
							"name": "",
							"type": "string"
						}
					],
					"stateMutability": "view",
					"type": "function"
				},
				{
					"inputs": [
						{
							"internalType": "string",
							"name": "_name",
							"type": "string"
						}
					],
					"name": "getStudentLimit",
					"outputs": [
						{
							"internalType": "uint256",
							"name": "",
							"type": "uint256"
						},
						{
							"internalType": "uint256",
							"name": "",
							"type": "uint256"
						}
					],
					"stateMutability": "view",
					"type": "function"
				},
				{
					"inputs": [
						{
							"internalType": "string",
							"name": "_name",
							"type": "string"
						}
					],
					"name": "incrementStudent",
					"outputs": [],
					"stateMutability": "nonpayable",
					"type": "function"
				},
				{
					"inputs": [
						{
							"internalType": "string",
							"name": "_name",
							"type": "string"
						}
					],
					"name": "isClassExist",
					"outputs": [
						{
							"internalType": "bool",
							"name": "",
							"type": "bool"
						}
					],
					"stateMutability": "view",
					"type": "function"
				}
			],
			"devdoc": {
				"kind": "dev",
				"methods": {},
				"version": 1
			},
			"evm": {
				"assembly": "    /* \"contracts/qlsv/ClassManager.sol\":60:1124  contract ClassManager {... */\n  mstore(0x40, 0x80)\n  callvalue\n  dup1\n  iszero\n  tag_1\n  jumpi\n  revert(0x00, 0x00)\ntag_1:\n  pop\n  dataSize(sub_0)\n  dup1\n  dataOffset(sub_0)\n  0x00\n  codecopy\n  0x00\n  return\nstop\n\nsub_0: assembly {\n        /* \"contracts/qlsv/ClassManager.sol\":60:1124  contract ClassManager {... */\n      mstore(0x40, 0x80)\n      callvalue\n      dup1\n      iszero\n      tag_1\n      jumpi\n      revert(0x00, 0x00)\n    tag_1:\n      pop\n      jumpi(tag_2, lt(calldatasize, 0x04))\n      shr(0xe0, calldataload(0x00))\n      dup1\n      0x99e4ab24\n      gt\n      tag_10\n      jumpi\n      dup1\n      0x99e4ab24\n      eq\n      tag_6\n      jumpi\n      dup1\n      0xae31a877\n      eq\n      tag_7\n      jumpi\n      dup1\n      0xdd98e2bb\n      eq\n      tag_8\n      jumpi\n      dup1\n      0xe250250b\n      eq\n      tag_9\n      jumpi\n      jump(tag_2)\n    tag_10:\n      dup1\n      0x6ca617d8\n      eq\n      tag_3\n      jumpi\n      dup1\n      0x6ceb5453\n      eq\n      tag_4\n      jumpi\n      dup1\n      0x8b20e1ad\n      eq\n      tag_5\n      jumpi\n    tag_2:\n      revert(0x00, 0x00)\n        /* \"contracts/qlsv/ClassManager.sol\":903:1008  function incrementStudent(string memory _name) public {... */\n    tag_3:\n      tag_11\n      0x04\n      dup1\n      calldatasize\n      sub\n      dup2\n      add\n      swap1\n      tag_12\n      swap2\n      swap1\n      tag_13\n      jump\t// in\n    tag_12:\n      tag_14\n      jump\t// in\n    tag_11:\n      stop\n        /* \"contracts/qlsv/ClassManager.sol\":730:895  function getStudentLimit(string memory _name) public view returns (uint, uint) {... */\n    tag_4:\n      tag_15\n      0x04\n      dup1\n      calldatasize\n      sub\n      dup2\n      add\n      swap1\n      tag_16\n      swap2\n      swap1\n      tag_13\n      jump\t// in\n    tag_16:\n      tag_17\n      jump\t// in\n    tag_15:\n      mload(0x40)\n      tag_18\n      swap3\n      swap2\n      swap1\n      tag_19\n      jump\t// in\n    tag_18:\n      mload(0x40)\n      dup1\n      swap2\n      sub\n      swap1\n      return\n        /* \"contracts/qlsv/ClassManager.sol\":1016:1121  function decrementStudent(string memory _name) public {... */\n    tag_5:\n      tag_20\n      0x04\n      dup1\n      calldatasize\n      sub\n      dup2\n      add\n      swap1\n      tag_21\n      swap2\n      swap1\n      tag_13\n      jump\t// in\n    tag_21:\n      tag_22\n      jump\t// in\n    tag_20:\n      stop\n        /* \"contracts/qlsv/ClassManager.sol\":286:446  function addClass(string memory _name, string memory _level, uint _maxStudents) public {... */\n    tag_6:\n      tag_23\n      0x04\n      dup1\n      calldatasize\n      sub\n      dup2\n      add\n      swap1\n      tag_24\n      swap2\n      swap1\n      tag_25\n      jump\t// in\n    tag_24:\n      tag_26\n      jump\t// in\n    tag_23:\n      stop\n        /* \"contracts/qlsv/ClassManager.sol\":238:277  mapping(string => Class) public classes */\n    tag_7:\n      tag_27\n      0x04\n      dup1\n      calldatasize\n      sub\n      dup2\n      add\n      swap1\n      tag_28\n      swap2\n      swap1\n      tag_13\n      jump\t// in\n    tag_28:\n      tag_29\n      jump\t// in\n    tag_27:\n      mload(0x40)\n      tag_30\n      swap5\n      swap4\n      swap3\n      swap2\n      swap1\n      tag_31\n      jump\t// in\n    tag_30:\n      mload(0x40)\n      dup1\n      swap2\n      sub\n      swap1\n      return\n        /* \"contracts/qlsv/ClassManager.sol\":596:722  function getClassLevel(string memory _name) public view returns (string memory) {... */\n    tag_8:\n      tag_32\n      0x04\n      dup1\n      calldatasize\n      sub\n      dup2\n      add\n      swap1\n      tag_33\n      swap2\n      swap1\n      tag_13\n      jump\t// in\n    tag_33:\n      tag_34\n      jump\t// in\n    tag_32:\n      mload(0x40)\n      tag_35\n      swap2\n      swap1\n      tag_36\n      jump\t// in\n    tag_35:\n      mload(0x40)\n      dup1\n      swap2\n      sub\n      swap1\n      return\n        /* \"contracts/qlsv/ClassManager.sol\":454:588  function isClassExist(string memory _name) public view returns (bool) {... */\n    tag_9:\n      tag_37\n      0x04\n      dup1\n      calldatasize\n      sub\n      dup2\n      add\n      swap1\n      tag_38\n      swap2\n      swap1\n      tag_13\n      jump\t// in\n    tag_38:\n      tag_39\n      jump\t// in\n    tag_37:\n      mload(0x40)\n      tag_40\n      swap2\n      swap1\n      tag_41\n      jump\t// in\n    tag_40:\n      mload(0x40)\n      dup1\n      swap2\n      sub\n      swap1\n      return\n        /* \"contracts/qlsv/ClassManager.sol\":903:1008  function incrementStudent(string memory _name) public {... */\n    tag_14:\n        /* \"contracts/qlsv/ClassManager.sol\":968:975  classes */\n      0x00\n        /* \"contracts/qlsv/ClassManager.sol\":976:981  _name */\n      dup2\n        /* \"contracts/qlsv/ClassManager.sol\":968:982  classes[_name] */\n      mload(0x40)\n      tag_43\n      swap2\n      swap1\n      tag_44\n      jump\t// in\n    tag_43:\n      swap1\n      dup2\n      mstore\n      0x20\n      add\n      mload(0x40)\n      dup1\n      swap2\n      sub\n      swap1\n      keccak256\n        /* \"contracts/qlsv/ClassManager.sol\":968:998  classes[_name].currentStudents */\n      0x03\n      add\n      0x00\n        /* \"contracts/qlsv/ClassManager.sol\":968:1000  classes[_name].currentStudents++ */\n      dup2\n      sload\n      dup1\n      swap3\n      swap2\n      swap1\n      tag_45\n      swap1\n      tag_46\n      jump\t// in\n    tag_45:\n      swap2\n      swap1\n      pop\n      sstore\n      pop\n        /* \"contracts/qlsv/ClassManager.sol\":903:1008  function incrementStudent(string memory _name) public {... */\n      pop\n      jump\t// out\n        /* \"contracts/qlsv/ClassManager.sol\":730:895  function getStudentLimit(string memory _name) public view returns (uint, uint) {... */\n    tag_17:\n        /* \"contracts/qlsv/ClassManager.sol\":797:801  uint */\n      0x00\n        /* \"contracts/qlsv/ClassManager.sol\":803:807  uint */\n      0x00\n        /* \"contracts/qlsv/ClassManager.sol\":828:835  classes */\n      0x00\n        /* \"contracts/qlsv/ClassManager.sol\":836:841  _name */\n      dup4\n        /* \"contracts/qlsv/ClassManager.sol\":828:842  classes[_name] */\n      mload(0x40)\n      tag_48\n      swap2\n      swap1\n      tag_44\n      jump\t// in\n    tag_48:\n      swap1\n      dup2\n      mstore\n      0x20\n      add\n      mload(0x40)\n      dup1\n      swap2\n      sub\n      swap1\n      keccak256\n        /* \"contracts/qlsv/ClassManager.sol\":828:858  classes[_name].currentStudents */\n      0x03\n      add\n      sload\n        /* \"contracts/qlsv/ClassManager.sol\":860:867  classes */\n      0x00\n        /* \"contracts/qlsv/ClassManager.sol\":868:873  _name */\n      dup5\n        /* \"contracts/qlsv/ClassManager.sol\":860:874  classes[_name] */\n      mload(0x40)\n      tag_49\n      swap2\n      swap1\n      tag_44\n      jump\t// in\n    tag_49:\n      swap1\n      dup2\n      mstore\n      0x20\n      add\n      mload(0x40)\n      dup1\n      swap2\n      sub\n      swap1\n      keccak256\n        /* \"contracts/qlsv/ClassManager.sol\":860:886  classes[_name].maxStudents */\n      0x02\n      add\n      sload\n        /* \"contracts/qlsv/ClassManager.sol\":820:887  return (classes[_name].currentStudents, classes[_name].maxStudents) */\n      swap2\n      pop\n      swap2\n      pop\n        /* \"contracts/qlsv/ClassManager.sol\":730:895  function getStudentLimit(string memory _name) public view returns (uint, uint) {... */\n      swap2\n      pop\n      swap2\n      jump\t// out\n        /* \"contracts/qlsv/ClassManager.sol\":1016:1121  function decrementStudent(string memory _name) public {... */\n    tag_22:\n        /* \"contracts/qlsv/ClassManager.sol\":1081:1088  classes */\n      0x00\n        /* \"contracts/qlsv/ClassManager.sol\":1089:1094  _name */\n      dup2\n        /* \"contracts/qlsv/ClassManager.sol\":1081:1095  classes[_name] */\n      mload(0x40)\n      tag_51\n      swap2\n      swap1\n      tag_44\n      jump\t// in\n    tag_51:\n      swap1\n      dup2\n      mstore\n      0x20\n      add\n      mload(0x40)\n      dup1\n      swap2\n      sub\n      swap1\n      keccak256\n        /* \"contracts/qlsv/ClassManager.sol\":1081:1111  classes[_name].currentStudents */\n      0x03\n      add\n      0x00\n        /* \"contracts/qlsv/ClassManager.sol\":1081:1113  classes[_name].currentStudents-- */\n      dup2\n      sload\n      dup1\n      swap3\n      swap2\n      swap1\n      tag_52\n      swap1\n      tag_53\n      jump\t// in\n    tag_52:\n      swap2\n      swap1\n      pop\n      sstore\n      pop\n        /* \"contracts/qlsv/ClassManager.sol\":1016:1121  function decrementStudent(string memory _name) public {... */\n      pop\n      jump\t// out\n        /* \"contracts/qlsv/ClassManager.sol\":286:446  function addClass(string memory _name, string memory _level, uint _maxStudents) public {... */\n    tag_26:\n        /* \"contracts/qlsv/ClassManager.sol\":401:438  Class(_name, _level, _maxStudents, 0) */\n      mload(0x40)\n      dup1\n      0x80\n      add\n      0x40\n      mstore\n      dup1\n        /* \"contracts/qlsv/ClassManager.sol\":407:412  _name */\n      dup5\n        /* \"contracts/qlsv/ClassManager.sol\":401:438  Class(_name, _level, _maxStudents, 0) */\n      dup2\n      mstore\n      0x20\n      add\n        /* \"contracts/qlsv/ClassManager.sol\":414:420  _level */\n      dup4\n        /* \"contracts/qlsv/ClassManager.sol\":401:438  Class(_name, _level, _maxStudents, 0) */\n      dup2\n      mstore\n      0x20\n      add\n        /* \"contracts/qlsv/ClassManager.sol\":422:434  _maxStudents */\n      dup3\n        /* \"contracts/qlsv/ClassManager.sol\":401:438  Class(_name, _level, _maxStudents, 0) */\n      dup2\n      mstore\n      0x20\n      add\n        /* \"contracts/qlsv/ClassManager.sol\":436:437  0 */\n      0x00\n        /* \"contracts/qlsv/ClassManager.sol\":401:438  Class(_name, _level, _maxStudents, 0) */\n      dup2\n      mstore\n      pop\n        /* \"contracts/qlsv/ClassManager.sol\":384:391  classes */\n      0x00\n        /* \"contracts/qlsv/ClassManager.sol\":392:397  _name */\n      dup5\n        /* \"contracts/qlsv/ClassManager.sol\":384:398  classes[_name] */\n      mload(0x40)\n      tag_55\n      swap2\n      swap1\n      tag_44\n      jump\t// in\n    tag_55:\n      swap1\n      dup2\n      mstore\n      0x20\n      add\n      mload(0x40)\n      dup1\n      swap2\n      sub\n      swap1\n      keccak256\n        /* \"contracts/qlsv/ClassManager.sol\":384:438  classes[_name] = Class(_name, _level, _maxStudents, 0) */\n      0x00\n      dup3\n      add\n      mload\n      dup2\n      0x00\n      add\n      swap1\n      dup2\n      tag_56\n      swap2\n      swap1\n      tag_57\n      jump\t// in\n    tag_56:\n      pop\n      0x20\n      dup3\n      add\n      mload\n      dup2\n      0x01\n      add\n      swap1\n      dup2\n      tag_58\n      swap2\n      swap1\n      tag_57\n      jump\t// in\n    tag_58:\n      pop\n      0x40\n      dup3\n      add\n      mload\n      dup2\n      0x02\n      add\n      sstore\n      0x60\n      dup3\n      add\n      mload\n      dup2\n      0x03\n      add\n      sstore\n      swap1\n      pop\n      pop\n        /* \"contracts/qlsv/ClassManager.sol\":286:446  function addClass(string memory _name, string memory _level, uint _maxStudents) public {... */\n      pop\n      pop\n      pop\n      jump\t// out\n        /* \"contracts/qlsv/ClassManager.sol\":238:277  mapping(string => Class) public classes */\n    tag_29:\n      0x00\n      dup2\n      dup1\n      mload\n      0x20\n      dup2\n      add\n      dup3\n      add\n      dup1\n      mload\n      dup5\n      dup3\n      mstore\n      0x20\n      dup4\n      add\n      0x20\n      dup6\n      add\n      keccak256\n      dup2\n      dup4\n      mstore\n      dup1\n      swap6\n      pop\n      pop\n      pop\n      pop\n      pop\n      pop\n      0x00\n      swap2\n      pop\n      swap1\n      pop\n      dup1\n      0x00\n      add\n      dup1\n      sload\n      tag_59\n      swap1\n      tag_60\n      jump\t// in\n    tag_59:\n      dup1\n      0x1f\n      add\n      0x20\n      dup1\n      swap2\n      div\n      mul\n      0x20\n      add\n      mload(0x40)\n      swap1\n      dup2\n      add\n      0x40\n      mstore\n      dup1\n      swap3\n      swap2\n      swap1\n      dup2\n      dup2\n      mstore\n      0x20\n      add\n      dup3\n      dup1\n      sload\n      tag_61\n      swap1\n      tag_60\n      jump\t// in\n    tag_61:\n      dup1\n      iszero\n      tag_62\n      jumpi\n      dup1\n      0x1f\n      lt\n      tag_63\n      jumpi\n      0x0100\n      dup1\n      dup4\n      sload\n      div\n      mul\n      dup4\n      mstore\n      swap2\n      0x20\n      add\n      swap2\n      jump(tag_62)\n    tag_63:\n      dup3\n      add\n      swap2\n      swap1\n      0x00\n      mstore\n      keccak256(0x00, 0x20)\n      swap1\n    tag_64:\n      dup2\n      sload\n      dup2\n      mstore\n      swap1\n      0x01\n      add\n      swap1\n      0x20\n      add\n      dup1\n      dup4\n      gt\n      tag_64\n      jumpi\n      dup3\n      swap1\n      sub\n      0x1f\n      and\n      dup3\n      add\n      swap2\n    tag_62:\n      pop\n      pop\n      pop\n      pop\n      pop\n      swap1\n      dup1\n      0x01\n      add\n      dup1\n      sload\n      tag_65\n      swap1\n      tag_60\n      jump\t// in\n    tag_65:\n      dup1\n      0x1f\n      add\n      0x20\n      dup1\n      swap2\n      div\n      mul\n      0x20\n      add\n      mload(0x40)\n      swap1\n      dup2\n      add\n      0x40\n      mstore\n      dup1\n      swap3\n      swap2\n      swap1\n      dup2\n      dup2\n      mstore\n      0x20\n      add\n      dup3\n      dup1\n      sload\n      tag_66\n      swap1\n      tag_60\n      jump\t// in\n    tag_66:\n      dup1\n      iszero\n      tag_67\n      jumpi\n      dup1\n      0x1f\n      lt\n      tag_68\n      jumpi\n      0x0100\n      dup1\n      dup4\n      sload\n      div\n      mul\n      dup4\n      mstore\n      swap2\n      0x20\n      add\n      swap2\n      jump(tag_67)\n    tag_68:\n      dup3\n      add\n      swap2\n      swap1\n      0x00\n      mstore\n      keccak256(0x00, 0x20)\n      swap1\n    tag_69:\n      dup2\n      sload\n      dup2\n      mstore\n      swap1\n      0x01\n      add\n      swap1\n      0x20\n      add\n      dup1\n      dup4\n      gt\n      tag_69\n      jumpi\n      dup3\n      swap1\n      sub\n      0x1f\n      and\n      dup3\n      add\n      swap2\n    tag_67:\n      pop\n      pop\n      pop\n      pop\n      pop\n      swap1\n      dup1\n      0x02\n      add\n      sload\n      swap1\n      dup1\n      0x03\n      add\n      sload\n      swap1\n      pop\n      dup5\n      jump\t// out\n        /* \"contracts/qlsv/ClassManager.sol\":596:722  function getClassLevel(string memory _name) public view returns (string memory) {... */\n    tag_34:\n        /* \"contracts/qlsv/ClassManager.sol\":661:674  string memory */\n      0x60\n        /* \"contracts/qlsv/ClassManager.sol\":694:701  classes */\n      0x00\n        /* \"contracts/qlsv/ClassManager.sol\":702:707  _name */\n      dup3\n        /* \"contracts/qlsv/ClassManager.sol\":694:708  classes[_name] */\n      mload(0x40)\n      tag_71\n      swap2\n      swap1\n      tag_44\n      jump\t// in\n    tag_71:\n      swap1\n      dup2\n      mstore\n      0x20\n      add\n      mload(0x40)\n      dup1\n      swap2\n      sub\n      swap1\n      keccak256\n        /* \"contracts/qlsv/ClassManager.sol\":694:714  classes[_name].level */\n      0x01\n      add\n        /* \"contracts/qlsv/ClassManager.sol\":687:714  return classes[_name].level */\n      dup1\n      sload\n      tag_72\n      swap1\n      tag_60\n      jump\t// in\n    tag_72:\n      dup1\n      0x1f\n      add\n      0x20\n      dup1\n      swap2\n      div\n      mul\n      0x20\n      add\n      mload(0x40)\n      swap1\n      dup2\n      add\n      0x40\n      mstore\n      dup1\n      swap3\n      swap2\n      swap1\n      dup2\n      dup2\n      mstore\n      0x20\n      add\n      dup3\n      dup1\n      sload\n      tag_73\n      swap1\n      tag_60\n      jump\t// in\n    tag_73:\n      dup1\n      iszero\n      tag_74\n      jumpi\n      dup1\n      0x1f\n      lt\n      tag_75\n      jumpi\n      0x0100\n      dup1\n      dup4\n      sload\n      div\n      mul\n      dup4\n      mstore\n      swap2\n      0x20\n      add\n      swap2\n      jump(tag_74)\n    tag_75:\n      dup3\n      add\n      swap2\n      swap1\n      0x00\n      mstore\n      keccak256(0x00, 0x20)\n      swap1\n    tag_76:\n      dup2\n      sload\n      dup2\n      mstore\n      swap1\n      0x01\n      add\n      swap1\n      0x20\n      add\n      dup1\n      dup4\n      gt\n      tag_76\n      jumpi\n      dup3\n      swap1\n      sub\n      0x1f\n      and\n      dup3\n      add\n      swap2\n    tag_74:\n      pop\n      pop\n      pop\n      pop\n      pop\n      swap1\n      pop\n        /* \"contracts/qlsv/ClassManager.sol\":596:722  function getClassLevel(string memory _name) public view returns (string memory) {... */\n      swap2\n      swap1\n      pop\n      jump\t// out\n        /* \"contracts/qlsv/ClassManager.sol\":454:588  function isClassExist(string memory _name) public view returns (bool) {... */\n    tag_39:\n        /* \"contracts/qlsv/ClassManager.sol\":518:522  bool */\n      0x00\n        /* \"contracts/qlsv/ClassManager.sol\":579:580  0 */\n      0x00\n        /* \"contracts/qlsv/ClassManager.sol\":548:555  classes */\n      0x00\n        /* \"contracts/qlsv/ClassManager.sol\":556:561  _name */\n      dup4\n        /* \"contracts/qlsv/ClassManager.sol\":548:562  classes[_name] */\n      mload(0x40)\n      tag_78\n      swap2\n      swap1\n      tag_44\n      jump\t// in\n    tag_78:\n      swap1\n      dup2\n      mstore\n      0x20\n      add\n      mload(0x40)\n      dup1\n      swap2\n      sub\n      swap1\n      keccak256\n        /* \"contracts/qlsv/ClassManager.sol\":548:567  classes[_name].name */\n      0x00\n      add\n        /* \"contracts/qlsv/ClassManager.sol\":542:575  bytes(classes[_name].name).length */\n      dup1\n      sload\n      tag_79\n      swap1\n      tag_60\n      jump\t// in\n    tag_79:\n      swap1\n      pop\n        /* \"contracts/qlsv/ClassManager.sol\":542:580  bytes(classes[_name].name).length != 0 */\n      eq\n      iszero\n        /* \"contracts/qlsv/ClassManager.sol\":535:580  return bytes(classes[_name].name).length != 0 */\n      swap1\n      pop\n        /* \"contracts/qlsv/ClassManager.sol\":454:588  function isClassExist(string memory _name) public view returns (bool) {... */\n      swap2\n      swap1\n      pop\n      jump\t// out\n        /* \"#utility.yul\":7:82   */\n    tag_80:\n        /* \"#utility.yul\":40:46   */\n      0x00\n        /* \"#utility.yul\":73:75   */\n      0x40\n        /* \"#utility.yul\":67:76   */\n      mload\n        /* \"#utility.yul\":57:76   */\n      swap1\n      pop\n        /* \"#utility.yul\":7:82   */\n      swap1\n      jump\t// out\n        /* \"#utility.yul\":88:205   */\n    tag_81:\n        /* \"#utility.yul\":197:198   */\n      0x00\n        /* \"#utility.yul\":194:195   */\n      0x00\n        /* \"#utility.yul\":187:199   */\n      revert\n        /* \"#utility.yul\":211:328   */\n    tag_82:\n        /* \"#utility.yul\":320:321   */\n      0x00\n        /* \"#utility.yul\":317:318   */\n      0x00\n        /* \"#utility.yul\":310:322   */\n      revert\n        /* \"#utility.yul\":334:451   */\n    tag_83:\n        /* \"#utility.yul\":443:444   */\n      0x00\n        /* \"#utility.yul\":440:441   */\n      0x00\n        /* \"#utility.yul\":433:445   */\n      revert\n        /* \"#utility.yul\":457:574   */\n    tag_84:\n        /* \"#utility.yul\":566:567   */\n      0x00\n        /* \"#utility.yul\":563:564   */\n      0x00\n        /* \"#utility.yul\":556:568   */\n      revert\n        /* \"#utility.yul\":580:682   */\n    tag_85:\n        /* \"#utility.yul\":621:627   */\n      0x00\n        /* \"#utility.yul\":672:674   */\n      0x1f\n        /* \"#utility.yul\":668:675   */\n      not\n        /* \"#utility.yul\":663:665   */\n      0x1f\n        /* \"#utility.yul\":656:661   */\n      dup4\n        /* \"#utility.yul\":652:666   */\n      add\n        /* \"#utility.yul\":648:676   */\n      and\n        /* \"#utility.yul\":638:676   */\n      swap1\n      pop\n        /* \"#utility.yul\":580:682   */\n      swap2\n      swap1\n      pop\n      jump\t// out\n        /* \"#utility.yul\":688:868   */\n    tag_86:\n        /* \"#utility.yul\":736:813   */\n      0x4e487b7100000000000000000000000000000000000000000000000000000000\n        /* \"#utility.yul\":733:734   */\n      0x00\n        /* \"#utility.yul\":726:814   */\n      mstore\n        /* \"#utility.yul\":833:837   */\n      0x41\n        /* \"#utility.yul\":830:831   */\n      0x04\n        /* \"#utility.yul\":823:838   */\n      mstore\n        /* \"#utility.yul\":857:861   */\n      0x24\n        /* \"#utility.yul\":854:855   */\n      0x00\n        /* \"#utility.yul\":847:862   */\n      revert\n        /* \"#utility.yul\":874:1155   */\n    tag_87:\n        /* \"#utility.yul\":957:984   */\n      tag_131\n        /* \"#utility.yul\":979:983   */\n      dup3\n        /* \"#utility.yul\":957:984   */\n      tag_85\n      jump\t// in\n    tag_131:\n        /* \"#utility.yul\":949:955   */\n      dup2\n        /* \"#utility.yul\":945:985   */\n      add\n        /* \"#utility.yul\":1087:1093   */\n      dup2\n        /* \"#utility.yul\":1075:1085   */\n      dup2\n        /* \"#utility.yul\":1072:1094   */\n      lt\n        /* \"#utility.yul\":1051:1069   */\n      0xffffffffffffffff\n        /* \"#utility.yul\":1039:1049   */\n      dup3\n        /* \"#utility.yul\":1036:1070   */\n      gt\n        /* \"#utility.yul\":1033:1095   */\n      or\n        /* \"#utility.yul\":1030:1118   */\n      iszero\n      tag_132\n      jumpi\n        /* \"#utility.yul\":1098:1116   */\n      tag_133\n      tag_86\n      jump\t// in\n    tag_133:\n        /* \"#utility.yul\":1030:1118   */\n    tag_132:\n        /* \"#utility.yul\":1138:1148   */\n      dup1\n        /* \"#utility.yul\":1134:1136   */\n      0x40\n        /* \"#utility.yul\":1127:1149   */\n      mstore\n        /* \"#utility.yul\":917:1155   */\n      pop\n        /* \"#utility.yul\":874:1155   */\n      pop\n      pop\n      jump\t// out\n        /* \"#utility.yul\":1161:1290   */\n    tag_88:\n        /* \"#utility.yul\":1195:1201   */\n      0x00\n        /* \"#utility.yul\":1222:1242   */\n      tag_135\n      tag_80\n      jump\t// in\n    tag_135:\n        /* \"#utility.yul\":1212:1242   */\n      swap1\n      pop\n        /* \"#utility.yul\":1251:1284   */\n      tag_136\n        /* \"#utility.yul\":1279:1283   */\n      dup3\n        /* \"#utility.yul\":1271:1277   */\n      dup3\n        /* \"#utility.yul\":1251:1284   */\n      tag_87\n      jump\t// in\n    tag_136:\n        /* \"#utility.yul\":1161:1290   */\n      swap2\n      swap1\n      pop\n      jump\t// out\n        /* \"#utility.yul\":1296:1604   */\n    tag_89:\n        /* \"#utility.yul\":1358:1362   */\n      0x00\n        /* \"#utility.yul\":1448:1466   */\n      0xffffffffffffffff\n        /* \"#utility.yul\":1440:1446   */\n      dup3\n        /* \"#utility.yul\":1437:1467   */\n      gt\n        /* \"#utility.yul\":1434:1490   */\n      iszero\n      tag_138\n      jumpi\n        /* \"#utility.yul\":1470:1488   */\n      tag_139\n      tag_86\n      jump\t// in\n    tag_139:\n        /* \"#utility.yul\":1434:1490   */\n    tag_138:\n        /* \"#utility.yul\":1508:1537   */\n      tag_140\n        /* \"#utility.yul\":1530:1536   */\n      dup3\n        /* \"#utility.yul\":1508:1537   */\n      tag_85\n      jump\t// in\n    tag_140:\n        /* \"#utility.yul\":1500:1537   */\n      swap1\n      pop\n        /* \"#utility.yul\":1592:1596   */\n      0x20\n        /* \"#utility.yul\":1586:1590   */\n      dup2\n        /* \"#utility.yul\":1582:1597   */\n      add\n        /* \"#utility.yul\":1574:1597   */\n      swap1\n      pop\n        /* \"#utility.yul\":1296:1604   */\n      swap2\n      swap1\n      pop\n      jump\t// out\n        /* \"#utility.yul\":1610:1758   */\n    tag_90:\n        /* \"#utility.yul\":1708:1714   */\n      dup3\n        /* \"#utility.yul\":1703:1706   */\n      dup2\n        /* \"#utility.yul\":1698:1701   */\n      dup4\n        /* \"#utility.yul\":1685:1715   */\n      calldatacopy\n        /* \"#utility.yul\":1749:1750   */\n      0x00\n        /* \"#utility.yul\":1740:1746   */\n      dup4\n        /* \"#utility.yul\":1735:1738   */\n      dup4\n        /* \"#utility.yul\":1731:1747   */\n      add\n        /* \"#utility.yul\":1724:1751   */\n      mstore\n        /* \"#utility.yul\":1610:1758   */\n      pop\n      pop\n      pop\n      jump\t// out\n        /* \"#utility.yul\":1764:2189   */\n    tag_91:\n        /* \"#utility.yul\":1842:1847   */\n      0x00\n        /* \"#utility.yul\":1867:1933   */\n      tag_143\n        /* \"#utility.yul\":1883:1932   */\n      tag_144\n        /* \"#utility.yul\":1925:1931   */\n      dup5\n        /* \"#utility.yul\":1883:1932   */\n      tag_89\n      jump\t// in\n    tag_144:\n        /* \"#utility.yul\":1867:1933   */\n      tag_88\n      jump\t// in\n    tag_143:\n        /* \"#utility.yul\":1858:1933   */\n      swap1\n      pop\n        /* \"#utility.yul\":1956:1962   */\n      dup3\n        /* \"#utility.yul\":1949:1954   */\n      dup2\n        /* \"#utility.yul\":1942:1963   */\n      mstore\n        /* \"#utility.yul\":1994:1998   */\n      0x20\n        /* \"#utility.yul\":1987:1992   */\n      dup2\n        /* \"#utility.yul\":1983:1999   */\n      add\n        /* \"#utility.yul\":2032:2035   */\n      dup5\n        /* \"#utility.yul\":2023:2029   */\n      dup5\n        /* \"#utility.yul\":2018:2021   */\n      dup5\n        /* \"#utility.yul\":2014:2030   */\n      add\n        /* \"#utility.yul\":2011:2036   */\n      gt\n        /* \"#utility.yul\":2008:2120   */\n      iszero\n      tag_145\n      jumpi\n        /* \"#utility.yul\":2039:2118   */\n      tag_146\n      tag_84\n      jump\t// in\n    tag_146:\n        /* \"#utility.yul\":2008:2120   */\n    tag_145:\n        /* \"#utility.yul\":2129:2183   */\n      tag_147\n        /* \"#utility.yul\":2176:2182   */\n      dup5\n        /* \"#utility.yul\":2171:2174   */\n      dup3\n        /* \"#utility.yul\":2166:2169   */\n      dup6\n        /* \"#utility.yul\":2129:2183   */\n      tag_90\n      jump\t// in\n    tag_147:\n        /* \"#utility.yul\":1848:2189   */\n      pop\n        /* \"#utility.yul\":1764:2189   */\n      swap4\n      swap3\n      pop\n      pop\n      pop\n      jump\t// out\n        /* \"#utility.yul\":2209:2549   */\n    tag_92:\n        /* \"#utility.yul\":2265:2270   */\n      0x00\n        /* \"#utility.yul\":2314:2317   */\n      dup3\n        /* \"#utility.yul\":2307:2311   */\n      0x1f\n        /* \"#utility.yul\":2299:2305   */\n      dup4\n        /* \"#utility.yul\":2295:2312   */\n      add\n        /* \"#utility.yul\":2291:2318   */\n      slt\n        /* \"#utility.yul\":2281:2403   */\n      tag_149\n      jumpi\n        /* \"#utility.yul\":2322:2401   */\n      tag_150\n      tag_83\n      jump\t// in\n    tag_150:\n        /* \"#utility.yul\":2281:2403   */\n    tag_149:\n        /* \"#utility.yul\":2439:2445   */\n      dup2\n        /* \"#utility.yul\":2426:2446   */\n      calldataload\n        /* \"#utility.yul\":2464:2543   */\n      tag_151\n        /* \"#utility.yul\":2539:2542   */\n      dup5\n        /* \"#utility.yul\":2531:2537   */\n      dup3\n        /* \"#utility.yul\":2524:2528   */\n      0x20\n        /* \"#utility.yul\":2516:2522   */\n      dup7\n        /* \"#utility.yul\":2512:2529   */\n      add\n        /* \"#utility.yul\":2464:2543   */\n      tag_91\n      jump\t// in\n    tag_151:\n        /* \"#utility.yul\":2455:2543   */\n      swap2\n      pop\n        /* \"#utility.yul\":2271:2549   */\n      pop\n        /* \"#utility.yul\":2209:2549   */\n      swap3\n      swap2\n      pop\n      pop\n      jump\t// out\n        /* \"#utility.yul\":2555:3064   */\n    tag_13:\n        /* \"#utility.yul\":2624:2630   */\n      0x00\n        /* \"#utility.yul\":2673:2675   */\n      0x20\n        /* \"#utility.yul\":2661:2670   */\n      dup3\n        /* \"#utility.yul\":2652:2659   */\n      dup5\n        /* \"#utility.yul\":2648:2671   */\n      sub\n        /* \"#utility.yul\":2644:2676   */\n      slt\n        /* \"#utility.yul\":2641:2760   */\n      iszero\n      tag_153\n      jumpi\n        /* \"#utility.yul\":2679:2758   */\n      tag_154\n      tag_81\n      jump\t// in\n    tag_154:\n        /* \"#utility.yul\":2641:2760   */\n    tag_153:\n        /* \"#utility.yul\":2827:2828   */\n      0x00\n        /* \"#utility.yul\":2816:2825   */\n      dup3\n        /* \"#utility.yul\":2812:2829   */\n      add\n        /* \"#utility.yul\":2799:2830   */\n      calldataload\n        /* \"#utility.yul\":2857:2875   */\n      0xffffffffffffffff\n        /* \"#utility.yul\":2849:2855   */\n      dup2\n        /* \"#utility.yul\":2846:2876   */\n      gt\n        /* \"#utility.yul\":2843:2960   */\n      iszero\n      tag_155\n      jumpi\n        /* \"#utility.yul\":2879:2958   */\n      tag_156\n      tag_82\n      jump\t// in\n    tag_156:\n        /* \"#utility.yul\":2843:2960   */\n    tag_155:\n        /* \"#utility.yul\":2984:3047   */\n      tag_157\n        /* \"#utility.yul\":3039:3046   */\n      dup5\n        /* \"#utility.yul\":3030:3036   */\n      dup3\n        /* \"#utility.yul\":3019:3028   */\n      dup6\n        /* \"#utility.yul\":3015:3037   */\n      add\n        /* \"#utility.yul\":2984:3047   */\n      tag_92\n      jump\t// in\n    tag_157:\n        /* \"#utility.yul\":2974:3047   */\n      swap2\n      pop\n        /* \"#utility.yul\":2770:3057   */\n      pop\n        /* \"#utility.yul\":2555:3064   */\n      swap3\n      swap2\n      pop\n      pop\n      jump\t// out\n        /* \"#utility.yul\":3070:3147   */\n    tag_93:\n        /* \"#utility.yul\":3107:3114   */\n      0x00\n        /* \"#utility.yul\":3136:3141   */\n      dup2\n        /* \"#utility.yul\":3125:3141   */\n      swap1\n      pop\n        /* \"#utility.yul\":3070:3147   */\n      swap2\n      swap1\n      pop\n      jump\t// out\n        /* \"#utility.yul\":3153:3271   */\n    tag_94:\n        /* \"#utility.yul\":3240:3264   */\n      tag_160\n        /* \"#utility.yul\":3258:3263   */\n      dup2\n        /* \"#utility.yul\":3240:3264   */\n      tag_93\n      jump\t// in\n    tag_160:\n        /* \"#utility.yul\":3235:3238   */\n      dup3\n        /* \"#utility.yul\":3228:3265   */\n      mstore\n        /* \"#utility.yul\":3153:3271   */\n      pop\n      pop\n      jump\t// out\n        /* \"#utility.yul\":3277:3609   */\n    tag_19:\n        /* \"#utility.yul\":3398:3402   */\n      0x00\n        /* \"#utility.yul\":3436:3438   */\n      0x40\n        /* \"#utility.yul\":3425:3434   */\n      dup3\n        /* \"#utility.yul\":3421:3439   */\n      add\n        /* \"#utility.yul\":3413:3439   */\n      swap1\n      pop\n        /* \"#utility.yul\":3449:3520   */\n      tag_162\n        /* \"#utility.yul\":3517:3518   */\n      0x00\n        /* \"#utility.yul\":3506:3515   */\n      dup4\n        /* \"#utility.yul\":3502:3519   */\n      add\n        /* \"#utility.yul\":3493:3499   */\n      dup6\n        /* \"#utility.yul\":3449:3520   */\n      tag_94\n      jump\t// in\n    tag_162:\n        /* \"#utility.yul\":3530:3602   */\n      tag_163\n        /* \"#utility.yul\":3598:3600   */\n      0x20\n        /* \"#utility.yul\":3587:3596   */\n      dup4\n        /* \"#utility.yul\":3583:3601   */\n      add\n        /* \"#utility.yul\":3574:3580   */\n      dup5\n        /* \"#utility.yul\":3530:3602   */\n      tag_94\n      jump\t// in\n    tag_163:\n        /* \"#utility.yul\":3277:3609   */\n      swap4\n      swap3\n      pop\n      pop\n      pop\n      jump\t// out\n        /* \"#utility.yul\":3615:3737   */\n    tag_95:\n        /* \"#utility.yul\":3688:3712   */\n      tag_165\n        /* \"#utility.yul\":3706:3711   */\n      dup2\n        /* \"#utility.yul\":3688:3712   */\n      tag_93\n      jump\t// in\n    tag_165:\n        /* \"#utility.yul\":3681:3686   */\n      dup2\n        /* \"#utility.yul\":3678:3713   */\n      eq\n        /* \"#utility.yul\":3668:3731   */\n      tag_166\n      jumpi\n        /* \"#utility.yul\":3727:3728   */\n      0x00\n        /* \"#utility.yul\":3724:3725   */\n      0x00\n        /* \"#utility.yul\":3717:3729   */\n      revert\n        /* \"#utility.yul\":3668:3731   */\n    tag_166:\n        /* \"#utility.yul\":3615:3737   */\n      pop\n      jump\t// out\n        /* \"#utility.yul\":3743:3882   */\n    tag_96:\n        /* \"#utility.yul\":3789:3794   */\n      0x00\n        /* \"#utility.yul\":3827:3833   */\n      dup2\n        /* \"#utility.yul\":3814:3834   */\n      calldataload\n        /* \"#utility.yul\":3805:3834   */\n      swap1\n      pop\n        /* \"#utility.yul\":3843:3876   */\n      tag_168\n        /* \"#utility.yul\":3870:3875   */\n      dup2\n        /* \"#utility.yul\":3843:3876   */\n      tag_95\n      jump\t// in\n    tag_168:\n        /* \"#utility.yul\":3743:3882   */\n      swap3\n      swap2\n      pop\n      pop\n      jump\t// out\n        /* \"#utility.yul\":3888:4867   */\n    tag_25:\n        /* \"#utility.yul\":3985:3991   */\n      0x00\n        /* \"#utility.yul\":3993:3999   */\n      0x00\n        /* \"#utility.yul\":4001:4007   */\n      0x00\n        /* \"#utility.yul\":4050:4052   */\n      0x60\n        /* \"#utility.yul\":4038:4047   */\n      dup5\n        /* \"#utility.yul\":4029:4036   */\n      dup7\n        /* \"#utility.yul\":4025:4048   */\n      sub\n        /* \"#utility.yul\":4021:4053   */\n      slt\n        /* \"#utility.yul\":4018:4137   */\n      iszero\n      tag_170\n      jumpi\n        /* \"#utility.yul\":4056:4135   */\n      tag_171\n      tag_81\n      jump\t// in\n    tag_171:\n        /* \"#utility.yul\":4018:4137   */\n    tag_170:\n        /* \"#utility.yul\":4204:4205   */\n      0x00\n        /* \"#utility.yul\":4193:4202   */\n      dup5\n        /* \"#utility.yul\":4189:4206   */\n      add\n        /* \"#utility.yul\":4176:4207   */\n      calldataload\n        /* \"#utility.yul\":4234:4252   */\n      0xffffffffffffffff\n        /* \"#utility.yul\":4226:4232   */\n      dup2\n        /* \"#utility.yul\":4223:4253   */\n      gt\n        /* \"#utility.yul\":4220:4337   */\n      iszero\n      tag_172\n      jumpi\n        /* \"#utility.yul\":4256:4335   */\n      tag_173\n      tag_82\n      jump\t// in\n    tag_173:\n        /* \"#utility.yul\":4220:4337   */\n    tag_172:\n        /* \"#utility.yul\":4361:4424   */\n      tag_174\n        /* \"#utility.yul\":4416:4423   */\n      dup7\n        /* \"#utility.yul\":4407:4413   */\n      dup3\n        /* \"#utility.yul\":4396:4405   */\n      dup8\n        /* \"#utility.yul\":4392:4414   */\n      add\n        /* \"#utility.yul\":4361:4424   */\n      tag_92\n      jump\t// in\n    tag_174:\n        /* \"#utility.yul\":4351:4424   */\n      swap4\n      pop\n        /* \"#utility.yul\":4147:4434   */\n      pop\n        /* \"#utility.yul\":4501:4503   */\n      0x20\n        /* \"#utility.yul\":4490:4499   */\n      dup5\n        /* \"#utility.yul\":4486:4504   */\n      add\n        /* \"#utility.yul\":4473:4505   */\n      calldataload\n        /* \"#utility.yul\":4532:4550   */\n      0xffffffffffffffff\n        /* \"#utility.yul\":4524:4530   */\n      dup2\n        /* \"#utility.yul\":4521:4551   */\n      gt\n        /* \"#utility.yul\":4518:4635   */\n      iszero\n      tag_175\n      jumpi\n        /* \"#utility.yul\":4554:4633   */\n      tag_176\n      tag_82\n      jump\t// in\n    tag_176:\n        /* \"#utility.yul\":4518:4635   */\n    tag_175:\n        /* \"#utility.yul\":4659:4722   */\n      tag_177\n        /* \"#utility.yul\":4714:4721   */\n      dup7\n        /* \"#utility.yul\":4705:4711   */\n      dup3\n        /* \"#utility.yul\":4694:4703   */\n      dup8\n        /* \"#utility.yul\":4690:4712   */\n      add\n        /* \"#utility.yul\":4659:4722   */\n      tag_92\n      jump\t// in\n    tag_177:\n        /* \"#utility.yul\":4649:4722   */\n      swap3\n      pop\n        /* \"#utility.yul\":4444:4732   */\n      pop\n        /* \"#utility.yul\":4771:4773   */\n      0x40\n        /* \"#utility.yul\":4797:4850   */\n      tag_178\n        /* \"#utility.yul\":4842:4849   */\n      dup7\n        /* \"#utility.yul\":4833:4839   */\n      dup3\n        /* \"#utility.yul\":4822:4831   */\n      dup8\n        /* \"#utility.yul\":4818:4840   */\n      add\n        /* \"#utility.yul\":4797:4850   */\n      tag_96\n      jump\t// in\n    tag_178:\n        /* \"#utility.yul\":4787:4850   */\n      swap2\n      pop\n        /* \"#utility.yul\":4742:4860   */\n      pop\n        /* \"#utility.yul\":3888:4867   */\n      swap3\n      pop\n      swap3\n      pop\n      swap3\n      jump\t// out\n        /* \"#utility.yul\":4873:4972   */\n    tag_97:\n        /* \"#utility.yul\":4925:4931   */\n      0x00\n        /* \"#utility.yul\":4959:4964   */\n      dup2\n        /* \"#utility.yul\":4953:4965   */\n      mload\n        /* \"#utility.yul\":4943:4965   */\n      swap1\n      pop\n        /* \"#utility.yul\":4873:4972   */\n      swap2\n      swap1\n      pop\n      jump\t// out\n        /* \"#utility.yul\":4978:5147   */\n    tag_98:\n        /* \"#utility.yul\":5062:5073   */\n      0x00\n        /* \"#utility.yul\":5096:5102   */\n      dup3\n        /* \"#utility.yul\":5091:5094   */\n      dup3\n        /* \"#utility.yul\":5084:5103   */\n      mstore\n        /* \"#utility.yul\":5136:5140   */\n      0x20\n        /* \"#utility.yul\":5131:5134   */\n      dup3\n        /* \"#utility.yul\":5127:5141   */\n      add\n        /* \"#utility.yul\":5112:5141   */\n      swap1\n      pop\n        /* \"#utility.yul\":4978:5147   */\n      swap3\n      swap2\n      pop\n      pop\n      jump\t// out\n        /* \"#utility.yul\":5153:5292   */\n    tag_99:\n        /* \"#utility.yul\":5242:5248   */\n      dup3\n        /* \"#utility.yul\":5237:5240   */\n      dup2\n        /* \"#utility.yul\":5232:5235   */\n      dup4\n        /* \"#utility.yul\":5226:5249   */\n      mcopy\n        /* \"#utility.yul\":5283:5284   */\n      0x00\n        /* \"#utility.yul\":5274:5280   */\n      dup4\n        /* \"#utility.yul\":5269:5272   */\n      dup4\n        /* \"#utility.yul\":5265:5281   */\n      add\n        /* \"#utility.yul\":5258:5285   */\n      mstore\n        /* \"#utility.yul\":5153:5292   */\n      pop\n      pop\n      pop\n      jump\t// out\n        /* \"#utility.yul\":5298:5675   */\n    tag_100:\n        /* \"#utility.yul\":5386:5389   */\n      0x00\n        /* \"#utility.yul\":5414:5453   */\n      tag_183\n        /* \"#utility.yul\":5447:5452   */\n      dup3\n        /* \"#utility.yul\":5414:5453   */\n      tag_97\n      jump\t// in\n    tag_183:\n        /* \"#utility.yul\":5469:5540   */\n      tag_184\n        /* \"#utility.yul\":5533:5539   */\n      dup2\n        /* \"#utility.yul\":5528:5531   */\n      dup6\n        /* \"#utility.yul\":5469:5540   */\n      tag_98\n      jump\t// in\n    tag_184:\n        /* \"#utility.yul\":5462:5540   */\n      swap4\n      pop\n        /* \"#utility.yul\":5549:5614   */\n      tag_185\n        /* \"#utility.yul\":5607:5613   */\n      dup2\n        /* \"#utility.yul\":5602:5605   */\n      dup6\n        /* \"#utility.yul\":5595:5599   */\n      0x20\n        /* \"#utility.yul\":5588:5593   */\n      dup7\n        /* \"#utility.yul\":5584:5600   */\n      add\n        /* \"#utility.yul\":5549:5614   */\n      tag_99\n      jump\t// in\n    tag_185:\n        /* \"#utility.yul\":5639:5668   */\n      tag_186\n        /* \"#utility.yul\":5661:5667   */\n      dup2\n        /* \"#utility.yul\":5639:5668   */\n      tag_85\n      jump\t// in\n    tag_186:\n        /* \"#utility.yul\":5634:5637   */\n      dup5\n        /* \"#utility.yul\":5630:5669   */\n      add\n        /* \"#utility.yul\":5623:5669   */\n      swap2\n      pop\n        /* \"#utility.yul\":5390:5675   */\n      pop\n        /* \"#utility.yul\":5298:5675   */\n      swap3\n      swap2\n      pop\n      pop\n      jump\t// out\n        /* \"#utility.yul\":5681:6416   */\n    tag_31:\n        /* \"#utility.yul\":5898:5902   */\n      0x00\n        /* \"#utility.yul\":5936:5939   */\n      0x80\n        /* \"#utility.yul\":5925:5934   */\n      dup3\n        /* \"#utility.yul\":5921:5940   */\n      add\n        /* \"#utility.yul\":5913:5940   */\n      swap1\n      pop\n        /* \"#utility.yul\":5986:5995   */\n      dup2\n        /* \"#utility.yul\":5980:5984   */\n      dup2\n        /* \"#utility.yul\":5976:5996   */\n      sub\n        /* \"#utility.yul\":5972:5973   */\n      0x00\n        /* \"#utility.yul\":5961:5970   */\n      dup4\n        /* \"#utility.yul\":5957:5974   */\n      add\n        /* \"#utility.yul\":5950:5997   */\n      mstore\n        /* \"#utility.yul\":6014:6092   */\n      tag_188\n        /* \"#utility.yul\":6087:6091   */\n      dup2\n        /* \"#utility.yul\":6078:6084   */\n      dup8\n        /* \"#utility.yul\":6014:6092   */\n      tag_100\n      jump\t// in\n    tag_188:\n        /* \"#utility.yul\":6006:6092   */\n      swap1\n      pop\n        /* \"#utility.yul\":6139:6148   */\n      dup2\n        /* \"#utility.yul\":6133:6137   */\n      dup2\n        /* \"#utility.yul\":6129:6149   */\n      sub\n        /* \"#utility.yul\":6124:6126   */\n      0x20\n        /* \"#utility.yul\":6113:6122   */\n      dup4\n        /* \"#utility.yul\":6109:6127   */\n      add\n        /* \"#utility.yul\":6102:6150   */\n      mstore\n        /* \"#utility.yul\":6167:6245   */\n      tag_189\n        /* \"#utility.yul\":6240:6244   */\n      dup2\n        /* \"#utility.yul\":6231:6237   */\n      dup7\n        /* \"#utility.yul\":6167:6245   */\n      tag_100\n      jump\t// in\n    tag_189:\n        /* \"#utility.yul\":6159:6245   */\n      swap1\n      pop\n        /* \"#utility.yul\":6255:6327   */\n      tag_190\n        /* \"#utility.yul\":6323:6325   */\n      0x40\n        /* \"#utility.yul\":6312:6321   */\n      dup4\n        /* \"#utility.yul\":6308:6326   */\n      add\n        /* \"#utility.yul\":6299:6305   */\n      dup6\n        /* \"#utility.yul\":6255:6327   */\n      tag_94\n      jump\t// in\n    tag_190:\n        /* \"#utility.yul\":6337:6409   */\n      tag_191\n        /* \"#utility.yul\":6405:6407   */\n      0x60\n        /* \"#utility.yul\":6394:6403   */\n      dup4\n        /* \"#utility.yul\":6390:6408   */\n      add\n        /* \"#utility.yul\":6381:6387   */\n      dup5\n        /* \"#utility.yul\":6337:6409   */\n      tag_94\n      jump\t// in\n    tag_191:\n        /* \"#utility.yul\":5681:6416   */\n      swap6\n      swap5\n      pop\n      pop\n      pop\n      pop\n      pop\n      jump\t// out\n        /* \"#utility.yul\":6422:6735   */\n    tag_36:\n        /* \"#utility.yul\":6535:6539   */\n      0x00\n        /* \"#utility.yul\":6573:6575   */\n      0x20\n        /* \"#utility.yul\":6562:6571   */\n      dup3\n        /* \"#utility.yul\":6558:6576   */\n      add\n        /* \"#utility.yul\":6550:6576   */\n      swap1\n      pop\n        /* \"#utility.yul\":6622:6631   */\n      dup2\n        /* \"#utility.yul\":6616:6620   */\n      dup2\n        /* \"#utility.yul\":6612:6632   */\n      sub\n        /* \"#utility.yul\":6608:6609   */\n      0x00\n        /* \"#utility.yul\":6597:6606   */\n      dup4\n        /* \"#utility.yul\":6593:6610   */\n      add\n        /* \"#utility.yul\":6586:6633   */\n      mstore\n        /* \"#utility.yul\":6650:6728   */\n      tag_193\n        /* \"#utility.yul\":6723:6727   */\n      dup2\n        /* \"#utility.yul\":6714:6720   */\n      dup5\n        /* \"#utility.yul\":6650:6728   */\n      tag_100\n      jump\t// in\n    tag_193:\n        /* \"#utility.yul\":6642:6728   */\n      swap1\n      pop\n        /* \"#utility.yul\":6422:6735   */\n      swap3\n      swap2\n      pop\n      pop\n      jump\t// out\n        /* \"#utility.yul\":6741:6831   */\n    tag_101:\n        /* \"#utility.yul\":6775:6782   */\n      0x00\n        /* \"#utility.yul\":6818:6823   */\n      dup2\n        /* \"#utility.yul\":6811:6824   */\n      iszero\n        /* \"#utility.yul\":6804:6825   */\n      iszero\n        /* \"#utility.yul\":6793:6825   */\n      swap1\n      pop\n        /* \"#utility.yul\":6741:6831   */\n      swap2\n      swap1\n      pop\n      jump\t// out\n        /* \"#utility.yul\":6837:6946   */\n    tag_102:\n        /* \"#utility.yul\":6918:6939   */\n      tag_196\n        /* \"#utility.yul\":6933:6938   */\n      dup2\n        /* \"#utility.yul\":6918:6939   */\n      tag_101\n      jump\t// in\n    tag_196:\n        /* \"#utility.yul\":6913:6916   */\n      dup3\n        /* \"#utility.yul\":6906:6940   */\n      mstore\n        /* \"#utility.yul\":6837:6946   */\n      pop\n      pop\n      jump\t// out\n        /* \"#utility.yul\":6952:7162   */\n    tag_41:\n        /* \"#utility.yul\":7039:7043   */\n      0x00\n        /* \"#utility.yul\":7077:7079   */\n      0x20\n        /* \"#utility.yul\":7066:7075   */\n      dup3\n        /* \"#utility.yul\":7062:7080   */\n      add\n        /* \"#utility.yul\":7054:7080   */\n      swap1\n      pop\n        /* \"#utility.yul\":7090:7155   */\n      tag_198\n        /* \"#utility.yul\":7152:7153   */\n      0x00\n        /* \"#utility.yul\":7141:7150   */\n      dup4\n        /* \"#utility.yul\":7137:7154   */\n      add\n        /* \"#utility.yul\":7128:7134   */\n      dup5\n        /* \"#utility.yul\":7090:7155   */\n      tag_102\n      jump\t// in\n    tag_198:\n        /* \"#utility.yul\":6952:7162   */\n      swap3\n      swap2\n      pop\n      pop\n      jump\t// out\n        /* \"#utility.yul\":7168:7316   */\n    tag_103:\n        /* \"#utility.yul\":7270:7281   */\n      0x00\n        /* \"#utility.yul\":7307:7310   */\n      dup2\n        /* \"#utility.yul\":7292:7310   */\n      swap1\n      pop\n        /* \"#utility.yul\":7168:7316   */\n      swap3\n      swap2\n      pop\n      pop\n      jump\t// out\n        /* \"#utility.yul\":7322:7712   */\n    tag_104:\n        /* \"#utility.yul\":7428:7431   */\n      0x00\n        /* \"#utility.yul\":7456:7495   */\n      tag_201\n        /* \"#utility.yul\":7489:7494   */\n      dup3\n        /* \"#utility.yul\":7456:7495   */\n      tag_97\n      jump\t// in\n    tag_201:\n        /* \"#utility.yul\":7511:7600   */\n      tag_202\n        /* \"#utility.yul\":7593:7599   */\n      dup2\n        /* \"#utility.yul\":7588:7591   */\n      dup6\n        /* \"#utility.yul\":7511:7600   */\n      tag_103\n      jump\t// in\n    tag_202:\n        /* \"#utility.yul\":7504:7600   */\n      swap4\n      pop\n        /* \"#utility.yul\":7609:7674   */\n      tag_203\n        /* \"#utility.yul\":7667:7673   */\n      dup2\n        /* \"#utility.yul\":7662:7665   */\n      dup6\n        /* \"#utility.yul\":7655:7659   */\n      0x20\n        /* \"#utility.yul\":7648:7653   */\n      dup7\n        /* \"#utility.yul\":7644:7660   */\n      add\n        /* \"#utility.yul\":7609:7674   */\n      tag_99\n      jump\t// in\n    tag_203:\n        /* \"#utility.yul\":7699:7705   */\n      dup1\n        /* \"#utility.yul\":7694:7697   */\n      dup5\n        /* \"#utility.yul\":7690:7706   */\n      add\n        /* \"#utility.yul\":7683:7706   */\n      swap2\n      pop\n        /* \"#utility.yul\":7432:7712   */\n      pop\n        /* \"#utility.yul\":7322:7712   */\n      swap3\n      swap2\n      pop\n      pop\n      jump\t// out\n        /* \"#utility.yul\":7718:7993   */\n    tag_44:\n        /* \"#utility.yul\":7850:7853   */\n      0x00\n        /* \"#utility.yul\":7872:7967   */\n      tag_205\n        /* \"#utility.yul\":7963:7966   */\n      dup3\n        /* \"#utility.yul\":7954:7960   */\n      dup5\n        /* \"#utility.yul\":7872:7967   */\n      tag_104\n      jump\t// in\n    tag_205:\n        /* \"#utility.yul\":7865:7967   */\n      swap2\n      pop\n        /* \"#utility.yul\":7984:7987   */\n      dup2\n        /* \"#utility.yul\":7977:7987   */\n      swap1\n      pop\n        /* \"#utility.yul\":7718:7993   */\n      swap3\n      swap2\n      pop\n      pop\n      jump\t// out\n        /* \"#utility.yul\":7999:8179   */\n    tag_105:\n        /* \"#utility.yul\":8047:8124   */\n      0x4e487b7100000000000000000000000000000000000000000000000000000000\n        /* \"#utility.yul\":8044:8045   */\n      0x00\n        /* \"#utility.yul\":8037:8125   */\n      mstore\n        /* \"#utility.yul\":8144:8148   */\n      0x11\n        /* \"#utility.yul\":8141:8142   */\n      0x04\n        /* \"#utility.yul\":8134:8149   */\n      mstore\n        /* \"#utility.yul\":8168:8172   */\n      0x24\n        /* \"#utility.yul\":8165:8166   */\n      0x00\n        /* \"#utility.yul\":8158:8173   */\n      revert\n        /* \"#utility.yul\":8185:8418   */\n    tag_46:\n        /* \"#utility.yul\":8224:8227   */\n      0x00\n        /* \"#utility.yul\":8247:8271   */\n      tag_208\n        /* \"#utility.yul\":8265:8270   */\n      dup3\n        /* \"#utility.yul\":8247:8271   */\n      tag_93\n      jump\t// in\n    tag_208:\n        /* \"#utility.yul\":8238:8271   */\n      swap2\n      pop\n        /* \"#utility.yul\":8293:8359   */\n      0xffffffffffffffffffffffffffffffffffffffffffffffffffffffffffffffff\n        /* \"#utility.yul\":8286:8291   */\n      dup3\n        /* \"#utility.yul\":8283:8360   */\n      sub\n        /* \"#utility.yul\":8280:8383   */\n      tag_209\n      jumpi\n        /* \"#utility.yul\":8363:8381   */\n      tag_210\n      tag_105\n      jump\t// in\n    tag_210:\n        /* \"#utility.yul\":8280:8383   */\n    tag_209:\n        /* \"#utility.yul\":8410:8411   */\n      0x01\n        /* \"#utility.yul\":8403:8408   */\n      dup3\n        /* \"#utility.yul\":8399:8412   */\n      add\n        /* \"#utility.yul\":8392:8412   */\n      swap1\n      pop\n        /* \"#utility.yul\":8185:8418   */\n      swap2\n      swap1\n      pop\n      jump\t// out\n        /* \"#utility.yul\":8424:8595   */\n    tag_53:\n        /* \"#utility.yul\":8463:8466   */\n      0x00\n        /* \"#utility.yul\":8486:8510   */\n      tag_212\n        /* \"#utility.yul\":8504:8509   */\n      dup3\n        /* \"#utility.yul\":8486:8510   */\n      tag_93\n      jump\t// in\n    tag_212:\n        /* \"#utility.yul\":8477:8510   */\n      swap2\n      pop\n        /* \"#utility.yul\":8532:8536   */\n      0x00\n        /* \"#utility.yul\":8525:8530   */\n      dup3\n        /* \"#utility.yul\":8522:8537   */\n      sub\n        /* \"#utility.yul\":8519:8560   */\n      tag_213\n      jumpi\n        /* \"#utility.yul\":8540:8558   */\n      tag_214\n      tag_105\n      jump\t// in\n    tag_214:\n        /* \"#utility.yul\":8519:8560   */\n    tag_213:\n        /* \"#utility.yul\":8587:8588   */\n      0x01\n        /* \"#utility.yul\":8580:8585   */\n      dup3\n        /* \"#utility.yul\":8576:8589   */\n      sub\n        /* \"#utility.yul\":8569:8589   */\n      swap1\n      pop\n        /* \"#utility.yul\":8424:8595   */\n      swap2\n      swap1\n      pop\n      jump\t// out\n        /* \"#utility.yul\":8601:8781   */\n    tag_106:\n        /* \"#utility.yul\":8649:8726   */\n      0x4e487b7100000000000000000000000000000000000000000000000000000000\n        /* \"#utility.yul\":8646:8647   */\n      0x00\n        /* \"#utility.yul\":8639:8727   */\n      mstore\n        /* \"#utility.yul\":8746:8750   */\n      0x22\n        /* \"#utility.yul\":8743:8744   */\n      0x04\n        /* \"#utility.yul\":8736:8751   */\n      mstore\n        /* \"#utility.yul\":8770:8774   */\n      0x24\n        /* \"#utility.yul\":8767:8768   */\n      0x00\n        /* \"#utility.yul\":8760:8775   */\n      revert\n        /* \"#utility.yul\":8787:9107   */\n    tag_60:\n        /* \"#utility.yul\":8831:8837   */\n      0x00\n        /* \"#utility.yul\":8868:8869   */\n      0x02\n        /* \"#utility.yul\":8862:8866   */\n      dup3\n        /* \"#utility.yul\":8858:8870   */\n      div\n        /* \"#utility.yul\":8848:8870   */\n      swap1\n      pop\n        /* \"#utility.yul\":8915:8916   */\n      0x01\n        /* \"#utility.yul\":8909:8913   */\n      dup3\n        /* \"#utility.yul\":8905:8917   */\n      and\n        /* \"#utility.yul\":8936:8954   */\n      dup1\n        /* \"#utility.yul\":8926:9007   */\n      tag_217\n      jumpi\n        /* \"#utility.yul\":8992:8996   */\n      0x7f\n        /* \"#utility.yul\":8984:8990   */\n      dup3\n        /* \"#utility.yul\":8980:8997   */\n      and\n        /* \"#utility.yul\":8970:8997   */\n      swap2\n      pop\n        /* \"#utility.yul\":8926:9007   */\n    tag_217:\n        /* \"#utility.yul\":9054:9056   */\n      0x20\n        /* \"#utility.yul\":9046:9052   */\n      dup3\n        /* \"#utility.yul\":9043:9057   */\n      lt\n        /* \"#utility.yul\":9023:9041   */\n      dup2\n        /* \"#utility.yul\":9020:9058   */\n      sub\n        /* \"#utility.yul\":9017:9101   */\n      tag_218\n      jumpi\n        /* \"#utility.yul\":9073:9091   */\n      tag_219\n      tag_106\n      jump\t// in\n    tag_219:\n        /* \"#utility.yul\":9017:9101   */\n    tag_218:\n        /* \"#utility.yul\":8838:9107   */\n      pop\n        /* \"#utility.yul\":8787:9107   */\n      swap2\n      swap1\n      pop\n      jump\t// out\n        /* \"#utility.yul\":9113:9254   */\n    tag_107:\n        /* \"#utility.yul\":9162:9166   */\n      0x00\n        /* \"#utility.yul\":9185:9188   */\n      dup2\n        /* \"#utility.yul\":9177:9188   */\n      swap1\n      pop\n        /* \"#utility.yul\":9208:9211   */\n      dup2\n        /* \"#utility.yul\":9205:9206   */\n      0x00\n        /* \"#utility.yul\":9198:9212   */\n      mstore\n        /* \"#utility.yul\":9242:9246   */\n      0x20\n        /* \"#utility.yul\":9239:9240   */\n      0x00\n        /* \"#utility.yul\":9229:9247   */\n      keccak256\n        /* \"#utility.yul\":9221:9247   */\n      swap1\n      pop\n        /* \"#utility.yul\":9113:9254   */\n      swap2\n      swap1\n      pop\n      jump\t// out\n        /* \"#utility.yul\":9260:9353   */\n    tag_108:\n        /* \"#utility.yul\":9297:9303   */\n      0x00\n        /* \"#utility.yul\":9344:9346   */\n      0x20\n        /* \"#utility.yul\":9339:9341   */\n      0x1f\n        /* \"#utility.yul\":9332:9337   */\n      dup4\n        /* \"#utility.yul\":9328:9342   */\n      add\n        /* \"#utility.yul\":9324:9347   */\n      div\n        /* \"#utility.yul\":9314:9347   */\n      swap1\n      pop\n        /* \"#utility.yul\":9260:9353   */\n      swap2\n      swap1\n      pop\n      jump\t// out\n        /* \"#utility.yul\":9359:9466   */\n    tag_109:\n        /* \"#utility.yul\":9403:9411   */\n      0x00\n        /* \"#utility.yul\":9453:9458   */\n      dup3\n        /* \"#utility.yul\":9447:9451   */\n      dup3\n        /* \"#utility.yul\":9443:9459   */\n      shl\n        /* \"#utility.yul\":9422:9459   */\n      swap1\n      pop\n        /* \"#utility.yul\":9359:9466   */\n      swap3\n      swap2\n      pop\n      pop\n      jump\t// out\n        /* \"#utility.yul\":9472:9865   */\n    tag_110:\n        /* \"#utility.yul\":9541:9547   */\n      0x00\n        /* \"#utility.yul\":9591:9592   */\n      0x08\n        /* \"#utility.yul\":9579:9589   */\n      dup4\n        /* \"#utility.yul\":9575:9593   */\n      mul\n        /* \"#utility.yul\":9614:9711   */\n      tag_224\n        /* \"#utility.yul\":9644:9710   */\n      0xffffffffffffffffffffffffffffffffffffffffffffffffffffffffffffffff\n        /* \"#utility.yul\":9633:9642   */\n      dup3\n        /* \"#utility.yul\":9614:9711   */\n      tag_109\n      jump\t// in\n    tag_224:\n        /* \"#utility.yul\":9732:9771   */\n      tag_225\n        /* \"#utility.yul\":9762:9770   */\n      dup7\n        /* \"#utility.yul\":9751:9760   */\n      dup4\n        /* \"#utility.yul\":9732:9771   */\n      tag_109\n      jump\t// in\n    tag_225:\n        /* \"#utility.yul\":9720:9771   */\n      swap6\n      pop\n        /* \"#utility.yul\":9804:9808   */\n      dup1\n        /* \"#utility.yul\":9800:9809   */\n      not\n        /* \"#utility.yul\":9793:9798   */\n      dup5\n        /* \"#utility.yul\":9789:9810   */\n      and\n        /* \"#utility.yul\":9780:9810   */\n      swap4\n      pop\n        /* \"#utility.yul\":9853:9857   */\n      dup1\n        /* \"#utility.yul\":9843:9851   */\n      dup7\n        /* \"#utility.yul\":9839:9858   */\n      and\n        /* \"#utility.yul\":9832:9837   */\n      dup5\n        /* \"#utility.yul\":9829:9859   */\n      or\n        /* \"#utility.yul\":9819:9859   */\n      swap3\n      pop\n        /* \"#utility.yul\":9548:9865   */\n      pop\n      pop\n        /* \"#utility.yul\":9472:9865   */\n      swap4\n      swap3\n      pop\n      pop\n      pop\n      jump\t// out\n        /* \"#utility.yul\":9871:9931   */\n    tag_111:\n        /* \"#utility.yul\":9899:9902   */\n      0x00\n        /* \"#utility.yul\":9920:9925   */\n      dup2\n        /* \"#utility.yul\":9913:9925   */\n      swap1\n      pop\n        /* \"#utility.yul\":9871:9931   */\n      swap2\n      swap1\n      pop\n      jump\t// out\n        /* \"#utility.yul\":9937:10079   */\n    tag_112:\n        /* \"#utility.yul\":9987:9996   */\n      0x00\n        /* \"#utility.yul\":10020:10073   */\n      tag_228\n        /* \"#utility.yul\":10038:10072   */\n      tag_229\n        /* \"#utility.yul\":10047:10071   */\n      tag_230\n        /* \"#utility.yul\":10065:10070   */\n      dup5\n        /* \"#utility.yul\":10047:10071   */\n      tag_93\n      jump\t// in\n    tag_230:\n        /* \"#utility.yul\":10038:10072   */\n      tag_111\n      jump\t// in\n    tag_229:\n        /* \"#utility.yul\":10020:10073   */\n      tag_93\n      jump\t// in\n    tag_228:\n        /* \"#utility.yul\":10007:10073   */\n      swap1\n      pop\n        /* \"#utility.yul\":9937:10079   */\n      swap2\n      swap1\n      pop\n      jump\t// out\n        /* \"#utility.yul\":10085:10160   */\n    tag_113:\n        /* \"#utility.yul\":10128:10131   */\n      0x00\n        /* \"#utility.yul\":10149:10154   */\n      dup2\n        /* \"#utility.yul\":10142:10154   */\n      swap1\n      pop\n        /* \"#utility.yul\":10085:10160   */\n      swap2\n      swap1\n      pop\n      jump\t// out\n        /* \"#utility.yul\":10166:10435   */\n    tag_114:\n        /* \"#utility.yul\":10276:10315   */\n      tag_233\n        /* \"#utility.yul\":10307:10314   */\n      dup4\n        /* \"#utility.yul\":10276:10315   */\n      tag_112\n      jump\t// in\n    tag_233:\n        /* \"#utility.yul\":10337:10428   */\n      tag_234\n        /* \"#utility.yul\":10386:10427   */\n      tag_235\n        /* \"#utility.yul\":10410:10426   */\n      dup3\n        /* \"#utility.yul\":10386:10427   */\n      tag_113\n      jump\t// in\n    tag_235:\n        /* \"#utility.yul\":10378:10384   */\n      dup5\n        /* \"#utility.yul\":10371:10375   */\n      dup5\n        /* \"#utility.yul\":10365:10376   */\n      sload\n        /* \"#utility.yul\":10337:10428   */\n      tag_110\n      jump\t// in\n    tag_234:\n        /* \"#utility.yul\":10331:10335   */\n      dup3\n        /* \"#utility.yul\":10324:10429   */\n      sstore\n        /* \"#utility.yul\":10242:10435   */\n      pop\n        /* \"#utility.yul\":10166:10435   */\n      pop\n      pop\n      pop\n      jump\t// out\n        /* \"#utility.yul\":10441:10514   */\n    tag_115:\n        /* \"#utility.yul\":10486:10489   */\n      0x00\n        /* \"#utility.yul\":10507:10508   */\n      0x00\n        /* \"#utility.yul\":10500:10508   */\n      swap1\n      pop\n        /* \"#utility.yul\":10441:10514   */\n      swap1\n      jump\t// out\n        /* \"#utility.yul\":10520:10709   */\n    tag_116:\n        /* \"#utility.yul\":10597:10629   */\n      tag_238\n      tag_115\n      jump\t// in\n    tag_238:\n        /* \"#utility.yul\":10638:10703   */\n      tag_239\n        /* \"#utility.yul\":10696:10702   */\n      dup2\n        /* \"#utility.yul\":10688:10694   */\n      dup5\n        /* \"#utility.yul\":10682:10686   */\n      dup5\n        /* \"#utility.yul\":10638:10703   */\n      tag_114\n      jump\t// in\n    tag_239:\n        /* \"#utility.yul\":10573:10709   */\n      pop\n        /* \"#utility.yul\":10520:10709   */\n      pop\n      pop\n      jump\t// out\n        /* \"#utility.yul\":10715:10901   */\n    tag_117:\n        /* \"#utility.yul\":10775:10895   */\n    tag_241:\n        /* \"#utility.yul\":10792:10795   */\n      dup2\n        /* \"#utility.yul\":10785:10790   */\n      dup2\n        /* \"#utility.yul\":10782:10796   */\n      lt\n        /* \"#utility.yul\":10775:10895   */\n      iszero\n      tag_243\n      jumpi\n        /* \"#utility.yul\":10846:10885   */\n      tag_244\n        /* \"#utility.yul\":10883:10884   */\n      0x00\n        /* \"#utility.yul\":10876:10881   */\n      dup3\n        /* \"#utility.yul\":10846:10885   */\n      tag_116\n      jump\t// in\n    tag_244:\n        /* \"#utility.yul\":10819:10820   */\n      0x01\n        /* \"#utility.yul\":10812:10817   */\n      dup2\n        /* \"#utility.yul\":10808:10821   */\n      add\n        /* \"#utility.yul\":10799:10821   */\n      swap1\n      pop\n        /* \"#utility.yul\":10775:10895   */\n      jump(tag_241)\n    tag_243:\n        /* \"#utility.yul\":10715:10901   */\n      pop\n      pop\n      jump\t// out\n        /* \"#utility.yul\":10907:11450   */\n    tag_118:\n        /* \"#utility.yul\":11008:11010   */\n      0x1f\n        /* \"#utility.yul\":11003:11006   */\n      dup3\n        /* \"#utility.yul\":11000:11011   */\n      gt\n        /* \"#utility.yul\":10997:11443   */\n      iszero\n      tag_246\n      jumpi\n        /* \"#utility.yul\":11042:11080   */\n      tag_247\n        /* \"#utility.yul\":11074:11079   */\n      dup2\n        /* \"#utility.yul\":11042:11080   */\n      tag_107\n      jump\t// in\n    tag_247:\n        /* \"#utility.yul\":11126:11155   */\n      tag_248\n        /* \"#utility.yul\":11144:11154   */\n      dup5\n        /* \"#utility.yul\":11126:11155   */\n      tag_108\n      jump\t// in\n    tag_248:\n        /* \"#utility.yul\":11116:11124   */\n      dup2\n        /* \"#utility.yul\":11112:11156   */\n      add\n        /* \"#utility.yul\":11309:11311   */\n      0x20\n        /* \"#utility.yul\":11297:11307   */\n      dup6\n        /* \"#utility.yul\":11294:11312   */\n      lt\n        /* \"#utility.yul\":11291:11340   */\n      iszero\n      tag_249\n      jumpi\n        /* \"#utility.yul\":11330:11338   */\n      dup2\n        /* \"#utility.yul\":11315:11338   */\n      swap1\n      pop\n        /* \"#utility.yul\":11291:11340   */\n    tag_249:\n        /* \"#utility.yul\":11353:11433   */\n      tag_250\n        /* \"#utility.yul\":11409:11431   */\n      tag_251\n        /* \"#utility.yul\":11427:11430   */\n      dup6\n        /* \"#utility.yul\":11409:11431   */\n      tag_108\n      jump\t// in\n    tag_251:\n        /* \"#utility.yul\":11399:11407   */\n      dup4\n        /* \"#utility.yul\":11395:11432   */\n      add\n        /* \"#utility.yul\":11382:11393   */\n      dup3\n        /* \"#utility.yul\":11353:11433   */\n      tag_117\n      jump\t// in\n    tag_250:\n        /* \"#utility.yul\":11012:11443   */\n      pop\n      pop\n        /* \"#utility.yul\":10997:11443   */\n    tag_246:\n        /* \"#utility.yul\":10907:11450   */\n      pop\n      pop\n      pop\n      jump\t// out\n        /* \"#utility.yul\":11456:11573   */\n    tag_119:\n        /* \"#utility.yul\":11510:11518   */\n      0x00\n        /* \"#utility.yul\":11560:11565   */\n      dup3\n        /* \"#utility.yul\":11554:11558   */\n      dup3\n        /* \"#utility.yul\":11550:11566   */\n      shr\n        /* \"#utility.yul\":11529:11566   */\n      swap1\n      pop\n        /* \"#utility.yul\":11456:11573   */\n      swap3\n      swap2\n      pop\n      pop\n      jump\t// out\n        /* \"#utility.yul\":11579:11748   */\n    tag_120:\n        /* \"#utility.yul\":11623:11629   */\n      0x00\n        /* \"#utility.yul\":11656:11707   */\n      tag_254\n        /* \"#utility.yul\":11704:11705   */\n      0x00\n        /* \"#utility.yul\":11700:11706   */\n      not\n        /* \"#utility.yul\":11692:11697   */\n      dup5\n        /* \"#utility.yul\":11689:11690   */\n      0x08\n        /* \"#utility.yul\":11685:11698   */\n      mul\n        /* \"#utility.yul\":11656:11707   */\n      tag_119\n      jump\t// in\n    tag_254:\n        /* \"#utility.yul\":11652:11708   */\n      not\n        /* \"#utility.yul\":11737:11741   */\n      dup1\n        /* \"#utility.yul\":11731:11735   */\n      dup4\n        /* \"#utility.yul\":11727:11742   */\n      and\n        /* \"#utility.yul\":11717:11742   */\n      swap2\n      pop\n        /* \"#utility.yul\":11630:11748   */\n      pop\n        /* \"#utility.yul\":11579:11748   */\n      swap3\n      swap2\n      pop\n      pop\n      jump\t// out\n        /* \"#utility.yul\":11753:12048   */\n    tag_121:\n        /* \"#utility.yul\":11829:11833   */\n      0x00\n        /* \"#utility.yul\":11975:12004   */\n      tag_256\n        /* \"#utility.yul\":12000:12003   */\n      dup4\n        /* \"#utility.yul\":11994:11998   */\n      dup4\n        /* \"#utility.yul\":11975:12004   */\n      tag_120\n      jump\t// in\n    tag_256:\n        /* \"#utility.yul\":11967:12004   */\n      swap2\n      pop\n        /* \"#utility.yul\":12037:12040   */\n      dup3\n        /* \"#utility.yul\":12034:12035   */\n      0x02\n        /* \"#utility.yul\":12030:12041   */\n      mul\n        /* \"#utility.yul\":12024:12028   */\n      dup3\n        /* \"#utility.yul\":12021:12042   */\n      or\n        /* \"#utility.yul\":12013:12042   */\n      swap1\n      pop\n        /* \"#utility.yul\":11753:12048   */\n      swap3\n      swap2\n      pop\n      pop\n      jump\t// out\n        /* \"#utility.yul\":12053:13448   */\n    tag_57:\n        /* \"#utility.yul\":12170:12207   */\n      tag_258\n        /* \"#utility.yul\":12203:12206   */\n      dup3\n        /* \"#utility.yul\":12170:12207   */\n      tag_97\n      jump\t// in\n    tag_258:\n        /* \"#utility.yul\":12272:12290   */\n      0xffffffffffffffff\n        /* \"#utility.yul\":12264:12270   */\n      dup2\n        /* \"#utility.yul\":12261:12291   */\n      gt\n        /* \"#utility.yul\":12258:12314   */\n      iszero\n      tag_259\n      jumpi\n        /* \"#utility.yul\":12294:12312   */\n      tag_260\n      tag_86\n      jump\t// in\n    tag_260:\n        /* \"#utility.yul\":12258:12314   */\n    tag_259:\n        /* \"#utility.yul\":12338:12376   */\n      tag_261\n        /* \"#utility.yul\":12370:12374   */\n      dup3\n        /* \"#utility.yul\":12364:12375   */\n      sload\n        /* \"#utility.yul\":12338:12376   */\n      tag_60\n      jump\t// in\n    tag_261:\n        /* \"#utility.yul\":12423:12490   */\n      tag_262\n        /* \"#utility.yul\":12483:12489   */\n      dup3\n        /* \"#utility.yul\":12475:12481   */\n      dup3\n        /* \"#utility.yul\":12469:12473   */\n      dup6\n        /* \"#utility.yul\":12423:12490   */\n      tag_118\n      jump\t// in\n    tag_262:\n        /* \"#utility.yul\":12517:12518   */\n      0x00\n        /* \"#utility.yul\":12541:12545   */\n      0x20\n        /* \"#utility.yul\":12528:12545   */\n      swap1\n      pop\n        /* \"#utility.yul\":12573:12575   */\n      0x1f\n        /* \"#utility.yul\":12565:12571   */\n      dup4\n        /* \"#utility.yul\":12562:12576   */\n      gt\n        /* \"#utility.yul\":12590:12591   */\n      0x01\n        /* \"#utility.yul\":12585:13203   */\n      dup2\n      eq\n      tag_264\n      jumpi\n        /* \"#utility.yul\":13247:13248   */\n      0x00\n        /* \"#utility.yul\":13264:13270   */\n      dup5\n        /* \"#utility.yul\":13261:13338   */\n      iszero\n      tag_265\n      jumpi\n        /* \"#utility.yul\":13313:13322   */\n      dup3\n        /* \"#utility.yul\":13308:13311   */\n      dup8\n        /* \"#utility.yul\":13304:13323   */\n      add\n        /* \"#utility.yul\":13298:13324   */\n      mload\n        /* \"#utility.yul\":13289:13324   */\n      swap1\n      pop\n        /* \"#utility.yul\":13261:13338   */\n    tag_265:\n        /* \"#utility.yul\":13364:13431   */\n      tag_266\n        /* \"#utility.yul\":13424:13430   */\n      dup6\n        /* \"#utility.yul\":13417:13422   */\n      dup3\n        /* \"#utility.yul\":13364:13431   */\n      tag_121\n      jump\t// in\n    tag_266:\n        /* \"#utility.yul\":13358:13362   */\n      dup7\n        /* \"#utility.yul\":13351:13432   */\n      sstore\n        /* \"#utility.yul\":13220:13442   */\n      pop\n        /* \"#utility.yul\":12555:13442   */\n      jump(tag_263)\n        /* \"#utility.yul\":12585:13203   */\n    tag_264:\n        /* \"#utility.yul\":12637:12641   */\n      0x1f\n        /* \"#utility.yul\":12633:12642   */\n      not\n        /* \"#utility.yul\":12625:12631   */\n      dup5\n        /* \"#utility.yul\":12621:12643   */\n      and\n        /* \"#utility.yul\":12671:12708   */\n      tag_267\n        /* \"#utility.yul\":12703:12707   */\n      dup7\n        /* \"#utility.yul\":12671:12708   */\n      tag_107\n      jump\t// in\n    tag_267:\n        /* \"#utility.yul\":12730:12731   */\n      0x00\n        /* \"#utility.yul\":12744:12952   */\n    tag_268:\n        /* \"#utility.yul\":12758:12765   */\n      dup3\n        /* \"#utility.yul\":12755:12756   */\n      dup2\n        /* \"#utility.yul\":12752:12766   */\n      lt\n        /* \"#utility.yul\":12744:12952   */\n      iszero\n      tag_270\n      jumpi\n        /* \"#utility.yul\":12837:12846   */\n      dup5\n        /* \"#utility.yul\":12832:12835   */\n      dup10\n        /* \"#utility.yul\":12828:12847   */\n      add\n        /* \"#utility.yul\":12822:12848   */\n      mload\n        /* \"#utility.yul\":12814:12820   */\n      dup3\n        /* \"#utility.yul\":12807:12849   */\n      sstore\n        /* \"#utility.yul\":12888:12889   */\n      0x01\n        /* \"#utility.yul\":12880:12886   */\n      dup3\n        /* \"#utility.yul\":12876:12890   */\n      add\n        /* \"#utility.yul\":12866:12890   */\n      swap2\n      pop\n        /* \"#utility.yul\":12935:12937   */\n      0x20\n        /* \"#utility.yul\":12924:12933   */\n      dup6\n        /* \"#utility.yul\":12920:12938   */\n      add\n        /* \"#utility.yul\":12907:12938   */\n      swap5\n      pop\n        /* \"#utility.yul\":12781:12785   */\n      0x20\n        /* \"#utility.yul\":12778:12779   */\n      dup2\n        /* \"#utility.yul\":12774:12786   */\n      add\n        /* \"#utility.yul\":12769:12786   */\n      swap1\n      pop\n        /* \"#utility.yul\":12744:12952   */\n      jump(tag_268)\n    tag_270:\n        /* \"#utility.yul\":12980:12986   */\n      dup7\n        /* \"#utility.yul\":12971:12978   */\n      dup4\n        /* \"#utility.yul\":12968:12987   */\n      lt\n        /* \"#utility.yul\":12965:13144   */\n      iszero\n      tag_271\n      jumpi\n        /* \"#utility.yul\":13038:13047   */\n      dup5\n        /* \"#utility.yul\":13033:13036   */\n      dup10\n        /* \"#utility.yul\":13029:13048   */\n      add\n        /* \"#utility.yul\":13023:13049   */\n      mload\n        /* \"#utility.yul\":13081:13129   */\n      tag_272\n        /* \"#utility.yul\":13123:13127   */\n      0x1f\n        /* \"#utility.yul\":13115:13121   */\n      dup10\n        /* \"#utility.yul\":13111:13128   */\n      and\n        /* \"#utility.yul\":13100:13109   */\n      dup3\n        /* \"#utility.yul\":13081:13129   */\n      tag_120\n      jump\t// in\n    tag_272:\n        /* \"#utility.yul\":13073:13079   */\n      dup4\n        /* \"#utility.yul\":13066:13130   */\n      sstore\n        /* \"#utility.yul\":12988:13144   */\n      pop\n        /* \"#utility.yul\":12965:13144   */\n    tag_271:\n        /* \"#utility.yul\":13190:13191   */\n      0x01\n        /* \"#utility.yul\":13186:13187   */\n      0x02\n        /* \"#utility.yul\":13178:13184   */\n      dup9\n        /* \"#utility.yul\":13174:13188   */\n      mul\n        /* \"#utility.yul\":13170:13192   */\n      add\n        /* \"#utility.yul\":13164:13168   */\n      dup9\n        /* \"#utility.yul\":13157:13193   */\n      sstore\n        /* \"#utility.yul\":12592:13203   */\n      pop\n      pop\n      pop\n        /* \"#utility.yul\":12555:13442   */\n    tag_263:\n      pop\n        /* \"#utility.yul\":12145:13448   */\n      pop\n      pop\n      pop\n        /* \"#utility.yul\":12053:13448   */\n      pop\n      pop\n      jump\t// out\n\n    auxdata: 0xa264697066735822122070392e352f0b6fc950b0194c14ce31494b00490c2a791c0f2fd900c584fff70e64736f6c634300081e0033\n}\n",
				"bytecode": {
					"linkReferences": {},
					"object": "6080604052348015600e575f5ffd5b50610c848061001c5f395ff3fe608060405234801561000f575f5ffd5b506004361061007b575f3560e01c806399e4ab241161005957806399e4ab24146100e8578063ae31a87714610104578063dd98e2bb14610137578063e250250b146101675761007b565b80636ca617d81461007f5780636ceb54531461009b5780638b20e1ad146100cc575b5f5ffd5b6100996004803603810190610094919061065b565b610197565b005b6100b560048036038101906100b0919061065b565b6101cf565b6040516100c39291906106ba565b60405180910390f35b6100e660048036038101906100e1919061065b565b61021c565b005b61010260048036038101906100fd919061070b565b610254565b005b61011e6004803603810190610119919061065b565b6102d8565b60405161012e94939291906107f3565b60405180910390f35b610151600480360381019061014c919061065b565b610427565b60405161015e9190610844565b60405180910390f35b610181600480360381019061017c919061065b565b6104d7565b60405161018e919061087e565b60405180910390f35b5f816040516101a691906108d1565b90815260200160405180910390206003015f8154809291906101c790610914565b919050555050565b5f5f5f836040516101e091906108d1565b9081526020016040518091039020600301545f8460405161020191906108d1565b90815260200160405180910390206002015491509150915091565b5f8160405161022b91906108d1565b90815260200160405180910390206003015f81548092919061024c9061095b565b919050555050565b60405180608001604052808481526020018381526020018281526020015f8152505f8460405161028491906108d1565b90815260200160405180910390205f820151815f0190816102a59190610b7f565b5060208201518160010190816102bb9190610b7f565b506040820151816002015560608201518160030155905050505050565b5f818051602081018201805184825260208301602085012081835280955050505050505f91509050805f01805461030e906109af565b80601f016020809104026020016040519081016040528092919081815260200182805461033a906109af565b80156103855780601f1061035c57610100808354040283529160200191610385565b820191905f5260205f20905b81548152906001019060200180831161036857829003601f168201915b50505050509080600101805461039a906109af565b80601f01602080910402602001604051908101604052809291908181526020018280546103c6906109af565b80156104115780601f106103e857610100808354040283529160200191610411565b820191905f5260205f20905b8154815290600101906020018083116103f457829003601f168201915b5050505050908060020154908060030154905084565b60605f8260405161043891906108d1565b90815260200160405180910390206001018054610454906109af565b80601f0160208091040260200160405190810160405280929190818152602001828054610480906109af565b80156104cb5780601f106104a2576101008083540402835291602001916104cb565b820191905f5260205f20905b8154815290600101906020018083116104ae57829003601f168201915b50505050509050919050565b5f5f5f836040516104e891906108d1565b90815260200160405180910390205f018054610503906109af565b905014159050919050565b5f604051905090565b5f5ffd5b5f5ffd5b5f5ffd5b5f5ffd5b5f601f19601f8301169050919050565b7f4e487b71000000000000000000000000000000000000000000000000000000005f52604160045260245ffd5b61056d82610527565b810181811067ffffffffffffffff8211171561058c5761058b610537565b5b80604052505050565b5f61059e61050e565b90506105aa8282610564565b919050565b5f67ffffffffffffffff8211156105c9576105c8610537565b5b6105d282610527565b9050602081019050919050565b828183375f83830152505050565b5f6105ff6105fa846105af565b610595565b90508281526020810184848401111561061b5761061a610523565b5b6106268482856105df565b509392505050565b5f82601f8301126106425761064161051f565b5b81356106528482602086016105ed565b91505092915050565b5f602082840312156106705761066f610517565b5b5f82013567ffffffffffffffff81111561068d5761068c61051b565b5b6106998482850161062e565b91505092915050565b5f819050919050565b6106b4816106a2565b82525050565b5f6040820190506106cd5f8301856106ab565b6106da60208301846106ab565b9392505050565b6106ea816106a2565b81146106f4575f5ffd5b50565b5f81359050610705816106e1565b92915050565b5f5f5f6060848603121561072257610721610517565b5b5f84013567ffffffffffffffff81111561073f5761073e61051b565b5b61074b8682870161062e565b935050602084013567ffffffffffffffff81111561076c5761076b61051b565b5b6107788682870161062e565b9250506040610789868287016106f7565b9150509250925092565b5f81519050919050565b5f82825260208201905092915050565b8281835e5f83830152505050565b5f6107c582610793565b6107cf818561079d565b93506107df8185602086016107ad565b6107e881610527565b840191505092915050565b5f6080820190508181035f83015261080b81876107bb565b9050818103602083015261081f81866107bb565b905061082e60408301856106ab565b61083b60608301846106ab565b95945050505050565b5f6020820190508181035f83015261085c81846107bb565b905092915050565b5f8115159050919050565b61087881610864565b82525050565b5f6020820190506108915f83018461086f565b92915050565b5f81905092915050565b5f6108ab82610793565b6108b58185610897565b93506108c58185602086016107ad565b80840191505092915050565b5f6108dc82846108a1565b915081905092915050565b7f4e487b71000000000000000000000000000000000000000000000000000000005f52601160045260245ffd5b5f61091e826106a2565b91507fffffffffffffffffffffffffffffffffffffffffffffffffffffffffffffffff82036109505761094f6108e7565b5b600182019050919050565b5f610965826106a2565b91505f8203610977576109766108e7565b5b600182039050919050565b7f4e487b71000000000000000000000000000000000000000000000000000000005f52602260045260245ffd5b5f60028204905060018216806109c657607f821691505b6020821081036109d9576109d8610982565b5b50919050565b5f819050815f5260205f209050919050565b5f6020601f8301049050919050565b5f82821b905092915050565b5f60088302610a3b7fffffffffffffffffffffffffffffffffffffffffffffffffffffffffffffffff82610a00565b610a458683610a00565b95508019841693508086168417925050509392505050565b5f819050919050565b5f610a80610a7b610a76846106a2565b610a5d565b6106a2565b9050919050565b5f819050919050565b610a9983610a66565b610aad610aa582610a87565b848454610a0c565b825550505050565b5f5f905090565b610ac4610ab5565b610acf818484610a90565b505050565b5b81811015610af257610ae75f82610abc565b600181019050610ad5565b5050565b601f821115610b3757610b08816109df565b610b11846109f1565b81016020851015610b20578190505b610b34610b2c856109f1565b830182610ad4565b50505b505050565b5f82821c905092915050565b5f610b575f1984600802610b3c565b1980831691505092915050565b5f610b6f8383610b48565b9150826002028217905092915050565b610b8882610793565b67ffffffffffffffff811115610ba157610ba0610537565b5b610bab82546109af565b610bb6828285610af6565b5f60209050601f831160018114610be7575f8415610bd5578287015190505b610bdf8582610b64565b865550610c46565b601f198416610bf5866109df565b5f5b82811015610c1c57848901518255600182019150602085019450602081019050610bf7565b86831015610c395784890151610c35601f891682610b48565b8355505b6001600288020188555050505b50505050505056fea264697066735822122070392e352f0b6fc950b0194c14ce31494b00490c2a791c0f2fd900c584fff70e64736f6c634300081e0033",
					"opcodes": "PUSH1 0x80 PUSH1 0x40 MSTORE CALLVALUE DUP1 ISZERO PUSH1 0xE JUMPI PUSH0 PUSH0 REVERT JUMPDEST POP PUSH2 0xC84 DUP1 PUSH2 0x1C PUSH0 CODECOPY PUSH0 RETURN INVALID PUSH1 0x80 PUSH1 0x40 MSTORE CALLVALUE DUP1 ISZERO PUSH2 0xF JUMPI PUSH0 PUSH0 REVERT JUMPDEST POP PUSH1 0x4 CALLDATASIZE LT PUSH2 0x7B JUMPI PUSH0 CALLDATALOAD PUSH1 0xE0 SHR DUP1 PUSH4 0x99E4AB24 GT PUSH2 0x59 JUMPI DUP1 PUSH4 0x99E4AB24 EQ PUSH2 0xE8 JUMPI DUP1 PUSH4 0xAE31A877 EQ PUSH2 0x104 JUMPI DUP1 PUSH4 0xDD98E2BB EQ PUSH2 0x137 JUMPI DUP1 PUSH4 0xE250250B EQ PUSH2 0x167 JUMPI PUSH2 0x7B JUMP JUMPDEST DUP1 PUSH4 0x6CA617D8 EQ PUSH2 0x7F JUMPI DUP1 PUSH4 0x6CEB5453 EQ PUSH2 0x9B JUMPI DUP1 PUSH4 0x8B20E1AD EQ PUSH2 0xCC JUMPI JUMPDEST PUSH0 PUSH0 REVERT JUMPDEST PUSH2 0x99 PUSH1 0x4 DUP1 CALLDATASIZE SUB DUP2 ADD SWAP1 PUSH2 0x94 SWAP2 SWAP1 PUSH2 0x65B JUMP JUMPDEST PUSH2 0x197 JUMP JUMPDEST STOP JUMPDEST PUSH2 0xB5 PUSH1 0x4 DUP1 CALLDATASIZE SUB DUP2 ADD SWAP1 PUSH2 0xB0 SWAP2 SWAP1 PUSH2 0x65B JUMP JUMPDEST PUSH2 0x1CF JUMP JUMPDEST PUSH1 0x40 MLOAD PUSH2 0xC3 SWAP3 SWAP2 SWAP1 PUSH2 0x6BA JUMP JUMPDEST PUSH1 0x40 MLOAD DUP1 SWAP2 SUB SWAP1 RETURN JUMPDEST PUSH2 0xE6 PUSH1 0x4 DUP1 CALLDATASIZE SUB DUP2 ADD SWAP1 PUSH2 0xE1 SWAP2 SWAP1 PUSH2 0x65B JUMP JUMPDEST PUSH2 0x21C JUMP JUMPDEST STOP JUMPDEST PUSH2 0x102 PUSH1 0x4 DUP1 CALLDATASIZE SUB DUP2 ADD SWAP1 PUSH2 0xFD SWAP2 SWAP1 PUSH2 0x70B JUMP JUMPDEST PUSH2 0x254 JUMP JUMPDEST STOP JUMPDEST PUSH2 0x11E PUSH1 0x4 DUP1 CALLDATASIZE SUB DUP2 ADD SWAP1 PUSH2 0x119 SWAP2 SWAP1 PUSH2 0x65B JUMP JUMPDEST PUSH2 0x2D8 JUMP JUMPDEST PUSH1 0x40 MLOAD PUSH2 0x12E SWAP5 SWAP4 SWAP3 SWAP2 SWAP1 PUSH2 0x7F3 JUMP JUMPDEST PUSH1 0x40 MLOAD DUP1 SWAP2 SUB SWAP1 RETURN JUMPDEST PUSH2 0x151 PUSH1 0x4 DUP1 CALLDATASIZE SUB DUP2 ADD SWAP1 PUSH2 0x14C SWAP2 SWAP1 PUSH2 0x65B JUMP JUMPDEST PUSH2 0x427 JUMP JUMPDEST PUSH1 0x40 MLOAD PUSH2 0x15E SWAP2 SWAP1 PUSH2 0x844 JUMP JUMPDEST PUSH1 0x40 MLOAD DUP1 SWAP2 SUB SWAP1 RETURN JUMPDEST PUSH2 0x181 PUSH1 0x4 DUP1 CALLDATASIZE SUB DUP2 ADD SWAP1 PUSH2 0x17C SWAP2 SWAP1 PUSH2 0x65B JUMP JUMPDEST PUSH2 0x4D7 JUMP JUMPDEST PUSH1 0x40 MLOAD PUSH2 0x18E SWAP2 SWAP1 PUSH2 0x87E JUMP JUMPDEST PUSH1 0x40 MLOAD DUP1 SWAP2 SUB SWAP1 RETURN JUMPDEST PUSH0 DUP2 PUSH1 0x40 MLOAD PUSH2 0x1A6 SWAP2 SWAP1 PUSH2 0x8D1 JUMP JUMPDEST SWAP1 DUP2 MSTORE PUSH1 0x20 ADD PUSH1 0x40 MLOAD DUP1 SWAP2 SUB SWAP1 KECCAK256 PUSH1 0x3 ADD PUSH0 DUP2 SLOAD DUP1 SWAP3 SWAP2 SWAP1 PUSH2 0x1C7 SWAP1 PUSH2 0x914 JUMP JUMPDEST SWAP2 SWAP1 POP SSTORE POP POP JUMP JUMPDEST PUSH0 PUSH0 PUSH0 DUP4 PUSH1 0x40 MLOAD PUSH2 0x1E0 SWAP2 SWAP1 PUSH2 0x8D1 JUMP JUMPDEST SWAP1 DUP2 MSTORE PUSH1 0x20 ADD PUSH1 0x40 MLOAD DUP1 SWAP2 SUB SWAP1 KECCAK256 PUSH1 0x3 ADD SLOAD PUSH0 DUP5 PUSH1 0x40 MLOAD PUSH2 0x201 SWAP2 SWAP1 PUSH2 0x8D1 JUMP JUMPDEST SWAP1 DUP2 MSTORE PUSH1 0x20 ADD PUSH1 0x40 MLOAD DUP1 SWAP2 SUB SWAP1 KECCAK256 PUSH1 0x2 ADD SLOAD SWAP2 POP SWAP2 POP SWAP2 POP SWAP2 JUMP JUMPDEST PUSH0 DUP2 PUSH1 0x40 MLOAD PUSH2 0x22B SWAP2 SWAP1 PUSH2 0x8D1 JUMP JUMPDEST SWAP1 DUP2 MSTORE PUSH1 0x20 ADD PUSH1 0x40 MLOAD DUP1 SWAP2 SUB SWAP1 KECCAK256 PUSH1 0x3 ADD PUSH0 DUP2 SLOAD DUP1 SWAP3 SWAP2 SWAP1 PUSH2 0x24C SWAP1 PUSH2 0x95B JUMP JUMPDEST SWAP2 SWAP1 POP SSTORE POP POP JUMP JUMPDEST PUSH1 0x40 MLOAD DUP1 PUSH1 0x80 ADD PUSH1 0x40 MSTORE DUP1 DUP5 DUP2 MSTORE PUSH1 0x20 ADD DUP4 DUP2 MSTORE PUSH1 0x20 ADD DUP3 DUP2 MSTORE PUSH1 0x20 ADD PUSH0 DUP2 MSTORE POP PUSH0 DUP5 PUSH1 0x40 MLOAD PUSH2 0x284 SWAP2 SWAP1 PUSH2 0x8D1 JUMP JUMPDEST SWAP1 DUP2 MSTORE PUSH1 0x20 ADD PUSH1 0x40 MLOAD DUP1 SWAP2 SUB SWAP1 KECCAK256 PUSH0 DUP3 ADD MLOAD DUP2 PUSH0 ADD SWAP1 DUP2 PUSH2 0x2A5 SWAP2 SWAP1 PUSH2 0xB7F JUMP JUMPDEST POP PUSH1 0x20 DUP3 ADD MLOAD DUP2 PUSH1 0x1 ADD SWAP1 DUP2 PUSH2 0x2BB SWAP2 SWAP1 PUSH2 0xB7F JUMP JUMPDEST POP PUSH1 0x40 DUP3 ADD MLOAD DUP2 PUSH1 0x2 ADD SSTORE PUSH1 0x60 DUP3 ADD MLOAD DUP2 PUSH1 0x3 ADD SSTORE SWAP1 POP POP POP POP POP JUMP JUMPDEST PUSH0 DUP2 DUP1 MLOAD PUSH1 0x20 DUP2 ADD DUP3 ADD DUP1 MLOAD DUP5 DUP3 MSTORE PUSH1 0x20 DUP4 ADD PUSH1 0x20 DUP6 ADD KECCAK256 DUP2 DUP4 MSTORE DUP1 SWAP6 POP POP POP POP POP POP PUSH0 SWAP2 POP SWAP1 POP DUP1 PUSH0 ADD DUP1 SLOAD PUSH2 0x30E SWAP1 PUSH2 0x9AF JUMP JUMPDEST DUP1 PUSH1 0x1F ADD PUSH1 0x20 DUP1 SWAP2 DIV MUL PUSH1 0x20 ADD PUSH1 0x40 MLOAD SWAP1 DUP2 ADD PUSH1 0x40 MSTORE DUP1 SWAP3 SWAP2 SWAP1 DUP2 DUP2 MSTORE PUSH1 0x20 ADD DUP3 DUP1 SLOAD PUSH2 0x33A SWAP1 PUSH2 0x9AF JUMP JUMPDEST DUP1 ISZERO PUSH2 0x385 JUMPI DUP1 PUSH1 0x1F LT PUSH2 0x35C JUMPI PUSH2 0x100 DUP1 DUP4 SLOAD DIV MUL DUP4 MSTORE SWAP2 PUSH1 0x20 ADD SWAP2 PUSH2 0x385 JUMP JUMPDEST DUP3 ADD SWAP2 SWAP1 PUSH0 MSTORE PUSH1 0x20 PUSH0 KECCAK256 SWAP1 JUMPDEST DUP2 SLOAD DUP2 MSTORE SWAP1 PUSH1 0x1 ADD SWAP1 PUSH1 0x20 ADD DUP1 DUP4 GT PUSH2 0x368 JUMPI DUP3 SWAP1 SUB PUSH1 0x1F AND DUP3 ADD SWAP2 JUMPDEST POP POP POP POP POP SWAP1 DUP1 PUSH1 0x1 ADD DUP1 SLOAD PUSH2 0x39A SWAP1 PUSH2 0x9AF JUMP JUMPDEST DUP1 PUSH1 0x1F ADD PUSH1 0x20 DUP1 SWAP2 DIV MUL PUSH1 0x20 ADD PUSH1 0x40 MLOAD SWAP1 DUP2 ADD PUSH1 0x40 MSTORE DUP1 SWAP3 SWAP2 SWAP1 DUP2 DUP2 MSTORE PUSH1 0x20 ADD DUP3 DUP1 SLOAD PUSH2 0x3C6 SWAP1 PUSH2 0x9AF JUMP JUMPDEST DUP1 ISZERO PUSH2 0x411 JUMPI DUP1 PUSH1 0x1F LT PUSH2 0x3E8 JUMPI PUSH2 0x100 DUP1 DUP4 SLOAD DIV MUL DUP4 MSTORE SWAP2 PUSH1 0x20 ADD SWAP2 PUSH2 0x411 JUMP JUMPDEST DUP3 ADD SWAP2 SWAP1 PUSH0 MSTORE PUSH1 0x20 PUSH0 KECCAK256 SWAP1 JUMPDEST DUP2 SLOAD DUP2 MSTORE SWAP1 PUSH1 0x1 ADD SWAP1 PUSH1 0x20 ADD DUP1 DUP4 GT PUSH2 0x3F4 JUMPI DUP3 SWAP1 SUB PUSH1 0x1F AND DUP3 ADD SWAP2 JUMPDEST POP POP POP POP POP SWAP1 DUP1 PUSH1 0x2 ADD SLOAD SWAP1 DUP1 PUSH1 0x3 ADD SLOAD SWAP1 POP DUP5 JUMP JUMPDEST PUSH1 0x60 PUSH0 DUP3 PUSH1 0x40 MLOAD PUSH2 0x438 SWAP2 SWAP1 PUSH2 0x8D1 JUMP JUMPDEST SWAP1 DUP2 MSTORE PUSH1 0x20 ADD PUSH1 0x40 MLOAD DUP1 SWAP2 SUB SWAP1 KECCAK256 PUSH1 0x1 ADD DUP1 SLOAD PUSH2 0x454 SWAP1 PUSH2 0x9AF JUMP JUMPDEST DUP1 PUSH1 0x1F ADD PUSH1 0x20 DUP1 SWAP2 DIV MUL PUSH1 0x20 ADD PUSH1 0x40 MLOAD SWAP1 DUP2 ADD PUSH1 0x40 MSTORE DUP1 SWAP3 SWAP2 SWAP1 DUP2 DUP2 MSTORE PUSH1 0x20 ADD DUP3 DUP1 SLOAD PUSH2 0x480 SWAP1 PUSH2 0x9AF JUMP JUMPDEST DUP1 ISZERO PUSH2 0x4CB JUMPI DUP1 PUSH1 0x1F LT PUSH2 0x4A2 JUMPI PUSH2 0x100 DUP1 DUP4 SLOAD DIV MUL DUP4 MSTORE SWAP2 PUSH1 0x20 ADD SWAP2 PUSH2 0x4CB JUMP JUMPDEST DUP3 ADD SWAP2 SWAP1 PUSH0 MSTORE PUSH1 0x20 PUSH0 KECCAK256 SWAP1 JUMPDEST DUP2 SLOAD DUP2 MSTORE SWAP1 PUSH1 0x1 ADD SWAP1 PUSH1 0x20 ADD DUP1 DUP4 GT PUSH2 0x4AE JUMPI DUP3 SWAP1 SUB PUSH1 0x1F AND DUP3 ADD SWAP2 JUMPDEST POP POP POP POP POP SWAP1 POP SWAP2 SWAP1 POP JUMP JUMPDEST PUSH0 PUSH0 PUSH0 DUP4 PUSH1 0x40 MLOAD PUSH2 0x4E8 SWAP2 SWAP1 PUSH2 0x8D1 JUMP JUMPDEST SWAP1 DUP2 MSTORE PUSH1 0x20 ADD PUSH1 0x40 MLOAD DUP1 SWAP2 SUB SWAP1 KECCAK256 PUSH0 ADD DUP1 SLOAD PUSH2 0x503 SWAP1 PUSH2 0x9AF JUMP JUMPDEST SWAP1 POP EQ ISZERO SWAP1 POP SWAP2 SWAP1 POP JUMP JUMPDEST PUSH0 PUSH1 0x40 MLOAD SWAP1 POP SWAP1 JUMP JUMPDEST PUSH0 PUSH0 REVERT JUMPDEST PUSH0 PUSH0 REVERT JUMPDEST PUSH0 PUSH0 REVERT JUMPDEST PUSH0 PUSH0 REVERT JUMPDEST PUSH0 PUSH1 0x1F NOT PUSH1 0x1F DUP4 ADD AND SWAP1 POP SWAP2 SWAP1 POP JUMP JUMPDEST PUSH32 0x4E487B7100000000000000000000000000000000000000000000000000000000 PUSH0 MSTORE PUSH1 0x41 PUSH1 0x4 MSTORE PUSH1 0x24 PUSH0 REVERT JUMPDEST PUSH2 0x56D DUP3 PUSH2 0x527 JUMP JUMPDEST DUP2 ADD DUP2 DUP2 LT PUSH8 0xFFFFFFFFFFFFFFFF DUP3 GT OR ISZERO PUSH2 0x58C JUMPI PUSH2 0x58B PUSH2 0x537 JUMP JUMPDEST JUMPDEST DUP1 PUSH1 0x40 MSTORE POP POP POP JUMP JUMPDEST PUSH0 PUSH2 0x59E PUSH2 0x50E JUMP JUMPDEST SWAP1 POP PUSH2 0x5AA DUP3 DUP3 PUSH2 0x564 JUMP JUMPDEST SWAP2 SWAP1 POP JUMP JUMPDEST PUSH0 PUSH8 0xFFFFFFFFFFFFFFFF DUP3 GT ISZERO PUSH2 0x5C9 JUMPI PUSH2 0x5C8 PUSH2 0x537 JUMP JUMPDEST JUMPDEST PUSH2 0x5D2 DUP3 PUSH2 0x527 JUMP JUMPDEST SWAP1 POP PUSH1 0x20 DUP2 ADD SWAP1 POP SWAP2 SWAP1 POP JUMP JUMPDEST DUP3 DUP2 DUP4 CALLDATACOPY PUSH0 DUP4 DUP4 ADD MSTORE POP POP POP JUMP JUMPDEST PUSH0 PUSH2 0x5FF PUSH2 0x5FA DUP5 PUSH2 0x5AF JUMP JUMPDEST PUSH2 0x595 JUMP JUMPDEST SWAP1 POP DUP3 DUP2 MSTORE PUSH1 0x20 DUP2 ADD DUP5 DUP5 DUP5 ADD GT ISZERO PUSH2 0x61B JUMPI PUSH2 0x61A PUSH2 0x523 JUMP JUMPDEST JUMPDEST PUSH2 0x626 DUP5 DUP3 DUP6 PUSH2 0x5DF JUMP JUMPDEST POP SWAP4 SWAP3 POP POP POP JUMP JUMPDEST PUSH0 DUP3 PUSH1 0x1F DUP4 ADD SLT PUSH2 0x642 JUMPI PUSH2 0x641 PUSH2 0x51F JUMP JUMPDEST JUMPDEST DUP2 CALLDATALOAD PUSH2 0x652 DUP5 DUP3 PUSH1 0x20 DUP7 ADD PUSH2 0x5ED JUMP JUMPDEST SWAP2 POP POP SWAP3 SWAP2 POP POP JUMP JUMPDEST PUSH0 PUSH1 0x20 DUP3 DUP5 SUB SLT ISZERO PUSH2 0x670 JUMPI PUSH2 0x66F PUSH2 0x517 JUMP JUMPDEST JUMPDEST PUSH0 DUP3 ADD CALLDATALOAD PUSH8 0xFFFFFFFFFFFFFFFF DUP2 GT ISZERO PUSH2 0x68D JUMPI PUSH2 0x68C PUSH2 0x51B JUMP JUMPDEST JUMPDEST PUSH2 0x699 DUP5 DUP3 DUP6 ADD PUSH2 0x62E JUMP JUMPDEST SWAP2 POP POP SWAP3 SWAP2 POP POP JUMP JUMPDEST PUSH0 DUP2 SWAP1 POP SWAP2 SWAP1 POP JUMP JUMPDEST PUSH2 0x6B4 DUP2 PUSH2 0x6A2 JUMP JUMPDEST DUP3 MSTORE POP POP JUMP JUMPDEST PUSH0 PUSH1 0x40 DUP3 ADD SWAP1 POP PUSH2 0x6CD PUSH0 DUP4 ADD DUP6 PUSH2 0x6AB JUMP JUMPDEST PUSH2 0x6DA PUSH1 0x20 DUP4 ADD DUP5 PUSH2 0x6AB JUMP JUMPDEST SWAP4 SWAP3 POP POP POP JUMP JUMPDEST PUSH2 0x6EA DUP2 PUSH2 0x6A2 JUMP JUMPDEST DUP2 EQ PUSH2 0x6F4 JUMPI PUSH0 PUSH0 REVERT JUMPDEST POP JUMP JUMPDEST PUSH0 DUP2 CALLDATALOAD SWAP1 POP PUSH2 0x705 DUP2 PUSH2 0x6E1 JUMP JUMPDEST SWAP3 SWAP2 POP POP JUMP JUMPDEST PUSH0 PUSH0 PUSH0 PUSH1 0x60 DUP5 DUP7 SUB SLT ISZERO PUSH2 0x722 JUMPI PUSH2 0x721 PUSH2 0x517 JUMP JUMPDEST JUMPDEST PUSH0 DUP5 ADD CALLDATALOAD PUSH8 0xFFFFFFFFFFFFFFFF DUP2 GT ISZERO PUSH2 0x73F JUMPI PUSH2 0x73E PUSH2 0x51B JUMP JUMPDEST JUMPDEST PUSH2 0x74B DUP7 DUP3 DUP8 ADD PUSH2 0x62E JUMP JUMPDEST SWAP4 POP POP PUSH1 0x20 DUP5 ADD CALLDATALOAD PUSH8 0xFFFFFFFFFFFFFFFF DUP2 GT ISZERO PUSH2 0x76C JUMPI PUSH2 0x76B PUSH2 0x51B JUMP JUMPDEST JUMPDEST PUSH2 0x778 DUP7 DUP3 DUP8 ADD PUSH2 0x62E JUMP JUMPDEST SWAP3 POP POP PUSH1 0x40 PUSH2 0x789 DUP7 DUP3 DUP8 ADD PUSH2 0x6F7 JUMP JUMPDEST SWAP2 POP POP SWAP3 POP SWAP3 POP SWAP3 JUMP JUMPDEST PUSH0 DUP2 MLOAD SWAP1 POP SWAP2 SWAP1 POP JUMP JUMPDEST PUSH0 DUP3 DUP3 MSTORE PUSH1 0x20 DUP3 ADD SWAP1 POP SWAP3 SWAP2 POP POP JUMP JUMPDEST DUP3 DUP2 DUP4 MCOPY PUSH0 DUP4 DUP4 ADD MSTORE POP POP POP JUMP JUMPDEST PUSH0 PUSH2 0x7C5 DUP3 PUSH2 0x793 JUMP JUMPDEST PUSH2 0x7CF DUP2 DUP6 PUSH2 0x79D JUMP JUMPDEST SWAP4 POP PUSH2 0x7DF DUP2 DUP6 PUSH1 0x20 DUP7 ADD PUSH2 0x7AD JUMP JUMPDEST PUSH2 0x7E8 DUP2 PUSH2 0x527 JUMP JUMPDEST DUP5 ADD SWAP2 POP POP SWAP3 SWAP2 POP POP JUMP JUMPDEST PUSH0 PUSH1 0x80 DUP3 ADD SWAP1 POP DUP2 DUP2 SUB PUSH0 DUP4 ADD MSTORE PUSH2 0x80B DUP2 DUP8 PUSH2 0x7BB JUMP JUMPDEST SWAP1 POP DUP2 DUP2 SUB PUSH1 0x20 DUP4 ADD MSTORE PUSH2 0x81F DUP2 DUP7 PUSH2 0x7BB JUMP JUMPDEST SWAP1 POP PUSH2 0x82E PUSH1 0x40 DUP4 ADD DUP6 PUSH2 0x6AB JUMP JUMPDEST PUSH2 0x83B PUSH1 0x60 DUP4 ADD DUP5 PUSH2 0x6AB JUMP JUMPDEST SWAP6 SWAP5 POP POP POP POP POP JUMP JUMPDEST PUSH0 PUSH1 0x20 DUP3 ADD SWAP1 POP DUP2 DUP2 SUB PUSH0 DUP4 ADD MSTORE PUSH2 0x85C DUP2 DUP5 PUSH2 0x7BB JUMP JUMPDEST SWAP1 POP SWAP3 SWAP2 POP POP JUMP JUMPDEST PUSH0 DUP2 ISZERO ISZERO SWAP1 POP SWAP2 SWAP1 POP JUMP JUMPDEST PUSH2 0x878 DUP2 PUSH2 0x864 JUMP JUMPDEST DUP3 MSTORE POP POP JUMP JUMPDEST PUSH0 PUSH1 0x20 DUP3 ADD SWAP1 POP PUSH2 0x891 PUSH0 DUP4 ADD DUP5 PUSH2 0x86F JUMP JUMPDEST SWAP3 SWAP2 POP POP JUMP JUMPDEST PUSH0 DUP2 SWAP1 POP SWAP3 SWAP2 POP POP JUMP JUMPDEST PUSH0 PUSH2 0x8AB DUP3 PUSH2 0x793 JUMP JUMPDEST PUSH2 0x8B5 DUP2 DUP6 PUSH2 0x897 JUMP JUMPDEST SWAP4 POP PUSH2 0x8C5 DUP2 DUP6 PUSH1 0x20 DUP7 ADD PUSH2 0x7AD JUMP JUMPDEST DUP1 DUP5 ADD SWAP2 POP POP SWAP3 SWAP2 POP POP JUMP JUMPDEST PUSH0 PUSH2 0x8DC DUP3 DUP5 PUSH2 0x8A1 JUMP JUMPDEST SWAP2 POP DUP2 SWAP1 POP SWAP3 SWAP2 POP POP JUMP JUMPDEST PUSH32 0x4E487B7100000000000000000000000000000000000000000000000000000000 PUSH0 MSTORE PUSH1 0x11 PUSH1 0x4 MSTORE PUSH1 0x24 PUSH0 REVERT JUMPDEST PUSH0 PUSH2 0x91E DUP3 PUSH2 0x6A2 JUMP JUMPDEST SWAP2 POP PUSH32 0xFFFFFFFFFFFFFFFFFFFFFFFFFFFFFFFFFFFFFFFFFFFFFFFFFFFFFFFFFFFFFFFF DUP3 SUB PUSH2 0x950 JUMPI PUSH2 0x94F PUSH2 0x8E7 JUMP JUMPDEST JUMPDEST PUSH1 0x1 DUP3 ADD SWAP1 POP SWAP2 SWAP1 POP JUMP JUMPDEST PUSH0 PUSH2 0x965 DUP3 PUSH2 0x6A2 JUMP JUMPDEST SWAP2 POP PUSH0 DUP3 SUB PUSH2 0x977 JUMPI PUSH2 0x976 PUSH2 0x8E7 JUMP JUMPDEST JUMPDEST PUSH1 0x1 DUP3 SUB SWAP1 POP SWAP2 SWAP1 POP JUMP JUMPDEST PUSH32 0x4E487B7100000000000000000000000000000000000000000000000000000000 PUSH0 MSTORE PUSH1 0x22 PUSH1 0x4 MSTORE PUSH1 0x24 PUSH0 REVERT JUMPDEST PUSH0 PUSH1 0x2 DUP3 DIV SWAP1 POP PUSH1 0x1 DUP3 AND DUP1 PUSH2 0x9C6 JUMPI PUSH1 0x7F DUP3 AND SWAP2 POP JUMPDEST PUSH1 0x20 DUP3 LT DUP2 SUB PUSH2 0x9D9 JUMPI PUSH2 0x9D8 PUSH2 0x982 JUMP JUMPDEST JUMPDEST POP SWAP2 SWAP1 POP JUMP JUMPDEST PUSH0 DUP2 SWAP1 POP DUP2 PUSH0 MSTORE PUSH1 0x20 PUSH0 KECCAK256 SWAP1 POP SWAP2 SWAP1 POP JUMP JUMPDEST PUSH0 PUSH1 0x20 PUSH1 0x1F DUP4 ADD DIV SWAP1 POP SWAP2 SWAP1 POP JUMP JUMPDEST PUSH0 DUP3 DUP3 SHL SWAP1 POP SWAP3 SWAP2 POP POP JUMP JUMPDEST PUSH0 PUSH1 0x8 DUP4 MUL PUSH2 0xA3B PUSH32 0xFFFFFFFFFFFFFFFFFFFFFFFFFFFFFFFFFFFFFFFFFFFFFFFFFFFFFFFFFFFFFFFF DUP3 PUSH2 0xA00 JUMP JUMPDEST PUSH2 0xA45 DUP7 DUP4 PUSH2 0xA00 JUMP JUMPDEST SWAP6 POP DUP1 NOT DUP5 AND SWAP4 POP DUP1 DUP7 AND DUP5 OR SWAP3 POP POP POP SWAP4 SWAP3 POP POP POP JUMP JUMPDEST PUSH0 DUP2 SWAP1 POP SWAP2 SWAP1 POP JUMP JUMPDEST PUSH0 PUSH2 0xA80 PUSH2 0xA7B PUSH2 0xA76 DUP5 PUSH2 0x6A2 JUMP JUMPDEST PUSH2 0xA5D JUMP JUMPDEST PUSH2 0x6A2 JUMP JUMPDEST SWAP1 POP SWAP2 SWAP1 POP JUMP JUMPDEST PUSH0 DUP2 SWAP1 POP SWAP2 SWAP1 POP JUMP JUMPDEST PUSH2 0xA99 DUP4 PUSH2 0xA66 JUMP JUMPDEST PUSH2 0xAAD PUSH2 0xAA5 DUP3 PUSH2 0xA87 JUMP JUMPDEST DUP5 DUP5 SLOAD PUSH2 0xA0C JUMP JUMPDEST DUP3 SSTORE POP POP POP POP JUMP JUMPDEST PUSH0 PUSH0 SWAP1 POP SWAP1 JUMP JUMPDEST PUSH2 0xAC4 PUSH2 0xAB5 JUMP JUMPDEST PUSH2 0xACF DUP2 DUP5 DUP5 PUSH2 0xA90 JUMP JUMPDEST POP POP POP JUMP JUMPDEST JUMPDEST DUP2 DUP2 LT ISZERO PUSH2 0xAF2 JUMPI PUSH2 0xAE7 PUSH0 DUP3 PUSH2 0xABC JUMP JUMPDEST PUSH1 0x1 DUP2 ADD SWAP1 POP PUSH2 0xAD5 JUMP JUMPDEST POP POP JUMP JUMPDEST PUSH1 0x1F DUP3 GT ISZERO PUSH2 0xB37 JUMPI PUSH2 0xB08 DUP2 PUSH2 0x9DF JUMP JUMPDEST PUSH2 0xB11 DUP5 PUSH2 0x9F1 JUMP JUMPDEST DUP2 ADD PUSH1 0x20 DUP6 LT ISZERO PUSH2 0xB20 JUMPI DUP2 SWAP1 POP JUMPDEST PUSH2 0xB34 PUSH2 0xB2C DUP6 PUSH2 0x9F1 JUMP JUMPDEST DUP4 ADD DUP3 PUSH2 0xAD4 JUMP JUMPDEST POP POP JUMPDEST POP POP POP JUMP JUMPDEST PUSH0 DUP3 DUP3 SHR SWAP1 POP SWAP3 SWAP2 POP POP JUMP JUMPDEST PUSH0 PUSH2 0xB57 PUSH0 NOT DUP5 PUSH1 0x8 MUL PUSH2 0xB3C JUMP JUMPDEST NOT DUP1 DUP4 AND SWAP2 POP POP SWAP3 SWAP2 POP POP JUMP JUMPDEST PUSH0 PUSH2 0xB6F DUP4 DUP4 PUSH2 0xB48 JUMP JUMPDEST SWAP2 POP DUP3 PUSH1 0x2 MUL DUP3 OR SWAP1 POP SWAP3 SWAP2 POP POP JUMP JUMPDEST PUSH2 0xB88 DUP3 PUSH2 0x793 JUMP JUMPDEST PUSH8 0xFFFFFFFFFFFFFFFF DUP2 GT ISZERO PUSH2 0xBA1 JUMPI PUSH2 0xBA0 PUSH2 0x537 JUMP JUMPDEST JUMPDEST PUSH2 0xBAB DUP3 SLOAD PUSH2 0x9AF JUMP JUMPDEST PUSH2 0xBB6 DUP3 DUP3 DUP6 PUSH2 0xAF6 JUMP JUMPDEST PUSH0 PUSH1 0x20 SWAP1 POP PUSH1 0x1F DUP4 GT PUSH1 0x1 DUP2 EQ PUSH2 0xBE7 JUMPI PUSH0 DUP5 ISZERO PUSH2 0xBD5 JUMPI DUP3 DUP8 ADD MLOAD SWAP1 POP JUMPDEST PUSH2 0xBDF DUP6 DUP3 PUSH2 0xB64 JUMP JUMPDEST DUP7 SSTORE POP PUSH2 0xC46 JUMP JUMPDEST PUSH1 0x1F NOT DUP5 AND PUSH2 0xBF5 DUP7 PUSH2 0x9DF JUMP JUMPDEST PUSH0 JUMPDEST DUP3 DUP2 LT ISZERO PUSH2 0xC1C JUMPI DUP5 DUP10 ADD MLOAD DUP3 SSTORE PUSH1 0x1 DUP3 ADD SWAP2 POP PUSH1 0x20 DUP6 ADD SWAP5 POP PUSH1 0x20 DUP2 ADD SWAP1 POP PUSH2 0xBF7 JUMP JUMPDEST DUP7 DUP4 LT ISZERO PUSH2 0xC39 JUMPI DUP5 DUP10 ADD MLOAD PUSH2 0xC35 PUSH1 0x1F DUP10 AND DUP3 PUSH2 0xB48 JUMP JUMPDEST DUP4 SSTORE POP JUMPDEST PUSH1 0x1 PUSH1 0x2 DUP9 MUL ADD DUP9 SSTORE POP POP POP JUMPDEST POP POP POP POP POP POP JUMP INVALID LOG2 PUSH5 0x6970667358 0x22 SLT KECCAK256 PUSH17 0x392E352F0B6FC950B0194C14CE31494B00 BLOBHASH 0xC 0x2A PUSH26 0x1C0F2FD900C584FFF70E64736F6C634300081E00330000000000 "
				},
				"gasEstimates": {
					"creation": {
						"codeDepositCost": "640800",
						"executionCost": "674",
						"totalCost": "641474"
					},
					"external": {
						"addClass(string,string,uint256)": "infinite",
						"classes(string)": "infinite",
						"decrementStudent(string)": "infinite",
						"getClassLevel(string)": "infinite",
						"getStudentLimit(string)": "infinite",
						"incrementStudent(string)": "infinite",
						"isClassExist(string)": "infinite"
					}
				},
				"methodIdentifiers": {
					"addClass(string,string,uint256)": "99e4ab24",
					"classes(string)": "ae31a877",
					"decrementStudent(string)": "8b20e1ad",
					"getClassLevel(string)": "dd98e2bb",
					"getStudentLimit(string)": "6ceb5453",
					"incrementStudent(string)": "6ca617d8",
					"isClassExist(string)": "e250250b"
				}
			},
			"storageLayout": {
				"storage": [
					{
						"astId": 15,
						"contract": "contracts/qlsv/ClassManager.sol:ClassManager",
						"label": "classes",
						"offset": 0,
						"slot": "0",
						"type": "t_mapping(t_string_memory_ptr,t_struct(Class)10_storage)"
					}
				],
				"types": {
					"t_mapping(t_string_memory_ptr,t_struct(Class)10_storage)": {
						"encoding": "mapping",
						"key": "t_string_memory_ptr",
						"label": "mapping(string => struct ClassManager.Class)",
						"numberOfBytes": "32",
						"value": "t_struct(Class)10_storage"
					},
					"t_string_memory_ptr": {
						"encoding": "bytes",
						"label": "string",
						"numberOfBytes": "32"
					},
					"t_string_storage": {
						"encoding": "bytes",
						"label": "string",
						"numberOfBytes": "32"
					},
					"t_struct(Class)10_storage": {
						"encoding": "inplace",
						"label": "struct ClassManager.Class",
						"members": [
							{
								"astId": 3,
								"contract": "contracts/qlsv/ClassManager.sol:ClassManager",
								"label": "name",
								"offset": 0,
								"slot": "0",
								"type": "t_string_storage"
							},
							{
								"astId": 5,
								"contract": "contracts/qlsv/ClassManager.sol:ClassManager",
								"label": "level",
								"offset": 0,
								"slot": "1",
								"type": "t_string_storage"
							},
							{
								"astId": 7,
								"contract": "contracts/qlsv/ClassManager.sol:ClassManager",
								"label": "maxStudents",
								"offset": 0,
								"slot": "2",
								"type": "t_uint256"
							},
							{
								"astId": 9,
								"contract": "contracts/qlsv/ClassManager.sol:ClassManager",
								"label": "currentStudents",
								"offset": 0,
								"slot": "3",
								"type": "t_uint256"
							}
						],
						"numberOfBytes": "128"
					},
					"t_uint256": {
						"encoding": "inplace",
						"label": "uint256",
						"numberOfBytes": "32"
					}
				}
			},
			"userdoc": {
				"kind": "user",
				"methods": {},
				"version": 1
			}
		}
	}
}