{
	"contracts/qlsinhvien.sol": {
		"StudentManager": {
			"abi": [
				{
					"inputs": [],
					"name": "CheckGas",
					"outputs": [
						{
							"internalType": "bool",
							"name": "",
							"type": "bool"
						}
					],
					"stateMutability": "pure",
					"type": "function"
				},
				{
					"inputs": [],
					"name": "CheckGas2",
					"outputs": [
						{
							"internalType": "bool",
							"name": "",
							"type": "bool"
						}
					],
					"stateMutability": "pure",
					"type": "function"
				},
				{
					"inputs": [],
					"name": "CountStudent",
					"outputs": [
						{
							"internalType": "uint8",
							"name": "",
							"type": "uint8"
						}
					],
					"stateMutability": "view",
					"type": "function"
				},
				{
					"inputs": [
						{
							"internalType": "uint256",
							"name": "_age",
							"type": "uint256"
						}
					],
					"name": "Older19",
					"outputs": [
						{
							"internalType": "bool",
							"name": "",
							"type": "bool"
						}
					],
					"stateMutability": "pure",
					"type": "function"
				},
				{
					"inputs": [],
					"name": "ReturnTotal",
					"outputs": [
						{
							"internalType": "uint8",
							"name": "",
							"type": "uint8"
						}
					],
					"stateMutability": "view",
					"type": "function"
				},
				{
					"inputs": [
						{
							"internalType": "uint256",
							"name": "_id",
							"type": "uint256"
						}
					],
					"name": "activeStudent",
					"outputs": [],
					"stateMutability": "nonpayable",
					"type": "function"
				},
				{
					"inputs": [
						{
							"internalType": "uint256",
							"name": "_id",
							"type": "uint256"
						},
						{
							"internalType": "string",
							"name": "_name",
							"type": "string"
						},
						{
							"internalType": "uint256",
							"name": "_age",
							"type": "uint256"
						}
					],
					"name": "addStudent",
					"outputs": [],
					"stateMutability": "nonpayable",
					"type": "function"
				},
				{
					"inputs": [],
					"name": "className",
					"outputs": [
						{
							"internalType": "string",
							"name": "",
							"type": "string"
						}
					],
					"stateMutability": "view",
					"type": "function"
				},
				{
					"inputs": [
						{
							"internalType": "uint256",
							"name": "_id",
							"type": "uint256"
						}
					],
					"name": "exists",
					"outputs": [
						{
							"internalType": "bool",
							"name": "",
							"type": "bool"
						}
					],
					"stateMutability": "view",
					"type": "function"
				},
				{
					"inputs": [
						{
							"internalType": "uint256",
							"name": "_id",
							"type": "uint256"
						}
					],
					"name": "getStudent",
					"outputs": [
						{
							"internalType": "string",
							"name": "",
							"type": "string"
						},
						{
							"internalType": "uint256",
							"name": "",
							"type": "uint256"
						},
						{
							"internalType": "address",
							"name": "",
							"type": "address"
						}
					],
					"stateMutability": "view",
					"type": "function"
				},
				{
					"inputs": [
						{
							"internalType": "uint256",
							"name": "_id",
							"type": "uint256"
						}
					],
					"name": "removeStudent",
					"outputs": [],
					"stateMutability": "nonpayable",
					"type": "function"
				},
				{
					"inputs": [
						{
							"internalType": "uint256",
							"name": "",
							"type": "uint256"
						}
					],
					"name": "students",
					"outputs": [
						{
							"internalType": "uint256",
							"name": "id",
							"type": "uint256"
						},
						{
							"internalType": "string",
							"name": "name",
							"type": "string"
						},
						{
							"internalType": "uint256",
							"name": "age",
							"type": "uint256"
						},
						{
							"internalType": "address",
							"name": "studentAddress",
							"type": "address"
						},
						{
							"internalType": "bool",
							"name": "is_active",
							"type": "bool"
						}
					],
					"stateMutability": "view",
					"type": "function"
				},
				{
					"inputs": [
						{
							"internalType": "uint256",
							"name": "_id",
							"type": "uint256"
						},
						{
							"internalType": "uint256",
							"name": "_newAge",
							"type": "uint256"
						}
					],
					"name": "updateStudentAge",
					"outputs": [],
					"stateMutability": "nonpayable",
					"type": "function"
				}
			],
			"devdoc": {
				"kind": "dev",
				"methods": {},
				"version": 1
			},
			"evm": {
				"assembly": "    /* \"contracts/qlsinhvien.sol\":58:2212  contract StudentManager {... */\n  mstore(0x40, 0x80)\n    /* \"contracts/qlsinhvien.sol\":89:120  string public className = \"CT3\" */\n  mload(0x40)\n  dup1\n  0x40\n  add\n  0x40\n  mstore\n  dup1\n  0x03\n  dup2\n  mstore\n  0x20\n  add\n  0x4354330000000000000000000000000000000000000000000000000000000000\n  dup2\n  mstore\n  pop\n  0x00\n  swap1\n  dup2\n  tag_1\n  swap2\n  swap1\n  tag_2\n  jump\t// in\ntag_1:\n  pop\n    /* \"contracts/qlsinhvien.sol\":58:2212  contract StudentManager {... */\n  callvalue\n  dup1\n  iszero\n  tag_3\n  jumpi\n  revert(0x00, 0x00)\ntag_3:\n  pop\n  jump(tag_4)\n    /* \"#utility.yul\":7:106   */\ntag_5:\n    /* \"#utility.yul\":59:65   */\n  0x00\n    /* \"#utility.yul\":93:98   */\n  dup2\n    /* \"#utility.yul\":87:99   */\n  mload\n    /* \"#utility.yul\":77:99   */\n  swap1\n  pop\n    /* \"#utility.yul\":7:106   */\n  swap2\n  swap1\n  pop\n  jump\t// out\n    /* \"#utility.yul\":112:292   */\ntag_6:\n    /* \"#utility.yul\":160:237   */\n  0x4e487b7100000000000000000000000000000000000000000000000000000000\n    /* \"#utility.yul\":157:158   */\n  0x00\n    /* \"#utility.yul\":150:238   */\n  mstore\n    /* \"#utility.yul\":257:261   */\n  0x41\n    /* \"#utility.yul\":254:255   */\n  0x04\n    /* \"#utility.yul\":247:262   */\n  mstore\n    /* \"#utility.yul\":281:285   */\n  0x24\n    /* \"#utility.yul\":278:279   */\n  0x00\n    /* \"#utility.yul\":271:286   */\n  revert\n    /* \"#utility.yul\":298:478   */\ntag_7:\n    /* \"#utility.yul\":346:423   */\n  0x4e487b7100000000000000000000000000000000000000000000000000000000\n    /* \"#utility.yul\":343:344   */\n  0x00\n    /* \"#utility.yul\":336:424   */\n  mstore\n    /* \"#utility.yul\":443:447   */\n  0x22\n    /* \"#utility.yul\":440:441   */\n  0x04\n    /* \"#utility.yul\":433:448   */\n  mstore\n    /* \"#utility.yul\":467:471   */\n  0x24\n    /* \"#utility.yul\":464:465   */\n  0x00\n    /* \"#utility.yul\":457:472   */\n  revert\n    /* \"#utility.yul\":484:804   */\ntag_8:\n    /* \"#utility.yul\":528:534   */\n  0x00\n    /* \"#utility.yul\":565:566   */\n  0x02\n    /* \"#utility.yul\":559:563   */\n  dup3\n    /* \"#utility.yul\":555:567   */\n  div\n    /* \"#utility.yul\":545:567   */\n  swap1\n  pop\n    /* \"#utility.yul\":612:613   */\n  0x01\n    /* \"#utility.yul\":606:610   */\n  dup3\n    /* \"#utility.yul\":602:614   */\n  and\n    /* \"#utility.yul\":633:651   */\n  dup1\n    /* \"#utility.yul\":623:704   */\n  tag_30\n  jumpi\n    /* \"#utility.yul\":689:693   */\n  0x7f\n    /* \"#utility.yul\":681:687   */\n  dup3\n    /* \"#utility.yul\":677:694   */\n  and\n    /* \"#utility.yul\":667:694   */\n  swap2\n  pop\n    /* \"#utility.yul\":623:704   */\ntag_30:\n    /* \"#utility.yul\":751:753   */\n  0x20\n    /* \"#utility.yul\":743:749   */\n  dup3\n    /* \"#utility.yul\":740:754   */\n  lt\n    /* \"#utility.yul\":720:738   */\n  dup2\n    /* \"#utility.yul\":717:755   */\n  sub\n    /* \"#utility.yul\":714:798   */\n  tag_31\n  jumpi\n    /* \"#utility.yul\":770:788   */\n  tag_32\n  tag_7\n  jump\t// in\ntag_32:\n    /* \"#utility.yul\":714:798   */\ntag_31:\n    /* \"#utility.yul\":535:804   */\n  pop\n    /* \"#utility.yul\":484:804   */\n  swap2\n  swap1\n  pop\n  jump\t// out\n    /* \"#utility.yul\":810:951   */\ntag_9:\n    /* \"#utility.yul\":859:863   */\n  0x00\n    /* \"#utility.yul\":882:885   */\n  dup2\n    /* \"#utility.yul\":874:885   */\n  swap1\n  pop\n    /* \"#utility.yul\":905:908   */\n  dup2\n    /* \"#utility.yul\":902:903   */\n  0x00\n    /* \"#utility.yul\":895:909   */\n  mstore\n    /* \"#utility.yul\":939:943   */\n  0x20\n    /* \"#utility.yul\":936:937   */\n  0x00\n    /* \"#utility.yul\":926:944   */\n  keccak256\n    /* \"#utility.yul\":918:944   */\n  swap1\n  pop\n    /* \"#utility.yul\":810:951   */\n  swap2\n  swap1\n  pop\n  jump\t// out\n    /* \"#utility.yul\":957:1050   */\ntag_10:\n    /* \"#utility.yul\":994:1000   */\n  0x00\n    /* \"#utility.yul\":1041:1043   */\n  0x20\n    /* \"#utility.yul\":1036:1038   */\n  0x1f\n    /* \"#utility.yul\":1029:1034   */\n  dup4\n    /* \"#utility.yul\":1025:1039   */\n  add\n    /* \"#utility.yul\":1021:1044   */\n  div\n    /* \"#utility.yul\":1011:1044   */\n  swap1\n  pop\n    /* \"#utility.yul\":957:1050   */\n  swap2\n  swap1\n  pop\n  jump\t// out\n    /* \"#utility.yul\":1056:1163   */\ntag_11:\n    /* \"#utility.yul\":1100:1108   */\n  0x00\n    /* \"#utility.yul\":1150:1155   */\n  dup3\n    /* \"#utility.yul\":1144:1148   */\n  dup3\n    /* \"#utility.yul\":1140:1156   */\n  shl\n    /* \"#utility.yul\":1119:1156   */\n  swap1\n  pop\n    /* \"#utility.yul\":1056:1163   */\n  swap3\n  swap2\n  pop\n  pop\n  jump\t// out\n    /* \"#utility.yul\":1169:1562   */\ntag_12:\n    /* \"#utility.yul\":1238:1244   */\n  0x00\n    /* \"#utility.yul\":1288:1289   */\n  0x08\n    /* \"#utility.yul\":1276:1286   */\n  dup4\n    /* \"#utility.yul\":1272:1290   */\n  mul\n    /* \"#utility.yul\":1311:1408   */\n  tag_37\n    /* \"#utility.yul\":1341:1407   */\n  0xffffffffffffffffffffffffffffffffffffffffffffffffffffffffffffffff\n    /* \"#utility.yul\":1330:1339   */\n  dup3\n    /* \"#utility.yul\":1311:1408   */\n  tag_11\n  jump\t// in\ntag_37:\n    /* \"#utility.yul\":1429:1468   */\n  tag_38\n    /* \"#utility.yul\":1459:1467   */\n  dup7\n    /* \"#utility.yul\":1448:1457   */\n  dup4\n    /* \"#utility.yul\":1429:1468   */\n  tag_11\n  jump\t// in\ntag_38:\n    /* \"#utility.yul\":1417:1468   */\n  swap6\n  pop\n    /* \"#utility.yul\":1501:1505   */\n  dup1\n    /* \"#utility.yul\":1497:1506   */\n  not\n    /* \"#utility.yul\":1490:1495   */\n  dup5\n    /* \"#utility.yul\":1486:1507   */\n  and\n    /* \"#utility.yul\":1477:1507   */\n  swap4\n  pop\n    /* \"#utility.yul\":1550:1554   */\n  dup1\n    /* \"#utility.yul\":1540:1548   */\n  dup7\n    /* \"#utility.yul\":1536:1555   */\n  and\n    /* \"#utility.yul\":1529:1534   */\n  dup5\n    /* \"#utility.yul\":1526:1556   */\n  or\n    /* \"#utility.yul\":1516:1556   */\n  swap3\n  pop\n    /* \"#utility.yul\":1245:1562   */\n  pop\n  pop\n    /* \"#utility.yul\":1169:1562   */\n  swap4\n  swap3\n  pop\n  pop\n  pop\n  jump\t// out\n    /* \"#utility.yul\":1568:1645   */\ntag_13:\n    /* \"#utility.yul\":1605:1612   */\n  0x00\n    /* \"#utility.yul\":1634:1639   */\n  dup2\n    /* \"#utility.yul\":1623:1639   */\n  swap1\n  pop\n    /* \"#utility.yul\":1568:1645   */\n  swap2\n  swap1\n  pop\n  jump\t// out\n    /* \"#utility.yul\":1651:1711   */\ntag_14:\n    /* \"#utility.yul\":1679:1682   */\n  0x00\n    /* \"#utility.yul\":1700:1705   */\n  dup2\n    /* \"#utility.yul\":1693:1705   */\n  swap1\n  pop\n    /* \"#utility.yul\":1651:1711   */\n  swap2\n  swap1\n  pop\n  jump\t// out\n    /* \"#utility.yul\":1717:1859   */\ntag_15:\n    /* \"#utility.yul\":1767:1776   */\n  0x00\n    /* \"#utility.yul\":1800:1853   */\n  tag_42\n    /* \"#utility.yul\":1818:1852   */\n  tag_43\n    /* \"#utility.yul\":1827:1851   */\n  tag_44\n    /* \"#utility.yul\":1845:1850   */\n  dup5\n    /* \"#utility.yul\":1827:1851   */\n  tag_13\n  jump\t// in\ntag_44:\n    /* \"#utility.yul\":1818:1852   */\n  tag_14\n  jump\t// in\ntag_43:\n    /* \"#utility.yul\":1800:1853   */\n  tag_13\n  jump\t// in\ntag_42:\n    /* \"#utility.yul\":1787:1853   */\n  swap1\n  pop\n    /* \"#utility.yul\":1717:1859   */\n  swap2\n  swap1\n  pop\n  jump\t// out\n    /* \"#utility.yul\":1865:1940   */\ntag_16:\n    /* \"#utility.yul\":1908:1911   */\n  0x00\n    /* \"#utility.yul\":1929:1934   */\n  dup2\n    /* \"#utility.yul\":1922:1934   */\n  swap1\n  pop\n    /* \"#utility.yul\":1865:1940   */\n  swap2\n  swap1\n  pop\n  jump\t// out\n    /* \"#utility.yul\":1946:2215   */\ntag_17:\n    /* \"#utility.yul\":2056:2095   */\n  tag_47\n    /* \"#utility.yul\":2087:2094   */\n  dup4\n    /* \"#utility.yul\":2056:2095   */\n  tag_15\n  jump\t// in\ntag_47:\n    /* \"#utility.yul\":2117:2208   */\n  tag_48\n    /* \"#utility.yul\":2166:2207   */\n  tag_49\n    /* \"#utility.yul\":2190:2206   */\n  dup3\n    /* \"#utility.yul\":2166:2207   */\n  tag_16\n  jump\t// in\ntag_49:\n    /* \"#utility.yul\":2158:2164   */\n  dup5\n    /* \"#utility.yul\":2151:2155   */\n  dup5\n    /* \"#utility.yul\":2145:2156   */\n  sload\n    /* \"#utility.yul\":2117:2208   */\n  tag_12\n  jump\t// in\ntag_48:\n    /* \"#utility.yul\":2111:2115   */\n  dup3\n    /* \"#utility.yul\":2104:2209   */\n  sstore\n    /* \"#utility.yul\":2022:2215   */\n  pop\n    /* \"#utility.yul\":1946:2215   */\n  pop\n  pop\n  pop\n  jump\t// out\n    /* \"#utility.yul\":2221:2294   */\ntag_18:\n    /* \"#utility.yul\":2266:2269   */\n  0x00\n    /* \"#utility.yul\":2287:2288   */\n  0x00\n    /* \"#utility.yul\":2280:2288   */\n  swap1\n  pop\n    /* \"#utility.yul\":2221:2294   */\n  swap1\n  jump\t// out\n    /* \"#utility.yul\":2300:2489   */\ntag_19:\n    /* \"#utility.yul\":2377:2409   */\n  tag_52\n  tag_18\n  jump\t// in\ntag_52:\n    /* \"#utility.yul\":2418:2483   */\n  tag_53\n    /* \"#utility.yul\":2476:2482   */\n  dup2\n    /* \"#utility.yul\":2468:2474   */\n  dup5\n    /* \"#utility.yul\":2462:2466   */\n  dup5\n    /* \"#utility.yul\":2418:2483   */\n  tag_17\n  jump\t// in\ntag_53:\n    /* \"#utility.yul\":2353:2489   */\n  pop\n    /* \"#utility.yul\":2300:2489   */\n  pop\n  pop\n  jump\t// out\n    /* \"#utility.yul\":2495:2681   */\ntag_20:\n    /* \"#utility.yul\":2555:2675   */\ntag_55:\n    /* \"#utility.yul\":2572:2575   */\n  dup2\n    /* \"#utility.yul\":2565:2570   */\n  dup2\n    /* \"#utility.yul\":2562:2576   */\n  lt\n    /* \"#utility.yul\":2555:2675   */\n  iszero\n  tag_57\n  jumpi\n    /* \"#utility.yul\":2626:2665   */\n  tag_58\n    /* \"#utility.yul\":2663:2664   */\n  0x00\n    /* \"#utility.yul\":2656:2661   */\n  dup3\n    /* \"#utility.yul\":2626:2665   */\n  tag_19\n  jump\t// in\ntag_58:\n    /* \"#utility.yul\":2599:2600   */\n  0x01\n    /* \"#utility.yul\":2592:2597   */\n  dup2\n    /* \"#utility.yul\":2588:2601   */\n  add\n    /* \"#utility.yul\":2579:2601   */\n  swap1\n  pop\n    /* \"#utility.yul\":2555:2675   */\n  jump(tag_55)\ntag_57:\n    /* \"#utility.yul\":2495:2681   */\n  pop\n  pop\n  jump\t// out\n    /* \"#utility.yul\":2687:3230   */\ntag_21:\n    /* \"#utility.yul\":2788:2790   */\n  0x1f\n    /* \"#utility.yul\":2783:2786   */\n  dup3\n    /* \"#utility.yul\":2780:2791   */\n  gt\n    /* \"#utility.yul\":2777:3223   */\n  iszero\n  tag_60\n  jumpi\n    /* \"#utility.yul\":2822:2860   */\n  tag_61\n    /* \"#utility.yul\":2854:2859   */\n  dup2\n    /* \"#utility.yul\":2822:2860   */\n  tag_9\n  jump\t// in\ntag_61:\n    /* \"#utility.yul\":2906:2935   */\n  tag_62\n    /* \"#utility.yul\":2924:2934   */\n  dup5\n    /* \"#utility.yul\":2906:2935   */\n  tag_10\n  jump\t// in\ntag_62:\n    /* \"#utility.yul\":2896:2904   */\n  dup2\n    /* \"#utility.yul\":2892:2936   */\n  add\n    /* \"#utility.yul\":3089:3091   */\n  0x20\n    /* \"#utility.yul\":3077:3087   */\n  dup6\n    /* \"#utility.yul\":3074:3092   */\n  lt\n    /* \"#utility.yul\":3071:3120   */\n  iszero\n  tag_63\n  jumpi\n    /* \"#utility.yul\":3110:3118   */\n  dup2\n    /* \"#utility.yul\":3095:3118   */\n  swap1\n  pop\n    /* \"#utility.yul\":3071:3120   */\ntag_63:\n    /* \"#utility.yul\":3133:3213   */\n  tag_64\n    /* \"#utility.yul\":3189:3211   */\n  tag_65\n    /* \"#utility.yul\":3207:3210   */\n  dup6\n    /* \"#utility.yul\":3189:3211   */\n  tag_10\n  jump\t// in\ntag_65:\n    /* \"#utility.yul\":3179:3187   */\n  dup4\n    /* \"#utility.yul\":3175:3212   */\n  add\n    /* \"#utility.yul\":3162:3173   */\n  dup3\n    /* \"#utility.yul\":3133:3213   */\n  tag_20\n  jump\t// in\ntag_64:\n    /* \"#utility.yul\":2792:3223   */\n  pop\n  pop\n    /* \"#utility.yul\":2777:3223   */\ntag_60:\n    /* \"#utility.yul\":2687:3230   */\n  pop\n  pop\n  pop\n  jump\t// out\n    /* \"#utility.yul\":3236:3353   */\ntag_22:\n    /* \"#utility.yul\":3290:3298   */\n  0x00\n    /* \"#utility.yul\":3340:3345   */\n  dup3\n    /* \"#utility.yul\":3334:3338   */\n  dup3\n    /* \"#utility.yul\":3330:3346   */\n  shr\n    /* \"#utility.yul\":3309:3346   */\n  swap1\n  pop\n    /* \"#utility.yul\":3236:3353   */\n  swap3\n  swap2\n  pop\n  pop\n  jump\t// out\n    /* \"#utility.yul\":3359:3528   */\ntag_23:\n    /* \"#utility.yul\":3403:3409   */\n  0x00\n    /* \"#utility.yul\":3436:3487   */\n  tag_68\n    /* \"#utility.yul\":3484:3485   */\n  0x00\n    /* \"#utility.yul\":3480:3486   */\n  not\n    /* \"#utility.yul\":3472:3477   */\n  dup5\n    /* \"#utility.yul\":3469:3470   */\n  0x08\n    /* \"#utility.yul\":3465:3478   */\n  mul\n    /* \"#utility.yul\":3436:3487   */\n  tag_22\n  jump\t// in\ntag_68:\n    /* \"#utility.yul\":3432:3488   */\n  not\n    /* \"#utility.yul\":3517:3521   */\n  dup1\n    /* \"#utility.yul\":3511:3515   */\n  dup4\n    /* \"#utility.yul\":3507:3522   */\n  and\n    /* \"#utility.yul\":3497:3522   */\n  swap2\n  pop\n    /* \"#utility.yul\":3410:3528   */\n  pop\n    /* \"#utility.yul\":3359:3528   */\n  swap3\n  swap2\n  pop\n  pop\n  jump\t// out\n    /* \"#utility.yul\":3533:3828   */\ntag_24:\n    /* \"#utility.yul\":3609:3613   */\n  0x00\n    /* \"#utility.yul\":3755:3784   */\n  tag_70\n    /* \"#utility.yul\":3780:3783   */\n  dup4\n    /* \"#utility.yul\":3774:3778   */\n  dup4\n    /* \"#utility.yul\":3755:3784   */\n  tag_23\n  jump\t// in\ntag_70:\n    /* \"#utility.yul\":3747:3784   */\n  swap2\n  pop\n    /* \"#utility.yul\":3817:3820   */\n  dup3\n    /* \"#utility.yul\":3814:3815   */\n  0x02\n    /* \"#utility.yul\":3810:3821   */\n  mul\n    /* \"#utility.yul\":3804:3808   */\n  dup3\n    /* \"#utility.yul\":3801:3822   */\n  or\n    /* \"#utility.yul\":3793:3822   */\n  swap1\n  pop\n    /* \"#utility.yul\":3533:3828   */\n  swap3\n  swap2\n  pop\n  pop\n  jump\t// out\n    /* \"#utility.yul\":3833:5228   */\ntag_2:\n    /* \"#utility.yul\":3950:3987   */\n  tag_72\n    /* \"#utility.yul\":3983:3986   */\n  dup3\n    /* \"#utility.yul\":3950:3987   */\n  tag_5\n  jump\t// in\ntag_72:\n    /* \"#utility.yul\":4052:4070   */\n  0xffffffffffffffff\n    /* \"#utility.yul\":4044:4050   */\n  dup2\n    /* \"#utility.yul\":4041:4071   */\n  gt\n    /* \"#utility.yul\":4038:4094   */\n  iszero\n  tag_73\n  jumpi\n    /* \"#utility.yul\":4074:4092   */\n  tag_74\n  tag_6\n  jump\t// in\ntag_74:\n    /* \"#utility.yul\":4038:4094   */\ntag_73:\n    /* \"#utility.yul\":4118:4156   */\n  tag_75\n    /* \"#utility.yul\":4150:4154   */\n  dup3\n    /* \"#utility.yul\":4144:4155   */\n  sload\n    /* \"#utility.yul\":4118:4156   */\n  tag_8\n  jump\t// in\ntag_75:\n    /* \"#utility.yul\":4203:4270   */\n  tag_76\n    /* \"#utility.yul\":4263:4269   */\n  dup3\n    /* \"#utility.yul\":4255:4261   */\n  dup3\n    /* \"#utility.yul\":4249:4253   */\n  dup6\n    /* \"#utility.yul\":4203:4270   */\n  tag_21\n  jump\t// in\ntag_76:\n    /* \"#utility.yul\":4297:4298   */\n  0x00\n    /* \"#utility.yul\":4321:4325   */\n  0x20\n    /* \"#utility.yul\":4308:4325   */\n  swap1\n  pop\n    /* \"#utility.yul\":4353:4355   */\n  0x1f\n    /* \"#utility.yul\":4345:4351   */\n  dup4\n    /* \"#utility.yul\":4342:4356   */\n  gt\n    /* \"#utility.yul\":4370:4371   */\n  0x01\n    /* \"#utility.yul\":4365:4983   */\n  dup2\n  eq\n  tag_78\n  jumpi\n    /* \"#utility.yul\":5027:5028   */\n  0x00\n    /* \"#utility.yul\":5044:5050   */\n  dup5\n    /* \"#utility.yul\":5041:5118   */\n  iszero\n  tag_79\n  jumpi\n    /* \"#utility.yul\":5093:5102   */\n  dup3\n    /* \"#utility.yul\":5088:5091   */\n  dup8\n    /* \"#utility.yul\":5084:5103   */\n  add\n    /* \"#utility.yul\":5078:5104   */\n  mload\n    /* \"#utility.yul\":5069:5104   */\n  swap1\n  pop\n    /* \"#utility.yul\":5041:5118   */\ntag_79:\n    /* \"#utility.yul\":5144:5211   */\n  tag_80\n    /* \"#utility.yul\":5204:5210   */\n  dup6\n    /* \"#utility.yul\":5197:5202   */\n  dup3\n    /* \"#utility.yul\":5144:5211   */\n  tag_24\n  jump\t// in\ntag_80:\n    /* \"#utility.yul\":5138:5142   */\n  dup7\n    /* \"#utility.yul\":5131:5212   */\n  sstore\n    /* \"#utility.yul\":5000:5222   */\n  pop\n    /* \"#utility.yul\":4335:5222   */\n  jump(tag_77)\n    /* \"#utility.yul\":4365:4983   */\ntag_78:\n    /* \"#utility.yul\":4417:4421   */\n  0x1f\n    /* \"#utility.yul\":4413:4422   */\n  not\n    /* \"#utility.yul\":4405:4411   */\n  dup5\n    /* \"#utility.yul\":4401:4423   */\n  and\n    /* \"#utility.yul\":4451:4488   */\n  tag_81\n    /* \"#utility.yul\":4483:4487   */\n  dup7\n    /* \"#utility.yul\":4451:4488   */\n  tag_9\n  jump\t// in\ntag_81:\n    /* \"#utility.yul\":4510:4511   */\n  0x00\n    /* \"#utility.yul\":4524:4732   */\ntag_82:\n    /* \"#utility.yul\":4538:4545   */\n  dup3\n    /* \"#utility.yul\":4535:4536   */\n  dup2\n    /* \"#utility.yul\":4532:4546   */\n  lt\n    /* \"#utility.yul\":4524:4732   */\n  iszero\n  tag_84\n  jumpi\n    /* \"#utility.yul\":4617:4626   */\n  dup5\n    /* \"#utility.yul\":4612:4615   */\n  dup10\n    /* \"#utility.yul\":4608:4627   */\n  add\n    /* \"#utility.yul\":4602:4628   */\n  mload\n    /* \"#utility.yul\":4594:4600   */\n  dup3\n    /* \"#utility.yul\":4587:4629   */\n  sstore\n    /* \"#utility.yul\":4668:4669   */\n  0x01\n    /* \"#utility.yul\":4660:4666   */\n  dup3\n    /* \"#utility.yul\":4656:4670   */\n  add\n    /* \"#utility.yul\":4646:4670   */\n  swap2\n  pop\n    /* \"#utility.yul\":4715:4717   */\n  0x20\n    /* \"#utility.yul\":4704:4713   */\n  dup6\n    /* \"#utility.yul\":4700:4718   */\n  add\n    /* \"#utility.yul\":4687:4718   */\n  swap5\n  pop\n    /* \"#utility.yul\":4561:4565   */\n  0x20\n    /* \"#utility.yul\":4558:4559   */\n  dup2\n    /* \"#utility.yul\":4554:4566   */\n  add\n    /* \"#utility.yul\":4549:4566   */\n  swap1\n  pop\n    /* \"#utility.yul\":4524:4732   */\n  jump(tag_82)\ntag_84:\n    /* \"#utility.yul\":4760:4766   */\n  dup7\n    /* \"#utility.yul\":4751:4758   */\n  dup4\n    /* \"#utility.yul\":4748:4767   */\n  lt\n    /* \"#utility.yul\":4745:4924   */\n  iszero\n  tag_85\n  jumpi\n    /* \"#utility.yul\":4818:4827   */\n  dup5\n    /* \"#utility.yul\":4813:4816   */\n  dup10\n    /* \"#utility.yul\":4809:4828   */\n  add\n    /* \"#utility.yul\":4803:4829   */\n  mload\n    /* \"#utility.yul\":4861:4909   */\n  tag_86\n    /* \"#utility.yul\":4903:4907   */\n  0x1f\n    /* \"#utility.yul\":4895:4901   */\n  dup10\n    /* \"#utility.yul\":4891:4908   */\n  and\n    /* \"#utility.yul\":4880:4889   */\n  dup3\n    /* \"#utility.yul\":4861:4909   */\n  tag_23\n  jump\t// in\ntag_86:\n    /* \"#utility.yul\":4853:4859   */\n  dup4\n    /* \"#utility.yul\":4846:4910   */\n  sstore\n    /* \"#utility.yul\":4768:4924   */\n  pop\n    /* \"#utility.yul\":4745:4924   */\ntag_85:\n    /* \"#utility.yul\":4970:4971   */\n  0x01\n    /* \"#utility.yul\":4966:4967   */\n  0x02\n    /* \"#utility.yul\":4958:4964   */\n  dup9\n    /* \"#utility.yul\":4954:4968   */\n  mul\n    /* \"#utility.yul\":4950:4972   */\n  add\n    /* \"#utility.yul\":4944:4948   */\n  dup9\n    /* \"#utility.yul\":4937:4973   */\n  sstore\n    /* \"#utility.yul\":4372:4983   */\n  pop\n  pop\n  pop\n    /* \"#utility.yul\":4335:5222   */\ntag_77:\n  pop\n    /* \"#utility.yul\":3925:5228   */\n  pop\n  pop\n  pop\n    /* \"#utility.yul\":3833:5228   */\n  pop\n  pop\n  jump\t// out\n    /* \"contracts/qlsinhvien.sol\":58:2212  contract StudentManager {... */\ntag_4:\n  dataSize(sub_0)\n  dup1\n  dataOffset(sub_0)\n  0x00\n  codecopy\n  0x00\n  return\nstop\n\nsub_0: assembly {\n        /* \"contracts/qlsinhvien.sol\":58:2212  contract StudentManager {... */\n      mstore(0x40, 0x80)\n      callvalue\n      dup1\n      iszero\n      tag_1\n      jumpi\n      revert(0x00, 0x00)\n    tag_1:\n      pop\n      jumpi(tag_2, lt(calldatasize, 0x04))\n      shr(0xe0, calldataload(0x00))\n      dup1\n      0x3f9f42d2\n      gt\n      tag_16\n      jumpi\n      dup1\n      0x6af83845\n      gt\n      tag_17\n      jumpi\n      dup1\n      0x6af83845\n      eq\n      tag_12\n      jumpi\n      dup1\n      0x6d07826a\n      eq\n      tag_13\n      jumpi\n      dup1\n      0xa12046af\n      eq\n      tag_14\n      jumpi\n      dup1\n      0xc1bea1db\n      eq\n      tag_15\n      jumpi\n      jump(tag_2)\n    tag_17:\n      dup1\n      0x3f9f42d2\n      eq\n      tag_9\n      jumpi\n      dup1\n      0x4f558e79\n      eq\n      tag_10\n      jumpi\n      dup1\n      0x642f9163\n      eq\n      tag_11\n      jumpi\n      jump(tag_2)\n    tag_16:\n      dup1\n      0xc51f8c\n      eq\n      tag_3\n      jumpi\n      dup1\n      0x021e1c9e\n      eq\n      tag_4\n      jumpi\n      dup1\n      0x06ead22e\n      eq\n      tag_5\n      jumpi\n      dup1\n      0x13a46f31\n      eq\n      tag_6\n      jumpi\n      dup1\n      0x24f47e4f\n      eq\n      tag_7\n      jumpi\n      dup1\n      0x2df56fd2\n      eq\n      tag_8\n      jumpi\n    tag_2:\n      revert(0x00, 0x00)\n        /* \"contracts/qlsinhvien.sol\":89:120  string public className = \"CT3\" */\n    tag_3:\n      tag_18\n      tag_19\n      jump\t// in\n    tag_18:\n      mload(0x40)\n      tag_20\n      swap2\n      swap1\n      tag_21\n      jump\t// in\n    tag_20:\n      mload(0x40)\n      dup1\n      swap2\n      sub\n      swap1\n      return\n        /* \"contracts/qlsinhvien.sol\":1748:1838  function Older19(uint _age) public pure returns (bool) {... */\n    tag_4:\n      tag_22\n      0x04\n      dup1\n      calldatasize\n      sub\n      dup2\n      add\n      swap1\n      tag_23\n      swap2\n      swap1\n      tag_24\n      jump\t// in\n    tag_23:\n      tag_25\n      jump\t// in\n    tag_22:\n      mload(0x40)\n      tag_26\n      swap2\n      swap1\n      tag_27\n      jump\t// in\n    tag_26:\n      mload(0x40)\n      dup1\n      swap2\n      sub\n      swap1\n      return\n        /* \"contracts/qlsinhvien.sol\":273:313  mapping(uint => Student) public students */\n    tag_5:\n      tag_28\n      0x04\n      dup1\n      calldatasize\n      sub\n      dup2\n      add\n      swap1\n      tag_29\n      swap2\n      swap1\n      tag_24\n      jump\t// in\n    tag_29:\n      tag_30\n      jump\t// in\n    tag_28:\n      mload(0x40)\n      tag_31\n      swap6\n      swap5\n      swap4\n      swap3\n      swap2\n      swap1\n      tag_32\n      jump\t// in\n    tag_31:\n      mload(0x40)\n      dup1\n      swap2\n      sub\n      swap1\n      return\n        /* \"contracts/qlsinhvien.sol\":1497:1742  function updateStudentAge(uint _id, uint _newAge) public {... */\n    tag_6:\n      tag_33\n      0x04\n      dup1\n      calldatasize\n      sub\n      dup2\n      add\n      swap1\n      tag_34\n      swap2\n      swap1\n      tag_35\n      jump\t// in\n    tag_34:\n      tag_36\n      jump\t// in\n    tag_33:\n      stop\n        /* \"contracts/qlsinhvien.sol\":1005:1161  function activeStudent(uint _id) public {... */\n    tag_7:\n      tag_37\n      0x04\n      dup1\n      calldatasize\n      sub\n      dup2\n      add\n      swap1\n      tag_38\n      swap2\n      swap1\n      tag_24\n      jump\t// in\n    tag_38:\n      tag_39\n      jump\t// in\n    tag_37:\n      stop\n        /* \"contracts/qlsinhvien.sol\":320:345  uint8 public CountStudent */\n    tag_8:\n      tag_40\n      tag_41\n      jump\t// in\n    tag_40:\n      mload(0x40)\n      tag_42\n      swap2\n      swap1\n      tag_43\n      jump\t// in\n    tag_42:\n      mload(0x40)\n      dup1\n      swap2\n      sub\n      swap1\n      return\n        /* \"contracts/qlsinhvien.sol\":1844:1934  function ReturnTotal() public  view  returns (uint8){... */\n    tag_9:\n      tag_44\n      tag_45\n      jump\t// in\n    tag_44:\n      mload(0x40)\n      tag_46\n      swap2\n      swap1\n      tag_43\n      jump\t// in\n    tag_46:\n      mload(0x40)\n      dup1\n      swap2\n      sub\n      swap1\n      return\n        /* \"contracts/qlsinhvien.sol\":1169:1290  function exists(uint _id) public view returns (bool) {... */\n    tag_10:\n      tag_47\n      0x04\n      dup1\n      calldatasize\n      sub\n      dup2\n      add\n      swap1\n      tag_48\n      swap2\n      swap1\n      tag_24\n      jump\t// in\n    tag_48:\n      tag_49\n      jump\t// in\n    tag_47:\n      mload(0x40)\n      tag_50\n      swap2\n      swap1\n      tag_27\n      jump\t// in\n    tag_50:\n      mload(0x40)\n      dup1\n      swap2\n      sub\n      swap1\n      return\n        /* \"contracts/qlsinhvien.sol\":676:997  function getStudent(uint _id) public view returns (string memory, uint, address) {... */\n    tag_11:\n      tag_51\n      0x04\n      dup1\n      calldatasize\n      sub\n      dup2\n      add\n      swap1\n      tag_52\n      swap2\n      swap1\n      tag_24\n      jump\t// in\n    tag_52:\n      tag_53\n      jump\t// in\n    tag_51:\n      mload(0x40)\n      tag_54\n      swap4\n      swap3\n      swap2\n      swap1\n      tag_55\n      jump\t// in\n    tag_54:\n      mload(0x40)\n      dup1\n      swap2\n      sub\n      swap1\n      return\n        /* \"contracts/qlsinhvien.sol\":1296:1491  function removeStudent(uint _id) public {... */\n    tag_12:\n      tag_56\n      0x04\n      dup1\n      calldatasize\n      sub\n      dup2\n      add\n      swap1\n      tag_57\n      swap2\n      swap1\n      tag_24\n      jump\t// in\n    tag_57:\n      tag_58\n      jump\t// in\n    tag_56:\n      stop\n        /* \"contracts/qlsinhvien.sol\":1940:2075  function CheckGas() public pure returns (bool)... */\n    tag_13:\n      tag_59\n      tag_60\n      jump\t// in\n    tag_59:\n      mload(0x40)\n      tag_61\n      swap2\n      swap1\n      tag_27\n      jump\t// in\n    tag_61:\n      mload(0x40)\n      dup1\n      swap2\n      sub\n      swap1\n      return\n        /* \"contracts/qlsinhvien.sol\":2081:2209  function CheckGas2() public pure returns (bool)... */\n    tag_14:\n      tag_62\n      tag_63\n      jump\t// in\n    tag_62:\n      mload(0x40)\n      tag_64\n      swap2\n      swap1\n      tag_27\n      jump\t// in\n    tag_64:\n      mload(0x40)\n      dup1\n      swap2\n      sub\n      swap1\n      return\n        /* \"contracts/qlsinhvien.sol\":352:664  function addStudent(uint _id, string memory _name, uint _age) public {... */\n    tag_15:\n      tag_65\n      0x04\n      dup1\n      calldatasize\n      sub\n      dup2\n      add\n      swap1\n      tag_66\n      swap2\n      swap1\n      tag_67\n      jump\t// in\n    tag_66:\n      tag_68\n      jump\t// in\n    tag_65:\n      stop\n        /* \"contracts/qlsinhvien.sol\":89:120  string public className = \"CT3\" */\n    tag_19:\n      0x00\n      dup1\n      sload\n      tag_69\n      swap1\n      tag_70\n      jump\t// in\n    tag_69:\n      dup1\n      0x1f\n      add\n      0x20\n      dup1\n      swap2\n      div\n      mul\n      0x20\n      add\n      mload(0x40)\n      swap1\n      dup2\n      add\n      0x40\n      mstore\n      dup1\n      swap3\n      swap2\n      swap1\n      dup2\n      dup2\n      mstore\n      0x20\n      add\n      dup3\n      dup1\n      sload\n      tag_71\n      swap1\n      tag_70\n      jump\t// in\n    tag_71:\n      dup1\n      iszero\n      tag_72\n      jumpi\n      dup1\n      0x1f\n      lt\n      tag_73\n      jumpi\n      0x0100\n      dup1\n      dup4\n      sload\n      div\n      mul\n      dup4\n      mstore\n      swap2\n      0x20\n      add\n      swap2\n      jump(tag_72)\n    tag_73:\n      dup3\n      add\n      swap2\n      swap1\n      0x00\n      mstore\n      keccak256(0x00, 0x20)\n      swap1\n    tag_74:\n      dup2\n      sload\n      dup2\n      mstore\n      swap1\n      0x01\n      add\n      swap1\n      0x20\n      add\n      dup1\n      dup4\n      gt\n      tag_74\n      jumpi\n      dup3\n      swap1\n      sub\n      0x1f\n      and\n      dup3\n      add\n      swap2\n    tag_72:\n      pop\n      pop\n      pop\n      pop\n      pop\n      dup2\n      jump\t// out\n        /* \"contracts/qlsinhvien.sol\":1748:1838  function Older19(uint _age) public pure returns (bool) {... */\n    tag_25:\n        /* \"contracts/qlsinhvien.sol\":1797:1801  bool */\n      0x00\n        /* \"contracts/qlsinhvien.sol\":1828:1830  18 */\n      0x12\n        /* \"contracts/qlsinhvien.sol\":1821:1825  _age */\n      dup3\n        /* \"contracts/qlsinhvien.sol\":1821:1830  _age > 18 */\n      gt\n        /* \"contracts/qlsinhvien.sol\":1814:1830  return _age > 18 */\n      swap1\n      pop\n        /* \"contracts/qlsinhvien.sol\":1748:1838  function Older19(uint _age) public pure returns (bool) {... */\n      swap2\n      swap1\n      pop\n      jump\t// out\n        /* \"contracts/qlsinhvien.sol\":273:313  mapping(uint => Student) public students */\n    tag_30:\n      mstore(0x20, 0x01)\n      dup1\n      0x00\n      mstore\n      keccak256(0x00, 0x40)\n      0x00\n      swap2\n      pop\n      swap1\n      pop\n      dup1\n      0x00\n      add\n      sload\n      swap1\n      dup1\n      0x01\n      add\n      dup1\n      sload\n      tag_76\n      swap1\n      tag_70\n      jump\t// in\n    tag_76:\n      dup1\n      0x1f\n      add\n      0x20\n      dup1\n      swap2\n      div\n      mul\n      0x20\n      add\n      mload(0x40)\n      swap1\n      dup2\n      add\n      0x40\n      mstore\n      dup1\n      swap3\n      swap2\n      swap1\n      dup2\n      dup2\n      mstore\n      0x20\n      add\n      dup3\n      dup1\n      sload\n      tag_77\n      swap1\n      tag_70\n      jump\t// in\n    tag_77:\n      dup1\n      iszero\n      tag_78\n      jumpi\n      dup1\n      0x1f\n      lt\n      tag_79\n      jumpi\n      0x0100\n      dup1\n      dup4\n      sload\n      div\n      mul\n      dup4\n      mstore\n      swap2\n      0x20\n      add\n      swap2\n      jump(tag_78)\n    tag_79:\n      dup3\n      add\n      swap2\n      swap1\n      0x00\n      mstore\n      keccak256(0x00, 0x20)\n      swap1\n    tag_80:\n      dup2\n      sload\n      dup2\n      mstore\n      swap1\n      0x01\n      add\n      swap1\n      0x20\n      add\n      dup1\n      dup4\n      gt\n      tag_80\n      jumpi\n      dup3\n      swap1\n      sub\n      0x1f\n      and\n      dup3\n      add\n      swap2\n    tag_78:\n      pop\n      pop\n      pop\n      pop\n      pop\n      swap1\n      dup1\n      0x02\n      add\n      sload\n      swap1\n      dup1\n      0x03\n      add\n      0x00\n      swap1\n      sload\n      swap1\n      0x0100\n      exp\n      swap1\n      div\n      0xffffffffffffffffffffffffffffffffffffffff\n      and\n      swap1\n      dup1\n      0x03\n      add\n      0x14\n      swap1\n      sload\n      swap1\n      0x0100\n      exp\n      swap1\n      div\n      0xff\n      and\n      swap1\n      pop\n      dup6\n      jump\t// out\n        /* \"contracts/qlsinhvien.sol\":1497:1742  function updateStudentAge(uint _id, uint _newAge) public {... */\n    tag_36:\n        /* \"contracts/qlsinhvien.sol\":1613:1614  0 */\n      0x00\n        /* \"contracts/qlsinhvien.sol\":1573:1615  students[_id].studentAddress != address(0) */\n      0xffffffffffffffffffffffffffffffffffffffff\n      and\n        /* \"contracts/qlsinhvien.sol\":1573:1581  students */\n      0x01\n        /* \"contracts/qlsinhvien.sol\":1573:1586  students[_id] */\n      0x00\n        /* \"contracts/qlsinhvien.sol\":1582:1585  _id */\n      dup5\n        /* \"contracts/qlsinhvien.sol\":1573:1586  students[_id] */\n      dup2\n      mstore\n      0x20\n      add\n      swap1\n      dup2\n      mstore\n      0x20\n      add\n      0x00\n      keccak256\n        /* \"contracts/qlsinhvien.sol\":1573:1601  students[_id].studentAddress */\n      0x03\n      add\n      0x00\n      swap1\n      sload\n      swap1\n      0x0100\n      exp\n      swap1\n      div\n      0xffffffffffffffffffffffffffffffffffffffff\n      and\n        /* \"contracts/qlsinhvien.sol\":1573:1615  students[_id].studentAddress != address(0) */\n      0xffffffffffffffffffffffffffffffffffffffff\n      and\n      sub\n        /* \"contracts/qlsinhvien.sol\":1565:1645  require(students[_id].studentAddress != address(0), \"Student id does not exist\") */\n      tag_82\n      jumpi\n      mload(0x40)\n      0x08c379a000000000000000000000000000000000000000000000000000000000\n      dup2\n      mstore\n      0x04\n      add\n      tag_83\n      swap1\n      tag_84\n      jump\t// in\n    tag_83:\n      mload(0x40)\n      dup1\n      swap2\n      sub\n      swap1\n      revert\n    tag_82:\n        /* \"contracts/qlsinhvien.sol\":1664:1680  Older19(_newAge) */\n      tag_85\n        /* \"contracts/qlsinhvien.sol\":1672:1679  _newAge */\n      dup2\n        /* \"contracts/qlsinhvien.sol\":1664:1671  Older19 */\n      tag_25\n        /* \"contracts/qlsinhvien.sol\":1664:1680  Older19(_newAge) */\n      jump\t// in\n    tag_85:\n        /* \"contracts/qlsinhvien.sol\":1656:1696  require(Older19(_newAge), \"Sorry be bi\") */\n      tag_86\n      jumpi\n      mload(0x40)\n      0x08c379a000000000000000000000000000000000000000000000000000000000\n      dup2\n      mstore\n      0x04\n      add\n      tag_87\n      swap1\n      tag_88\n      jump\t// in\n    tag_87:\n      mload(0x40)\n      dup1\n      swap2\n      sub\n      swap1\n      revert\n    tag_86:\n        /* \"contracts/qlsinhvien.sol\":1727:1734  _newAge */\n      dup1\n        /* \"contracts/qlsinhvien.sol\":1707:1715  students */\n      0x01\n        /* \"contracts/qlsinhvien.sol\":1707:1720  students[_id] */\n      0x00\n        /* \"contracts/qlsinhvien.sol\":1716:1719  _id */\n      dup5\n        /* \"contracts/qlsinhvien.sol\":1707:1720  students[_id] */\n      dup2\n      mstore\n      0x20\n      add\n      swap1\n      dup2\n      mstore\n      0x20\n      add\n      0x00\n      keccak256\n        /* \"contracts/qlsinhvien.sol\":1707:1724  students[_id].age */\n      0x02\n      add\n        /* \"contracts/qlsinhvien.sol\":1707:1734  students[_id].age = _newAge */\n      dup2\n      swap1\n      sstore\n      pop\n        /* \"contracts/qlsinhvien.sol\":1497:1742  function updateStudentAge(uint _id, uint _newAge) public {... */\n      pop\n      pop\n      jump\t// out\n        /* \"contracts/qlsinhvien.sol\":1005:1161  function activeStudent(uint _id) public {... */\n    tag_39:\n        /* \"contracts/qlsinhvien.sol\":1056:1072  Student memory s */\n      0x00\n        /* \"contracts/qlsinhvien.sol\":1075:1083  students */\n      0x01\n        /* \"contracts/qlsinhvien.sol\":1075:1088  students[_id] */\n      0x00\n        /* \"contracts/qlsinhvien.sol\":1084:1087  _id */\n      dup4\n        /* \"contracts/qlsinhvien.sol\":1075:1088  students[_id] */\n      dup2\n      mstore\n      0x20\n      add\n      swap1\n      dup2\n      mstore\n      0x20\n      add\n      0x00\n      keccak256\n        /* \"contracts/qlsinhvien.sol\":1056:1088  Student memory s = students[_id] */\n      mload(0x40)\n      dup1\n      0xa0\n      add\n      0x40\n      mstore\n      swap1\n      dup2\n      0x00\n      dup3\n      add\n      sload\n      dup2\n      mstore\n      0x20\n      add\n      0x01\n      dup3\n      add\n      dup1\n      sload\n      tag_90\n      swap1\n      tag_70\n      jump\t// in\n    tag_90:\n      dup1\n      0x1f\n      add\n      0x20\n      dup1\n      swap2\n      div\n      mul\n      0x20\n      add\n      mload(0x40)\n      swap1\n      dup2\n      add\n      0x40\n      mstore\n      dup1\n      swap3\n      swap2\n      swap1\n      dup2\n      dup2\n      mstore\n      0x20\n      add\n      dup3\n      dup1\n      sload\n      tag_91\n      swap1\n      tag_70\n      jump\t// in\n    tag_91:\n      dup1\n      iszero\n      tag_92\n      jumpi\n      dup1\n      0x1f\n      lt\n      tag_93\n      jumpi\n      0x0100\n      dup1\n      dup4\n      sload\n      div\n      mul\n      dup4\n      mstore\n      swap2\n      0x20\n      add\n      swap2\n      jump(tag_92)\n    tag_93:\n      dup3\n      add\n      swap2\n      swap1\n      0x00\n      mstore\n      keccak256(0x00, 0x20)\n      swap1\n    tag_94:\n      dup2\n      sload\n      dup2\n      mstore\n      swap1\n      0x01\n      add\n      swap1\n      0x20\n      add\n      dup1\n      dup4\n      gt\n      tag_94\n      jumpi\n      dup3\n      swap1\n      sub\n      0x1f\n      and\n      dup3\n      add\n      swap2\n    tag_92:\n      pop\n      pop\n      pop\n      pop\n      pop\n      dup2\n      mstore\n      0x20\n      add\n      0x02\n      dup3\n      add\n      sload\n      dup2\n      mstore\n      0x20\n      add\n      0x03\n      dup3\n      add\n      0x00\n      swap1\n      sload\n      swap1\n      0x0100\n      exp\n      swap1\n      div\n      0xffffffffffffffffffffffffffffffffffffffff\n      and\n      0xffffffffffffffffffffffffffffffffffffffff\n      and\n      0xffffffffffffffffffffffffffffffffffffffff\n      and\n      dup2\n      mstore\n      0x20\n      add\n      0x03\n      dup3\n      add\n      0x14\n      swap1\n      sload\n      swap1\n      0x0100\n      exp\n      swap1\n      div\n      0xff\n      and\n      iszero\n      iszero\n      iszero\n      iszero\n      dup2\n      mstore\n      pop\n      pop\n      swap1\n      pop\n        /* \"contracts/qlsinhvien.sol\":1114:1115  s */\n      dup1\n        /* \"contracts/qlsinhvien.sol\":1114:1125  s.is_active */\n      0x80\n      add\n      mload\n        /* \"contracts/qlsinhvien.sol\":1113:1125  !s.is_active */\n      iszero\n        /* \"contracts/qlsinhvien.sol\":1099:1100  s */\n      dup2\n        /* \"contracts/qlsinhvien.sol\":1099:1110  s.is_active */\n      0x80\n      add\n        /* \"contracts/qlsinhvien.sol\":1099:1125  s.is_active = !s.is_active */\n      swap1\n      iszero\n      iszero\n      swap1\n      dup2\n      iszero\n      iszero\n      dup2\n      mstore\n      pop\n      pop\n        /* \"contracts/qlsinhvien.sol\":1152:1153  s */\n      dup1\n        /* \"contracts/qlsinhvien.sol\":1136:1144  students */\n      0x01\n        /* \"contracts/qlsinhvien.sol\":1136:1149  students[_id] */\n      0x00\n        /* \"contracts/qlsinhvien.sol\":1145:1148  _id */\n      dup5\n        /* \"contracts/qlsinhvien.sol\":1136:1149  students[_id] */\n      dup2\n      mstore\n      0x20\n      add\n      swap1\n      dup2\n      mstore\n      0x20\n      add\n      0x00\n      keccak256\n        /* \"contracts/qlsinhvien.sol\":1136:1153  students[_id] = s */\n      0x00\n      dup3\n      add\n      mload\n      dup2\n      0x00\n      add\n      sstore\n      0x20\n      dup3\n      add\n      mload\n      dup2\n      0x01\n      add\n      swap1\n      dup2\n      tag_95\n      swap2\n      swap1\n      tag_96\n      jump\t// in\n    tag_95:\n      pop\n      0x40\n      dup3\n      add\n      mload\n      dup2\n      0x02\n      add\n      sstore\n      0x60\n      dup3\n      add\n      mload\n      dup2\n      0x03\n      add\n      exp(0x0100, 0x00)\n      dup2\n      sload\n      dup2\n      0xffffffffffffffffffffffffffffffffffffffff\n      mul\n      not\n      and\n      swap1\n      dup4\n      0xffffffffffffffffffffffffffffffffffffffff\n      and\n      mul\n      or\n      swap1\n      sstore\n      pop\n      0x80\n      dup3\n      add\n      mload\n      dup2\n      0x03\n      add\n      exp(0x0100, 0x14)\n      dup2\n      sload\n      dup2\n      0xff\n      mul\n      not\n      and\n      swap1\n      dup4\n      iszero\n      iszero\n      mul\n      or\n      swap1\n      sstore\n      pop\n      swap1\n      pop\n      pop\n        /* \"contracts/qlsinhvien.sol\":1045:1161  {... */\n      pop\n        /* \"contracts/qlsinhvien.sol\":1005:1161  function activeStudent(uint _id) public {... */\n      pop\n      jump\t// out\n        /* \"contracts/qlsinhvien.sol\":320:345  uint8 public CountStudent */\n    tag_41:\n      0x02\n      0x00\n      swap1\n      sload\n      swap1\n      0x0100\n      exp\n      swap1\n      div\n      0xff\n      and\n      dup2\n      jump\t// out\n        /* \"contracts/qlsinhvien.sol\":1844:1934  function ReturnTotal() public  view  returns (uint8){... */\n    tag_45:\n        /* \"contracts/qlsinhvien.sol\":1890:1895  uint8 */\n      0x00\n        /* \"contracts/qlsinhvien.sol\":1914:1926  CountStudent */\n      0x02\n      0x00\n      swap1\n      sload\n      swap1\n      0x0100\n      exp\n      swap1\n      div\n      0xff\n      and\n        /* \"contracts/qlsinhvien.sol\":1907:1926  return CountStudent */\n      swap1\n      pop\n        /* \"contracts/qlsinhvien.sol\":1844:1934  function ReturnTotal() public  view  returns (uint8){... */\n      swap1\n      jump\t// out\n        /* \"contracts/qlsinhvien.sol\":1169:1290  function exists(uint _id) public view returns (bool) {... */\n    tag_49:\n        /* \"contracts/qlsinhvien.sol\":1216:1220  bool */\n      0x00\n        /* \"contracts/qlsinhvien.sol\":1280:1281  0 */\n      0x00\n        /* \"contracts/qlsinhvien.sol\":1240:1282  students[_id].studentAddress != address(0) */\n      0xffffffffffffffffffffffffffffffffffffffff\n      and\n        /* \"contracts/qlsinhvien.sol\":1240:1248  students */\n      0x01\n        /* \"contracts/qlsinhvien.sol\":1240:1253  students[_id] */\n      0x00\n        /* \"contracts/qlsinhvien.sol\":1249:1252  _id */\n      dup5\n        /* \"contracts/qlsinhvien.sol\":1240:1253  students[_id] */\n      dup2\n      mstore\n      0x20\n      add\n      swap1\n      dup2\n      mstore\n      0x20\n      add\n      0x00\n      keccak256\n        /* \"contracts/qlsinhvien.sol\":1240:1268  students[_id].studentAddress */\n      0x03\n      add\n      0x00\n      swap1\n      sload\n      swap1\n      0x0100\n      exp\n      swap1\n      div\n      0xffffffffffffffffffffffffffffffffffffffff\n      and\n        /* \"contracts/qlsinhvien.sol\":1240:1282  students[_id].studentAddress != address(0) */\n      0xffffffffffffffffffffffffffffffffffffffff\n      and\n      eq\n      iszero\n        /* \"contracts/qlsinhvien.sol\":1233:1282  return students[_id].studentAddress != address(0) */\n      swap1\n      pop\n        /* \"contracts/qlsinhvien.sol\":1169:1290  function exists(uint _id) public view returns (bool) {... */\n      swap2\n      swap1\n      pop\n      jump\t// out\n        /* \"contracts/qlsinhvien.sol\":676:997  function getStudent(uint _id) public view returns (string memory, uint, address) {... */\n    tag_53:\n        /* \"contracts/qlsinhvien.sol\":727:740  string memory */\n      0x60\n        /* \"contracts/qlsinhvien.sol\":742:746  uint */\n      0x00\n        /* \"contracts/qlsinhvien.sol\":748:755  address */\n      0x00\n        /* \"contracts/qlsinhvien.sol\":768:784  Student memory s */\n      0x00\n        /* \"contracts/qlsinhvien.sol\":787:795  students */\n      0x01\n        /* \"contracts/qlsinhvien.sol\":787:800  students[_id] */\n      0x00\n        /* \"contracts/qlsinhvien.sol\":796:799  _id */\n      dup7\n        /* \"contracts/qlsinhvien.sol\":787:800  students[_id] */\n      dup2\n      mstore\n      0x20\n      add\n      swap1\n      dup2\n      mstore\n      0x20\n      add\n      0x00\n      keccak256\n        /* \"contracts/qlsinhvien.sol\":768:800  Student memory s = students[_id] */\n      mload(0x40)\n      dup1\n      0xa0\n      add\n      0x40\n      mstore\n      swap1\n      dup2\n      0x00\n      dup3\n      add\n      sload\n      dup2\n      mstore\n      0x20\n      add\n      0x01\n      dup3\n      add\n      dup1\n      sload\n      tag_100\n      swap1\n      tag_70\n      jump\t// in\n    tag_100:\n      dup1\n      0x1f\n      add\n      0x20\n      dup1\n      swap2\n      div\n      mul\n      0x20\n      add\n      mload(0x40)\n      swap1\n      dup2\n      add\n      0x40\n      mstore\n      dup1\n      swap3\n      swap2\n      swap1\n      dup2\n      dup2\n      mstore\n      0x20\n      add\n      dup3\n      dup1\n      sload\n      tag_101\n      swap1\n      tag_70\n      jump\t// in\n    tag_101:\n      dup1\n      iszero\n      tag_102\n      jumpi\n      dup1\n      0x1f\n      lt\n      tag_103\n      jumpi\n      0x0100\n      dup1\n      dup4\n      sload\n      div\n      mul\n      dup4\n      mstore\n      swap2\n      0x20\n      add\n      swap2\n      jump(tag_102)\n    tag_103:\n      dup3\n      add\n      swap2\n      swap1\n      0x00\n      mstore\n      keccak256(0x00, 0x20)\n      swap1\n    tag_104:\n      dup2\n      sload\n      dup2\n      mstore\n      swap1\n      0x01\n      add\n      swap1\n      0x20\n      add\n      dup1\n      dup4\n      gt\n      tag_104\n      jumpi\n      dup3\n      swap1\n      sub\n      0x1f\n      and\n      dup3\n      add\n      swap2\n    tag_102:\n      pop\n      pop\n      pop\n      pop\n      pop\n      dup2\n      mstore\n      0x20\n      add\n      0x02\n      dup3\n      add\n      sload\n      dup2\n      mstore\n      0x20\n      add\n      0x03\n      dup3\n      add\n      0x00\n      swap1\n      sload\n      swap1\n      0x0100\n      exp\n      swap1\n      div\n      0xffffffffffffffffffffffffffffffffffffffff\n      and\n      0xffffffffffffffffffffffffffffffffffffffff\n      and\n      0xffffffffffffffffffffffffffffffffffffffff\n      and\n      dup2\n      mstore\n      0x20\n      add\n      0x03\n      dup3\n      add\n      0x14\n      swap1\n      sload\n      swap1\n      0x0100\n      exp\n      swap1\n      div\n      0xff\n      and\n      iszero\n      iszero\n      iszero\n      iszero\n      dup2\n      mstore\n      pop\n      pop\n      swap1\n      pop\n        /* \"contracts/qlsinhvien.sol\":847:848  0 */\n      0x00\n        /* \"contracts/qlsinhvien.sol\":819:849  s.studentAddress != address(0) */\n      0xffffffffffffffffffffffffffffffffffffffff\n      and\n        /* \"contracts/qlsinhvien.sol\":819:820  s */\n      dup2\n        /* \"contracts/qlsinhvien.sol\":819:835  s.studentAddress */\n      0x60\n      add\n      mload\n        /* \"contracts/qlsinhvien.sol\":819:849  s.studentAddress != address(0) */\n      0xffffffffffffffffffffffffffffffffffffffff\n      and\n      sub\n        /* \"contracts/qlsinhvien.sol\":811:879  require(s.studentAddress != address(0), \"Student id does not exist\") */\n      tag_105\n      jumpi\n      mload(0x40)\n      0x08c379a000000000000000000000000000000000000000000000000000000000\n      dup2\n      mstore\n      0x04\n      add\n      tag_106\n      swap1\n      tag_84\n      jump\t// in\n    tag_106:\n      mload(0x40)\n      dup1\n      swap2\n      sub\n      swap1\n      revert\n    tag_105:\n        /* \"contracts/qlsinhvien.sol\":898:899  s */\n      dup1\n        /* \"contracts/qlsinhvien.sol\":898:909  s.is_active */\n      0x80\n      add\n      mload\n        /* \"contracts/qlsinhvien.sol\":890:938  require(s.is_active,\"Student has ben Locked!!!\") */\n      tag_107\n      jumpi\n      mload(0x40)\n      0x08c379a000000000000000000000000000000000000000000000000000000000\n      dup2\n      mstore\n      0x04\n      add\n      tag_108\n      swap1\n      tag_109\n      jump\t// in\n    tag_108:\n      mload(0x40)\n      dup1\n      swap2\n      sub\n      swap1\n      revert\n    tag_107:\n        /* \"contracts/qlsinhvien.sol\":957:958  s */\n      dup1\n        /* \"contracts/qlsinhvien.sol\":957:963  s.name */\n      0x20\n      add\n      mload\n        /* \"contracts/qlsinhvien.sol\":965:966  s */\n      dup2\n        /* \"contracts/qlsinhvien.sol\":965:970  s.age */\n      0x40\n      add\n      mload\n        /* \"contracts/qlsinhvien.sol\":972:973  s */\n      dup3\n        /* \"contracts/qlsinhvien.sol\":972:988  s.studentAddress */\n      0x60\n      add\n      mload\n        /* \"contracts/qlsinhvien.sol\":949:989  return (s.name, s.age, s.studentAddress) */\n      swap4\n      pop\n      swap4\n      pop\n      swap4\n      pop\n      pop\n        /* \"contracts/qlsinhvien.sol\":676:997  function getStudent(uint _id) public view returns (string memory, uint, address) {... */\n      swap2\n      swap4\n      swap1\n      swap3\n      pop\n      jump\t// out\n        /* \"contracts/qlsinhvien.sol\":1296:1491  function removeStudent(uint _id) public {... */\n    tag_58:\n        /* \"contracts/qlsinhvien.sol\":1395:1396  0 */\n      0x00\n        /* \"contracts/qlsinhvien.sol\":1355:1397  students[_id].studentAddress != address(0) */\n      0xffffffffffffffffffffffffffffffffffffffff\n      and\n        /* \"contracts/qlsinhvien.sol\":1355:1363  students */\n      0x01\n        /* \"contracts/qlsinhvien.sol\":1355:1368  students[_id] */\n      0x00\n        /* \"contracts/qlsinhvien.sol\":1364:1367  _id */\n      dup4\n        /* \"contracts/qlsinhvien.sol\":1355:1368  students[_id] */\n      dup2\n      mstore\n      0x20\n      add\n      swap1\n      dup2\n      mstore\n      0x20\n      add\n      0x00\n      keccak256\n        /* \"contracts/qlsinhvien.sol\":1355:1383  students[_id].studentAddress */\n      0x03\n      add\n      0x00\n      swap1\n      sload\n      swap1\n      0x0100\n      exp\n      swap1\n      div\n      0xffffffffffffffffffffffffffffffffffffffff\n      and\n        /* \"contracts/qlsinhvien.sol\":1355:1397  students[_id].studentAddress != address(0) */\n      0xffffffffffffffffffffffffffffffffffffffff\n      and\n      sub\n        /* \"contracts/qlsinhvien.sol\":1347:1427  require(students[_id].studentAddress != address(0), \"Student id does not exist\") */\n      tag_111\n      jumpi\n      mload(0x40)\n      0x08c379a000000000000000000000000000000000000000000000000000000000\n      dup2\n      mstore\n      0x04\n      add\n      tag_112\n      swap1\n      tag_84\n      jump\t// in\n    tag_112:\n      mload(0x40)\n      dup1\n      swap2\n      sub\n      swap1\n      revert\n    tag_111:\n        /* \"contracts/qlsinhvien.sol\":1445:1453  students */\n      0x01\n        /* \"contracts/qlsinhvien.sol\":1445:1458  students[_id] */\n      0x00\n        /* \"contracts/qlsinhvien.sol\":1454:1457  _id */\n      dup3\n        /* \"contracts/qlsinhvien.sol\":1445:1458  students[_id] */\n      dup2\n      mstore\n      0x20\n      add\n      swap1\n      dup2\n      mstore\n      0x20\n      add\n      0x00\n      keccak256\n      0x00\n        /* \"contracts/qlsinhvien.sol\":1438:1458  delete students[_id] */\n      0x00\n      dup3\n      add\n      0x00\n      swap1\n      sstore\n      0x01\n      dup3\n      add\n      0x00\n      tag_113\n      swap2\n      swap1\n      tag_114\n      jump\t// in\n    tag_113:\n      0x02\n      dup3\n      add\n      0x00\n      swap1\n      sstore\n      0x03\n      dup3\n      add\n      exp(0x0100, 0x00)\n      dup2\n      sload\n      swap1\n      0xffffffffffffffffffffffffffffffffffffffff\n      mul\n      not\n      and\n      swap1\n      sstore\n      0x03\n      dup3\n      add\n      exp(0x0100, 0x14)\n      dup2\n      sload\n      swap1\n      0xff\n      mul\n      not\n      and\n      swap1\n      sstore\n      pop\n      pop\n        /* \"contracts/qlsinhvien.sol\":1469:1481  CountStudent */\n      0x02\n      0x00\n        /* \"contracts/qlsinhvien.sol\":1469:1483  CountStudent-- */\n      dup2\n      dup2\n      swap1\n      sload\n      swap1\n      0x0100\n      exp\n      swap1\n      div\n      0xff\n      and\n      dup1\n      swap3\n      swap2\n      swap1\n      tag_115\n      swap1\n      tag_116\n      jump\t// in\n    tag_115:\n      swap2\n      swap1\n      0x0100\n      exp\n      dup2\n      sload\n      dup2\n      0xff\n      mul\n      not\n      and\n      swap1\n      dup4\n      0xff\n      and\n      mul\n      or\n      swap1\n      sstore\n      pop\n      pop\n        /* \"contracts/qlsinhvien.sol\":1296:1491  function removeStudent(uint _id) public {... */\n      pop\n      jump\t// out\n        /* \"contracts/qlsinhvien.sol\":1940:2075  function CheckGas() public pure returns (bool)... */\n    tag_60:\n        /* \"contracts/qlsinhvien.sol\":1981:1985  bool */\n      0x00\n        /* \"contracts/qlsinhvien.sol\":2020:2022  30 */\n      0x1e\n        /* \"contracts/qlsinhvien.sol\":2006:2017  5+5+5+5+5+5 */\n      dup1\n        /* \"contracts/qlsinhvien.sol\":2006:2022  5+5+5+5+5+5 > 30 */\n      gt\n        /* \"contracts/qlsinhvien.sol\":2003:2068  if(5+5+5+5+5+5 > 30) {return true;}... */\n      iszero\n      tag_118\n      jumpi\n        /* \"contracts/qlsinhvien.sol\":2032:2036  true */\n      0x01\n        /* \"contracts/qlsinhvien.sol\":2025:2036  return true */\n      swap1\n      pop\n      jump(tag_117)\n        /* \"contracts/qlsinhvien.sol\":2003:2068  if(5+5+5+5+5+5 > 30) {return true;}... */\n    tag_118:\n        /* \"contracts/qlsinhvien.sol\":2061:2066  false */\n      0x00\n        /* \"contracts/qlsinhvien.sol\":2054:2066  return false */\n      swap1\n      pop\n        /* \"contracts/qlsinhvien.sol\":1940:2075  function CheckGas() public pure returns (bool)... */\n    tag_117:\n      swap1\n      jump\t// out\n        /* \"contracts/qlsinhvien.sol\":2081:2209  function CheckGas2() public pure returns (bool)... */\n    tag_63:\n        /* \"contracts/qlsinhvien.sol\":2123:2127  bool */\n      0x00\n        /* \"contracts/qlsinhvien.sol\":2154:2156  30 */\n      0x1e\n        /* \"contracts/qlsinhvien.sol\":2148:2151  5*6 */\n      dup1\n        /* \"contracts/qlsinhvien.sol\":2148:2156  5*6 > 30 */\n      gt\n        /* \"contracts/qlsinhvien.sol\":2145:2202  if(5*6 > 30) {return true;}... */\n      iszero\n      tag_121\n      jumpi\n        /* \"contracts/qlsinhvien.sol\":2166:2170  true */\n      0x01\n        /* \"contracts/qlsinhvien.sol\":2159:2170  return true */\n      swap1\n      pop\n      jump(tag_120)\n        /* \"contracts/qlsinhvien.sol\":2145:2202  if(5*6 > 30) {return true;}... */\n    tag_121:\n        /* \"contracts/qlsinhvien.sol\":2195:2200  false */\n      0x00\n        /* \"contracts/qlsinhvien.sol\":2188:2200  return false */\n      swap1\n      pop\n        /* \"contracts/qlsinhvien.sol\":2081:2209  function CheckGas2() public pure returns (bool)... */\n    tag_120:\n      swap1\n      jump\t// out\n        /* \"contracts/qlsinhvien.sol\":352:664  function addStudent(uint _id, string memory _name, uint _age) public {... */\n    tag_68:\n        /* \"contracts/qlsinhvien.sol\":480:481  0 */\n      0x00\n        /* \"contracts/qlsinhvien.sol\":440:482  students[_id].studentAddress == address(0) */\n      0xffffffffffffffffffffffffffffffffffffffff\n      and\n        /* \"contracts/qlsinhvien.sol\":440:448  students */\n      0x01\n        /* \"contracts/qlsinhvien.sol\":440:453  students[_id] */\n      0x00\n        /* \"contracts/qlsinhvien.sol\":449:452  _id */\n      dup6\n        /* \"contracts/qlsinhvien.sol\":440:453  students[_id] */\n      dup2\n      mstore\n      0x20\n      add\n      swap1\n      dup2\n      mstore\n      0x20\n      add\n      0x00\n      keccak256\n        /* \"contracts/qlsinhvien.sol\":440:468  students[_id].studentAddress */\n      0x03\n      add\n      0x00\n      swap1\n      sload\n      swap1\n      0x0100\n      exp\n      swap1\n      div\n      0xffffffffffffffffffffffffffffffffffffffff\n      and\n        /* \"contracts/qlsinhvien.sol\":440:482  students[_id].studentAddress == address(0) */\n      0xffffffffffffffffffffffffffffffffffffffff\n      and\n      eq\n        /* \"contracts/qlsinhvien.sol\":432:512  require(students[_id].studentAddress == address(0), \"Student id already exists\") */\n      tag_124\n      jumpi\n      mload(0x40)\n      0x08c379a000000000000000000000000000000000000000000000000000000000\n      dup2\n      mstore\n      0x04\n      add\n      tag_125\n      swap1\n      tag_126\n      jump\t// in\n    tag_125:\n      mload(0x40)\n      dup1\n      swap2\n      sub\n      swap1\n      revert\n    tag_124:\n        /* \"contracts/qlsinhvien.sol\":531:544  Older19(_age) */\n      tag_127\n        /* \"contracts/qlsinhvien.sol\":539:543  _age */\n      dup2\n        /* \"contracts/qlsinhvien.sol\":531:538  Older19 */\n      tag_25\n        /* \"contracts/qlsinhvien.sol\":531:544  Older19(_age) */\n      jump\t// in\n    tag_127:\n        /* \"contracts/qlsinhvien.sol\":523:561  require(Older19(_age), \"Ai em sorry!\") */\n      tag_128\n      jumpi\n      mload(0x40)\n      0x08c379a000000000000000000000000000000000000000000000000000000000\n      dup2\n      mstore\n      0x04\n      add\n      tag_129\n      swap1\n      tag_130\n      jump\t// in\n    tag_129:\n      mload(0x40)\n      dup1\n      swap2\n      sub\n      swap1\n      revert\n    tag_128:\n        /* \"contracts/qlsinhvien.sol\":588:631  Student(_id, _name, _age, msg.sender, true) */\n      mload(0x40)\n      dup1\n      0xa0\n      add\n      0x40\n      mstore\n      dup1\n        /* \"contracts/qlsinhvien.sol\":596:599  _id */\n      dup5\n        /* \"contracts/qlsinhvien.sol\":588:631  Student(_id, _name, _age, msg.sender, true) */\n      dup2\n      mstore\n      0x20\n      add\n        /* \"contracts/qlsinhvien.sol\":601:606  _name */\n      dup4\n        /* \"contracts/qlsinhvien.sol\":588:631  Student(_id, _name, _age, msg.sender, true) */\n      dup2\n      mstore\n      0x20\n      add\n        /* \"contracts/qlsinhvien.sol\":608:612  _age */\n      dup3\n        /* \"contracts/qlsinhvien.sol\":588:631  Student(_id, _name, _age, msg.sender, true) */\n      dup2\n      mstore\n      0x20\n      add\n        /* \"contracts/qlsinhvien.sol\":614:624  msg.sender */\n      caller\n        /* \"contracts/qlsinhvien.sol\":588:631  Student(_id, _name, _age, msg.sender, true) */\n      0xffffffffffffffffffffffffffffffffffffffff\n      and\n      dup2\n      mstore\n      0x20\n      add\n        /* \"contracts/qlsinhvien.sol\":626:630  true */\n      0x01\n        /* \"contracts/qlsinhvien.sol\":588:631  Student(_id, _name, _age, msg.sender, true) */\n      iszero\n      iszero\n      dup2\n      mstore\n      pop\n        /* \"contracts/qlsinhvien.sol\":572:580  students */\n      0x01\n        /* \"contracts/qlsinhvien.sol\":572:585  students[_id] */\n      0x00\n        /* \"contracts/qlsinhvien.sol\":581:584  _id */\n      dup6\n        /* \"contracts/qlsinhvien.sol\":572:585  students[_id] */\n      dup2\n      mstore\n      0x20\n      add\n      swap1\n      dup2\n      mstore\n      0x20\n      add\n      0x00\n      keccak256\n        /* \"contracts/qlsinhvien.sol\":572:631  students[_id] = Student(_id, _name, _age, msg.sender, true) */\n      0x00\n      dup3\n      add\n      mload\n      dup2\n      0x00\n      add\n      sstore\n      0x20\n      dup3\n      add\n      mload\n      dup2\n      0x01\n      add\n      swap1\n      dup2\n      tag_131\n      swap2\n      swap1\n      tag_96\n      jump\t// in\n    tag_131:\n      pop\n      0x40\n      dup3\n      add\n      mload\n      dup2\n      0x02\n      add\n      sstore\n      0x60\n      dup3\n      add\n      mload\n      dup2\n      0x03\n      add\n      exp(0x0100, 0x00)\n      dup2\n      sload\n      dup2\n      0xffffffffffffffffffffffffffffffffffffffff\n      mul\n      not\n      and\n      swap1\n      dup4\n      0xffffffffffffffffffffffffffffffffffffffff\n      and\n      mul\n      or\n      swap1\n      sstore\n      pop\n      0x80\n      dup3\n      add\n      mload\n      dup2\n      0x03\n      add\n      exp(0x0100, 0x14)\n      dup2\n      sload\n      dup2\n      0xff\n      mul\n      not\n      and\n      swap1\n      dup4\n      iszero\n      iszero\n      mul\n      or\n      swap1\n      sstore\n      pop\n      swap1\n      pop\n      pop\n        /* \"contracts/qlsinhvien.sol\":642:654  CountStudent */\n      0x02\n      0x00\n        /* \"contracts/qlsinhvien.sol\":642:656  CountStudent++ */\n      dup2\n      dup2\n      swap1\n      sload\n      swap1\n      0x0100\n      exp\n      swap1\n      div\n      0xff\n      and\n      dup1\n      swap3\n      swap2\n      swap1\n      tag_132\n      swap1\n      tag_133\n      jump\t// in\n    tag_132:\n      swap2\n      swap1\n      0x0100\n      exp\n      dup2\n      sload\n      dup2\n      0xff\n      mul\n      not\n      and\n      swap1\n      dup4\n      0xff\n      and\n      mul\n      or\n      swap1\n      sstore\n      pop\n      pop\n        /* \"contracts/qlsinhvien.sol\":352:664  function addStudent(uint _id, string memory _name, uint _age) public {... */\n      pop\n      pop\n      pop\n      jump\t// out\n    tag_114:\n      pop\n      dup1\n      sload\n      tag_134\n      swap1\n      tag_70\n      jump\t// in\n    tag_134:\n      0x00\n      dup3\n      sstore\n      dup1\n      0x1f\n      lt\n      tag_136\n      jumpi\n      pop\n      jump(tag_135)\n    tag_136:\n      0x1f\n      add\n      0x20\n      swap1\n      div\n      swap1\n      0x00\n      mstore\n      keccak256(0x00, 0x20)\n      swap1\n      dup2\n      add\n      swap1\n      tag_137\n      swap2\n      swap1\n      tag_138\n      jump\t// in\n    tag_137:\n    tag_135:\n      pop\n      jump\t// out\n    tag_138:\n    tag_139:\n      dup1\n      dup3\n      gt\n      iszero\n      tag_140\n      jumpi\n      0x00\n      dup2\n      0x00\n      swap1\n      sstore\n      pop\n      0x01\n      add\n      jump(tag_139)\n    tag_140:\n      pop\n      swap1\n      jump\t// out\n        /* \"#utility.yul\":7:106   */\n    tag_141:\n        /* \"#utility.yul\":59:65   */\n      0x00\n        /* \"#utility.yul\":93:98   */\n      dup2\n        /* \"#utility.yul\":87:99   */\n      mload\n        /* \"#utility.yul\":77:99   */\n      swap1\n      pop\n        /* \"#utility.yul\":7:106   */\n      swap2\n      swap1\n      pop\n      jump\t// out\n        /* \"#utility.yul\":112:281   */\n    tag_142:\n        /* \"#utility.yul\":196:207   */\n      0x00\n        /* \"#utility.yul\":230:236   */\n      dup3\n        /* \"#utility.yul\":225:228   */\n      dup3\n        /* \"#utility.yul\":218:237   */\n      mstore\n        /* \"#utility.yul\":270:274   */\n      0x20\n        /* \"#utility.yul\":265:268   */\n      dup3\n        /* \"#utility.yul\":261:275   */\n      add\n        /* \"#utility.yul\":246:275   */\n      swap1\n      pop\n        /* \"#utility.yul\":112:281   */\n      swap3\n      swap2\n      pop\n      pop\n      jump\t// out\n        /* \"#utility.yul\":287:426   */\n    tag_143:\n        /* \"#utility.yul\":376:382   */\n      dup3\n        /* \"#utility.yul\":371:374   */\n      dup2\n        /* \"#utility.yul\":366:369   */\n      dup4\n        /* \"#utility.yul\":360:383   */\n      mcopy\n        /* \"#utility.yul\":417:418   */\n      0x00\n        /* \"#utility.yul\":408:414   */\n      dup4\n        /* \"#utility.yul\":403:406   */\n      dup4\n        /* \"#utility.yul\":399:415   */\n      add\n        /* \"#utility.yul\":392:419   */\n      mstore\n        /* \"#utility.yul\":287:426   */\n      pop\n      pop\n      pop\n      jump\t// out\n        /* \"#utility.yul\":432:534   */\n    tag_144:\n        /* \"#utility.yul\":473:479   */\n      0x00\n        /* \"#utility.yul\":524:526   */\n      0x1f\n        /* \"#utility.yul\":520:527   */\n      not\n        /* \"#utility.yul\":515:517   */\n      0x1f\n        /* \"#utility.yul\":508:513   */\n      dup4\n        /* \"#utility.yul\":504:518   */\n      add\n        /* \"#utility.yul\":500:528   */\n      and\n        /* \"#utility.yul\":490:528   */\n      swap1\n      pop\n        /* \"#utility.yul\":432:534   */\n      swap2\n      swap1\n      pop\n      jump\t// out\n        /* \"#utility.yul\":540:917   */\n    tag_145:\n        /* \"#utility.yul\":628:631   */\n      0x00\n        /* \"#utility.yul\":656:695   */\n      tag_202\n        /* \"#utility.yul\":689:694   */\n      dup3\n        /* \"#utility.yul\":656:695   */\n      tag_141\n      jump\t// in\n    tag_202:\n        /* \"#utility.yul\":711:782   */\n      tag_203\n        /* \"#utility.yul\":775:781   */\n      dup2\n        /* \"#utility.yul\":770:773   */\n      dup6\n        /* \"#utility.yul\":711:782   */\n      tag_142\n      jump\t// in\n    tag_203:\n        /* \"#utility.yul\":704:782   */\n      swap4\n      pop\n        /* \"#utility.yul\":791:856   */\n      tag_204\n        /* \"#utility.yul\":849:855   */\n      dup2\n        /* \"#utility.yul\":844:847   */\n      dup6\n        /* \"#utility.yul\":837:841   */\n      0x20\n        /* \"#utility.yul\":830:835   */\n      dup7\n        /* \"#utility.yul\":826:842   */\n      add\n        /* \"#utility.yul\":791:856   */\n      tag_143\n      jump\t// in\n    tag_204:\n        /* \"#utility.yul\":881:910   */\n      tag_205\n        /* \"#utility.yul\":903:909   */\n      dup2\n        /* \"#utility.yul\":881:910   */\n      tag_144\n      jump\t// in\n    tag_205:\n        /* \"#utility.yul\":876:879   */\n      dup5\n        /* \"#utility.yul\":872:911   */\n      add\n        /* \"#utility.yul\":865:911   */\n      swap2\n      pop\n        /* \"#utility.yul\":632:917   */\n      pop\n        /* \"#utility.yul\":540:917   */\n      swap3\n      swap2\n      pop\n      pop\n      jump\t// out\n        /* \"#utility.yul\":923:1236   */\n    tag_21:\n        /* \"#utility.yul\":1036:1040   */\n      0x00\n        /* \"#utility.yul\":1074:1076   */\n      0x20\n        /* \"#utility.yul\":1063:1072   */\n      dup3\n        /* \"#utility.yul\":1059:1077   */\n      add\n        /* \"#utility.yul\":1051:1077   */\n      swap1\n      pop\n        /* \"#utility.yul\":1123:1132   */\n      dup2\n        /* \"#utility.yul\":1117:1121   */\n      dup2\n        /* \"#utility.yul\":1113:1133   */\n      sub\n        /* \"#utility.yul\":1109:1110   */\n      0x00\n        /* \"#utility.yul\":1098:1107   */\n      dup4\n        /* \"#utility.yul\":1094:1111   */\n      add\n        /* \"#utility.yul\":1087:1134   */\n      mstore\n        /* \"#utility.yul\":1151:1229   */\n      tag_207\n        /* \"#utility.yul\":1224:1228   */\n      dup2\n        /* \"#utility.yul\":1215:1221   */\n      dup5\n        /* \"#utility.yul\":1151:1229   */\n      tag_145\n      jump\t// in\n    tag_207:\n        /* \"#utility.yul\":1143:1229   */\n      swap1\n      pop\n        /* \"#utility.yul\":923:1236   */\n      swap3\n      swap2\n      pop\n      pop\n      jump\t// out\n        /* \"#utility.yul\":1242:1317   */\n    tag_146:\n        /* \"#utility.yul\":1275:1281   */\n      0x00\n        /* \"#utility.yul\":1308:1310   */\n      0x40\n        /* \"#utility.yul\":1302:1311   */\n      mload\n        /* \"#utility.yul\":1292:1311   */\n      swap1\n      pop\n        /* \"#utility.yul\":1242:1317   */\n      swap1\n      jump\t// out\n        /* \"#utility.yul\":1323:1440   */\n    tag_147:\n        /* \"#utility.yul\":1432:1433   */\n      0x00\n        /* \"#utility.yul\":1429:1430   */\n      0x00\n        /* \"#utility.yul\":1422:1434   */\n      revert\n        /* \"#utility.yul\":1446:1563   */\n    tag_148:\n        /* \"#utility.yul\":1555:1556   */\n      0x00\n        /* \"#utility.yul\":1552:1553   */\n      0x00\n        /* \"#utility.yul\":1545:1557   */\n      revert\n        /* \"#utility.yul\":1569:1646   */\n    tag_149:\n        /* \"#utility.yul\":1606:1613   */\n      0x00\n        /* \"#utility.yul\":1635:1640   */\n      dup2\n        /* \"#utility.yul\":1624:1640   */\n      swap1\n      pop\n        /* \"#utility.yul\":1569:1646   */\n      swap2\n      swap1\n      pop\n      jump\t// out\n        /* \"#utility.yul\":1652:1774   */\n    tag_150:\n        /* \"#utility.yul\":1725:1749   */\n      tag_213\n        /* \"#utility.yul\":1743:1748   */\n      dup2\n        /* \"#utility.yul\":1725:1749   */\n      tag_149\n      jump\t// in\n    tag_213:\n        /* \"#utility.yul\":1718:1723   */\n      dup2\n        /* \"#utility.yul\":1715:1750   */\n      eq\n        /* \"#utility.yul\":1705:1768   */\n      tag_214\n      jumpi\n        /* \"#utility.yul\":1764:1765   */\n      0x00\n        /* \"#utility.yul\":1761:1762   */\n      0x00\n        /* \"#utility.yul\":1754:1766   */\n      revert\n        /* \"#utility.yul\":1705:1768   */\n    tag_214:\n        /* \"#utility.yul\":1652:1774   */\n      pop\n      jump\t// out\n        /* \"#utility.yul\":1780:1919   */\n    tag_151:\n        /* \"#utility.yul\":1826:1831   */\n      0x00\n        /* \"#utility.yul\":1864:1870   */\n      dup2\n        /* \"#utility.yul\":1851:1871   */\n      calldataload\n        /* \"#utility.yul\":1842:1871   */\n      swap1\n      pop\n        /* \"#utility.yul\":1880:1913   */\n      tag_216\n        /* \"#utility.yul\":1907:1912   */\n      dup2\n        /* \"#utility.yul\":1880:1913   */\n      tag_150\n      jump\t// in\n    tag_216:\n        /* \"#utility.yul\":1780:1919   */\n      swap3\n      swap2\n      pop\n      pop\n      jump\t// out\n        /* \"#utility.yul\":1925:2254   */\n    tag_24:\n        /* \"#utility.yul\":1984:1990   */\n      0x00\n        /* \"#utility.yul\":2033:2035   */\n      0x20\n        /* \"#utility.yul\":2021:2030   */\n      dup3\n        /* \"#utility.yul\":2012:2019   */\n      dup5\n        /* \"#utility.yul\":2008:2031   */\n      sub\n        /* \"#utility.yul\":2004:2036   */\n      slt\n        /* \"#utility.yul\":2001:2120   */\n      iszero\n      tag_218\n      jumpi\n        /* \"#utility.yul\":2039:2118   */\n      tag_219\n      tag_147\n      jump\t// in\n    tag_219:\n        /* \"#utility.yul\":2001:2120   */\n    tag_218:\n        /* \"#utility.yul\":2159:2160   */\n      0x00\n        /* \"#utility.yul\":2184:2237   */\n      tag_220\n        /* \"#utility.yul\":2229:2236   */\n      dup5\n        /* \"#utility.yul\":2220:2226   */\n      dup3\n        /* \"#utility.yul\":2209:2218   */\n      dup6\n        /* \"#utility.yul\":2205:2227   */\n      add\n        /* \"#utility.yul\":2184:2237   */\n      tag_151\n      jump\t// in\n    tag_220:\n        /* \"#utility.yul\":2174:2237   */\n      swap2\n      pop\n        /* \"#utility.yul\":2130:2247   */\n      pop\n        /* \"#utility.yul\":1925:2254   */\n      swap3\n      swap2\n      pop\n      pop\n      jump\t// out\n        /* \"#utility.yul\":2260:2350   */\n    tag_152:\n        /* \"#utility.yul\":2294:2301   */\n      0x00\n        /* \"#utility.yul\":2337:2342   */\n      dup2\n        /* \"#utility.yul\":2330:2343   */\n      iszero\n        /* \"#utility.yul\":2323:2344   */\n      iszero\n        /* \"#utility.yul\":2312:2344   */\n      swap1\n      pop\n        /* \"#utility.yul\":2260:2350   */\n      swap2\n      swap1\n      pop\n      jump\t// out\n        /* \"#utility.yul\":2356:2465   */\n    tag_153:\n        /* \"#utility.yul\":2437:2458   */\n      tag_223\n        /* \"#utility.yul\":2452:2457   */\n      dup2\n        /* \"#utility.yul\":2437:2458   */\n      tag_152\n      jump\t// in\n    tag_223:\n        /* \"#utility.yul\":2432:2435   */\n      dup3\n        /* \"#utility.yul\":2425:2459   */\n      mstore\n        /* \"#utility.yul\":2356:2465   */\n      pop\n      pop\n      jump\t// out\n        /* \"#utility.yul\":2471:2681   */\n    tag_27:\n        /* \"#utility.yul\":2558:2562   */\n      0x00\n        /* \"#utility.yul\":2596:2598   */\n      0x20\n        /* \"#utility.yul\":2585:2594   */\n      dup3\n        /* \"#utility.yul\":2581:2599   */\n      add\n        /* \"#utility.yul\":2573:2599   */\n      swap1\n      pop\n        /* \"#utility.yul\":2609:2674   */\n      tag_225\n        /* \"#utility.yul\":2671:2672   */\n      0x00\n        /* \"#utility.yul\":2660:2669   */\n      dup4\n        /* \"#utility.yul\":2656:2673   */\n      add\n        /* \"#utility.yul\":2647:2653   */\n      dup5\n        /* \"#utility.yul\":2609:2674   */\n      tag_153\n      jump\t// in\n    tag_225:\n        /* \"#utility.yul\":2471:2681   */\n      swap3\n      swap2\n      pop\n      pop\n      jump\t// out\n        /* \"#utility.yul\":2687:2805   */\n    tag_154:\n        /* \"#utility.yul\":2774:2798   */\n      tag_227\n        /* \"#utility.yul\":2792:2797   */\n      dup2\n        /* \"#utility.yul\":2774:2798   */\n      tag_149\n      jump\t// in\n    tag_227:\n        /* \"#utility.yul\":2769:2772   */\n      dup3\n        /* \"#utility.yul\":2762:2799   */\n      mstore\n        /* \"#utility.yul\":2687:2805   */\n      pop\n      pop\n      jump\t// out\n        /* \"#utility.yul\":2811:2937   */\n    tag_155:\n        /* \"#utility.yul\":2848:2855   */\n      0x00\n        /* \"#utility.yul\":2888:2930   */\n      0xffffffffffffffffffffffffffffffffffffffff\n        /* \"#utility.yul\":2881:2886   */\n      dup3\n        /* \"#utility.yul\":2877:2931   */\n      and\n        /* \"#utility.yul\":2866:2931   */\n      swap1\n      pop\n        /* \"#utility.yul\":2811:2937   */\n      swap2\n      swap1\n      pop\n      jump\t// out\n        /* \"#utility.yul\":2943:3039   */\n    tag_156:\n        /* \"#utility.yul\":2980:2987   */\n      0x00\n        /* \"#utility.yul\":3009:3033   */\n      tag_230\n        /* \"#utility.yul\":3027:3032   */\n      dup3\n        /* \"#utility.yul\":3009:3033   */\n      tag_155\n      jump\t// in\n    tag_230:\n        /* \"#utility.yul\":2998:3033   */\n      swap1\n      pop\n        /* \"#utility.yul\":2943:3039   */\n      swap2\n      swap1\n      pop\n      jump\t// out\n        /* \"#utility.yul\":3045:3163   */\n    tag_157:\n        /* \"#utility.yul\":3132:3156   */\n      tag_232\n        /* \"#utility.yul\":3150:3155   */\n      dup2\n        /* \"#utility.yul\":3132:3156   */\n      tag_156\n      jump\t// in\n    tag_232:\n        /* \"#utility.yul\":3127:3130   */\n      dup3\n        /* \"#utility.yul\":3120:3157   */\n      mstore\n        /* \"#utility.yul\":3045:3163   */\n      pop\n      pop\n      jump\t// out\n        /* \"#utility.yul\":3169:3912   */\n    tag_32:\n        /* \"#utility.yul\":3388:3392   */\n      0x00\n        /* \"#utility.yul\":3426:3429   */\n      0xa0\n        /* \"#utility.yul\":3415:3424   */\n      dup3\n        /* \"#utility.yul\":3411:3430   */\n      add\n        /* \"#utility.yul\":3403:3430   */\n      swap1\n      pop\n        /* \"#utility.yul\":3440:3511   */\n      tag_234\n        /* \"#utility.yul\":3508:3509   */\n      0x00\n        /* \"#utility.yul\":3497:3506   */\n      dup4\n        /* \"#utility.yul\":3493:3510   */\n      add\n        /* \"#utility.yul\":3484:3490   */\n      dup9\n        /* \"#utility.yul\":3440:3511   */\n      tag_154\n      jump\t// in\n    tag_234:\n        /* \"#utility.yul\":3558:3567   */\n      dup2\n        /* \"#utility.yul\":3552:3556   */\n      dup2\n        /* \"#utility.yul\":3548:3568   */\n      sub\n        /* \"#utility.yul\":3543:3545   */\n      0x20\n        /* \"#utility.yul\":3532:3541   */\n      dup4\n        /* \"#utility.yul\":3528:3546   */\n      add\n        /* \"#utility.yul\":3521:3569   */\n      mstore\n        /* \"#utility.yul\":3586:3664   */\n      tag_235\n        /* \"#utility.yul\":3659:3663   */\n      dup2\n        /* \"#utility.yul\":3650:3656   */\n      dup8\n        /* \"#utility.yul\":3586:3664   */\n      tag_145\n      jump\t// in\n    tag_235:\n        /* \"#utility.yul\":3578:3664   */\n      swap1\n      pop\n        /* \"#utility.yul\":3674:3746   */\n      tag_236\n        /* \"#utility.yul\":3742:3744   */\n      0x40\n        /* \"#utility.yul\":3731:3740   */\n      dup4\n        /* \"#utility.yul\":3727:3745   */\n      add\n        /* \"#utility.yul\":3718:3724   */\n      dup7\n        /* \"#utility.yul\":3674:3746   */\n      tag_154\n      jump\t// in\n    tag_236:\n        /* \"#utility.yul\":3756:3828   */\n      tag_237\n        /* \"#utility.yul\":3824:3826   */\n      0x60\n        /* \"#utility.yul\":3813:3822   */\n      dup4\n        /* \"#utility.yul\":3809:3827   */\n      add\n        /* \"#utility.yul\":3800:3806   */\n      dup6\n        /* \"#utility.yul\":3756:3828   */\n      tag_157\n      jump\t// in\n    tag_237:\n        /* \"#utility.yul\":3838:3905   */\n      tag_238\n        /* \"#utility.yul\":3900:3903   */\n      0x80\n        /* \"#utility.yul\":3889:3898   */\n      dup4\n        /* \"#utility.yul\":3885:3904   */\n      add\n        /* \"#utility.yul\":3876:3882   */\n      dup5\n        /* \"#utility.yul\":3838:3905   */\n      tag_153\n      jump\t// in\n    tag_238:\n        /* \"#utility.yul\":3169:3912   */\n      swap7\n      swap6\n      pop\n      pop\n      pop\n      pop\n      pop\n      pop\n      jump\t// out\n        /* \"#utility.yul\":3918:4392   */\n    tag_35:\n        /* \"#utility.yul\":3986:3992   */\n      0x00\n        /* \"#utility.yul\":3994:4000   */\n      0x00\n        /* \"#utility.yul\":4043:4045   */\n      0x40\n        /* \"#utility.yul\":4031:4040   */\n      dup4\n        /* \"#utility.yul\":4022:4029   */\n      dup6\n        /* \"#utility.yul\":4018:4041   */\n      sub\n        /* \"#utility.yul\":4014:4046   */\n      slt\n        /* \"#utility.yul\":4011:4130   */\n      iszero\n      tag_240\n      jumpi\n        /* \"#utility.yul\":4049:4128   */\n      tag_241\n      tag_147\n      jump\t// in\n    tag_241:\n        /* \"#utility.yul\":4011:4130   */\n    tag_240:\n        /* \"#utility.yul\":4169:4170   */\n      0x00\n        /* \"#utility.yul\":4194:4247   */\n      tag_242\n        /* \"#utility.yul\":4239:4246   */\n      dup6\n        /* \"#utility.yul\":4230:4236   */\n      dup3\n        /* \"#utility.yul\":4219:4228   */\n      dup7\n        /* \"#utility.yul\":4215:4237   */\n      add\n        /* \"#utility.yul\":4194:4247   */\n      tag_151\n      jump\t// in\n    tag_242:\n        /* \"#utility.yul\":4184:4247   */\n      swap3\n      pop\n        /* \"#utility.yul\":4140:4257   */\n      pop\n        /* \"#utility.yul\":4296:4298   */\n      0x20\n        /* \"#utility.yul\":4322:4375   */\n      tag_243\n        /* \"#utility.yul\":4367:4374   */\n      dup6\n        /* \"#utility.yul\":4358:4364   */\n      dup3\n        /* \"#utility.yul\":4347:4356   */\n      dup7\n        /* \"#utility.yul\":4343:4365   */\n      add\n        /* \"#utility.yul\":4322:4375   */\n      tag_151\n      jump\t// in\n    tag_243:\n        /* \"#utility.yul\":4312:4375   */\n      swap2\n      pop\n        /* \"#utility.yul\":4267:4385   */\n      pop\n        /* \"#utility.yul\":3918:4392   */\n      swap3\n      pop\n      swap3\n      swap1\n      pop\n      jump\t// out\n        /* \"#utility.yul\":4398:4484   */\n    tag_158:\n        /* \"#utility.yul\":4433:4440   */\n      0x00\n        /* \"#utility.yul\":4473:4477   */\n      0xff\n        /* \"#utility.yul\":4466:4471   */\n      dup3\n        /* \"#utility.yul\":4462:4478   */\n      and\n        /* \"#utility.yul\":4451:4478   */\n      swap1\n      pop\n        /* \"#utility.yul\":4398:4484   */\n      swap2\n      swap1\n      pop\n      jump\t// out\n        /* \"#utility.yul\":4490:4602   */\n    tag_159:\n        /* \"#utility.yul\":4573:4595   */\n      tag_246\n        /* \"#utility.yul\":4589:4594   */\n      dup2\n        /* \"#utility.yul\":4573:4595   */\n      tag_158\n      jump\t// in\n    tag_246:\n        /* \"#utility.yul\":4568:4571   */\n      dup3\n        /* \"#utility.yul\":4561:4596   */\n      mstore\n        /* \"#utility.yul\":4490:4602   */\n      pop\n      pop\n      jump\t// out\n        /* \"#utility.yul\":4608:4822   */\n    tag_43:\n        /* \"#utility.yul\":4697:4701   */\n      0x00\n        /* \"#utility.yul\":4735:4737   */\n      0x20\n        /* \"#utility.yul\":4724:4733   */\n      dup3\n        /* \"#utility.yul\":4720:4738   */\n      add\n        /* \"#utility.yul\":4712:4738   */\n      swap1\n      pop\n        /* \"#utility.yul\":4748:4815   */\n      tag_248\n        /* \"#utility.yul\":4812:4813   */\n      0x00\n        /* \"#utility.yul\":4801:4810   */\n      dup4\n        /* \"#utility.yul\":4797:4814   */\n      add\n        /* \"#utility.yul\":4788:4794   */\n      dup5\n        /* \"#utility.yul\":4748:4815   */\n      tag_159\n      jump\t// in\n    tag_248:\n        /* \"#utility.yul\":4608:4822   */\n      swap3\n      swap2\n      pop\n      pop\n      jump\t// out\n        /* \"#utility.yul\":4828:5361   */\n    tag_55:\n        /* \"#utility.yul\":4997:5001   */\n      0x00\n        /* \"#utility.yul\":5035:5037   */\n      0x60\n        /* \"#utility.yul\":5024:5033   */\n      dup3\n        /* \"#utility.yul\":5020:5038   */\n      add\n        /* \"#utility.yul\":5012:5038   */\n      swap1\n      pop\n        /* \"#utility.yul\":5084:5093   */\n      dup2\n        /* \"#utility.yul\":5078:5082   */\n      dup2\n        /* \"#utility.yul\":5074:5094   */\n      sub\n        /* \"#utility.yul\":5070:5071   */\n      0x00\n        /* \"#utility.yul\":5059:5068   */\n      dup4\n        /* \"#utility.yul\":5055:5072   */\n      add\n        /* \"#utility.yul\":5048:5095   */\n      mstore\n        /* \"#utility.yul\":5112:5190   */\n      tag_250\n        /* \"#utility.yul\":5185:5189   */\n      dup2\n        /* \"#utility.yul\":5176:5182   */\n      dup7\n        /* \"#utility.yul\":5112:5190   */\n      tag_145\n      jump\t// in\n    tag_250:\n        /* \"#utility.yul\":5104:5190   */\n      swap1\n      pop\n        /* \"#utility.yul\":5200:5272   */\n      tag_251\n        /* \"#utility.yul\":5268:5270   */\n      0x20\n        /* \"#utility.yul\":5257:5266   */\n      dup4\n        /* \"#utility.yul\":5253:5271   */\n      add\n        /* \"#utility.yul\":5244:5250   */\n      dup6\n        /* \"#utility.yul\":5200:5272   */\n      tag_154\n      jump\t// in\n    tag_251:\n        /* \"#utility.yul\":5282:5354   */\n      tag_252\n        /* \"#utility.yul\":5350:5352   */\n      0x40\n        /* \"#utility.yul\":5339:5348   */\n      dup4\n        /* \"#utility.yul\":5335:5353   */\n      add\n        /* \"#utility.yul\":5326:5332   */\n      dup5\n        /* \"#utility.yul\":5282:5354   */\n      tag_157\n      jump\t// in\n    tag_252:\n        /* \"#utility.yul\":4828:5361   */\n      swap5\n      swap4\n      pop\n      pop\n      pop\n      pop\n      jump\t// out\n        /* \"#utility.yul\":5367:5484   */\n    tag_160:\n        /* \"#utility.yul\":5476:5477   */\n      0x00\n        /* \"#utility.yul\":5473:5474   */\n      0x00\n        /* \"#utility.yul\":5466:5478   */\n      revert\n        /* \"#utility.yul\":5490:5607   */\n    tag_161:\n        /* \"#utility.yul\":5599:5600   */\n      0x00\n        /* \"#utility.yul\":5596:5597   */\n      0x00\n        /* \"#utility.yul\":5589:5601   */\n      revert\n        /* \"#utility.yul\":5613:5793   */\n    tag_162:\n        /* \"#utility.yul\":5661:5738   */\n      0x4e487b7100000000000000000000000000000000000000000000000000000000\n        /* \"#utility.yul\":5658:5659   */\n      0x00\n        /* \"#utility.yul\":5651:5739   */\n      mstore\n        /* \"#utility.yul\":5758:5762   */\n      0x41\n        /* \"#utility.yul\":5755:5756   */\n      0x04\n        /* \"#utility.yul\":5748:5763   */\n      mstore\n        /* \"#utility.yul\":5782:5786   */\n      0x24\n        /* \"#utility.yul\":5779:5780   */\n      0x00\n        /* \"#utility.yul\":5772:5787   */\n      revert\n        /* \"#utility.yul\":5799:6080   */\n    tag_163:\n        /* \"#utility.yul\":5882:5909   */\n      tag_257\n        /* \"#utility.yul\":5904:5908   */\n      dup3\n        /* \"#utility.yul\":5882:5909   */\n      tag_144\n      jump\t// in\n    tag_257:\n        /* \"#utility.yul\":5874:5880   */\n      dup2\n        /* \"#utility.yul\":5870:5910   */\n      add\n        /* \"#utility.yul\":6012:6018   */\n      dup2\n        /* \"#utility.yul\":6000:6010   */\n      dup2\n        /* \"#utility.yul\":5997:6019   */\n      lt\n        /* \"#utility.yul\":5976:5994   */\n      0xffffffffffffffff\n        /* \"#utility.yul\":5964:5974   */\n      dup3\n        /* \"#utility.yul\":5961:5995   */\n      gt\n        /* \"#utility.yul\":5958:6020   */\n      or\n        /* \"#utility.yul\":5955:6043   */\n      iszero\n      tag_258\n      jumpi\n        /* \"#utility.yul\":6023:6041   */\n      tag_259\n      tag_162\n      jump\t// in\n    tag_259:\n        /* \"#utility.yul\":5955:6043   */\n    tag_258:\n        /* \"#utility.yul\":6063:6073   */\n      dup1\n        /* \"#utility.yul\":6059:6061   */\n      0x40\n        /* \"#utility.yul\":6052:6074   */\n      mstore\n        /* \"#utility.yul\":5842:6080   */\n      pop\n        /* \"#utility.yul\":5799:6080   */\n      pop\n      pop\n      jump\t// out\n        /* \"#utility.yul\":6086:6215   */\n    tag_164:\n        /* \"#utility.yul\":6120:6126   */\n      0x00\n        /* \"#utility.yul\":6147:6167   */\n      tag_261\n      tag_146\n      jump\t// in\n    tag_261:\n        /* \"#utility.yul\":6137:6167   */\n      swap1\n      pop\n        /* \"#utility.yul\":6176:6209   */\n      tag_262\n        /* \"#utility.yul\":6204:6208   */\n      dup3\n        /* \"#utility.yul\":6196:6202   */\n      dup3\n        /* \"#utility.yul\":6176:6209   */\n      tag_163\n      jump\t// in\n    tag_262:\n        /* \"#utility.yul\":6086:6215   */\n      swap2\n      swap1\n      pop\n      jump\t// out\n        /* \"#utility.yul\":6221:6529   */\n    tag_165:\n        /* \"#utility.yul\":6283:6287   */\n      0x00\n        /* \"#utility.yul\":6373:6391   */\n      0xffffffffffffffff\n        /* \"#utility.yul\":6365:6371   */\n      dup3\n        /* \"#utility.yul\":6362:6392   */\n      gt\n        /* \"#utility.yul\":6359:6415   */\n      iszero\n      tag_264\n      jumpi\n        /* \"#utility.yul\":6395:6413   */\n      tag_265\n      tag_162\n      jump\t// in\n    tag_265:\n        /* \"#utility.yul\":6359:6415   */\n    tag_264:\n        /* \"#utility.yul\":6433:6462   */\n      tag_266\n        /* \"#utility.yul\":6455:6461   */\n      dup3\n        /* \"#utility.yul\":6433:6462   */\n      tag_144\n      jump\t// in\n    tag_266:\n        /* \"#utility.yul\":6425:6462   */\n      swap1\n      pop\n        /* \"#utility.yul\":6517:6521   */\n      0x20\n        /* \"#utility.yul\":6511:6515   */\n      dup2\n        /* \"#utility.yul\":6507:6522   */\n      add\n        /* \"#utility.yul\":6499:6522   */\n      swap1\n      pop\n        /* \"#utility.yul\":6221:6529   */\n      swap2\n      swap1\n      pop\n      jump\t// out\n        /* \"#utility.yul\":6535:6683   */\n    tag_166:\n        /* \"#utility.yul\":6633:6639   */\n      dup3\n        /* \"#utility.yul\":6628:6631   */\n      dup2\n        /* \"#utility.yul\":6623:6626   */\n      dup4\n        /* \"#utility.yul\":6610:6640   */\n      calldatacopy\n        /* \"#utility.yul\":6674:6675   */\n      0x00\n        /* \"#utility.yul\":6665:6671   */\n      dup4\n        /* \"#utility.yul\":6660:6663   */\n      dup4\n        /* \"#utility.yul\":6656:6672   */\n      add\n        /* \"#utility.yul\":6649:6676   */\n      mstore\n        /* \"#utility.yul\":6535:6683   */\n      pop\n      pop\n      pop\n      jump\t// out\n        /* \"#utility.yul\":6689:7114   */\n    tag_167:\n        /* \"#utility.yul\":6767:6772   */\n      0x00\n        /* \"#utility.yul\":6792:6858   */\n      tag_269\n        /* \"#utility.yul\":6808:6857   */\n      tag_270\n        /* \"#utility.yul\":6850:6856   */\n      dup5\n        /* \"#utility.yul\":6808:6857   */\n      tag_165\n      jump\t// in\n    tag_270:\n        /* \"#utility.yul\":6792:6858   */\n      tag_164\n      jump\t// in\n    tag_269:\n        /* \"#utility.yul\":6783:6858   */\n      swap1\n      pop\n        /* \"#utility.yul\":6881:6887   */\n      dup3\n        /* \"#utility.yul\":6874:6879   */\n      dup2\n        /* \"#utility.yul\":6867:6888   */\n      mstore\n        /* \"#utility.yul\":6919:6923   */\n      0x20\n        /* \"#utility.yul\":6912:6917   */\n      dup2\n        /* \"#utility.yul\":6908:6924   */\n      add\n        /* \"#utility.yul\":6957:6960   */\n      dup5\n        /* \"#utility.yul\":6948:6954   */\n      dup5\n        /* \"#utility.yul\":6943:6946   */\n      dup5\n        /* \"#utility.yul\":6939:6955   */\n      add\n        /* \"#utility.yul\":6936:6961   */\n      gt\n        /* \"#utility.yul\":6933:7045   */\n      iszero\n      tag_271\n      jumpi\n        /* \"#utility.yul\":6964:7043   */\n      tag_272\n      tag_161\n      jump\t// in\n    tag_272:\n        /* \"#utility.yul\":6933:7045   */\n    tag_271:\n        /* \"#utility.yul\":7054:7108   */\n      tag_273\n        /* \"#utility.yul\":7101:7107   */\n      dup5\n        /* \"#utility.yul\":7096:7099   */\n      dup3\n        /* \"#utility.yul\":7091:7094   */\n      dup6\n        /* \"#utility.yul\":7054:7108   */\n      tag_166\n      jump\t// in\n    tag_273:\n        /* \"#utility.yul\":6773:7114   */\n      pop\n        /* \"#utility.yul\":6689:7114   */\n      swap4\n      swap3\n      pop\n      pop\n      pop\n      jump\t// out\n        /* \"#utility.yul\":7134:7474   */\n    tag_168:\n        /* \"#utility.yul\":7190:7195   */\n      0x00\n        /* \"#utility.yul\":7239:7242   */\n      dup3\n        /* \"#utility.yul\":7232:7236   */\n      0x1f\n        /* \"#utility.yul\":7224:7230   */\n      dup4\n        /* \"#utility.yul\":7220:7237   */\n      add\n        /* \"#utility.yul\":7216:7243   */\n      slt\n        /* \"#utility.yul\":7206:7328   */\n      tag_275\n      jumpi\n        /* \"#utility.yul\":7247:7326   */\n      tag_276\n      tag_160\n      jump\t// in\n    tag_276:\n        /* \"#utility.yul\":7206:7328   */\n    tag_275:\n        /* \"#utility.yul\":7364:7370   */\n      dup2\n        /* \"#utility.yul\":7351:7371   */\n      calldataload\n        /* \"#utility.yul\":7389:7468   */\n      tag_277\n        /* \"#utility.yul\":7464:7467   */\n      dup5\n        /* \"#utility.yul\":7456:7462   */\n      dup3\n        /* \"#utility.yul\":7449:7453   */\n      0x20\n        /* \"#utility.yul\":7441:7447   */\n      dup7\n        /* \"#utility.yul\":7437:7454   */\n      add\n        /* \"#utility.yul\":7389:7468   */\n      tag_167\n      jump\t// in\n    tag_277:\n        /* \"#utility.yul\":7380:7468   */\n      swap2\n      pop\n        /* \"#utility.yul\":7196:7474   */\n      pop\n        /* \"#utility.yul\":7134:7474   */\n      swap3\n      swap2\n      pop\n      pop\n      jump\t// out\n        /* \"#utility.yul\":7480:8279   */\n    tag_67:\n        /* \"#utility.yul\":7567:7573   */\n      0x00\n        /* \"#utility.yul\":7575:7581   */\n      0x00\n        /* \"#utility.yul\":7583:7589   */\n      0x00\n        /* \"#utility.yul\":7632:7634   */\n      0x60\n        /* \"#utility.yul\":7620:7629   */\n      dup5\n        /* \"#utility.yul\":7611:7618   */\n      dup7\n        /* \"#utility.yul\":7607:7630   */\n      sub\n        /* \"#utility.yul\":7603:7635   */\n      slt\n        /* \"#utility.yul\":7600:7719   */\n      iszero\n      tag_279\n      jumpi\n        /* \"#utility.yul\":7638:7717   */\n      tag_280\n      tag_147\n      jump\t// in\n    tag_280:\n        /* \"#utility.yul\":7600:7719   */\n    tag_279:\n        /* \"#utility.yul\":7758:7759   */\n      0x00\n        /* \"#utility.yul\":7783:7836   */\n      tag_281\n        /* \"#utility.yul\":7828:7835   */\n      dup7\n        /* \"#utility.yul\":7819:7825   */\n      dup3\n        /* \"#utility.yul\":7808:7817   */\n      dup8\n        /* \"#utility.yul\":7804:7826   */\n      add\n        /* \"#utility.yul\":7783:7836   */\n      tag_151\n      jump\t// in\n    tag_281:\n        /* \"#utility.yul\":7773:7836   */\n      swap4\n      pop\n        /* \"#utility.yul\":7729:7846   */\n      pop\n        /* \"#utility.yul\":7913:7915   */\n      0x20\n        /* \"#utility.yul\":7902:7911   */\n      dup5\n        /* \"#utility.yul\":7898:7916   */\n      add\n        /* \"#utility.yul\":7885:7917   */\n      calldataload\n        /* \"#utility.yul\":7944:7962   */\n      0xffffffffffffffff\n        /* \"#utility.yul\":7936:7942   */\n      dup2\n        /* \"#utility.yul\":7933:7963   */\n      gt\n        /* \"#utility.yul\":7930:8047   */\n      iszero\n      tag_282\n      jumpi\n        /* \"#utility.yul\":7966:8045   */\n      tag_283\n      tag_148\n      jump\t// in\n    tag_283:\n        /* \"#utility.yul\":7930:8047   */\n    tag_282:\n        /* \"#utility.yul\":8071:8134   */\n      tag_284\n        /* \"#utility.yul\":8126:8133   */\n      dup7\n        /* \"#utility.yul\":8117:8123   */\n      dup3\n        /* \"#utility.yul\":8106:8115   */\n      dup8\n        /* \"#utility.yul\":8102:8124   */\n      add\n        /* \"#utility.yul\":8071:8134   */\n      tag_168\n      jump\t// in\n    tag_284:\n        /* \"#utility.yul\":8061:8134   */\n      swap3\n      pop\n        /* \"#utility.yul\":7856:8144   */\n      pop\n        /* \"#utility.yul\":8183:8185   */\n      0x40\n        /* \"#utility.yul\":8209:8262   */\n      tag_285\n        /* \"#utility.yul\":8254:8261   */\n      dup7\n        /* \"#utility.yul\":8245:8251   */\n      dup3\n        /* \"#utility.yul\":8234:8243   */\n      dup8\n        /* \"#utility.yul\":8230:8252   */\n      add\n        /* \"#utility.yul\":8209:8262   */\n      tag_151\n      jump\t// in\n    tag_285:\n        /* \"#utility.yul\":8199:8262   */\n      swap2\n      pop\n        /* \"#utility.yul\":8154:8272   */\n      pop\n        /* \"#utility.yul\":7480:8279   */\n      swap3\n      pop\n      swap3\n      pop\n      swap3\n      jump\t// out\n        /* \"#utility.yul\":8285:8465   */\n    tag_169:\n        /* \"#utility.yul\":8333:8410   */\n      0x4e487b7100000000000000000000000000000000000000000000000000000000\n        /* \"#utility.yul\":8330:8331   */\n      0x00\n        /* \"#utility.yul\":8323:8411   */\n      mstore\n        /* \"#utility.yul\":8430:8434   */\n      0x22\n        /* \"#utility.yul\":8427:8428   */\n      0x04\n        /* \"#utility.yul\":8420:8435   */\n      mstore\n        /* \"#utility.yul\":8454:8458   */\n      0x24\n        /* \"#utility.yul\":8451:8452   */\n      0x00\n        /* \"#utility.yul\":8444:8459   */\n      revert\n        /* \"#utility.yul\":8471:8791   */\n    tag_70:\n        /* \"#utility.yul\":8515:8521   */\n      0x00\n        /* \"#utility.yul\":8552:8553   */\n      0x02\n        /* \"#utility.yul\":8546:8550   */\n      dup3\n        /* \"#utility.yul\":8542:8554   */\n      div\n        /* \"#utility.yul\":8532:8554   */\n      swap1\n      pop\n        /* \"#utility.yul\":8599:8600   */\n      0x01\n        /* \"#utility.yul\":8593:8597   */\n      dup3\n        /* \"#utility.yul\":8589:8601   */\n      and\n        /* \"#utility.yul\":8620:8638   */\n      dup1\n        /* \"#utility.yul\":8610:8691   */\n      tag_288\n      jumpi\n        /* \"#utility.yul\":8676:8680   */\n      0x7f\n        /* \"#utility.yul\":8668:8674   */\n      dup3\n        /* \"#utility.yul\":8664:8681   */\n      and\n        /* \"#utility.yul\":8654:8681   */\n      swap2\n      pop\n        /* \"#utility.yul\":8610:8691   */\n    tag_288:\n        /* \"#utility.yul\":8738:8740   */\n      0x20\n        /* \"#utility.yul\":8730:8736   */\n      dup3\n        /* \"#utility.yul\":8727:8741   */\n      lt\n        /* \"#utility.yul\":8707:8725   */\n      dup2\n        /* \"#utility.yul\":8704:8742   */\n      sub\n        /* \"#utility.yul\":8701:8785   */\n      tag_289\n      jumpi\n        /* \"#utility.yul\":8757:8775   */\n      tag_290\n      tag_169\n      jump\t// in\n    tag_290:\n        /* \"#utility.yul\":8701:8785   */\n    tag_289:\n        /* \"#utility.yul\":8522:8791   */\n      pop\n        /* \"#utility.yul\":8471:8791   */\n      swap2\n      swap1\n      pop\n      jump\t// out\n        /* \"#utility.yul\":8797:8972   */\n    tag_170:\n        /* \"#utility.yul\":8937:8964   */\n      0x53747564656e7420696420646f6573206e6f7420657869737400000000000000\n        /* \"#utility.yul\":8933:8934   */\n      0x00\n        /* \"#utility.yul\":8925:8931   */\n      dup3\n        /* \"#utility.yul\":8921:8935   */\n      add\n        /* \"#utility.yul\":8914:8965   */\n      mstore\n        /* \"#utility.yul\":8797:8972   */\n      pop\n      jump\t// out\n        /* \"#utility.yul\":8978:9344   */\n    tag_171:\n        /* \"#utility.yul\":9120:9123   */\n      0x00\n        /* \"#utility.yul\":9141:9208   */\n      tag_293\n        /* \"#utility.yul\":9205:9207   */\n      0x19\n        /* \"#utility.yul\":9200:9203   */\n      dup4\n        /* \"#utility.yul\":9141:9208   */\n      tag_142\n      jump\t// in\n    tag_293:\n        /* \"#utility.yul\":9134:9208   */\n      swap2\n      pop\n        /* \"#utility.yul\":9217:9310   */\n      tag_294\n        /* \"#utility.yul\":9306:9309   */\n      dup3\n        /* \"#utility.yul\":9217:9310   */\n      tag_170\n      jump\t// in\n    tag_294:\n        /* \"#utility.yul\":9335:9337   */\n      0x20\n        /* \"#utility.yul\":9330:9333   */\n      dup3\n        /* \"#utility.yul\":9326:9338   */\n      add\n        /* \"#utility.yul\":9319:9338   */\n      swap1\n      pop\n        /* \"#utility.yul\":8978:9344   */\n      swap2\n      swap1\n      pop\n      jump\t// out\n        /* \"#utility.yul\":9350:9769   */\n    tag_84:\n        /* \"#utility.yul\":9516:9520   */\n      0x00\n        /* \"#utility.yul\":9554:9556   */\n      0x20\n        /* \"#utility.yul\":9543:9552   */\n      dup3\n        /* \"#utility.yul\":9539:9557   */\n      add\n        /* \"#utility.yul\":9531:9557   */\n      swap1\n      pop\n        /* \"#utility.yul\":9603:9612   */\n      dup2\n        /* \"#utility.yul\":9597:9601   */\n      dup2\n        /* \"#utility.yul\":9593:9613   */\n      sub\n        /* \"#utility.yul\":9589:9590   */\n      0x00\n        /* \"#utility.yul\":9578:9587   */\n      dup4\n        /* \"#utility.yul\":9574:9591   */\n      add\n        /* \"#utility.yul\":9567:9614   */\n      mstore\n        /* \"#utility.yul\":9631:9762   */\n      tag_296\n        /* \"#utility.yul\":9757:9761   */\n      dup2\n        /* \"#utility.yul\":9631:9762   */\n      tag_171\n      jump\t// in\n    tag_296:\n        /* \"#utility.yul\":9623:9762   */\n      swap1\n      pop\n        /* \"#utility.yul\":9350:9769   */\n      swap2\n      swap1\n      pop\n      jump\t// out\n        /* \"#utility.yul\":9775:9936   */\n    tag_172:\n        /* \"#utility.yul\":9915:9928   */\n      0x536f727279206265206269000000000000000000000000000000000000000000\n        /* \"#utility.yul\":9911:9912   */\n      0x00\n        /* \"#utility.yul\":9903:9909   */\n      dup3\n        /* \"#utility.yul\":9899:9913   */\n      add\n        /* \"#utility.yul\":9892:9929   */\n      mstore\n        /* \"#utility.yul\":9775:9936   */\n      pop\n      jump\t// out\n        /* \"#utility.yul\":9942:10308   */\n    tag_173:\n        /* \"#utility.yul\":10084:10087   */\n      0x00\n        /* \"#utility.yul\":10105:10172   */\n      tag_299\n        /* \"#utility.yul\":10169:10171   */\n      0x0b\n        /* \"#utility.yul\":10164:10167   */\n      dup4\n        /* \"#utility.yul\":10105:10172   */\n      tag_142\n      jump\t// in\n    tag_299:\n        /* \"#utility.yul\":10098:10172   */\n      swap2\n      pop\n        /* \"#utility.yul\":10181:10274   */\n      tag_300\n        /* \"#utility.yul\":10270:10273   */\n      dup3\n        /* \"#utility.yul\":10181:10274   */\n      tag_172\n      jump\t// in\n    tag_300:\n        /* \"#utility.yul\":10299:10301   */\n      0x20\n        /* \"#utility.yul\":10294:10297   */\n      dup3\n        /* \"#utility.yul\":10290:10302   */\n      add\n        /* \"#utility.yul\":10283:10302   */\n      swap1\n      pop\n        /* \"#utility.yul\":9942:10308   */\n      swap2\n      swap1\n      pop\n      jump\t// out\n        /* \"#utility.yul\":10314:10733   */\n    tag_88:\n        /* \"#utility.yul\":10480:10484   */\n      0x00\n        /* \"#utility.yul\":10518:10520   */\n      0x20\n        /* \"#utility.yul\":10507:10516   */\n      dup3\n        /* \"#utility.yul\":10503:10521   */\n      add\n        /* \"#utility.yul\":10495:10521   */\n      swap1\n      pop\n        /* \"#utility.yul\":10567:10576   */\n      dup2\n        /* \"#utility.yul\":10561:10565   */\n      dup2\n        /* \"#utility.yul\":10557:10577   */\n      sub\n        /* \"#utility.yul\":10553:10554   */\n      0x00\n        /* \"#utility.yul\":10542:10551   */\n      dup4\n        /* \"#utility.yul\":10538:10555   */\n      add\n        /* \"#utility.yul\":10531:10578   */\n      mstore\n        /* \"#utility.yul\":10595:10726   */\n      tag_302\n        /* \"#utility.yul\":10721:10725   */\n      dup2\n        /* \"#utility.yul\":10595:10726   */\n      tag_173\n      jump\t// in\n    tag_302:\n        /* \"#utility.yul\":10587:10726   */\n      swap1\n      pop\n        /* \"#utility.yul\":10314:10733   */\n      swap2\n      swap1\n      pop\n      jump\t// out\n        /* \"#utility.yul\":10739:10880   */\n    tag_174:\n        /* \"#utility.yul\":10788:10792   */\n      0x00\n        /* \"#utility.yul\":10811:10814   */\n      dup2\n        /* \"#utility.yul\":10803:10814   */\n      swap1\n      pop\n        /* \"#utility.yul\":10834:10837   */\n      dup2\n        /* \"#utility.yul\":10831:10832   */\n      0x00\n        /* \"#utility.yul\":10824:10838   */\n      mstore\n        /* \"#utility.yul\":10868:10872   */\n      0x20\n        /* \"#utility.yul\":10865:10866   */\n      0x00\n        /* \"#utility.yul\":10855:10873   */\n      keccak256\n        /* \"#utility.yul\":10847:10873   */\n      swap1\n      pop\n        /* \"#utility.yul\":10739:10880   */\n      swap2\n      swap1\n      pop\n      jump\t// out\n        /* \"#utility.yul\":10886:10979   */\n    tag_175:\n        /* \"#utility.yul\":10923:10929   */\n      0x00\n        /* \"#utility.yul\":10970:10972   */\n      0x20\n        /* \"#utility.yul\":10965:10967   */\n      0x1f\n        /* \"#utility.yul\":10958:10963   */\n      dup4\n        /* \"#utility.yul\":10954:10968   */\n      add\n        /* \"#utility.yul\":10950:10973   */\n      div\n        /* \"#utility.yul\":10940:10973   */\n      swap1\n      pop\n        /* \"#utility.yul\":10886:10979   */\n      swap2\n      swap1\n      pop\n      jump\t// out\n        /* \"#utility.yul\":10985:11092   */\n    tag_176:\n        /* \"#utility.yul\":11029:11037   */\n      0x00\n        /* \"#utility.yul\":11079:11084   */\n      dup3\n        /* \"#utility.yul\":11073:11077   */\n      dup3\n        /* \"#utility.yul\":11069:11085   */\n      shl\n        /* \"#utility.yul\":11048:11085   */\n      swap1\n      pop\n        /* \"#utility.yul\":10985:11092   */\n      swap3\n      swap2\n      pop\n      pop\n      jump\t// out\n        /* \"#utility.yul\":11098:11491   */\n    tag_177:\n        /* \"#utility.yul\":11167:11173   */\n      0x00\n        /* \"#utility.yul\":11217:11218   */\n      0x08\n        /* \"#utility.yul\":11205:11215   */\n      dup4\n        /* \"#utility.yul\":11201:11219   */\n      mul\n        /* \"#utility.yul\":11240:11337   */\n      tag_307\n        /* \"#utility.yul\":11270:11336   */\n      0xffffffffffffffffffffffffffffffffffffffffffffffffffffffffffffffff\n        /* \"#utility.yul\":11259:11268   */\n      dup3\n        /* \"#utility.yul\":11240:11337   */\n      tag_176\n      jump\t// in\n    tag_307:\n        /* \"#utility.yul\":11358:11397   */\n      tag_308\n        /* \"#utility.yul\":11388:11396   */\n      dup7\n        /* \"#utility.yul\":11377:11386   */\n      dup4\n        /* \"#utility.yul\":11358:11397   */\n      tag_176\n      jump\t// in\n    tag_308:\n        /* \"#utility.yul\":11346:11397   */\n      swap6\n      pop\n        /* \"#utility.yul\":11430:11434   */\n      dup1\n        /* \"#utility.yul\":11426:11435   */\n      not\n        /* \"#utility.yul\":11419:11424   */\n      dup5\n        /* \"#utility.yul\":11415:11436   */\n      and\n        /* \"#utility.yul\":11406:11436   */\n      swap4\n      pop\n        /* \"#utility.yul\":11479:11483   */\n      dup1\n        /* \"#utility.yul\":11469:11477   */\n      dup7\n        /* \"#utility.yul\":11465:11484   */\n      and\n        /* \"#utility.yul\":11458:11463   */\n      dup5\n        /* \"#utility.yul\":11455:11485   */\n      or\n        /* \"#utility.yul\":11445:11485   */\n      swap3\n      pop\n        /* \"#utility.yul\":11174:11491   */\n      pop\n      pop\n        /* \"#utility.yul\":11098:11491   */\n      swap4\n      swap3\n      pop\n      pop\n      pop\n      jump\t// out\n        /* \"#utility.yul\":11497:11557   */\n    tag_178:\n        /* \"#utility.yul\":11525:11528   */\n      0x00\n        /* \"#utility.yul\":11546:11551   */\n      dup2\n        /* \"#utility.yul\":11539:11551   */\n      swap1\n      pop\n        /* \"#utility.yul\":11497:11557   */\n      swap2\n      swap1\n      pop\n      jump\t// out\n        /* \"#utility.yul\":11563:11705   */\n    tag_179:\n        /* \"#utility.yul\":11613:11622   */\n      0x00\n        /* \"#utility.yul\":11646:11699   */\n      tag_311\n        /* \"#utility.yul\":11664:11698   */\n      tag_312\n        /* \"#utility.yul\":11673:11697   */\n      tag_313\n        /* \"#utility.yul\":11691:11696   */\n      dup5\n        /* \"#utility.yul\":11673:11697   */\n      tag_149\n      jump\t// in\n    tag_313:\n        /* \"#utility.yul\":11664:11698   */\n      tag_178\n      jump\t// in\n    tag_312:\n        /* \"#utility.yul\":11646:11699   */\n      tag_149\n      jump\t// in\n    tag_311:\n        /* \"#utility.yul\":11633:11699   */\n      swap1\n      pop\n        /* \"#utility.yul\":11563:11705   */\n      swap2\n      swap1\n      pop\n      jump\t// out\n        /* \"#utility.yul\":11711:11786   */\n    tag_180:\n        /* \"#utility.yul\":11754:11757   */\n      0x00\n        /* \"#utility.yul\":11775:11780   */\n      dup2\n        /* \"#utility.yul\":11768:11780   */\n      swap1\n      pop\n        /* \"#utility.yul\":11711:11786   */\n      swap2\n      swap1\n      pop\n      jump\t// out\n        /* \"#utility.yul\":11792:12061   */\n    tag_181:\n        /* \"#utility.yul\":11902:11941   */\n      tag_316\n        /* \"#utility.yul\":11933:11940   */\n      dup4\n        /* \"#utility.yul\":11902:11941   */\n      tag_179\n      jump\t// in\n    tag_316:\n        /* \"#utility.yul\":11963:12054   */\n      tag_317\n        /* \"#utility.yul\":12012:12053   */\n      tag_318\n        /* \"#utility.yul\":12036:12052   */\n      dup3\n        /* \"#utility.yul\":12012:12053   */\n      tag_180\n      jump\t// in\n    tag_318:\n        /* \"#utility.yul\":12004:12010   */\n      dup5\n        /* \"#utility.yul\":11997:12001   */\n      dup5\n        /* \"#utility.yul\":11991:12002   */\n      sload\n        /* \"#utility.yul\":11963:12054   */\n      tag_177\n      jump\t// in\n    tag_317:\n        /* \"#utility.yul\":11957:11961   */\n      dup3\n        /* \"#utility.yul\":11950:12055   */\n      sstore\n        /* \"#utility.yul\":11868:12061   */\n      pop\n        /* \"#utility.yul\":11792:12061   */\n      pop\n      pop\n      pop\n      jump\t// out\n        /* \"#utility.yul\":12067:12140   */\n    tag_182:\n        /* \"#utility.yul\":12112:12115   */\n      0x00\n        /* \"#utility.yul\":12133:12134   */\n      0x00\n        /* \"#utility.yul\":12126:12134   */\n      swap1\n      pop\n        /* \"#utility.yul\":12067:12140   */\n      swap1\n      jump\t// out\n        /* \"#utility.yul\":12146:12335   */\n    tag_183:\n        /* \"#utility.yul\":12223:12255   */\n      tag_321\n      tag_182\n      jump\t// in\n    tag_321:\n        /* \"#utility.yul\":12264:12329   */\n      tag_322\n        /* \"#utility.yul\":12322:12328   */\n      dup2\n        /* \"#utility.yul\":12314:12320   */\n      dup5\n        /* \"#utility.yul\":12308:12312   */\n      dup5\n        /* \"#utility.yul\":12264:12329   */\n      tag_181\n      jump\t// in\n    tag_322:\n        /* \"#utility.yul\":12199:12335   */\n      pop\n        /* \"#utility.yul\":12146:12335   */\n      pop\n      pop\n      jump\t// out\n        /* \"#utility.yul\":12341:12527   */\n    tag_184:\n        /* \"#utility.yul\":12401:12521   */\n    tag_324:\n        /* \"#utility.yul\":12418:12421   */\n      dup2\n        /* \"#utility.yul\":12411:12416   */\n      dup2\n        /* \"#utility.yul\":12408:12422   */\n      lt\n        /* \"#utility.yul\":12401:12521   */\n      iszero\n      tag_326\n      jumpi\n        /* \"#utility.yul\":12472:12511   */\n      tag_327\n        /* \"#utility.yul\":12509:12510   */\n      0x00\n        /* \"#utility.yul\":12502:12507   */\n      dup3\n        /* \"#utility.yul\":12472:12511   */\n      tag_183\n      jump\t// in\n    tag_327:\n        /* \"#utility.yul\":12445:12446   */\n      0x01\n        /* \"#utility.yul\":12438:12443   */\n      dup2\n        /* \"#utility.yul\":12434:12447   */\n      add\n        /* \"#utility.yul\":12425:12447   */\n      swap1\n      pop\n        /* \"#utility.yul\":12401:12521   */\n      jump(tag_324)\n    tag_326:\n        /* \"#utility.yul\":12341:12527   */\n      pop\n      pop\n      jump\t// out\n        /* \"#utility.yul\":12533:13076   */\n    tag_185:\n        /* \"#utility.yul\":12634:12636   */\n      0x1f\n        /* \"#utility.yul\":12629:12632   */\n      dup3\n        /* \"#utility.yul\":12626:12637   */\n      gt\n        /* \"#utility.yul\":12623:13069   */\n      iszero\n      tag_329\n      jumpi\n        /* \"#utility.yul\":12668:12706   */\n      tag_330\n        /* \"#utility.yul\":12700:12705   */\n      dup2\n        /* \"#utility.yul\":12668:12706   */\n      tag_174\n      jump\t// in\n    tag_330:\n        /* \"#utility.yul\":12752:12781   */\n      tag_331\n        /* \"#utility.yul\":12770:12780   */\n      dup5\n        /* \"#utility.yul\":12752:12781   */\n      tag_175\n      jump\t// in\n    tag_331:\n        /* \"#utility.yul\":12742:12750   */\n      dup2\n        /* \"#utility.yul\":12738:12782   */\n      add\n        /* \"#utility.yul\":12935:12937   */\n      0x20\n        /* \"#utility.yul\":12923:12933   */\n      dup6\n        /* \"#utility.yul\":12920:12938   */\n      lt\n        /* \"#utility.yul\":12917:12966   */\n      iszero\n      tag_332\n      jumpi\n        /* \"#utility.yul\":12956:12964   */\n      dup2\n        /* \"#utility.yul\":12941:12964   */\n      swap1\n      pop\n        /* \"#utility.yul\":12917:12966   */\n    tag_332:\n        /* \"#utility.yul\":12979:13059   */\n      tag_333\n        /* \"#utility.yul\":13035:13057   */\n      tag_334\n        /* \"#utility.yul\":13053:13056   */\n      dup6\n        /* \"#utility.yul\":13035:13057   */\n      tag_175\n      jump\t// in\n    tag_334:\n        /* \"#utility.yul\":13025:13033   */\n      dup4\n        /* \"#utility.yul\":13021:13058   */\n      add\n        /* \"#utility.yul\":13008:13019   */\n      dup3\n        /* \"#utility.yul\":12979:13059   */\n      tag_184\n      jump\t// in\n    tag_333:\n        /* \"#utility.yul\":12638:13069   */\n      pop\n      pop\n        /* \"#utility.yul\":12623:13069   */\n    tag_329:\n        /* \"#utility.yul\":12533:13076   */\n      pop\n      pop\n      pop\n      jump\t// out\n        /* \"#utility.yul\":13082:13199   */\n    tag_186:\n        /* \"#utility.yul\":13136:13144   */\n      0x00\n        /* \"#utility.yul\":13186:13191   */\n      dup3\n        /* \"#utility.yul\":13180:13184   */\n      dup3\n        /* \"#utility.yul\":13176:13192   */\n      shr\n        /* \"#utility.yul\":13155:13192   */\n      swap1\n      pop\n        /* \"#utility.yul\":13082:13199   */\n      swap3\n      swap2\n      pop\n      pop\n      jump\t// out\n        /* \"#utility.yul\":13205:13374   */\n    tag_187:\n        /* \"#utility.yul\":13249:13255   */\n      0x00\n        /* \"#utility.yul\":13282:13333   */\n      tag_337\n        /* \"#utility.yul\":13330:13331   */\n      0x00\n        /* \"#utility.yul\":13326:13332   */\n      not\n        /* \"#utility.yul\":13318:13323   */\n      dup5\n        /* \"#utility.yul\":13315:13316   */\n      0x08\n        /* \"#utility.yul\":13311:13324   */\n      mul\n        /* \"#utility.yul\":13282:13333   */\n      tag_186\n      jump\t// in\n    tag_337:\n        /* \"#utility.yul\":13278:13334   */\n      not\n        /* \"#utility.yul\":13363:13367   */\n      dup1\n        /* \"#utility.yul\":13357:13361   */\n      dup4\n        /* \"#utility.yul\":13353:13368   */\n      and\n        /* \"#utility.yul\":13343:13368   */\n      swap2\n      pop\n        /* \"#utility.yul\":13256:13374   */\n      pop\n        /* \"#utility.yul\":13205:13374   */\n      swap3\n      swap2\n      pop\n      pop\n      jump\t// out\n        /* \"#utility.yul\":13379:13674   */\n    tag_188:\n        /* \"#utility.yul\":13455:13459   */\n      0x00\n        /* \"#utility.yul\":13601:13630   */\n      tag_339\n        /* \"#utility.yul\":13626:13629   */\n      dup4\n        /* \"#utility.yul\":13620:13624   */\n      dup4\n        /* \"#utility.yul\":13601:13630   */\n      tag_187\n      jump\t// in\n    tag_339:\n        /* \"#utility.yul\":13593:13630   */\n      swap2\n      pop\n        /* \"#utility.yul\":13663:13666   */\n      dup3\n        /* \"#utility.yul\":13660:13661   */\n      0x02\n        /* \"#utility.yul\":13656:13667   */\n      mul\n        /* \"#utility.yul\":13650:13654   */\n      dup3\n        /* \"#utility.yul\":13647:13668   */\n      or\n        /* \"#utility.yul\":13639:13668   */\n      swap1\n      pop\n        /* \"#utility.yul\":13379:13674   */\n      swap3\n      swap2\n      pop\n      pop\n      jump\t// out\n        /* \"#utility.yul\":13679:15074   */\n    tag_96:\n        /* \"#utility.yul\":13796:13833   */\n      tag_341\n        /* \"#utility.yul\":13829:13832   */\n      dup3\n        /* \"#utility.yul\":13796:13833   */\n      tag_141\n      jump\t// in\n    tag_341:\n        /* \"#utility.yul\":13898:13916   */\n      0xffffffffffffffff\n        /* \"#utility.yul\":13890:13896   */\n      dup2\n        /* \"#utility.yul\":13887:13917   */\n      gt\n        /* \"#utility.yul\":13884:13940   */\n      iszero\n      tag_342\n      jumpi\n        /* \"#utility.yul\":13920:13938   */\n      tag_343\n      tag_162\n      jump\t// in\n    tag_343:\n        /* \"#utility.yul\":13884:13940   */\n    tag_342:\n        /* \"#utility.yul\":13964:14002   */\n      tag_344\n        /* \"#utility.yul\":13996:14000   */\n      dup3\n        /* \"#utility.yul\":13990:14001   */\n      sload\n        /* \"#utility.yul\":13964:14002   */\n      tag_70\n      jump\t// in\n    tag_344:\n        /* \"#utility.yul\":14049:14116   */\n      tag_345\n        /* \"#utility.yul\":14109:14115   */\n      dup3\n        /* \"#utility.yul\":14101:14107   */\n      dup3\n        /* \"#utility.yul\":14095:14099   */\n      dup6\n        /* \"#utility.yul\":14049:14116   */\n      tag_185\n      jump\t// in\n    tag_345:\n        /* \"#utility.yul\":14143:14144   */\n      0x00\n        /* \"#utility.yul\":14167:14171   */\n      0x20\n        /* \"#utility.yul\":14154:14171   */\n      swap1\n      pop\n        /* \"#utility.yul\":14199:14201   */\n      0x1f\n        /* \"#utility.yul\":14191:14197   */\n      dup4\n        /* \"#utility.yul\":14188:14202   */\n      gt\n        /* \"#utility.yul\":14216:14217   */\n      0x01\n        /* \"#utility.yul\":14211:14829   */\n      dup2\n      eq\n      tag_347\n      jumpi\n        /* \"#utility.yul\":14873:14874   */\n      0x00\n        /* \"#utility.yul\":14890:14896   */\n      dup5\n        /* \"#utility.yul\":14887:14964   */\n      iszero\n      tag_348\n      jumpi\n        /* \"#utility.yul\":14939:14948   */\n      dup3\n        /* \"#utility.yul\":14934:14937   */\n      dup8\n        /* \"#utility.yul\":14930:14949   */\n      add\n        /* \"#utility.yul\":14924:14950   */\n      mload\n        /* \"#utility.yul\":14915:14950   */\n      swap1\n      pop\n        /* \"#utility.yul\":14887:14964   */\n    tag_348:\n        /* \"#utility.yul\":14990:15057   */\n      tag_349\n        /* \"#utility.yul\":15050:15056   */\n      dup6\n        /* \"#utility.yul\":15043:15048   */\n      dup3\n        /* \"#utility.yul\":14990:15057   */\n      tag_188\n      jump\t// in\n    tag_349:\n        /* \"#utility.yul\":14984:14988   */\n      dup7\n        /* \"#utility.yul\":14977:15058   */\n      sstore\n        /* \"#utility.yul\":14846:15068   */\n      pop\n        /* \"#utility.yul\":14181:15068   */\n      jump(tag_346)\n        /* \"#utility.yul\":14211:14829   */\n    tag_347:\n        /* \"#utility.yul\":14263:14267   */\n      0x1f\n        /* \"#utility.yul\":14259:14268   */\n      not\n        /* \"#utility.yul\":14251:14257   */\n      dup5\n        /* \"#utility.yul\":14247:14269   */\n      and\n        /* \"#utility.yul\":14297:14334   */\n      tag_350\n        /* \"#utility.yul\":14329:14333   */\n      dup7\n        /* \"#utility.yul\":14297:14334   */\n      tag_174\n      jump\t// in\n    tag_350:\n        /* \"#utility.yul\":14356:14357   */\n      0x00\n        /* \"#utility.yul\":14370:14578   */\n    tag_351:\n        /* \"#utility.yul\":14384:14391   */\n      dup3\n        /* \"#utility.yul\":14381:14382   */\n      dup2\n        /* \"#utility.yul\":14378:14392   */\n      lt\n        /* \"#utility.yul\":14370:14578   */\n      iszero\n      tag_353\n      jumpi\n        /* \"#utility.yul\":14463:14472   */\n      dup5\n        /* \"#utility.yul\":14458:14461   */\n      dup10\n        /* \"#utility.yul\":14454:14473   */\n      add\n        /* \"#utility.yul\":14448:14474   */\n      mload\n        /* \"#utility.yul\":14440:14446   */\n      dup3\n        /* \"#utility.yul\":14433:14475   */\n      sstore\n        /* \"#utility.yul\":14514:14515   */\n      0x01\n        /* \"#utility.yul\":14506:14512   */\n      dup3\n        /* \"#utility.yul\":14502:14516   */\n      add\n        /* \"#utility.yul\":14492:14516   */\n      swap2\n      pop\n        /* \"#utility.yul\":14561:14563   */\n      0x20\n        /* \"#utility.yul\":14550:14559   */\n      dup6\n        /* \"#utility.yul\":14546:14564   */\n      add\n        /* \"#utility.yul\":14533:14564   */\n      swap5\n      pop\n        /* \"#utility.yul\":14407:14411   */\n      0x20\n        /* \"#utility.yul\":14404:14405   */\n      dup2\n        /* \"#utility.yul\":14400:14412   */\n      add\n        /* \"#utility.yul\":14395:14412   */\n      swap1\n      pop\n        /* \"#utility.yul\":14370:14578   */\n      jump(tag_351)\n    tag_353:\n        /* \"#utility.yul\":14606:14612   */\n      dup7\n        /* \"#utility.yul\":14597:14604   */\n      dup4\n        /* \"#utility.yul\":14594:14613   */\n      lt\n        /* \"#utility.yul\":14591:14770   */\n      iszero\n      tag_354\n      jumpi\n        /* \"#utility.yul\":14664:14673   */\n      dup5\n        /* \"#utility.yul\":14659:14662   */\n      dup10\n        /* \"#utility.yul\":14655:14674   */\n      add\n        /* \"#utility.yul\":14649:14675   */\n      mload\n        /* \"#utility.yul\":14707:14755   */\n      tag_355\n        /* \"#utility.yul\":14749:14753   */\n      0x1f\n        /* \"#utility.yul\":14741:14747   */\n      dup10\n        /* \"#utility.yul\":14737:14754   */\n      and\n        /* \"#utility.yul\":14726:14735   */\n      dup3\n        /* \"#utility.yul\":14707:14755   */\n      tag_187\n      jump\t// in\n    tag_355:\n        /* \"#utility.yul\":14699:14705   */\n      dup4\n        /* \"#utility.yul\":14692:14756   */\n      sstore\n        /* \"#utility.yul\":14614:14770   */\n      pop\n        /* \"#utility.yul\":14591:14770   */\n    tag_354:\n        /* \"#utility.yul\":14816:14817   */\n      0x01\n        /* \"#utility.yul\":14812:14813   */\n      0x02\n        /* \"#utility.yul\":14804:14810   */\n      dup9\n        /* \"#utility.yul\":14800:14814   */\n      mul\n        /* \"#utility.yul\":14796:14818   */\n      add\n        /* \"#utility.yul\":14790:14794   */\n      dup9\n        /* \"#utility.yul\":14783:14819   */\n      sstore\n        /* \"#utility.yul\":14218:14829   */\n      pop\n      pop\n      pop\n        /* \"#utility.yul\":14181:15068   */\n    tag_346:\n      pop\n        /* \"#utility.yul\":13771:15074   */\n      pop\n      pop\n      pop\n        /* \"#utility.yul\":13679:15074   */\n      pop\n      pop\n      jump\t// out\n        /* \"#utility.yul\":15080:15255   */\n    tag_189:\n        /* \"#utility.yul\":15220:15247   */\n      0x53747564656e74206861732062656e204c6f636b656421212100000000000000\n        /* \"#utility.yul\":15216:15217   */\n      0x00\n        /* \"#utility.yul\":15208:15214   */\n      dup3\n        /* \"#utility.yul\":15204:15218   */\n      add\n        /* \"#utility.yul\":15197:15248   */\n      mstore\n        /* \"#utility.yul\":15080:15255   */\n      pop\n      jump\t// out\n        /* \"#utility.yul\":15261:15627   */\n    tag_190:\n        /* \"#utility.yul\":15403:15406   */\n      0x00\n        /* \"#utility.yul\":15424:15491   */\n      tag_358\n        /* \"#utility.yul\":15488:15490   */\n      0x19\n        /* \"#utility.yul\":15483:15486   */\n      dup4\n        /* \"#utility.yul\":15424:15491   */\n      tag_142\n      jump\t// in\n    tag_358:\n        /* \"#utility.yul\":15417:15491   */\n      swap2\n      pop\n        /* \"#utility.yul\":15500:15593   */\n      tag_359\n        /* \"#utility.yul\":15589:15592   */\n      dup3\n        /* \"#utility.yul\":15500:15593   */\n      tag_189\n      jump\t// in\n    tag_359:\n        /* \"#utility.yul\":15618:15620   */\n      0x20\n        /* \"#utility.yul\":15613:15616   */\n      dup3\n        /* \"#utility.yul\":15609:15621   */\n      add\n        /* \"#utility.yul\":15602:15621   */\n      swap1\n      pop\n        /* \"#utility.yul\":15261:15627   */\n      swap2\n      swap1\n      pop\n      jump\t// out\n        /* \"#utility.yul\":15633:16052   */\n    tag_109:\n        /* \"#utility.yul\":15799:15803   */\n      0x00\n        /* \"#utility.yul\":15837:15839   */\n      0x20\n        /* \"#utility.yul\":15826:15835   */\n      dup3\n        /* \"#utility.yul\":15822:15840   */\n      add\n        /* \"#utility.yul\":15814:15840   */\n      swap1\n      pop\n        /* \"#utility.yul\":15886:15895   */\n      dup2\n        /* \"#utility.yul\":15880:15884   */\n      dup2\n        /* \"#utility.yul\":15876:15896   */\n      sub\n        /* \"#utility.yul\":15872:15873   */\n      0x00\n        /* \"#utility.yul\":15861:15870   */\n      dup4\n        /* \"#utility.yul\":15857:15874   */\n      add\n        /* \"#utility.yul\":15850:15897   */\n      mstore\n        /* \"#utility.yul\":15914:16045   */\n      tag_361\n        /* \"#utility.yul\":16040:16044   */\n      dup2\n        /* \"#utility.yul\":15914:16045   */\n      tag_190\n      jump\t// in\n    tag_361:\n        /* \"#utility.yul\":15906:16045   */\n      swap1\n      pop\n        /* \"#utility.yul\":15633:16052   */\n      swap2\n      swap1\n      pop\n      jump\t// out\n        /* \"#utility.yul\":16058:16238   */\n    tag_191:\n        /* \"#utility.yul\":16106:16183   */\n      0x4e487b7100000000000000000000000000000000000000000000000000000000\n        /* \"#utility.yul\":16103:16104   */\n      0x00\n        /* \"#utility.yul\":16096:16184   */\n      mstore\n        /* \"#utility.yul\":16203:16207   */\n      0x11\n        /* \"#utility.yul\":16200:16201   */\n      0x04\n        /* \"#utility.yul\":16193:16208   */\n      mstore\n        /* \"#utility.yul\":16227:16231   */\n      0x24\n        /* \"#utility.yul\":16224:16225   */\n      0x00\n        /* \"#utility.yul\":16217:16232   */\n      revert\n        /* \"#utility.yul\":16244:16411   */\n    tag_116:\n        /* \"#utility.yul\":16281:16284   */\n      0x00\n        /* \"#utility.yul\":16304:16326   */\n      tag_364\n        /* \"#utility.yul\":16320:16325   */\n      dup3\n        /* \"#utility.yul\":16304:16326   */\n      tag_158\n      jump\t// in\n    tag_364:\n        /* \"#utility.yul\":16295:16326   */\n      swap2\n      pop\n        /* \"#utility.yul\":16348:16352   */\n      0x00\n        /* \"#utility.yul\":16341:16346   */\n      dup3\n        /* \"#utility.yul\":16338:16353   */\n      sub\n        /* \"#utility.yul\":16335:16376   */\n      tag_365\n      jumpi\n        /* \"#utility.yul\":16356:16374   */\n      tag_366\n      tag_191\n      jump\t// in\n    tag_366:\n        /* \"#utility.yul\":16335:16376   */\n    tag_365:\n        /* \"#utility.yul\":16403:16404   */\n      0x01\n        /* \"#utility.yul\":16396:16401   */\n      dup3\n        /* \"#utility.yul\":16392:16405   */\n      sub\n        /* \"#utility.yul\":16385:16405   */\n      swap1\n      pop\n        /* \"#utility.yul\":16244:16411   */\n      swap2\n      swap1\n      pop\n      jump\t// out\n        /* \"#utility.yul\":16417:16592   */\n    tag_192:\n        /* \"#utility.yul\":16557:16584   */\n      0x53747564656e7420696420616c72656164792065786973747300000000000000\n        /* \"#utility.yul\":16553:16554   */\n      0x00\n        /* \"#utility.yul\":16545:16551   */\n      dup3\n        /* \"#utility.yul\":16541:16555   */\n      add\n        /* \"#utility.yul\":16534:16585   */\n      mstore\n        /* \"#utility.yul\":16417:16592   */\n      pop\n      jump\t// out\n        /* \"#utility.yul\":16598:16964   */\n    tag_193:\n        /* \"#utility.yul\":16740:16743   */\n      0x00\n        /* \"#utility.yul\":16761:16828   */\n      tag_369\n        /* \"#utility.yul\":16825:16827   */\n      0x19\n        /* \"#utility.yul\":16820:16823   */\n      dup4\n        /* \"#utility.yul\":16761:16828   */\n      tag_142\n      jump\t// in\n    tag_369:\n        /* \"#utility.yul\":16754:16828   */\n      swap2\n      pop\n        /* \"#utility.yul\":16837:16930   */\n      tag_370\n        /* \"#utility.yul\":16926:16929   */\n      dup3\n        /* \"#utility.yul\":16837:16930   */\n      tag_192\n      jump\t// in\n    tag_370:\n        /* \"#utility.yul\":16955:16957   */\n      0x20\n        /* \"#utility.yul\":16950:16953   */\n      dup3\n        /* \"#utility.yul\":16946:16958   */\n      add\n        /* \"#utility.yul\":16939:16958   */\n      swap1\n      pop\n        /* \"#utility.yul\":16598:16964   */\n      swap2\n      swap1\n      pop\n      jump\t// out\n        /* \"#utility.yul\":16970:17389   */\n    tag_126:\n        /* \"#utility.yul\":17136:17140   */\n      0x00\n        /* \"#utility.yul\":17174:17176   */\n      0x20\n        /* \"#utility.yul\":17163:17172   */\n      dup3\n        /* \"#utility.yul\":17159:17177   */\n      add\n        /* \"#utility.yul\":17151:17177   */\n      swap1\n      pop\n        /* \"#utility.yul\":17223:17232   */\n      dup2\n        /* \"#utility.yul\":17217:17221   */\n      dup2\n        /* \"#utility.yul\":17213:17233   */\n      sub\n        /* \"#utility.yul\":17209:17210   */\n      0x00\n        /* \"#utility.yul\":17198:17207   */\n      dup4\n        /* \"#utility.yul\":17194:17211   */\n      add\n        /* \"#utility.yul\":17187:17234   */\n      mstore\n        /* \"#utility.yul\":17251:17382   */\n      tag_372\n        /* \"#utility.yul\":17377:17381   */\n      dup2\n        /* \"#utility.yul\":17251:17382   */\n      tag_193\n      jump\t// in\n    tag_372:\n        /* \"#utility.yul\":17243:17382   */\n      swap1\n      pop\n        /* \"#utility.yul\":16970:17389   */\n      swap2\n      swap1\n      pop\n      jump\t// out\n        /* \"#utility.yul\":17395:17557   */\n    tag_194:\n        /* \"#utility.yul\":17535:17549   */\n      0x416920656d20736f727279210000000000000000000000000000000000000000\n        /* \"#utility.yul\":17531:17532   */\n      0x00\n        /* \"#utility.yul\":17523:17529   */\n      dup3\n        /* \"#utility.yul\":17519:17533   */\n      add\n        /* \"#utility.yul\":17512:17550   */\n      mstore\n        /* \"#utility.yul\":17395:17557   */\n      pop\n      jump\t// out\n        /* \"#utility.yul\":17563:17929   */\n    tag_195:\n        /* \"#utility.yul\":17705:17708   */\n      0x00\n        /* \"#utility.yul\":17726:17793   */\n      tag_375\n        /* \"#utility.yul\":17790:17792   */\n      0x0c\n        /* \"#utility.yul\":17785:17788   */\n      dup4\n        /* \"#utility.yul\":17726:17793   */\n      tag_142\n      jump\t// in\n    tag_375:\n        /* \"#utility.yul\":17719:17793   */\n      swap2\n      pop\n        /* \"#utility.yul\":17802:17895   */\n      tag_376\n        /* \"#utility.yul\":17891:17894   */\n      dup3\n        /* \"#utility.yul\":17802:17895   */\n      tag_194\n      jump\t// in\n    tag_376:\n        /* \"#utility.yul\":17920:17922   */\n      0x20\n        /* \"#utility.yul\":17915:17918   */\n      dup3\n        /* \"#utility.yul\":17911:17923   */\n      add\n        /* \"#utility.yul\":17904:17923   */\n      swap1\n      pop\n        /* \"#utility.yul\":17563:17929   */\n      swap2\n      swap1\n      pop\n      jump\t// out\n        /* \"#utility.yul\":17935:18354   */\n    tag_130:\n        /* \"#utility.yul\":18101:18105   */\n      0x00\n        /* \"#utility.yul\":18139:18141   */\n      0x20\n        /* \"#utility.yul\":18128:18137   */\n      dup3\n        /* \"#utility.yul\":18124:18142   */\n      add\n        /* \"#utility.yul\":18116:18142   */\n      swap1\n      pop\n        /* \"#utility.yul\":18188:18197   */\n      dup2\n        /* \"#utility.yul\":18182:18186   */\n      dup2\n        /* \"#utility.yul\":18178:18198   */\n      sub\n        /* \"#utility.yul\":18174:18175   */\n      0x00\n        /* \"#utility.yul\":18163:18172   */\n      dup4\n        /* \"#utility.yul\":18159:18176   */\n      add\n        /* \"#utility.yul\":18152:18199   */\n      mstore\n        /* \"#utility.yul\":18216:18347   */\n      tag_378\n        /* \"#utility.yul\":18342:18346   */\n      dup2\n        /* \"#utility.yul\":18216:18347   */\n      tag_195\n      jump\t// in\n    tag_378:\n        /* \"#utility.yul\":18208:18347   */\n      swap1\n      pop\n        /* \"#utility.yul\":17935:18354   */\n      swap2\n      swap1\n      pop\n      jump\t// out\n        /* \"#utility.yul\":18360:18527   */\n    tag_133:\n        /* \"#utility.yul\":18397:18400   */\n      0x00\n        /* \"#utility.yul\":18420:18442   */\n      tag_380\n        /* \"#utility.yul\":18436:18441   */\n      dup3\n        /* \"#utility.yul\":18420:18442   */\n      tag_158\n      jump\t// in\n    tag_380:\n        /* \"#utility.yul\":18411:18442   */\n      swap2\n      pop\n        /* \"#utility.yul\":18464:18468   */\n      0xff\n        /* \"#utility.yul\":18457:18462   */\n      dup3\n        /* \"#utility.yul\":18454:18469   */\n      sub\n        /* \"#utility.yul\":18451:18492   */\n      tag_381\n      jumpi\n        /* \"#utility.yul\":18472:18490   */\n      tag_382\n      tag_191\n      jump\t// in\n    tag_382:\n        /* \"#utility.yul\":18451:18492   */\n    tag_381:\n        /* \"#utility.yul\":18519:18520   */\n      0x01\n        /* \"#utility.yul\":18512:18517   */\n      dup3\n        /* \"#utility.yul\":18508:18521   */\n      add\n        /* \"#utility.yul\":18501:18521   */\n      swap1\n      pop\n        /* \"#utility.yul\":18360:18527   */\n      swap2\n      swap1\n      pop\n      jump\t// out\n\n    auxdata: 0xa2646970667358221220ae3b43be2469f2c1163d62f39d0c1b4a585646a470d86f00966ec391b905829864736f6c634300081e0033\n}\n",
				"bytecode": {
					"linkReferences": {},
					"object": "60806040526040518060400160405280600381526020017f43543300000000000000000000000000000000000000000000000000000000008152505f90816100479190610296565b50348015610053575f5ffd5b50610365565b5f81519050919050565b7f4e487b71000000000000000000000000000000000000000000000000000000005f52604160045260245ffd5b7f4e487b71000000000000000000000000000000000000000000000000000000005f52602260045260245ffd5b5f60028204905060018216806100d457607f821691505b6020821081036100e7576100e6610090565b5b50919050565b5f819050815f5260205f209050919050565b5f6020601f8301049050919050565b5f82821b905092915050565b5f600883026101497fffffffffffffffffffffffffffffffffffffffffffffffffffffffffffffffff8261010e565b610153868361010e565b95508019841693508086168417925050509392505050565b5f819050919050565b5f819050919050565b5f61019761019261018d8461016b565b610174565b61016b565b9050919050565b5f819050919050565b6101b08361017d565b6101c46101bc8261019e565b84845461011a565b825550505050565b5f5f905090565b6101db6101cc565b6101e68184846101a7565b505050565b5b81811015610209576101fe5f826101d3565b6001810190506101ec565b5050565b601f82111561024e5761021f816100ed565b610228846100ff565b81016020851015610237578190505b61024b610243856100ff565b8301826101eb565b50505b505050565b5f82821c905092915050565b5f61026e5f1984600802610253565b1980831691505092915050565b5f610286838361025f565b9150826002028217905092915050565b61029f82610059565b67ffffffffffffffff8111156102b8576102b7610063565b5b6102c282546100bd565b6102cd82828561020d565b5f60209050601f8311600181146102fe575f84156102ec578287015190505b6102f6858261027b565b86555061035d565b601f19841661030c866100ed565b5f5b828110156103335784890151825560018201915060208501945060208101905061030e565b86831015610350578489015161034c601f89168261025f565b8355505b6001600288020188555050505b505050505050565b611722806103725f395ff3fe608060405234801561000f575f5ffd5b50600436106100cc575f3560e01c80633f9f42d21161008a5780636af83845116100645780636af83845146102285780636d07826a14610244578063a12046af14610262578063c1bea1db14610280576100cc565b80633f9f42d2146101a85780634f558e79146101c6578063642f9163146101f6576100cc565b8062c51f8c146100d0578063021e1c9e146100ee57806306ead22e1461011e57806313a46f311461015257806324f47e4f1461016e5780632df56fd21461018a575b5f5ffd5b6100d861029c565b6040516100e59190610dee565b60405180910390f35b61010860048036038101906101039190610e52565b610327565b6040516101159190610e97565b60405180910390f35b61013860048036038101906101339190610e52565b610333565b604051610149959493929190610efe565b60405180910390f35b61016c60048036038101906101679190610f56565b610417565b005b61018860048036038101906101839190610e52565b61051d565b005b61019261070b565b60405161019f9190610faf565b60405180910390f35b6101b061071d565b6040516101bd9190610faf565b60405180910390f35b6101e060048036038101906101db9190610e52565b610732565b6040516101ed9190610e97565b60405180910390f35b610210600480360381019061020b9190610e52565b61079d565b60405161021f93929190610fc8565b60405180910390f35b610242600480360381019061023d9190610e52565b6109a6565b005b61024c610aeb565b6040516102599190610e97565b60405180910390f35b61026a610b05565b6040516102779190610e97565b60405180910390f35b61029a60048036038101906102959190611130565b610b1f565b005b5f80546102a8906111c9565b80601f01602080910402602001604051908101604052809291908181526020018280546102d4906111c9565b801561031f5780601f106102f65761010080835404028352916020019161031f565b820191905f5260205f20905b81548152906001019060200180831161030257829003601f168201915b505050505081565b5f601282119050919050565b6001602052805f5260405f205f91509050805f015490806001018054610358906111c9565b80601f0160208091040260200160405190810160405280929190818152602001828054610384906111c9565b80156103cf5780601f106103a6576101008083540402835291602001916103cf565b820191905f5260205f20905b8154815290600101906020018083116103b257829003601f168201915b505050505090806002015490806003015f9054906101000a900473ffffffffffffffffffffffffffffffffffffffff16908060030160149054906101000a900460ff16905085565b5f73ffffffffffffffffffffffffffffffffffffffff1660015f8481526020019081526020015f206003015f9054906101000a900473ffffffffffffffffffffffffffffffffffffffff1673ffffffffffffffffffffffffffffffffffffffff16036104b8576040517f08c379a00000000000000000000000000000000000000000000000000000000081526004016104af90611243565b60405180910390fd5b6104c181610327565b610500576040517f08c379a00000000000000000000000000000000000000000000000000000000081526004016104f7906112ab565b60405180910390fd5b8060015f8481526020019081526020015f20600201819055505050565b5f60015f8381526020019081526020015f206040518060a00160405290815f8201548152602001600182018054610553906111c9565b80601f016020809104026020016040519081016040528092919081815260200182805461057f906111c9565b80156105ca5780601f106105a1576101008083540402835291602001916105ca565b820191905f5260205f20905b8154815290600101906020018083116105ad57829003601f168201915b5050505050815260200160028201548152602001600382015f9054906101000a900473ffffffffffffffffffffffffffffffffffffffff1673ffffffffffffffffffffffffffffffffffffffff1673ffffffffffffffffffffffffffffffffffffffff1681526020016003820160149054906101000a900460ff16151515158152505090508060800151158160800190151590811515815250508060015f8481526020019081526020015f205f820151815f015560208201518160010190816106939190611469565b50604082015181600201556060820151816003015f6101000a81548173ffffffffffffffffffffffffffffffffffffffff021916908373ffffffffffffffffffffffffffffffffffffffff16021790555060808201518160030160146101000a81548160ff0219169083151502179055509050505050565b60025f9054906101000a900460ff1681565b5f60025f9054906101000a900460ff16905090565b5f5f73ffffffffffffffffffffffffffffffffffffffff1660015f8481526020019081526020015f206003015f9054906101000a900473ffffffffffffffffffffffffffffffffffffffff1673ffffffffffffffffffffffffffffffffffffffff1614159050919050565b60605f5f5f60015f8681526020019081526020015f206040518060a00160405290815f82015481526020016001820180546107d7906111c9565b80601f0160208091040260200160405190810160405280929190818152602001828054610803906111c9565b801561084e5780601f106108255761010080835404028352916020019161084e565b820191905f5260205f20905b81548152906001019060200180831161083157829003601f168201915b5050505050815260200160028201548152602001600382015f9054906101000a900473ffffffffffffffffffffffffffffffffffffffff1673ffffffffffffffffffffffffffffffffffffffff1673ffffffffffffffffffffffffffffffffffffffff1681526020016003820160149054906101000a900460ff16151515158152505090505f73ffffffffffffffffffffffffffffffffffffffff16816060015173ffffffffffffffffffffffffffffffffffffffff1603610945576040517f08c379a000000000000000000000000000000000000000000000000000000000815260040161093c90611243565b60405180910390fd5b8060800151610989576040517f08c379a000000000000000000000000000000000000000000000000000000000815260040161098090611582565b60405180910390fd5b806020015181604001518260600151935093509350509193909250565b5f73ffffffffffffffffffffffffffffffffffffffff1660015f8381526020019081526020015f206003015f9054906101000a900473ffffffffffffffffffffffffffffffffffffffff1673ffffffffffffffffffffffffffffffffffffffff1603610a47576040517f08c379a0000000000000000000000000000000000000000000000000000000008152600401610a3e90611243565b60405180910390fd5b60015f8281526020019081526020015f205f5f82015f9055600182015f610a6e9190610d26565b600282015f9055600382015f6101000a81549073ffffffffffffffffffffffffffffffffffffffff02191690556003820160146101000a81549060ff0219169055505060025f81819054906101000a900460ff1680929190610acf906115cd565b91906101000a81548160ff021916908360ff1602179055505050565b5f601e801115610afe5760019050610b02565b5f90505b90565b5f601e801115610b185760019050610b1c565b5f90505b90565b5f73ffffffffffffffffffffffffffffffffffffffff1660015f8581526020019081526020015f206003015f9054906101000a900473ffffffffffffffffffffffffffffffffffffffff1673ffffffffffffffffffffffffffffffffffffffff1614610bc0576040517f08c379a0000000000000000000000000000000000000000000000000000000008152600401610bb79061163e565b60405180910390fd5b610bc981610327565b610c08576040517f08c379a0000000000000000000000000000000000000000000000000000000008152600401610bff906116a6565b60405180910390fd5b6040518060a001604052808481526020018381526020018281526020013373ffffffffffffffffffffffffffffffffffffffff1681526020016001151581525060015f8581526020019081526020015f205f820151815f01556020820151816001019081610c769190611469565b50604082015181600201556060820151816003015f6101000a81548173ffffffffffffffffffffffffffffffffffffffff021916908373ffffffffffffffffffffffffffffffffffffffff16021790555060808201518160030160146101000a81548160ff02191690831515021790555090505060025f81819054906101000a900460ff1680929190610d08906116c4565b91906101000a81548160ff021916908360ff16021790555050505050565b508054610d32906111c9565b5f825580601f10610d435750610d60565b601f0160209004905f5260205f2090810190610d5f9190610d63565b5b50565b5b80821115610d7a575f815f905550600101610d64565b5090565b5f81519050919050565b5f82825260208201905092915050565b8281835e5f83830152505050565b5f601f19601f8301169050919050565b5f610dc082610d7e565b610dca8185610d88565b9350610dda818560208601610d98565b610de381610da6565b840191505092915050565b5f6020820190508181035f830152610e068184610db6565b905092915050565b5f604051905090565b5f5ffd5b5f5ffd5b5f819050919050565b610e3181610e1f565b8114610e3b575f5ffd5b50565b5f81359050610e4c81610e28565b92915050565b5f60208284031215610e6757610e66610e17565b5b5f610e7484828501610e3e565b91505092915050565b5f8115159050919050565b610e9181610e7d565b82525050565b5f602082019050610eaa5f830184610e88565b92915050565b610eb981610e1f565b82525050565b5f73ffffffffffffffffffffffffffffffffffffffff82169050919050565b5f610ee882610ebf565b9050919050565b610ef881610ede565b82525050565b5f60a082019050610f115f830188610eb0565b8181036020830152610f238187610db6565b9050610f326040830186610eb0565b610f3f6060830185610eef565b610f4c6080830184610e88565b9695505050505050565b5f5f60408385031215610f6c57610f6b610e17565b5b5f610f7985828601610e3e565b9250506020610f8a85828601610e3e565b9150509250929050565b5f60ff82169050919050565b610fa981610f94565b82525050565b5f602082019050610fc25f830184610fa0565b92915050565b5f6060820190508181035f830152610fe08186610db6565b9050610fef6020830185610eb0565b610ffc6040830184610eef565b949350505050565b5f5ffd5b5f5ffd5b7f4e487b71000000000000000000000000000000000000000000000000000000005f52604160045260245ffd5b61104282610da6565b810181811067ffffffffffffffff821117156110615761106061100c565b5b80604052505050565b5f611073610e0e565b905061107f8282611039565b919050565b5f67ffffffffffffffff82111561109e5761109d61100c565b5b6110a782610da6565b9050602081019050919050565b828183375f83830152505050565b5f6110d46110cf84611084565b61106a565b9050828152602081018484840111156110f0576110ef611008565b5b6110fb8482856110b4565b509392505050565b5f82601f83011261111757611116611004565b5b81356111278482602086016110c2565b91505092915050565b5f5f5f6060848603121561114757611146610e17565b5b5f61115486828701610e3e565b935050602084013567ffffffffffffffff81111561117557611174610e1b565b5b61118186828701611103565b925050604061119286828701610e3e565b9150509250925092565b7f4e487b71000000000000000000000000000000000000000000000000000000005f52602260045260245ffd5b5f60028204905060018216806111e057607f821691505b6020821081036111f3576111f261119c565b5b50919050565b7f53747564656e7420696420646f6573206e6f74206578697374000000000000005f82015250565b5f61122d601983610d88565b9150611238826111f9565b602082019050919050565b5f6020820190508181035f83015261125a81611221565b9050919050565b7f536f7272792062652062690000000000000000000000000000000000000000005f82015250565b5f611295600b83610d88565b91506112a082611261565b602082019050919050565b5f6020820190508181035f8301526112c281611289565b9050919050565b5f819050815f5260205f209050919050565b5f6020601f8301049050919050565b5f82821b905092915050565b5f600883026113257fffffffffffffffffffffffffffffffffffffffffffffffffffffffffffffffff826112ea565b61132f86836112ea565b95508019841693508086168417925050509392505050565b5f819050919050565b5f61136a61136561136084610e1f565b611347565b610e1f565b9050919050565b5f819050919050565b61138383611350565b61139761138f82611371565b8484546112f6565b825550505050565b5f5f905090565b6113ae61139f565b6113b981848461137a565b505050565b5b818110156113dc576113d15f826113a6565b6001810190506113bf565b5050565b601f821115611421576113f2816112c9565b6113fb846112db565b8101602085101561140a578190505b61141e611416856112db565b8301826113be565b50505b505050565b5f82821c905092915050565b5f6114415f1984600802611426565b1980831691505092915050565b5f6114598383611432565b9150826002028217905092915050565b61147282610d7e565b67ffffffffffffffff81111561148b5761148a61100c565b5b61149582546111c9565b6114a08282856113e0565b5f60209050601f8311600181146114d1575f84156114bf578287015190505b6114c9858261144e565b865550611530565b601f1984166114df866112c9565b5f5b82811015611506578489015182556001820191506020850194506020810190506114e1565b86831015611523578489015161151f601f891682611432565b8355505b6001600288020188555050505b505050505050565b7f53747564656e74206861732062656e204c6f636b6564212121000000000000005f82015250565b5f61156c601983610d88565b915061157782611538565b602082019050919050565b5f6020820190508181035f83015261159981611560565b9050919050565b7f4e487b71000000000000000000000000000000000000000000000000000000005f52601160045260245ffd5b5f6115d782610f94565b91505f82036115e9576115e86115a0565b5b600182039050919050565b7f53747564656e7420696420616c726561647920657869737473000000000000005f82015250565b5f611628601983610d88565b9150611633826115f4565b602082019050919050565b5f6020820190508181035f8301526116558161161c565b9050919050565b7f416920656d20736f7272792100000000000000000000000000000000000000005f82015250565b5f611690600c83610d88565b915061169b8261165c565b602082019050919050565b5f6020820190508181035f8301526116bd81611684565b9050919050565b5f6116ce82610f94565b915060ff82036116e1576116e06115a0565b5b60018201905091905056fea2646970667358221220ae3b43be2469f2c1163d62f39d0c1b4a585646a470d86f00966ec391b905829864736f6c634300081e0033",
					"opcodes": "PUSH1 0x80 PUSH1 0x40 MSTORE PUSH1 0x40 MLOAD DUP1 PUSH1 0x40 ADD PUSH1 0x40 MSTORE DUP1 PUSH1 0x3 DUP2 MSTORE PUSH1 0x20 ADD PUSH32 0x4354330000000000000000000000000000000000000000000000000000000000 DUP2 MSTORE POP PUSH0 SWAP1 DUP2 PUSH2 0x47 SWAP2 SWAP1 PUSH2 0x296 JUMP JUMPDEST POP CALLVALUE DUP1 ISZERO PUSH2 0x53 JUMPI PUSH0 PUSH0 REVERT JUMPDEST POP PUSH2 0x365 JUMP JUMPDEST PUSH0 DUP2 MLOAD SWAP1 POP SWAP2 SWAP1 POP JUMP JUMPDEST PUSH32 0x4E487B7100000000000000000000000000000000000000000000000000000000 PUSH0 MSTORE PUSH1 0x41 PUSH1 0x4 MSTORE PUSH1 0x24 PUSH0 REVERT JUMPDEST PUSH32 0x4E487B7100000000000000000000000000000000000000000000000000000000 PUSH0 MSTORE PUSH1 0x22 PUSH1 0x4 MSTORE PUSH1 0x24 PUSH0 REVERT JUMPDEST PUSH0 PUSH1 0x2 DUP3 DIV SWAP1 POP PUSH1 0x1 DUP3 AND DUP1 PUSH2 0xD4 JUMPI PUSH1 0x7F DUP3 AND SWAP2 POP JUMPDEST PUSH1 0x20 DUP3 LT DUP2 SUB PUSH2 0xE7 JUMPI PUSH2 0xE6 PUSH2 0x90 JUMP JUMPDEST JUMPDEST POP SWAP2 SWAP1 POP JUMP JUMPDEST PUSH0 DUP2 SWAP1 POP DUP2 PUSH0 MSTORE PUSH1 0x20 PUSH0 KECCAK256 SWAP1 POP SWAP2 SWAP1 POP JUMP JUMPDEST PUSH0 PUSH1 0x20 PUSH1 0x1F DUP4 ADD DIV SWAP1 POP SWAP2 SWAP1 POP JUMP JUMPDEST PUSH0 DUP3 DUP3 SHL SWAP1 POP SWAP3 SWAP2 POP POP JUMP JUMPDEST PUSH0 PUSH1 0x8 DUP4 MUL PUSH2 0x149 PUSH32 0xFFFFFFFFFFFFFFFFFFFFFFFFFFFFFFFFFFFFFFFFFFFFFFFFFFFFFFFFFFFFFFFF DUP3 PUSH2 0x10E JUMP JUMPDEST PUSH2 0x153 DUP7 DUP4 PUSH2 0x10E JUMP JUMPDEST SWAP6 POP DUP1 NOT DUP5 AND SWAP4 POP DUP1 DUP7 AND DUP5 OR SWAP3 POP POP POP SWAP4 SWAP3 POP POP POP JUMP JUMPDEST PUSH0 DUP2 SWAP1 POP SWAP2 SWAP1 POP JUMP JUMPDEST PUSH0 DUP2 SWAP1 POP SWAP2 SWAP1 POP JUMP JUMPDEST PUSH0 PUSH2 0x197 PUSH2 0x192 PUSH2 0x18D DUP5 PUSH2 0x16B JUMP JUMPDEST PUSH2 0x174 JUMP JUMPDEST PUSH2 0x16B JUMP JUMPDEST SWAP1 POP SWAP2 SWAP1 POP JUMP JUMPDEST PUSH0 DUP2 SWAP1 POP SWAP2 SWAP1 POP JUMP JUMPDEST PUSH2 0x1B0 DUP4 PUSH2 0x17D JUMP JUMPDEST PUSH2 0x1C4 PUSH2 0x1BC DUP3 PUSH2 0x19E JUMP JUMPDEST DUP5 DUP5 SLOAD PUSH2 0x11A JUMP JUMPDEST DUP3 SSTORE POP POP POP POP JUMP JUMPDEST PUSH0 PUSH0 SWAP1 POP SWAP1 JUMP JUMPDEST PUSH2 0x1DB PUSH2 0x1CC JUMP JUMPDEST PUSH2 0x1E6 DUP2 DUP5 DUP5 PUSH2 0x1A7 JUMP JUMPDEST POP POP POP JUMP JUMPDEST JUMPDEST DUP2 DUP2 LT ISZERO PUSH2 0x209 JUMPI PUSH2 0x1FE PUSH0 DUP3 PUSH2 0x1D3 JUMP JUMPDEST PUSH1 0x1 DUP2 ADD SWAP1 POP PUSH2 0x1EC JUMP JUMPDEST POP POP JUMP JUMPDEST PUSH1 0x1F DUP3 GT ISZERO PUSH2 0x24E JUMPI PUSH2 0x21F DUP2 PUSH2 0xED JUMP JUMPDEST PUSH2 0x228 DUP5 PUSH2 0xFF JUMP JUMPDEST DUP2 ADD PUSH1 0x20 DUP6 LT ISZERO PUSH2 0x237 JUMPI DUP2 SWAP1 POP JUMPDEST PUSH2 0x24B PUSH2 0x243 DUP6 PUSH2 0xFF JUMP JUMPDEST DUP4 ADD DUP3 PUSH2 0x1EB JUMP JUMPDEST POP POP JUMPDEST POP POP POP JUMP JUMPDEST PUSH0 DUP3 DUP3 SHR SWAP1 POP SWAP3 SWAP2 POP POP JUMP JUMPDEST PUSH0 PUSH2 0x26E PUSH0 NOT DUP5 PUSH1 0x8 MUL PUSH2 0x253 JUMP JUMPDEST NOT DUP1 DUP4 AND SWAP2 POP POP SWAP3 SWAP2 POP POP JUMP JUMPDEST PUSH0 PUSH2 0x286 DUP4 DUP4 PUSH2 0x25F JUMP JUMPDEST SWAP2 POP DUP3 PUSH1 0x2 MUL DUP3 OR SWAP1 POP SWAP3 SWAP2 POP POP JUMP JUMPDEST PUSH2 0x29F DUP3 PUSH2 0x59 JUMP JUMPDEST PUSH8 0xFFFFFFFFFFFFFFFF DUP2 GT ISZERO PUSH2 0x2B8 JUMPI PUSH2 0x2B7 PUSH2 0x63 JUMP JUMPDEST JUMPDEST PUSH2 0x2C2 DUP3 SLOAD PUSH2 0xBD JUMP JUMPDEST PUSH2 0x2CD DUP3 DUP3 DUP6 PUSH2 0x20D JUMP JUMPDEST PUSH0 PUSH1 0x20 SWAP1 POP PUSH1 0x1F DUP4 GT PUSH1 0x1 DUP2 EQ PUSH2 0x2FE JUMPI PUSH0 DUP5 ISZERO PUSH2 0x2EC JUMPI DUP3 DUP8 ADD MLOAD SWAP1 POP JUMPDEST PUSH2 0x2F6 DUP6 DUP3 PUSH2 0x27B JUMP JUMPDEST DUP7 SSTORE POP PUSH2 0x35D JUMP JUMPDEST PUSH1 0x1F NOT DUP5 AND PUSH2 0x30C DUP7 PUSH2 0xED JUMP JUMPDEST PUSH0 JUMPDEST DUP3 DUP2 LT ISZERO PUSH2 0x333 JUMPI DUP5 DUP10 ADD MLOAD DUP3 SSTORE PUSH1 0x1 DUP3 ADD SWAP2 POP PUSH1 0x20 DUP6 ADD SWAP5 POP PUSH1 0x20 DUP2 ADD SWAP1 POP PUSH2 0x30E JUMP JUMPDEST DUP7 DUP4 LT ISZERO PUSH2 0x350 JUMPI DUP5 DUP10 ADD MLOAD PUSH2 0x34C PUSH1 0x1F DUP10 AND DUP3 PUSH2 0x25F JUMP JUMPDEST DUP4 SSTORE POP JUMPDEST PUSH1 0x1 PUSH1 0x2 DUP9 MUL ADD DUP9 SSTORE POP POP POP JUMPDEST POP POP POP POP POP POP JUMP JUMPDEST PUSH2 0x1722 DUP1 PUSH2 0x372 PUSH0 CODECOPY PUSH0 RETURN INVALID PUSH1 0x80 PUSH1 0x40 MSTORE CALLVALUE DUP1 ISZERO PUSH2 0xF JUMPI PUSH0 PUSH0 REVERT JUMPDEST POP PUSH1 0x4 CALLDATASIZE LT PUSH2 0xCC JUMPI PUSH0 CALLDATALOAD PUSH1 0xE0 SHR DUP1 PUSH4 0x3F9F42D2 GT PUSH2 0x8A JUMPI DUP1 PUSH4 0x6AF83845 GT PUSH2 0x64 JUMPI DUP1 PUSH4 0x6AF83845 EQ PUSH2 0x228 JUMPI DUP1 PUSH4 0x6D07826A EQ PUSH2 0x244 JUMPI DUP1 PUSH4 0xA12046AF EQ PUSH2 0x262 JUMPI DUP1 PUSH4 0xC1BEA1DB EQ PUSH2 0x280 JUMPI PUSH2 0xCC JUMP JUMPDEST DUP1 PUSH4 0x3F9F42D2 EQ PUSH2 0x1A8 JUMPI DUP1 PUSH4 0x4F558E79 EQ PUSH2 0x1C6 JUMPI DUP1 PUSH4 0x642F9163 EQ PUSH2 0x1F6 JUMPI PUSH2 0xCC JUMP JUMPDEST DUP1 PUSH3 0xC51F8C EQ PUSH2 0xD0 JUMPI DUP1 PUSH4 0x21E1C9E EQ PUSH2 0xEE JUMPI DUP1 PUSH4 0x6EAD22E EQ PUSH2 0x11E JUMPI DUP1 PUSH4 0x13A46F31 EQ PUSH2 0x152 JUMPI DUP1 PUSH4 0x24F47E4F EQ PUSH2 0x16E JUMPI DUP1 PUSH4 0x2DF56FD2 EQ PUSH2 0x18A JUMPI JUMPDEST PUSH0 PUSH0 REVERT JUMPDEST PUSH2 0xD8 PUSH2 0x29C JUMP JUMPDEST PUSH1 0x40 MLOAD PUSH2 0xE5 SWAP2 SWAP1 PUSH2 0xDEE JUMP JUMPDEST PUSH1 0x40 MLOAD DUP1 SWAP2 SUB SWAP1 RETURN JUMPDEST PUSH2 0x108 PUSH1 0x4 DUP1 CALLDATASIZE SUB DUP2 ADD SWAP1 PUSH2 0x103 SWAP2 SWAP1 PUSH2 0xE52 JUMP JUMPDEST PUSH2 0x327 JUMP JUMPDEST PUSH1 0x40 MLOAD PUSH2 0x115 SWAP2 SWAP1 PUSH2 0xE97 JUMP JUMPDEST PUSH1 0x40 MLOAD DUP1 SWAP2 SUB SWAP1 RETURN JUMPDEST PUSH2 0x138 PUSH1 0x4 DUP1 CALLDATASIZE SUB DUP2 ADD SWAP1 PUSH2 0x133 SWAP2 SWAP1 PUSH2 0xE52 JUMP JUMPDEST PUSH2 0x333 JUMP JUMPDEST PUSH1 0x40 MLOAD PUSH2 0x149 SWAP6 SWAP5 SWAP4 SWAP3 SWAP2 SWAP1 PUSH2 0xEFE JUMP JUMPDEST PUSH1 0x40 MLOAD DUP1 SWAP2 SUB SWAP1 RETURN JUMPDEST PUSH2 0x16C PUSH1 0x4 DUP1 CALLDATASIZE SUB DUP2 ADD SWAP1 PUSH2 0x167 SWAP2 SWAP1 PUSH2 0xF56 JUMP JUMPDEST PUSH2 0x417 JUMP JUMPDEST STOP JUMPDEST PUSH2 0x188 PUSH1 0x4 DUP1 CALLDATASIZE SUB DUP2 ADD SWAP1 PUSH2 0x183 SWAP2 SWAP1 PUSH2 0xE52 JUMP JUMPDEST PUSH2 0x51D JUMP JUMPDEST STOP JUMPDEST PUSH2 0x192 PUSH2 0x70B JUMP JUMPDEST PUSH1 0x40 MLOAD PUSH2 0x19F SWAP2 SWAP1 PUSH2 0xFAF JUMP JUMPDEST PUSH1 0x40 MLOAD DUP1 SWAP2 SUB SWAP1 RETURN JUMPDEST PUSH2 0x1B0 PUSH2 0x71D JUMP JUMPDEST PUSH1 0x40 MLOAD PUSH2 0x1BD SWAP2 SWAP1 PUSH2 0xFAF JUMP JUMPDEST PUSH1 0x40 MLOAD DUP1 SWAP2 SUB SWAP1 RETURN JUMPDEST PUSH2 0x1E0 PUSH1 0x4 DUP1 CALLDATASIZE SUB DUP2 ADD SWAP1 PUSH2 0x1DB SWAP2 SWAP1 PUSH2 0xE52 JUMP JUMPDEST PUSH2 0x732 JUMP JUMPDEST PUSH1 0x40 MLOAD PUSH2 0x1ED SWAP2 SWAP1 PUSH2 0xE97 JUMP JUMPDEST PUSH1 0x40 MLOAD DUP1 SWAP2 SUB SWAP1 RETURN JUMPDEST PUSH2 0x210 PUSH1 0x4 DUP1 CALLDATASIZE SUB DUP2 ADD SWAP1 PUSH2 0x20B SWAP2 SWAP1 PUSH2 0xE52 JUMP JUMPDEST PUSH2 0x79D JUMP JUMPDEST PUSH1 0x40 MLOAD PUSH2 0x21F SWAP4 SWAP3 SWAP2 SWAP1 PUSH2 0xFC8 JUMP JUMPDEST PUSH1 0x40 MLOAD DUP1 SWAP2 SUB SWAP1 RETURN JUMPDEST PUSH2 0x242 PUSH1 0x4 DUP1 CALLDATASIZE SUB DUP2 ADD SWAP1 PUSH2 0x23D SWAP2 SWAP1 PUSH2 0xE52 JUMP JUMPDEST PUSH2 0x9A6 JUMP JUMPDEST STOP JUMPDEST PUSH2 0x24C PUSH2 0xAEB JUMP JUMPDEST PUSH1 0x40 MLOAD PUSH2 0x259 SWAP2 SWAP1 PUSH2 0xE97 JUMP JUMPDEST PUSH1 0x40 MLOAD DUP1 SWAP2 SUB SWAP1 RETURN JUMPDEST PUSH2 0x26A PUSH2 0xB05 JUMP JUMPDEST PUSH1 0x40 MLOAD PUSH2 0x277 SWAP2 SWAP1 PUSH2 0xE97 JUMP JUMPDEST PUSH1 0x40 MLOAD DUP1 SWAP2 SUB SWAP1 RETURN JUMPDEST PUSH2 0x29A PUSH1 0x4 DUP1 CALLDATASIZE SUB DUP2 ADD SWAP1 PUSH2 0x295 SWAP2 SWAP1 PUSH2 0x1130 JUMP JUMPDEST PUSH2 0xB1F JUMP JUMPDEST STOP JUMPDEST PUSH0 DUP1 SLOAD PUSH2 0x2A8 SWAP1 PUSH2 0x11C9 JUMP JUMPDEST DUP1 PUSH1 0x1F ADD PUSH1 0x20 DUP1 SWAP2 DIV MUL PUSH1 0x20 ADD PUSH1 0x40 MLOAD SWAP1 DUP2 ADD PUSH1 0x40 MSTORE DUP1 SWAP3 SWAP2 SWAP1 DUP2 DUP2 MSTORE PUSH1 0x20 ADD DUP3 DUP1 SLOAD PUSH2 0x2D4 SWAP1 PUSH2 0x11C9 JUMP JUMPDEST DUP1 ISZERO PUSH2 0x31F JUMPI DUP1 PUSH1 0x1F LT PUSH2 0x2F6 JUMPI PUSH2 0x100 DUP1 DUP4 SLOAD DIV MUL DUP4 MSTORE SWAP2 PUSH1 0x20 ADD SWAP2 PUSH2 0x31F JUMP JUMPDEST DUP3 ADD SWAP2 SWAP1 PUSH0 MSTORE PUSH1 0x20 PUSH0 KECCAK256 SWAP1 JUMPDEST DUP2 SLOAD DUP2 MSTORE SWAP1 PUSH1 0x1 ADD SWAP1 PUSH1 0x20 ADD DUP1 DUP4 GT PUSH2 0x302 JUMPI DUP3 SWAP1 SUB PUSH1 0x1F AND DUP3 ADD SWAP2 JUMPDEST POP POP POP POP POP DUP2 JUMP JUMPDEST PUSH0 PUSH1 0x12 DUP3 GT SWAP1 POP SWAP2 SWAP1 POP JUMP JUMPDEST PUSH1 0x1 PUSH1 0x20 MSTORE DUP1 PUSH0 MSTORE PUSH1 0x40 PUSH0 KECCAK256 PUSH0 SWAP2 POP SWAP1 POP DUP1 PUSH0 ADD SLOAD SWAP1 DUP1 PUSH1 0x1 ADD DUP1 SLOAD PUSH2 0x358 SWAP1 PUSH2 0x11C9 JUMP JUMPDEST DUP1 PUSH1 0x1F ADD PUSH1 0x20 DUP1 SWAP2 DIV MUL PUSH1 0x20 ADD PUSH1 0x40 MLOAD SWAP1 DUP2 ADD PUSH1 0x40 MSTORE DUP1 SWAP3 SWAP2 SWAP1 DUP2 DUP2 MSTORE PUSH1 0x20 ADD DUP3 DUP1 SLOAD PUSH2 0x384 SWAP1 PUSH2 0x11C9 JUMP JUMPDEST DUP1 ISZERO PUSH2 0x3CF JUMPI DUP1 PUSH1 0x1F LT PUSH2 0x3A6 JUMPI PUSH2 0x100 DUP1 DUP4 SLOAD DIV MUL DUP4 MSTORE SWAP2 PUSH1 0x20 ADD SWAP2 PUSH2 0x3CF JUMP JUMPDEST DUP3 ADD SWAP2 SWAP1 PUSH0 MSTORE PUSH1 0x20 PUSH0 KECCAK256 SWAP1 JUMPDEST DUP2 SLOAD DUP2 MSTORE SWAP1 PUSH1 0x1 ADD SWAP1 PUSH1 0x20 ADD DUP1 DUP4 GT PUSH2 0x3B2 JUMPI DUP3 SWAP1 SUB PUSH1 0x1F AND DUP3 ADD SWAP2 JUMPDEST POP POP POP POP POP SWAP1 DUP1 PUSH1 0x2 ADD SLOAD SWAP1 DUP1 PUSH1 0x3 ADD PUSH0 SWAP1 SLOAD SWAP1 PUSH2 0x100 EXP SWAP1 DIV PUSH20 0xFFFFFFFFFFFFFFFFFFFFFFFFFFFFFFFFFFFFFFFF AND SWAP1 DUP1 PUSH1 0x3 ADD PUSH1 0x14 SWAP1 SLOAD SWAP1 PUSH2 0x100 EXP SWAP1 DIV PUSH1 0xFF AND SWAP1 POP DUP6 JUMP JUMPDEST PUSH0 PUSH20 0xFFFFFFFFFFFFFFFFFFFFFFFFFFFFFFFFFFFFFFFF AND PUSH1 0x1 PUSH0 DUP5 DUP2 MSTORE PUSH1 0x20 ADD SWAP1 DUP2 MSTORE PUSH1 0x20 ADD PUSH0 KECCAK256 PUSH1 0x3 ADD PUSH0 SWAP1 SLOAD SWAP1 PUSH2 0x100 EXP SWAP1 DIV PUSH20 0xFFFFFFFFFFFFFFFFFFFFFFFFFFFFFFFFFFFFFFFF AND PUSH20 0xFFFFFFFFFFFFFFFFFFFFFFFFFFFFFFFFFFFFFFFF AND SUB PUSH2 0x4B8 JUMPI PUSH1 0x40 MLOAD PUSH32 0x8C379A000000000000000000000000000000000000000000000000000000000 DUP2 MSTORE PUSH1 0x4 ADD PUSH2 0x4AF SWAP1 PUSH2 0x1243 JUMP JUMPDEST PUSH1 0x40 MLOAD DUP1 SWAP2 SUB SWAP1 REVERT JUMPDEST PUSH2 0x4C1 DUP2 PUSH2 0x327 JUMP JUMPDEST PUSH2 0x500 JUMPI PUSH1 0x40 MLOAD PUSH32 0x8C379A000000000000000000000000000000000000000000000000000000000 DUP2 MSTORE PUSH1 0x4 ADD PUSH2 0x4F7 SWAP1 PUSH2 0x12AB JUMP JUMPDEST PUSH1 0x40 MLOAD DUP1 SWAP2 SUB SWAP1 REVERT JUMPDEST DUP1 PUSH1 0x1 PUSH0 DUP5 DUP2 MSTORE PUSH1 0x20 ADD SWAP1 DUP2 MSTORE PUSH1 0x20 ADD PUSH0 KECCAK256 PUSH1 0x2 ADD DUP2 SWAP1 SSTORE POP POP POP JUMP JUMPDEST PUSH0 PUSH1 0x1 PUSH0 DUP4 DUP2 MSTORE PUSH1 0x20 ADD SWAP1 DUP2 MSTORE PUSH1 0x20 ADD PUSH0 KECCAK256 PUSH1 0x40 MLOAD DUP1 PUSH1 0xA0 ADD PUSH1 0x40 MSTORE SWAP1 DUP2 PUSH0 DUP3 ADD SLOAD DUP2 MSTORE PUSH1 0x20 ADD PUSH1 0x1 DUP3 ADD DUP1 SLOAD PUSH2 0x553 SWAP1 PUSH2 0x11C9 JUMP JUMPDEST DUP1 PUSH1 0x1F ADD PUSH1 0x20 DUP1 SWAP2 DIV MUL PUSH1 0x20 ADD PUSH1 0x40 MLOAD SWAP1 DUP2 ADD PUSH1 0x40 MSTORE DUP1 SWAP3 SWAP2 SWAP1 DUP2 DUP2 MSTORE PUSH1 0x20 ADD DUP3 DUP1 SLOAD PUSH2 0x57F SWAP1 PUSH2 0x11C9 JUMP JUMPDEST DUP1 ISZERO PUSH2 0x5CA JUMPI DUP1 PUSH1 0x1F LT PUSH2 0x5A1 JUMPI PUSH2 0x100 DUP1 DUP4 SLOAD DIV MUL DUP4 MSTORE SWAP2 PUSH1 0x20 ADD SWAP2 PUSH2 0x5CA JUMP JUMPDEST DUP3 ADD SWAP2 SWAP1 PUSH0 MSTORE PUSH1 0x20 PUSH0 KECCAK256 SWAP1 JUMPDEST DUP2 SLOAD DUP2 MSTORE SWAP1 PUSH1 0x1 ADD SWAP1 PUSH1 0x20 ADD DUP1 DUP4 GT PUSH2 0x5AD JUMPI DUP3 SWAP1 SUB PUSH1 0x1F AND DUP3 ADD SWAP2 JUMPDEST POP POP POP POP POP DUP2 MSTORE PUSH1 0x20 ADD PUSH1 0x2 DUP3 ADD SLOAD DUP2 MSTORE PUSH1 0x20 ADD PUSH1 0x3 DUP3 ADD PUSH0 SWAP1 SLOAD SWAP1 PUSH2 0x100 EXP SWAP1 DIV PUSH20 0xFFFFFFFFFFFFFFFFFFFFFFFFFFFFFFFFFFFFFFFF AND PUSH20 0xFFFFFFFFFFFFFFFFFFFFFFFFFFFFFFFFFFFFFFFF AND PUSH20 0xFFFFFFFFFFFFFFFFFFFFFFFFFFFFFFFFFFFFFFFF AND DUP2 MSTORE PUSH1 0x20 ADD PUSH1 0x3 DUP3 ADD PUSH1 0x14 SWAP1 SLOAD SWAP1 PUSH2 0x100 EXP SWAP1 DIV PUSH1 0xFF AND ISZERO ISZERO ISZERO ISZERO DUP2 MSTORE POP POP SWAP1 POP DUP1 PUSH1 0x80 ADD MLOAD ISZERO DUP2 PUSH1 0x80 ADD SWAP1 ISZERO ISZERO SWAP1 DUP2 ISZERO ISZERO DUP2 MSTORE POP POP DUP1 PUSH1 0x1 PUSH0 DUP5 DUP2 MSTORE PUSH1 0x20 ADD SWAP1 DUP2 MSTORE PUSH1 0x20 ADD PUSH0 KECCAK256 PUSH0 DUP3 ADD MLOAD DUP2 PUSH0 ADD SSTORE PUSH1 0x20 DUP3 ADD MLOAD DUP2 PUSH1 0x1 ADD SWAP1 DUP2 PUSH2 0x693 SWAP2 SWAP1 PUSH2 0x1469 JUMP JUMPDEST POP PUSH1 0x40 DUP3 ADD MLOAD DUP2 PUSH1 0x2 ADD SSTORE PUSH1 0x60 DUP3 ADD MLOAD DUP2 PUSH1 0x3 ADD PUSH0 PUSH2 0x100 EXP DUP2 SLOAD DUP2 PUSH20 0xFFFFFFFFFFFFFFFFFFFFFFFFFFFFFFFFFFFFFFFF MUL NOT AND SWAP1 DUP4 PUSH20 0xFFFFFFFFFFFFFFFFFFFFFFFFFFFFFFFFFFFFFFFF AND MUL OR SWAP1 SSTORE POP PUSH1 0x80 DUP3 ADD MLOAD DUP2 PUSH1 0x3 ADD PUSH1 0x14 PUSH2 0x100 EXP DUP2 SLOAD DUP2 PUSH1 0xFF MUL NOT AND SWAP1 DUP4 ISZERO ISZERO MUL OR SWAP1 SSTORE POP SWAP1 POP POP POP POP JUMP JUMPDEST PUSH1 0x2 PUSH0 SWAP1 SLOAD SWAP1 PUSH2 0x100 EXP SWAP1 DIV PUSH1 0xFF AND DUP2 JUMP JUMPDEST PUSH0 PUSH1 0x2 PUSH0 SWAP1 SLOAD SWAP1 PUSH2 0x100 EXP SWAP1 DIV PUSH1 0xFF AND SWAP1 POP SWAP1 JUMP JUMPDEST PUSH0 PUSH0 PUSH20 0xFFFFFFFFFFFFFFFFFFFFFFFFFFFFFFFFFFFFFFFF AND PUSH1 0x1 PUSH0 DUP5 DUP2 MSTORE PUSH1 0x20 ADD SWAP1 DUP2 MSTORE PUSH1 0x20 ADD PUSH0 KECCAK256 PUSH1 0x3 ADD PUSH0 SWAP1 SLOAD SWAP1 PUSH2 0x100 EXP SWAP1 DIV PUSH20 0xFFFFFFFFFFFFFFFFFFFFFFFFFFFFFFFFFFFFFFFF AND PUSH20 0xFFFFFFFFFFFFFFFFFFFFFFFFFFFFFFFFFFFFFFFF AND EQ ISZERO SWAP1 POP SWAP2 SWAP1 POP JUMP JUMPDEST PUSH1 0x60 PUSH0 PUSH0 PUSH0 PUSH1 0x1 PUSH0 DUP7 DUP2 MSTORE PUSH1 0x20 ADD SWAP1 DUP2 MSTORE PUSH1 0x20 ADD PUSH0 KECCAK256 PUSH1 0x40 MLOAD DUP1 PUSH1 0xA0 ADD PUSH1 0x40 MSTORE SWAP1 DUP2 PUSH0 DUP3 ADD SLOAD DUP2 MSTORE PUSH1 0x20 ADD PUSH1 0x1 DUP3 ADD DUP1 SLOAD PUSH2 0x7D7 SWAP1 PUSH2 0x11C9 JUMP JUMPDEST DUP1 PUSH1 0x1F ADD PUSH1 0x20 DUP1 SWAP2 DIV MUL PUSH1 0x20 ADD PUSH1 0x40 MLOAD SWAP1 DUP2 ADD PUSH1 0x40 MSTORE DUP1 SWAP3 SWAP2 SWAP1 DUP2 DUP2 MSTORE PUSH1 0x20 ADD DUP3 DUP1 SLOAD PUSH2 0x803 SWAP1 PUSH2 0x11C9 JUMP JUMPDEST DUP1 ISZERO PUSH2 0x84E JUMPI DUP1 PUSH1 0x1F LT PUSH2 0x825 JUMPI PUSH2 0x100 DUP1 DUP4 SLOAD DIV MUL DUP4 MSTORE SWAP2 PUSH1 0x20 ADD SWAP2 PUSH2 0x84E JUMP JUMPDEST DUP3 ADD SWAP2 SWAP1 PUSH0 MSTORE PUSH1 0x20 PUSH0 KECCAK256 SWAP1 JUMPDEST DUP2 SLOAD DUP2 MSTORE SWAP1 PUSH1 0x1 ADD SWAP1 PUSH1 0x20 ADD DUP1 DUP4 GT PUSH2 0x831 JUMPI DUP3 SWAP1 SUB PUSH1 0x1F AND DUP3 ADD SWAP2 JUMPDEST POP POP POP POP POP DUP2 MSTORE PUSH1 0x20 ADD PUSH1 0x2 DUP3 ADD SLOAD DUP2 MSTORE PUSH1 0x20 ADD PUSH1 0x3 DUP3 ADD PUSH0 SWAP1 SLOAD SWAP1 PUSH2 0x100 EXP SWAP1 DIV PUSH20 0xFFFFFFFFFFFFFFFFFFFFFFFFFFFFFFFFFFFFFFFF AND PUSH20 0xFFFFFFFFFFFFFFFFFFFFFFFFFFFFFFFFFFFFFFFF AND PUSH20 0xFFFFFFFFFFFFFFFFFFFFFFFFFFFFFFFFFFFFFFFF AND DUP2 MSTORE PUSH1 0x20 ADD PUSH1 0x3 DUP3 ADD PUSH1 0x14 SWAP1 SLOAD SWAP1 PUSH2 0x100 EXP SWAP1 DIV PUSH1 0xFF AND ISZERO ISZERO ISZERO ISZERO DUP2 MSTORE POP POP SWAP1 POP PUSH0 PUSH20 0xFFFFFFFFFFFFFFFFFFFFFFFFFFFFFFFFFFFFFFFF AND DUP2 PUSH1 0x60 ADD MLOAD PUSH20 0xFFFFFFFFFFFFFFFFFFFFFFFFFFFFFFFFFFFFFFFF AND SUB PUSH2 0x945 JUMPI PUSH1 0x40 MLOAD PUSH32 0x8C379A000000000000000000000000000000000000000000000000000000000 DUP2 MSTORE PUSH1 0x4 ADD PUSH2 0x93C SWAP1 PUSH2 0x1243 JUMP JUMPDEST PUSH1 0x40 MLOAD DUP1 SWAP2 SUB SWAP1 REVERT JUMPDEST DUP1 PUSH1 0x80 ADD MLOAD PUSH2 0x989 JUMPI PUSH1 0x40 MLOAD PUSH32 0x8C379A000000000000000000000000000000000000000000000000000000000 DUP2 MSTORE PUSH1 0x4 ADD PUSH2 0x980 SWAP1 PUSH2 0x1582 JUMP JUMPDEST PUSH1 0x40 MLOAD DUP1 SWAP2 SUB SWAP1 REVERT JUMPDEST DUP1 PUSH1 0x20 ADD MLOAD DUP2 PUSH1 0x40 ADD MLOAD DUP3 PUSH1 0x60 ADD MLOAD SWAP4 POP SWAP4 POP SWAP4 POP POP SWAP2 SWAP4 SWAP1 SWAP3 POP JUMP JUMPDEST PUSH0 PUSH20 0xFFFFFFFFFFFFFFFFFFFFFFFFFFFFFFFFFFFFFFFF AND PUSH1 0x1 PUSH0 DUP4 DUP2 MSTORE PUSH1 0x20 ADD SWAP1 DUP2 MSTORE PUSH1 0x20 ADD PUSH0 KECCAK256 PUSH1 0x3 ADD PUSH0 SWAP1 SLOAD SWAP1 PUSH2 0x100 EXP SWAP1 DIV PUSH20 0xFFFFFFFFFFFFFFFFFFFFFFFFFFFFFFFFFFFFFFFF AND PUSH20 0xFFFFFFFFFFFFFFFFFFFFFFFFFFFFFFFFFFFFFFFF AND SUB PUSH2 0xA47 JUMPI PUSH1 0x40 MLOAD PUSH32 0x8C379A000000000000000000000000000000000000000000000000000000000 DUP2 MSTORE PUSH1 0x4 ADD PUSH2 0xA3E SWAP1 PUSH2 0x1243 JUMP JUMPDEST PUSH1 0x40 MLOAD DUP1 SWAP2 SUB SWAP1 REVERT JUMPDEST PUSH1 0x1 PUSH0 DUP3 DUP2 MSTORE PUSH1 0x20 ADD SWAP1 DUP2 MSTORE PUSH1 0x20 ADD PUSH0 KECCAK256 PUSH0 PUSH0 DUP3 ADD PUSH0 SWAP1 SSTORE PUSH1 0x1 DUP3 ADD PUSH0 PUSH2 0xA6E SWAP2 SWAP1 PUSH2 0xD26 JUMP JUMPDEST PUSH1 0x2 DUP3 ADD PUSH0 SWAP1 SSTORE PUSH1 0x3 DUP3 ADD PUSH0 PUSH2 0x100 EXP DUP2 SLOAD SWAP1 PUSH20 0xFFFFFFFFFFFFFFFFFFFFFFFFFFFFFFFFFFFFFFFF MUL NOT AND SWAP1 SSTORE PUSH1 0x3 DUP3 ADD PUSH1 0x14 PUSH2 0x100 EXP DUP2 SLOAD SWAP1 PUSH1 0xFF MUL NOT AND SWAP1 SSTORE POP POP PUSH1 0x2 PUSH0 DUP2 DUP2 SWAP1 SLOAD SWAP1 PUSH2 0x100 EXP SWAP1 DIV PUSH1 0xFF AND DUP1 SWAP3 SWAP2 SWAP1 PUSH2 0xACF SWAP1 PUSH2 0x15CD JUMP JUMPDEST SWAP2 SWAP1 PUSH2 0x100 EXP DUP2 SLOAD DUP2 PUSH1 0xFF MUL NOT AND SWAP1 DUP4 PUSH1 0xFF AND MUL OR SWAP1 SSTORE POP POP POP JUMP JUMPDEST PUSH0 PUSH1 0x1E DUP1 GT ISZERO PUSH2 0xAFE JUMPI PUSH1 0x1 SWAP1 POP PUSH2 0xB02 JUMP JUMPDEST PUSH0 SWAP1 POP JUMPDEST SWAP1 JUMP JUMPDEST PUSH0 PUSH1 0x1E DUP1 GT ISZERO PUSH2 0xB18 JUMPI PUSH1 0x1 SWAP1 POP PUSH2 0xB1C JUMP JUMPDEST PUSH0 SWAP1 POP JUMPDEST SWAP1 JUMP JUMPDEST PUSH0 PUSH20 0xFFFFFFFFFFFFFFFFFFFFFFFFFFFFFFFFFFFFFFFF AND PUSH1 0x1 PUSH0 DUP6 DUP2 MSTORE PUSH1 0x20 ADD SWAP1 DUP2 MSTORE PUSH1 0x20 ADD PUSH0 KECCAK256 PUSH1 0x3 ADD PUSH0 SWAP1 SLOAD SWAP1 PUSH2 0x100 EXP SWAP1 DIV PUSH20 0xFFFFFFFFFFFFFFFFFFFFFFFFFFFFFFFFFFFFFFFF AND PUSH20 0xFFFFFFFFFFFFFFFFFFFFFFFFFFFFFFFFFFFFFFFF AND EQ PUSH2 0xBC0 JUMPI PUSH1 0x40 MLOAD PUSH32 0x8C379A000000000000000000000000000000000000000000000000000000000 DUP2 MSTORE PUSH1 0x4 ADD PUSH2 0xBB7 SWAP1 PUSH2 0x163E JUMP JUMPDEST PUSH1 0x40 MLOAD DUP1 SWAP2 SUB SWAP1 REVERT JUMPDEST PUSH2 0xBC9 DUP2 PUSH2 0x327 JUMP JUMPDEST PUSH2 0xC08 JUMPI PUSH1 0x40 MLOAD PUSH32 0x8C379A000000000000000000000000000000000000000000000000000000000 DUP2 MSTORE PUSH1 0x4 ADD PUSH2 0xBFF SWAP1 PUSH2 0x16A6 JUMP JUMPDEST PUSH1 0x40 MLOAD DUP1 SWAP2 SUB SWAP1 REVERT JUMPDEST PUSH1 0x40 MLOAD DUP1 PUSH1 0xA0 ADD PUSH1 0x40 MSTORE DUP1 DUP5 DUP2 MSTORE PUSH1 0x20 ADD DUP4 DUP2 MSTORE PUSH1 0x20 ADD DUP3 DUP2 MSTORE PUSH1 0x20 ADD CALLER PUSH20 0xFFFFFFFFFFFFFFFFFFFFFFFFFFFFFFFFFFFFFFFF AND DUP2 MSTORE PUSH1 0x20 ADD PUSH1 0x1 ISZERO ISZERO DUP2 MSTORE POP PUSH1 0x1 PUSH0 DUP6 DUP2 MSTORE PUSH1 0x20 ADD SWAP1 DUP2 MSTORE PUSH1 0x20 ADD PUSH0 KECCAK256 PUSH0 DUP3 ADD MLOAD DUP2 PUSH0 ADD SSTORE PUSH1 0x20 DUP3 ADD MLOAD DUP2 PUSH1 0x1 ADD SWAP1 DUP2 PUSH2 0xC76 SWAP2 SWAP1 PUSH2 0x1469 JUMP JUMPDEST POP PUSH1 0x40 DUP3 ADD MLOAD DUP2 PUSH1 0x2 ADD SSTORE PUSH1 0x60 DUP3 ADD MLOAD DUP2 PUSH1 0x3 ADD PUSH0 PUSH2 0x100 EXP DUP2 SLOAD DUP2 PUSH20 0xFFFFFFFFFFFFFFFFFFFFFFFFFFFFFFFFFFFFFFFF MUL NOT AND SWAP1 DUP4 PUSH20 0xFFFFFFFFFFFFFFFFFFFFFFFFFFFFFFFFFFFFFFFF AND MUL OR SWAP1 SSTORE POP PUSH1 0x80 DUP3 ADD MLOAD DUP2 PUSH1 0x3 ADD PUSH1 0x14 PUSH2 0x100 EXP DUP2 SLOAD DUP2 PUSH1 0xFF MUL NOT AND SWAP1 DUP4 ISZERO ISZERO MUL OR SWAP1 SSTORE POP SWAP1 POP POP PUSH1 0x2 PUSH0 DUP2 DUP2 SWAP1 SLOAD SWAP1 PUSH2 0x100 EXP SWAP1 DIV PUSH1 0xFF AND DUP1 SWAP3 SWAP2 SWAP1 PUSH2 0xD08 SWAP1 PUSH2 0x16C4 JUMP JUMPDEST SWAP2 SWAP1 PUSH2 0x100 EXP DUP2 SLOAD DUP2 PUSH1 0xFF MUL NOT AND SWAP1 DUP4 PUSH1 0xFF AND MUL OR SWAP1 SSTORE POP POP POP POP POP JUMP JUMPDEST POP DUP1 SLOAD PUSH2 0xD32 SWAP1 PUSH2 0x11C9 JUMP JUMPDEST PUSH0 DUP3 SSTORE DUP1 PUSH1 0x1F LT PUSH2 0xD43 JUMPI POP PUSH2 0xD60 JUMP JUMPDEST PUSH1 0x1F ADD PUSH1 0x20 SWAP1 DIV SWAP1 PUSH0 MSTORE PUSH1 0x20 PUSH0 KECCAK256 SWAP1 DUP2 ADD SWAP1 PUSH2 0xD5F SWAP2 SWAP1 PUSH2 0xD63 JUMP JUMPDEST JUMPDEST POP JUMP JUMPDEST JUMPDEST DUP1 DUP3 GT ISZERO PUSH2 0xD7A JUMPI PUSH0 DUP2 PUSH0 SWAP1 SSTORE POP PUSH1 0x1 ADD PUSH2 0xD64 JUMP JUMPDEST POP SWAP1 JUMP JUMPDEST PUSH0 DUP2 MLOAD SWAP1 POP SWAP2 SWAP1 POP JUMP JUMPDEST PUSH0 DUP3 DUP3 MSTORE PUSH1 0x20 DUP3 ADD SWAP1 POP SWAP3 SWAP2 POP POP JUMP JUMPDEST DUP3 DUP2 DUP4 MCOPY PUSH0 DUP4 DUP4 ADD MSTORE POP POP POP JUMP JUMPDEST PUSH0 PUSH1 0x1F NOT PUSH1 0x1F DUP4 ADD AND SWAP1 POP SWAP2 SWAP1 POP JUMP JUMPDEST PUSH0 PUSH2 0xDC0 DUP3 PUSH2 0xD7E JUMP JUMPDEST PUSH2 0xDCA DUP2 DUP6 PUSH2 0xD88 JUMP JUMPDEST SWAP4 POP PUSH2 0xDDA DUP2 DUP6 PUSH1 0x20 DUP7 ADD PUSH2 0xD98 JUMP JUMPDEST PUSH2 0xDE3 DUP2 PUSH2 0xDA6 JUMP JUMPDEST DUP5 ADD SWAP2 POP POP SWAP3 SWAP2 POP POP JUMP JUMPDEST PUSH0 PUSH1 0x20 DUP3 ADD SWAP1 POP DUP2 DUP2 SUB PUSH0 DUP4 ADD MSTORE PUSH2 0xE06 DUP2 DUP5 PUSH2 0xDB6 JUMP JUMPDEST SWAP1 POP SWAP3 SWAP2 POP POP JUMP JUMPDEST PUSH0 PUSH1 0x40 MLOAD SWAP1 POP SWAP1 JUMP JUMPDEST PUSH0 PUSH0 REVERT JUMPDEST PUSH0 PUSH0 REVERT JUMPDEST PUSH0 DUP2 SWAP1 POP SWAP2 SWAP1 POP JUMP JUMPDEST PUSH2 0xE31 DUP2 PUSH2 0xE1F JUMP JUMPDEST DUP2 EQ PUSH2 0xE3B JUMPI PUSH0 PUSH0 REVERT JUMPDEST POP JUMP JUMPDEST PUSH0 DUP2 CALLDATALOAD SWAP1 POP PUSH2 0xE4C DUP2 PUSH2 0xE28 JUMP JUMPDEST SWAP3 SWAP2 POP POP JUMP JUMPDEST PUSH0 PUSH1 0x20 DUP3 DUP5 SUB SLT ISZERO PUSH2 0xE67 JUMPI PUSH2 0xE66 PUSH2 0xE17 JUMP JUMPDEST JUMPDEST PUSH0 PUSH2 0xE74 DUP5 DUP3 DUP6 ADD PUSH2 0xE3E JUMP JUMPDEST SWAP2 POP POP SWAP3 SWAP2 POP POP JUMP JUMPDEST PUSH0 DUP2 ISZERO ISZERO SWAP1 POP SWAP2 SWAP1 POP JUMP JUMPDEST PUSH2 0xE91 DUP2 PUSH2 0xE7D JUMP JUMPDEST DUP3 MSTORE POP POP JUMP JUMPDEST PUSH0 PUSH1 0x20 DUP3 ADD SWAP1 POP PUSH2 0xEAA PUSH0 DUP4 ADD DUP5 PUSH2 0xE88 JUMP JUMPDEST SWAP3 SWAP2 POP POP JUMP JUMPDEST PUSH2 0xEB9 DUP2 PUSH2 0xE1F JUMP JUMPDEST DUP3 MSTORE POP POP JUMP JUMPDEST PUSH0 PUSH20 0xFFFFFFFFFFFFFFFFFFFFFFFFFFFFFFFFFFFFFFFF DUP3 AND SWAP1 POP SWAP2 SWAP1 POP JUMP JUMPDEST PUSH0 PUSH2 0xEE8 DUP3 PUSH2 0xEBF JUMP JUMPDEST SWAP1 POP SWAP2 SWAP1 POP JUMP JUMPDEST PUSH2 0xEF8 DUP2 PUSH2 0xEDE JUMP JUMPDEST DUP3 MSTORE POP POP JUMP JUMPDEST PUSH0 PUSH1 0xA0 DUP3 ADD SWAP1 POP PUSH2 0xF11 PUSH0 DUP4 ADD DUP9 PUSH2 0xEB0 JUMP JUMPDEST DUP2 DUP2 SUB PUSH1 0x20 DUP4 ADD MSTORE PUSH2 0xF23 DUP2 DUP8 PUSH2 0xDB6 JUMP JUMPDEST SWAP1 POP PUSH2 0xF32 PUSH1 0x40 DUP4 ADD DUP7 PUSH2 0xEB0 JUMP JUMPDEST PUSH2 0xF3F PUSH1 0x60 DUP4 ADD DUP6 PUSH2 0xEEF JUMP JUMPDEST PUSH2 0xF4C PUSH1 0x80 DUP4 ADD DUP5 PUSH2 0xE88 JUMP JUMPDEST SWAP7 SWAP6 POP POP POP POP POP POP JUMP JUMPDEST PUSH0 PUSH0 PUSH1 0x40 DUP4 DUP6 SUB SLT ISZERO PUSH2 0xF6C JUMPI PUSH2 0xF6B PUSH2 0xE17 JUMP JUMPDEST JUMPDEST PUSH0 PUSH2 0xF79 DUP6 DUP3 DUP7 ADD PUSH2 0xE3E JUMP JUMPDEST SWAP3 POP POP PUSH1 0x20 PUSH2 0xF8A DUP6 DUP3 DUP7 ADD PUSH2 0xE3E JUMP JUMPDEST SWAP2 POP POP SWAP3 POP SWAP3 SWAP1 POP JUMP JUMPDEST PUSH0 PUSH1 0xFF DUP3 AND SWAP1 POP SWAP2 SWAP1 POP JUMP JUMPDEST PUSH2 0xFA9 DUP2 PUSH2 0xF94 JUMP JUMPDEST DUP3 MSTORE POP POP JUMP JUMPDEST PUSH0 PUSH1 0x20 DUP3 ADD SWAP1 POP PUSH2 0xFC2 PUSH0 DUP4 ADD DUP5 PUSH2 0xFA0 JUMP JUMPDEST SWAP3 SWAP2 POP POP JUMP JUMPDEST PUSH0 PUSH1 0x60 DUP3 ADD SWAP1 POP DUP2 DUP2 SUB PUSH0 DUP4 ADD MSTORE PUSH2 0xFE0 DUP2 DUP7 PUSH2 0xDB6 JUMP JUMPDEST SWAP1 POP PUSH2 0xFEF PUSH1 0x20 DUP4 ADD DUP6 PUSH2 0xEB0 JUMP JUMPDEST PUSH2 0xFFC PUSH1 0x40 DUP4 ADD DUP5 PUSH2 0xEEF JUMP JUMPDEST SWAP5 SWAP4 POP POP POP POP JUMP JUMPDEST PUSH0 PUSH0 REVERT JUMPDEST PUSH0 PUSH0 REVERT JUMPDEST PUSH32 0x4E487B7100000000000000000000000000000000000000000000000000000000 PUSH0 MSTORE PUSH1 0x41 PUSH1 0x4 MSTORE PUSH1 0x24 PUSH0 REVERT JUMPDEST PUSH2 0x1042 DUP3 PUSH2 0xDA6 JUMP JUMPDEST DUP2 ADD DUP2 DUP2 LT PUSH8 0xFFFFFFFFFFFFFFFF DUP3 GT OR ISZERO PUSH2 0x1061 JUMPI PUSH2 0x1060 PUSH2 0x100C JUMP JUMPDEST JUMPDEST DUP1 PUSH1 0x40 MSTORE POP POP POP JUMP JUMPDEST PUSH0 PUSH2 0x1073 PUSH2 0xE0E JUMP JUMPDEST SWAP1 POP PUSH2 0x107F DUP3 DUP3 PUSH2 0x1039 JUMP JUMPDEST SWAP2 SWAP1 POP JUMP JUMPDEST PUSH0 PUSH8 0xFFFFFFFFFFFFFFFF DUP3 GT ISZERO PUSH2 0x109E JUMPI PUSH2 0x109D PUSH2 0x100C JUMP JUMPDEST JUMPDEST PUSH2 0x10A7 DUP3 PUSH2 0xDA6 JUMP JUMPDEST SWAP1 POP PUSH1 0x20 DUP2 ADD SWAP1 POP SWAP2 SWAP1 POP JUMP JUMPDEST DUP3 DUP2 DUP4 CALLDATACOPY PUSH0 DUP4 DUP4 ADD MSTORE POP POP POP JUMP JUMPDEST PUSH0 PUSH2 0x10D4 PUSH2 0x10CF DUP5 PUSH2 0x1084 JUMP JUMPDEST PUSH2 0x106A JUMP JUMPDEST SWAP1 POP DUP3 DUP2 MSTORE PUSH1 0x20 DUP2 ADD DUP5 DUP5 DUP5 ADD GT ISZERO PUSH2 0x10F0 JUMPI PUSH2 0x10EF PUSH2 0x1008 JUMP JUMPDEST JUMPDEST PUSH2 0x10FB DUP5 DUP3 DUP6 PUSH2 0x10B4 JUMP JUMPDEST POP SWAP4 SWAP3 POP POP POP JUMP JUMPDEST PUSH0 DUP3 PUSH1 0x1F DUP4 ADD SLT PUSH2 0x1117 JUMPI PUSH2 0x1116 PUSH2 0x1004 JUMP JUMPDEST JUMPDEST DUP2 CALLDATALOAD PUSH2 0x1127 DUP5 DUP3 PUSH1 0x20 DUP7 ADD PUSH2 0x10C2 JUMP JUMPDEST SWAP2 POP POP SWAP3 SWAP2 POP POP JUMP JUMPDEST PUSH0 PUSH0 PUSH0 PUSH1 0x60 DUP5 DUP7 SUB SLT ISZERO PUSH2 0x1147 JUMPI PUSH2 0x1146 PUSH2 0xE17 JUMP JUMPDEST JUMPDEST PUSH0 PUSH2 0x1154 DUP7 DUP3 DUP8 ADD PUSH2 0xE3E JUMP JUMPDEST SWAP4 POP POP PUSH1 0x20 DUP5 ADD CALLDATALOAD PUSH8 0xFFFFFFFFFFFFFFFF DUP2 GT ISZERO PUSH2 0x1175 JUMPI PUSH2 0x1174 PUSH2 0xE1B JUMP JUMPDEST JUMPDEST PUSH2 0x1181 DUP7 DUP3 DUP8 ADD PUSH2 0x1103 JUMP JUMPDEST SWAP3 POP POP PUSH1 0x40 PUSH2 0x1192 DUP7 DUP3 DUP8 ADD PUSH2 0xE3E JUMP JUMPDEST SWAP2 POP POP SWAP3 POP SWAP3 POP SWAP3 JUMP JUMPDEST PUSH32 0x4E487B7100000000000000000000000000000000000000000000000000000000 PUSH0 MSTORE PUSH1 0x22 PUSH1 0x4 MSTORE PUSH1 0x24 PUSH0 REVERT JUMPDEST PUSH0 PUSH1 0x2 DUP3 DIV SWAP1 POP PUSH1 0x1 DUP3 AND DUP1 PUSH2 0x11E0 JUMPI PUSH1 0x7F DUP3 AND SWAP2 POP JUMPDEST PUSH1 0x20 DUP3 LT DUP2 SUB PUSH2 0x11F3 JUMPI PUSH2 0x11F2 PUSH2 0x119C JUMP JUMPDEST JUMPDEST POP SWAP2 SWAP1 POP JUMP JUMPDEST PUSH32 0x53747564656E7420696420646F6573206E6F7420657869737400000000000000 PUSH0 DUP3 ADD MSTORE POP JUMP JUMPDEST PUSH0 PUSH2 0x122D PUSH1 0x19 DUP4 PUSH2 0xD88 JUMP JUMPDEST SWAP2 POP PUSH2 0x1238 DUP3 PUSH2 0x11F9 JUMP JUMPDEST PUSH1 0x20 DUP3 ADD SWAP1 POP SWAP2 SWAP1 POP JUMP JUMPDEST PUSH0 PUSH1 0x20 DUP3 ADD SWAP1 POP DUP2 DUP2 SUB PUSH0 DUP4 ADD MSTORE PUSH2 0x125A DUP2 PUSH2 0x1221 JUMP JUMPDEST SWAP1 POP SWAP2 SWAP1 POP JUMP JUMPDEST PUSH32 0x536F727279206265206269000000000000000000000000000000000000000000 PUSH0 DUP3 ADD MSTORE POP JUMP JUMPDEST PUSH0 PUSH2 0x1295 PUSH1 0xB DUP4 PUSH2 0xD88 JUMP JUMPDEST SWAP2 POP PUSH2 0x12A0 DUP3 PUSH2 0x1261 JUMP JUMPDEST PUSH1 0x20 DUP3 ADD SWAP1 POP SWAP2 SWAP1 POP JUMP JUMPDEST PUSH0 PUSH1 0x20 DUP3 ADD SWAP1 POP DUP2 DUP2 SUB PUSH0 DUP4 ADD MSTORE PUSH2 0x12C2 DUP2 PUSH2 0x1289 JUMP JUMPDEST SWAP1 POP SWAP2 SWAP1 POP JUMP JUMPDEST PUSH0 DUP2 SWAP1 POP DUP2 PUSH0 MSTORE PUSH1 0x20 PUSH0 KECCAK256 SWAP1 POP SWAP2 SWAP1 POP JUMP JUMPDEST PUSH0 PUSH1 0x20 PUSH1 0x1F DUP4 ADD DIV SWAP1 POP SWAP2 SWAP1 POP JUMP JUMPDEST PUSH0 DUP3 DUP3 SHL SWAP1 POP SWAP3 SWAP2 POP POP JUMP JUMPDEST PUSH0 PUSH1 0x8 DUP4 MUL PUSH2 0x1325 PUSH32 0xFFFFFFFFFFFFFFFFFFFFFFFFFFFFFFFFFFFFFFFFFFFFFFFFFFFFFFFFFFFFFFFF DUP3 PUSH2 0x12EA JUMP JUMPDEST PUSH2 0x132F DUP7 DUP4 PUSH2 0x12EA JUMP JUMPDEST SWAP6 POP DUP1 NOT DUP5 AND SWAP4 POP DUP1 DUP7 AND DUP5 OR SWAP3 POP POP POP SWAP4 SWAP3 POP POP POP JUMP JUMPDEST PUSH0 DUP2 SWAP1 POP SWAP2 SWAP1 POP JUMP JUMPDEST PUSH0 PUSH2 0x136A PUSH2 0x1365 PUSH2 0x1360 DUP5 PUSH2 0xE1F JUMP JUMPDEST PUSH2 0x1347 JUMP JUMPDEST PUSH2 0xE1F JUMP JUMPDEST SWAP1 POP SWAP2 SWAP1 POP JUMP JUMPDEST PUSH0 DUP2 SWAP1 POP SWAP2 SWAP1 POP JUMP JUMPDEST PUSH2 0x1383 DUP4 PUSH2 0x1350 JUMP JUMPDEST PUSH2 0x1397 PUSH2 0x138F DUP3 PUSH2 0x1371 JUMP JUMPDEST DUP5 DUP5 SLOAD PUSH2 0x12F6 JUMP JUMPDEST DUP3 SSTORE POP POP POP POP JUMP JUMPDEST PUSH0 PUSH0 SWAP1 POP SWAP1 JUMP JUMPDEST PUSH2 0x13AE PUSH2 0x139F JUMP JUMPDEST PUSH2 0x13B9 DUP2 DUP5 DUP5 PUSH2 0x137A JUMP JUMPDEST POP POP POP JUMP JUMPDEST JUMPDEST DUP2 DUP2 LT ISZERO PUSH2 0x13DC JUMPI PUSH2 0x13D1 PUSH0 DUP3 PUSH2 0x13A6 JUMP JUMPDEST PUSH1 0x1 DUP2 ADD SWAP1 POP PUSH2 0x13BF JUMP JUMPDEST POP POP JUMP JUMPDEST PUSH1 0x1F DUP3 GT ISZERO PUSH2 0x1421 JUMPI PUSH2 0x13F2 DUP2 PUSH2 0x12C9 JUMP JUMPDEST PUSH2 0x13FB DUP5 PUSH2 0x12DB JUMP JUMPDEST DUP2 ADD PUSH1 0x20 DUP6 LT ISZERO PUSH2 0x140A JUMPI DUP2 SWAP1 POP JUMPDEST PUSH2 0x141E PUSH2 0x1416 DUP6 PUSH2 0x12DB JUMP JUMPDEST DUP4 ADD DUP3 PUSH2 0x13BE JUMP JUMPDEST POP POP JUMPDEST POP POP POP JUMP JUMPDEST PUSH0 DUP3 DUP3 SHR SWAP1 POP SWAP3 SWAP2 POP POP JUMP JUMPDEST PUSH0 PUSH2 0x1441 PUSH0 NOT DUP5 PUSH1 0x8 MUL PUSH2 0x1426 JUMP JUMPDEST NOT DUP1 DUP4 AND SWAP2 POP POP SWAP3 SWAP2 POP POP JUMP JUMPDEST PUSH0 PUSH2 0x1459 DUP4 DUP4 PUSH2 0x1432 JUMP JUMPDEST SWAP2 POP DUP3 PUSH1 0x2 MUL DUP3 OR SWAP1 POP SWAP3 SWAP2 POP POP JUMP JUMPDEST PUSH2 0x1472 DUP3 PUSH2 0xD7E JUMP JUMPDEST PUSH8 0xFFFFFFFFFFFFFFFF DUP2 GT ISZERO PUSH2 0x148B JUMPI PUSH2 0x148A PUSH2 0x100C JUMP JUMPDEST JUMPDEST PUSH2 0x1495 DUP3 SLOAD PUSH2 0x11C9 JUMP JUMPDEST PUSH2 0x14A0 DUP3 DUP3 DUP6 PUSH2 0x13E0 JUMP JUMPDEST PUSH0 PUSH1 0x20 SWAP1 POP PUSH1 0x1F DUP4 GT PUSH1 0x1 DUP2 EQ PUSH2 0x14D1 JUMPI PUSH0 DUP5 ISZERO PUSH2 0x14BF JUMPI DUP3 DUP8 ADD MLOAD SWAP1 POP JUMPDEST PUSH2 0x14C9 DUP6 DUP3 PUSH2 0x144E JUMP JUMPDEST DUP7 SSTORE POP PUSH2 0x1530 JUMP JUMPDEST PUSH1 0x1F NOT DUP5 AND PUSH2 0x14DF DUP7 PUSH2 0x12C9 JUMP JUMPDEST PUSH0 JUMPDEST DUP3 DUP2 LT ISZERO PUSH2 0x1506 JUMPI DUP5 DUP10 ADD MLOAD DUP3 SSTORE PUSH1 0x1 DUP3 ADD SWAP2 POP PUSH1 0x20 DUP6 ADD SWAP5 POP PUSH1 0x20 DUP2 ADD SWAP1 POP PUSH2 0x14E1 JUMP JUMPDEST DUP7 DUP4 LT ISZERO PUSH2 0x1523 JUMPI DUP5 DUP10 ADD MLOAD PUSH2 0x151F PUSH1 0x1F DUP10 AND DUP3 PUSH2 0x1432 JUMP JUMPDEST DUP4 SSTORE POP JUMPDEST PUSH1 0x1 PUSH1 0x2 DUP9 MUL ADD DUP9 SSTORE POP POP POP JUMPDEST POP POP POP POP POP POP JUMP JUMPDEST PUSH32 0x53747564656E74206861732062656E204C6F636B656421212100000000000000 PUSH0 DUP3 ADD MSTORE POP JUMP JUMPDEST PUSH0 PUSH2 0x156C PUSH1 0x19 DUP4 PUSH2 0xD88 JUMP JUMPDEST SWAP2 POP PUSH2 0x1577 DUP3 PUSH2 0x1538 JUMP JUMPDEST PUSH1 0x20 DUP3 ADD SWAP1 POP SWAP2 SWAP1 POP JUMP JUMPDEST PUSH0 PUSH1 0x20 DUP3 ADD SWAP1 POP DUP2 DUP2 SUB PUSH0 DUP4 ADD MSTORE PUSH2 0x1599 DUP2 PUSH2 0x1560 JUMP JUMPDEST SWAP1 POP SWAP2 SWAP1 POP JUMP JUMPDEST PUSH32 0x4E487B7100000000000000000000000000000000000000000000000000000000 PUSH0 MSTORE PUSH1 0x11 PUSH1 0x4 MSTORE PUSH1 0x24 PUSH0 REVERT JUMPDEST PUSH0 PUSH2 0x15D7 DUP3 PUSH2 0xF94 JUMP JUMPDEST SWAP2 POP PUSH0 DUP3 SUB PUSH2 0x15E9 JUMPI PUSH2 0x15E8 PUSH2 0x15A0 JUMP JUMPDEST JUMPDEST PUSH1 0x1 DUP3 SUB SWAP1 POP SWAP2 SWAP1 POP JUMP JUMPDEST PUSH32 0x53747564656E7420696420616C72656164792065786973747300000000000000 PUSH0 DUP3 ADD MSTORE POP JUMP JUMPDEST PUSH0 PUSH2 0x1628 PUSH1 0x19 DUP4 PUSH2 0xD88 JUMP JUMPDEST SWAP2 POP PUSH2 0x1633 DUP3 PUSH2 0x15F4 JUMP JUMPDEST PUSH1 0x20 DUP3 ADD SWAP1 POP SWAP2 SWAP1 POP JUMP JUMPDEST PUSH0 PUSH1 0x20 DUP3 ADD SWAP1 POP DUP2 DUP2 SUB PUSH0 DUP4 ADD MSTORE PUSH2 0x1655 DUP2 PUSH2 0x161C JUMP JUMPDEST SWAP1 POP SWAP2 SWAP1 POP JUMP JUMPDEST PUSH32 0x416920656D20736F727279210000000000000000000000000000000000000000 PUSH0 DUP3 ADD MSTORE POP JUMP JUMPDEST PUSH0 PUSH2 0x1690 PUSH1 0xC DUP4 PUSH2 0xD88 JUMP JUMPDEST SWAP2 POP PUSH2 0x169B DUP3 PUSH2 0x165C JUMP JUMPDEST PUSH1 0x20 DUP3 ADD SWAP1 POP SWAP2 SWAP1 POP JUMP JUMPDEST PUSH0 PUSH1 0x20 DUP3 ADD SWAP1 POP DUP2 DUP2 SUB PUSH0 DUP4 ADD MSTORE PUSH2 0x16BD DUP2 PUSH2 0x1684 JUMP JUMPDEST SWAP1 POP SWAP2 SWAP1 POP JUMP JUMPDEST PUSH0 PUSH2 0x16CE DUP3 PUSH2 0xF94 JUMP JUMPDEST SWAP2 POP PUSH1 0xFF DUP3 SUB PUSH2 0x16E1 JUMPI PUSH2 0x16E0 PUSH2 0x15A0 JUMP JUMPDEST JUMPDEST PUSH1 0x1 DUP3 ADD SWAP1 POP SWAP2 SWAP1 POP JUMP INVALID LOG2 PUSH5 0x6970667358 0x22 SLT KECCAK256 0xAE EXTCODESIZE NUMBER 0xBE 0x24 PUSH10 0xF2C1163D62F39D0C1B4A PC JUMP CHAINID LOG4 PUSH17 0xD86F00966EC391B905829864736F6C6343 STOP ADDMOD 0x1E STOP CALLER "
				},
				"gasEstimates": {
					"creation": {
						"codeDepositCost": "1184400",
						"executionCost": "infinite",
						"totalCost": "infinite"
					},
					"external": {
						"CheckGas()": "408",
						"CheckGas2()": "430",
						"CountStudent()": "2577",
						"Older19(uint256)": "628",
						"ReturnTotal()": "2496",
						"activeStudent(uint256)": "infinite",
						"addStudent(uint256,string,uint256)": "infinite",
						"className()": "infinite",
						"exists(uint256)": "2881",
						"getStudent(uint256)": "infinite",
						"removeStudent(uint256)": "infinite",
						"students(uint256)": "infinite",
						"updateStudentAge(uint256,uint256)": "infinite"
					}
				},
				"methodIdentifiers": {
					"CheckGas()": "6d07826a",
					"CheckGas2()": "a12046af",
					"CountStudent()": "2df56fd2",
					"Older19(uint256)": "021e1c9e",
					"ReturnTotal()": "3f9f42d2",
					"activeStudent(uint256)": "24f47e4f",
					"addStudent(uint256,string,uint256)": "c1bea1db",
					"className()": "00c51f8c",
					"exists(uint256)": "4f558e79",
					"getStudent(uint256)": "642f9163",
					"removeStudent(uint256)": "6af83845",
					"students(uint256)": "06ead22e",
					"updateStudentAge(uint256,uint256)": "13a46f31"
				}
			},
			"storageLayout": {
				"storage": [
					{
						"astId": 4,
						"contract": "contracts/qlsinhvien.sol:StudentManager",
						"label": "className",
						"offset": 0,
						"slot": "0",
						"type": "t_string_storage"
					},
					{
						"astId": 20,
						"contract": "contracts/qlsinhvien.sol:StudentManager",
						"label": "students",
						"offset": 0,
						"slot": "1",
						"type": "t_mapping(t_uint256,t_struct(Student)15_storage)"
					},
					{
						"astId": 22,
						"contract": "contracts/qlsinhvien.sol:StudentManager",
						"label": "CountStudent",
						"offset": 0,
						"slot": "2",
						"type": "t_uint8"
					}
				],
				"types": {
					"t_address": {
						"encoding": "inplace",
						"label": "address",
						"numberOfBytes": "20"
					},
					"t_bool": {
						"encoding": "inplace",
						"label": "bool",
						"numberOfBytes": "1"
					},
					"t_mapping(t_uint256,t_struct(Student)15_storage)": {
						"encoding": "mapping",
						"key": "t_uint256",
						"label": "mapping(uint256 => struct StudentManager.Student)",
						"numberOfBytes": "32",
						"value": "t_struct(Student)15_storage"
					},
					"t_string_storage": {
						"encoding": "bytes",
						"label": "string",
						"numberOfBytes": "32"
					},
					"t_struct(Student)15_storage": {
						"encoding": "inplace",
						"label": "struct StudentManager.Student",
						"members": [
							{
								"astId": 6,
								"contract": "contracts/qlsinhvien.sol:StudentManager",
								"label": "id",
								"offset": 0,
								"slot": "0",
								"type": "t_uint256"
							},
							{
								"astId": 8,
								"contract": "contracts/qlsinhvien.sol:StudentManager",
								"label": "name",
								"offset": 0,
								"slot": "1",
								"type": "t_string_storage"
							},
							{
								"astId": 10,
								"contract": "contracts/qlsinhvien.sol:StudentManager",
								"label": "age",
								"offset": 0,
								"slot": "2",
								"type": "t_uint256"
							},
							{
								"astId": 12,
								"contract": "contracts/qlsinhvien.sol:StudentManager",
								"label": "studentAddress",
								"offset": 0,
								"slot": "3",
								"type": "t_address"
							},
							{
								"astId": 14,
								"contract": "contracts/qlsinhvien.sol:StudentManager",
								"label": "is_active",
								"offset": 20,
								"slot": "3",
								"type": "t_bool"
							}
						],
						"numberOfBytes": "128"
					},
					"t_uint256": {
						"encoding": "inplace",
						"label": "uint256",
						"numberOfBytes": "32"
					},
					"t_uint8": {
						"encoding": "inplace",
						"label": "uint8",
						"numberOfBytes": "1"
					}
				}
			},
			"userdoc": {
				"kind": "user",
				"methods": {},
				"version": 1
			}
		}
	}
}