{
	"contracts/bt/StoreManager.sol": {
		"StoreManager": {
			"abi": [
				{
					"inputs": [
						{
							"internalType": "string",
							"name": "_nameProduct",
							"type": "string"
						},
						{
							"internalType": "uint256",
							"name": "_price",
							"type": "uint256"
						},
						{
							"internalType": "uint256",
							"name": "_quantity",
							"type": "uint256"
						}
					],
					"name": "addProduct",
					"outputs": [],
					"stateMutability": "nonpayable",
					"type": "function"
				},
				{
					"inputs": [
						{
							"internalType": "string",
							"name": "_username",
							"type": "string"
						},
						{
							"internalType": "string",
							"name": "_nameProduct",
							"type": "string"
						},
						{
							"internalType": "uint256",
							"name": "_quantity",
							"type": "uint256"
						}
					],
					"name": "buyProduct",
					"outputs": [],
					"stateMutability": "nonpayable",
					"type": "function"
				},
				{
					"inputs": [],
					"name": "getAllProducts",
					"outputs": [
						{
							"components": [
								{
									"internalType": "string",
									"name": "nameProduct",
									"type": "string"
								},
								{
									"internalType": "uint256",
									"name": "price",
									"type": "uint256"
								},
								{
									"internalType": "uint256",
									"name": "quantity",
									"type": "uint256"
								}
							],
							"internalType": "struct Product[]",
							"name": "",
							"type": "tuple[]"
						}
					],
					"stateMutability": "view",
					"type": "function"
				},
				{
					"inputs": [
						{
							"internalType": "string",
							"name": "_nameProduct",
							"type": "string"
						}
					],
					"name": "getProductInfo",
					"outputs": [
						{
							"internalType": "uint256",
							"name": "price",
							"type": "uint256"
						},
						{
							"internalType": "uint256",
							"name": "quantity",
							"type": "uint256"
						}
					],
					"stateMutability": "view",
					"type": "function"
				},
				{
					"inputs": [
						{
							"internalType": "string",
							"name": "_username",
							"type": "string"
						}
					],
					"name": "getPurchaseHistory",
					"outputs": [
						{
							"components": [
								{
									"internalType": "string",
									"name": "nameProduct",
									"type": "string"
								},
								{
									"internalType": "uint256",
									"name": "price",
									"type": "uint256"
								},
								{
									"internalType": "uint256",
									"name": "quantity",
									"type": "uint256"
								}
							],
							"internalType": "struct Order[]",
							"name": "",
							"type": "tuple[]"
						}
					],
					"stateMutability": "view",
					"type": "function"
				}
			],
			"devdoc": {
				"kind": "dev",
				"methods": {},
				"version": 1
			},
			"evm": {
				"assembly": "    /* \"contracts/bt/StoreManager.sol\":391:2221  contract StoreManager {... */\n  mstore(0x40, 0x80)\n  callvalue\n  dup1\n  iszero\n  tag_1\n  jumpi\n  revert(0x00, 0x00)\ntag_1:\n  pop\n  dataSize(sub_0)\n  dup1\n  dataOffset(sub_0)\n  0x00\n  codecopy\n  0x00\n  return\nstop\n\nsub_0: assembly {\n        /* \"contracts/bt/StoreManager.sol\":391:2221  contract StoreManager {... */\n      mstore(0x40, 0x80)\n      callvalue\n      dup1\n      iszero\n      tag_1\n      jumpi\n      revert(0x00, 0x00)\n    tag_1:\n      pop\n      jumpi(tag_2, lt(calldatasize, 0x04))\n      shr(0xe0, calldataload(0x00))\n      dup1\n      0x02ee3a52\n      eq\n      tag_3\n      jumpi\n      dup1\n      0x125b0b34\n      eq\n      tag_4\n      jumpi\n      dup1\n      0x57ba11b0\n      eq\n      tag_5\n      jumpi\n      dup1\n      0x80e345a0\n      eq\n      tag_6\n      jumpi\n      dup1\n      0xaa7acd50\n      eq\n      tag_7\n      jumpi\n    tag_2:\n      revert(0x00, 0x00)\n        /* \"contracts/bt/StoreManager.sol\":1280:1565  function getAllProducts() external view returns (Product[] memory) {... */\n    tag_3:\n      tag_8\n      tag_9\n      jump\t// in\n    tag_8:\n      mload(0x40)\n      tag_10\n      swap2\n      swap1\n      tag_11\n      jump\t// in\n    tag_10:\n      mload(0x40)\n      dup1\n      swap2\n      sub\n      swap1\n      return\n        /* \"contracts/bt/StoreManager.sol\":561:985  function addProduct(string memory _nameProduct, uint _price, uint _quantity) external {... */\n    tag_4:\n      tag_12\n      0x04\n      dup1\n      calldatasize\n      sub\n      dup2\n      add\n      swap1\n      tag_13\n      swap2\n      swap1\n      tag_14\n      jump\t// in\n    tag_13:\n      tag_15\n      jump\t// in\n    tag_12:\n      stop\n        /* \"contracts/bt/StoreManager.sol\":991:1274  function getProductInfo(string memory _nameProduct) external view returns (uint price, uint quantity) {... */\n    tag_5:\n      tag_16\n      0x04\n      dup1\n      calldatasize\n      sub\n      dup2\n      add\n      swap1\n      tag_17\n      swap2\n      swap1\n      tag_18\n      jump\t// in\n    tag_17:\n      tag_19\n      jump\t// in\n    tag_16:\n      mload(0x40)\n      tag_20\n      swap3\n      swap2\n      swap1\n      tag_21\n      jump\t// in\n    tag_20:\n      mload(0x40)\n      dup1\n      swap2\n      sub\n      swap1\n      return\n        /* \"contracts/bt/StoreManager.sol\":2079:2219  function getPurchaseHistory(string memory _username) external view returns (Order[] memory) {... */\n    tag_6:\n      tag_22\n      0x04\n      dup1\n      calldatasize\n      sub\n      dup2\n      add\n      swap1\n      tag_23\n      swap2\n      swap1\n      tag_18\n      jump\t// in\n    tag_23:\n      tag_24\n      jump\t// in\n    tag_22:\n      mload(0x40)\n      tag_25\n      swap2\n      swap1\n      tag_26\n      jump\t// in\n    tag_25:\n      mload(0x40)\n      dup1\n      swap2\n      sub\n      swap1\n      return\n        /* \"contracts/bt/StoreManager.sol\":1571:2073  function buyProduct(string memory _username, string memory _nameProduct, uint _quantity) external {... */\n    tag_7:\n      tag_27\n      0x04\n      dup1\n      calldatasize\n      sub\n      dup2\n      add\n      swap1\n      tag_28\n      swap2\n      swap1\n      tag_29\n      jump\t// in\n    tag_28:\n      tag_30\n      jump\t// in\n    tag_27:\n      stop\n        /* \"contracts/bt/StoreManager.sol\":1280:1565  function getAllProducts() external view returns (Product[] memory) {... */\n    tag_9:\n        /* \"contracts/bt/StoreManager.sol\":1329:1345  Product[] memory */\n      0x60\n        /* \"contracts/bt/StoreManager.sol\":1357:1380  Product[] memory result */\n      0x00\n        /* \"contracts/bt/StoreManager.sol\":1397:1409  productNames */\n      0x01\n        /* \"contracts/bt/StoreManager.sol\":1397:1416  productNames.length */\n      dup1\n      sload\n      swap1\n      pop\n        /* \"contracts/bt/StoreManager.sol\":1383:1417  new Product[](productNames.length) */\n      0xffffffffffffffff\n      dup2\n      gt\n      iszero\n      tag_32\n      jumpi\n      tag_33\n      tag_34\n      jump\t// in\n    tag_33:\n    tag_32:\n      mload(0x40)\n      swap1\n      dup1\n      dup3\n      mstore\n      dup1\n      0x20\n      mul\n      0x20\n      add\n      dup3\n      add\n      0x40\n      mstore\n      dup1\n      iszero\n      tag_35\n      jumpi\n      dup2\n      0x20\n      add\n    tag_36:\n      tag_37\n      tag_38\n      jump\t// in\n    tag_37:\n      dup2\n      mstore\n      0x20\n      add\n      swap1\n      0x01\n      swap1\n      sub\n      swap1\n      dup2\n      tag_36\n      jumpi\n      swap1\n      pop\n    tag_35:\n      pop\n        /* \"contracts/bt/StoreManager.sol\":1357:1417  Product[] memory result = new Product[](productNames.length) */\n      swap1\n      pop\n        /* \"contracts/bt/StoreManager.sol\":1432:1438  uint i */\n      0x00\n        /* \"contracts/bt/StoreManager.sol\":1441:1442  0 */\n      0x00\n        /* \"contracts/bt/StoreManager.sol\":1432:1442  uint i = 0 */\n      swap1\n      pop\n        /* \"contracts/bt/StoreManager.sol\":1427:1536  for (uint i = 0; i < productNames.length; i++) {... */\n    tag_39:\n        /* \"contracts/bt/StoreManager.sol\":1448:1460  productNames */\n      0x01\n        /* \"contracts/bt/StoreManager.sol\":1448:1467  productNames.length */\n      dup1\n      sload\n      swap1\n      pop\n        /* \"contracts/bt/StoreManager.sol\":1444:1445  i */\n      dup2\n        /* \"contracts/bt/StoreManager.sol\":1444:1467  i < productNames.length */\n      lt\n        /* \"contracts/bt/StoreManager.sol\":1427:1536  for (uint i = 0; i < productNames.length; i++) {... */\n      iszero\n      tag_40\n      jumpi\n        /* \"contracts/bt/StoreManager.sol\":1500:1508  products */\n      0x00\n        /* \"contracts/bt/StoreManager.sol\":1509:1521  productNames */\n      0x01\n        /* \"contracts/bt/StoreManager.sol\":1522:1523  i */\n      dup3\n        /* \"contracts/bt/StoreManager.sol\":1509:1524  productNames[i] */\n      dup2\n      sload\n      dup2\n      lt\n      tag_42\n      jumpi\n      tag_43\n      tag_44\n      jump\t// in\n    tag_43:\n    tag_42:\n      swap1\n      0x00\n      mstore\n      keccak256(0x00, 0x20)\n      add\n        /* \"contracts/bt/StoreManager.sol\":1500:1525  products[productNames[i]] */\n      mload(0x40)\n      tag_46\n      swap2\n      swap1\n      tag_47\n      jump\t// in\n    tag_46:\n      swap1\n      dup2\n      mstore\n      0x20\n      add\n      mload(0x40)\n      dup1\n      swap2\n      sub\n      swap1\n      keccak256\n        /* \"contracts/bt/StoreManager.sol\":1488:1525  result[i] = products[productNames[i]] */\n      mload(0x40)\n      dup1\n      0x60\n      add\n      0x40\n      mstore\n      swap1\n      dup2\n      0x00\n      dup3\n      add\n      dup1\n      sload\n      tag_48\n      swap1\n      tag_49\n      jump\t// in\n    tag_48:\n      dup1\n      0x1f\n      add\n      0x20\n      dup1\n      swap2\n      div\n      mul\n      0x20\n      add\n      mload(0x40)\n      swap1\n      dup2\n      add\n      0x40\n      mstore\n      dup1\n      swap3\n      swap2\n      swap1\n      dup2\n      dup2\n      mstore\n      0x20\n      add\n      dup3\n      dup1\n      sload\n      tag_50\n      swap1\n      tag_49\n      jump\t// in\n    tag_50:\n      dup1\n      iszero\n      tag_51\n      jumpi\n      dup1\n      0x1f\n      lt\n      tag_52\n      jumpi\n      0x0100\n      dup1\n      dup4\n      sload\n      div\n      mul\n      dup4\n      mstore\n      swap2\n      0x20\n      add\n      swap2\n      jump(tag_51)\n    tag_52:\n      dup3\n      add\n      swap2\n      swap1\n      0x00\n      mstore\n      keccak256(0x00, 0x20)\n      swap1\n    tag_53:\n      dup2\n      sload\n      dup2\n      mstore\n      swap1\n      0x01\n      add\n      swap1\n      0x20\n      add\n      dup1\n      dup4\n      gt\n      tag_53\n      jumpi\n      dup3\n      swap1\n      sub\n      0x1f\n      and\n      dup3\n      add\n      swap2\n    tag_51:\n      pop\n      pop\n      pop\n      pop\n      pop\n      dup2\n      mstore\n      0x20\n      add\n      0x01\n      dup3\n      add\n      sload\n      dup2\n      mstore\n      0x20\n      add\n      0x02\n      dup3\n      add\n      sload\n      dup2\n      mstore\n      pop\n      pop\n        /* \"contracts/bt/StoreManager.sol\":1488:1494  result */\n      dup3\n        /* \"contracts/bt/StoreManager.sol\":1495:1496  i */\n      dup3\n        /* \"contracts/bt/StoreManager.sol\":1488:1497  result[i] */\n      dup2\n      mload\n      dup2\n      lt\n      tag_54\n      jumpi\n      tag_55\n      tag_44\n      jump\t// in\n    tag_55:\n    tag_54:\n      0x20\n      mul\n      0x20\n      add\n      add\n        /* \"contracts/bt/StoreManager.sol\":1488:1525  result[i] = products[productNames[i]] */\n      dup2\n      swap1\n      mstore\n      pop\n        /* \"contracts/bt/StoreManager.sol\":1469:1472  i++ */\n      dup1\n      dup1\n      0x01\n      add\n      swap2\n      pop\n      pop\n        /* \"contracts/bt/StoreManager.sol\":1427:1536  for (uint i = 0; i < productNames.length; i++) {... */\n      jump(tag_39)\n    tag_40:\n      pop\n        /* \"contracts/bt/StoreManager.sol\":1552:1558  result */\n      dup1\n        /* \"contracts/bt/StoreManager.sol\":1545:1558  return result */\n      swap2\n      pop\n      pop\n        /* \"contracts/bt/StoreManager.sol\":1280:1565  function getAllProducts() external view returns (Product[] memory) {... */\n      swap1\n      jump\t// out\n        /* \"contracts/bt/StoreManager.sol\":561:985  function addProduct(string memory _nameProduct, uint _price, uint _quantity) external {... */\n    tag_15:\n        /* \"contracts/bt/StoreManager.sol\":657:677  Product storage prod */\n      0x00\n        /* \"contracts/bt/StoreManager.sol\":680:688  products */\n      0x00\n        /* \"contracts/bt/StoreManager.sol\":689:701  _nameProduct */\n      dup5\n        /* \"contracts/bt/StoreManager.sol\":680:702  products[_nameProduct] */\n      mload(0x40)\n      tag_57\n      swap2\n      swap1\n      tag_58\n      jump\t// in\n    tag_57:\n      swap1\n      dup2\n      mstore\n      0x20\n      add\n      mload(0x40)\n      dup1\n      swap2\n      sub\n      swap1\n      keccak256\n        /* \"contracts/bt/StoreManager.sol\":657:702  Product storage prod = products[_nameProduct] */\n      swap1\n      pop\n        /* \"contracts/bt/StoreManager.sol\":751:752  0 */\n      0x00\n        /* \"contracts/bt/StoreManager.sol\":723:727  prod */\n      dup2\n        /* \"contracts/bt/StoreManager.sol\":723:739  prod.nameProduct */\n      0x00\n      add\n        /* \"contracts/bt/StoreManager.sol\":717:747  bytes(prod.nameProduct).length */\n      dup1\n      sload\n      tag_59\n      swap1\n      tag_49\n      jump\t// in\n    tag_59:\n      swap1\n      pop\n        /* \"contracts/bt/StoreManager.sol\":717:752  bytes(prod.nameProduct).length == 0 */\n      sub\n        /* \"contracts/bt/StoreManager.sol\":713:979  if (bytes(prod.nameProduct).length == 0) {... */\n      tag_60\n      jumpi\n        /* \"contracts/bt/StoreManager.sol\":793:833  Product(_nameProduct, _price, _quantity) */\n      mload(0x40)\n      dup1\n      0x60\n      add\n      0x40\n      mstore\n      dup1\n        /* \"contracts/bt/StoreManager.sol\":801:813  _nameProduct */\n      dup6\n        /* \"contracts/bt/StoreManager.sol\":793:833  Product(_nameProduct, _price, _quantity) */\n      dup2\n      mstore\n      0x20\n      add\n        /* \"contracts/bt/StoreManager.sol\":815:821  _price */\n      dup5\n        /* \"contracts/bt/StoreManager.sol\":793:833  Product(_nameProduct, _price, _quantity) */\n      dup2\n      mstore\n      0x20\n      add\n        /* \"contracts/bt/StoreManager.sol\":823:832  _quantity */\n      dup4\n        /* \"contracts/bt/StoreManager.sol\":793:833  Product(_nameProduct, _price, _quantity) */\n      dup2\n      mstore\n      pop\n        /* \"contracts/bt/StoreManager.sol\":768:776  products */\n      0x00\n        /* \"contracts/bt/StoreManager.sol\":777:789  _nameProduct */\n      dup6\n        /* \"contracts/bt/StoreManager.sol\":768:790  products[_nameProduct] */\n      mload(0x40)\n      tag_61\n      swap2\n      swap1\n      tag_58\n      jump\t// in\n    tag_61:\n      swap1\n      dup2\n      mstore\n      0x20\n      add\n      mload(0x40)\n      dup1\n      swap2\n      sub\n      swap1\n      keccak256\n        /* \"contracts/bt/StoreManager.sol\":768:833  products[_nameProduct] = Product(_nameProduct, _price, _quantity) */\n      0x00\n      dup3\n      add\n      mload\n      dup2\n      0x00\n      add\n      swap1\n      dup2\n      tag_62\n      swap2\n      swap1\n      tag_63\n      jump\t// in\n    tag_62:\n      pop\n      0x20\n      dup3\n      add\n      mload\n      dup2\n      0x01\n      add\n      sstore\n      0x40\n      dup3\n      add\n      mload\n      dup2\n      0x02\n      add\n      sstore\n      swap1\n      pop\n      pop\n        /* \"contracts/bt/StoreManager.sol\":847:859  productNames */\n      0x01\n        /* \"contracts/bt/StoreManager.sol\":865:877  _nameProduct */\n      dup5\n        /* \"contracts/bt/StoreManager.sol\":847:878  productNames.push(_nameProduct) */\n      swap1\n      dup1\n      0x01\n      dup2\n      sload\n      add\n      dup1\n      dup3\n      sstore\n      dup1\n      swap2\n      pop\n      pop\n      0x01\n      swap1\n      sub\n      swap1\n      0x00\n      mstore\n      keccak256(0x00, 0x20)\n      add\n      0x00\n      swap1\n      swap2\n      swap1\n      swap2\n      swap1\n      swap2\n      pop\n      swap1\n      dup2\n      tag_65\n      swap2\n      swap1\n      tag_63\n      jump\t// in\n    tag_65:\n      pop\n        /* \"contracts/bt/StoreManager.sol\":713:979  if (bytes(prod.nameProduct).length == 0) {... */\n      jump(tag_66)\n    tag_60:\n        /* \"contracts/bt/StoreManager.sol\":922:928  _price */\n      dup3\n        /* \"contracts/bt/StoreManager.sol\":909:913  prod */\n      dup2\n        /* \"contracts/bt/StoreManager.sol\":909:919  prod.price */\n      0x01\n      add\n        /* \"contracts/bt/StoreManager.sol\":909:928  prod.price = _price */\n      dup2\n      swap1\n      sstore\n      pop\n        /* \"contracts/bt/StoreManager.sol\":959:968  _quantity */\n      dup2\n        /* \"contracts/bt/StoreManager.sol\":942:946  prod */\n      dup2\n        /* \"contracts/bt/StoreManager.sol\":942:955  prod.quantity */\n      0x02\n      add\n      0x00\n        /* \"contracts/bt/StoreManager.sol\":942:968  prod.quantity += _quantity */\n      dup3\n      dup3\n      sload\n      tag_67\n      swap2\n      swap1\n      tag_68\n      jump\t// in\n    tag_67:\n      swap3\n      pop\n      pop\n      dup2\n      swap1\n      sstore\n      pop\n        /* \"contracts/bt/StoreManager.sol\":713:979  if (bytes(prod.nameProduct).length == 0) {... */\n    tag_66:\n        /* \"contracts/bt/StoreManager.sol\":647:985  {... */\n      pop\n        /* \"contracts/bt/StoreManager.sol\":561:985  function addProduct(string memory _nameProduct, uint _price, uint _quantity) external {... */\n      pop\n      pop\n      pop\n      jump\t// out\n        /* \"contracts/bt/StoreManager.sol\":991:1274  function getProductInfo(string memory _nameProduct) external view returns (uint price, uint quantity) {... */\n    tag_19:\n        /* \"contracts/bt/StoreManager.sol\":1066:1076  uint price */\n      0x00\n        /* \"contracts/bt/StoreManager.sol\":1078:1091  uint quantity */\n      0x00\n        /* \"contracts/bt/StoreManager.sol\":1103:1123  Product storage prod */\n      0x00\n        /* \"contracts/bt/StoreManager.sol\":1126:1134  products */\n      0x00\n        /* \"contracts/bt/StoreManager.sol\":1135:1147  _nameProduct */\n      dup5\n        /* \"contracts/bt/StoreManager.sol\":1126:1148  products[_nameProduct] */\n      mload(0x40)\n      tag_70\n      swap2\n      swap1\n      tag_58\n      jump\t// in\n    tag_70:\n      swap1\n      dup2\n      mstore\n      0x20\n      add\n      mload(0x40)\n      dup1\n      swap2\n      sub\n      swap1\n      keccak256\n        /* \"contracts/bt/StoreManager.sol\":1103:1148  Product storage prod = products[_nameProduct] */\n      swap1\n      pop\n        /* \"contracts/bt/StoreManager.sol\":1200:1201  0 */\n      0x00\n        /* \"contracts/bt/StoreManager.sol\":1172:1176  prod */\n      dup2\n        /* \"contracts/bt/StoreManager.sol\":1172:1188  prod.nameProduct */\n      0x00\n      add\n        /* \"contracts/bt/StoreManager.sol\":1166:1196  bytes(prod.nameProduct).length */\n      dup1\n      sload\n      tag_71\n      swap1\n      tag_49\n      jump\t// in\n    tag_71:\n      swap1\n      pop\n        /* \"contracts/bt/StoreManager.sol\":1166:1201  bytes(prod.nameProduct).length != 0 */\n      sub\n        /* \"contracts/bt/StoreManager.sol\":1158:1223  require(bytes(prod.nameProduct).length != 0, \"Product not found\") */\n      tag_72\n      jumpi\n      mload(0x40)\n      0x08c379a000000000000000000000000000000000000000000000000000000000\n      dup2\n      mstore\n      0x04\n      add\n      tag_73\n      swap1\n      tag_74\n      jump\t// in\n    tag_73:\n      mload(0x40)\n      dup1\n      swap2\n      sub\n      swap1\n      revert\n    tag_72:\n        /* \"contracts/bt/StoreManager.sol\":1241:1245  prod */\n      dup1\n        /* \"contracts/bt/StoreManager.sol\":1241:1251  prod.price */\n      0x01\n      add\n      sload\n        /* \"contracts/bt/StoreManager.sol\":1253:1257  prod */\n      dup2\n        /* \"contracts/bt/StoreManager.sol\":1253:1266  prod.quantity */\n      0x02\n      add\n      sload\n        /* \"contracts/bt/StoreManager.sol\":1233:1267  return (prod.price, prod.quantity) */\n      swap3\n      pop\n      swap3\n      pop\n      pop\n        /* \"contracts/bt/StoreManager.sol\":991:1274  function getProductInfo(string memory _nameProduct) external view returns (uint price, uint quantity) {... */\n      swap2\n      pop\n      swap2\n      jump\t// out\n        /* \"contracts/bt/StoreManager.sol\":2079:2219  function getPurchaseHistory(string memory _username) external view returns (Order[] memory) {... */\n    tag_24:\n        /* \"contracts/bt/StoreManager.sol\":2155:2169  Order[] memory */\n      0x60\n        /* \"contracts/bt/StoreManager.sol\":2188:2201  userPurchases */\n      0x02\n        /* \"contracts/bt/StoreManager.sol\":2202:2211  _username */\n      dup3\n        /* \"contracts/bt/StoreManager.sol\":2188:2212  userPurchases[_username] */\n      mload(0x40)\n      tag_76\n      swap2\n      swap1\n      tag_58\n      jump\t// in\n    tag_76:\n      swap1\n      dup2\n      mstore\n      0x20\n      add\n      mload(0x40)\n      dup1\n      swap2\n      sub\n      swap1\n      keccak256\n        /* \"contracts/bt/StoreManager.sol\":2181:2212  return userPurchases[_username] */\n      dup1\n      sload\n      dup1\n      0x20\n      mul\n      0x20\n      add\n      mload(0x40)\n      swap1\n      dup2\n      add\n      0x40\n      mstore\n      dup1\n      swap3\n      swap2\n      swap1\n      dup2\n      dup2\n      mstore\n      0x20\n      add\n      0x00\n      swap1\n    tag_77:\n      dup3\n      dup3\n      lt\n      iszero\n      tag_78\n      jumpi\n      dup4\n      dup3\n      swap1\n      0x00\n      mstore\n      keccak256(0x00, 0x20)\n      swap1\n      0x03\n      mul\n      add\n      mload(0x40)\n      dup1\n      0x60\n      add\n      0x40\n      mstore\n      swap1\n      dup2\n      0x00\n      dup3\n      add\n      dup1\n      sload\n      tag_80\n      swap1\n      tag_49\n      jump\t// in\n    tag_80:\n      dup1\n      0x1f\n      add\n      0x20\n      dup1\n      swap2\n      div\n      mul\n      0x20\n      add\n      mload(0x40)\n      swap1\n      dup2\n      add\n      0x40\n      mstore\n      dup1\n      swap3\n      swap2\n      swap1\n      dup2\n      dup2\n      mstore\n      0x20\n      add\n      dup3\n      dup1\n      sload\n      tag_81\n      swap1\n      tag_49\n      jump\t// in\n    tag_81:\n      dup1\n      iszero\n      tag_82\n      jumpi\n      dup1\n      0x1f\n      lt\n      tag_83\n      jumpi\n      0x0100\n      dup1\n      dup4\n      sload\n      div\n      mul\n      dup4\n      mstore\n      swap2\n      0x20\n      add\n      swap2\n      jump(tag_82)\n    tag_83:\n      dup3\n      add\n      swap2\n      swap1\n      0x00\n      mstore\n      keccak256(0x00, 0x20)\n      swap1\n    tag_84:\n      dup2\n      sload\n      dup2\n      mstore\n      swap1\n      0x01\n      add\n      swap1\n      0x20\n      add\n      dup1\n      dup4\n      gt\n      tag_84\n      jumpi\n      dup3\n      swap1\n      sub\n      0x1f\n      and\n      dup3\n      add\n      swap2\n    tag_82:\n      pop\n      pop\n      pop\n      pop\n      pop\n      dup2\n      mstore\n      0x20\n      add\n      0x01\n      dup3\n      add\n      sload\n      dup2\n      mstore\n      0x20\n      add\n      0x02\n      dup3\n      add\n      sload\n      dup2\n      mstore\n      pop\n      pop\n      dup2\n      mstore\n      0x20\n      add\n      swap1\n      0x01\n      add\n      swap1\n      jump(tag_77)\n    tag_78:\n      pop\n      pop\n      pop\n      pop\n      swap1\n      pop\n        /* \"contracts/bt/StoreManager.sol\":2079:2219  function getPurchaseHistory(string memory _username) external view returns (Order[] memory) {... */\n      swap2\n      swap1\n      pop\n      jump\t// out\n        /* \"contracts/bt/StoreManager.sol\":1571:2073  function buyProduct(string memory _username, string memory _nameProduct, uint _quantity) external {... */\n    tag_30:\n        /* \"contracts/bt/StoreManager.sol\":1679:1699  Product storage prod */\n      0x00\n        /* \"contracts/bt/StoreManager.sol\":1702:1710  products */\n      0x00\n        /* \"contracts/bt/StoreManager.sol\":1711:1723  _nameProduct */\n      dup4\n        /* \"contracts/bt/StoreManager.sol\":1702:1724  products[_nameProduct] */\n      mload(0x40)\n      tag_86\n      swap2\n      swap1\n      tag_58\n      jump\t// in\n    tag_86:\n      swap1\n      dup2\n      mstore\n      0x20\n      add\n      mload(0x40)\n      dup1\n      swap2\n      sub\n      swap1\n      keccak256\n        /* \"contracts/bt/StoreManager.sol\":1679:1724  Product storage prod = products[_nameProduct] */\n      swap1\n      pop\n        /* \"contracts/bt/StoreManager.sol\":1776:1777  0 */\n      0x00\n        /* \"contracts/bt/StoreManager.sol\":1748:1752  prod */\n      dup2\n        /* \"contracts/bt/StoreManager.sol\":1748:1764  prod.nameProduct */\n      0x00\n      add\n        /* \"contracts/bt/StoreManager.sol\":1742:1772  bytes(prod.nameProduct).length */\n      dup1\n      sload\n      tag_87\n      swap1\n      tag_49\n      jump\t// in\n    tag_87:\n      swap1\n      pop\n        /* \"contracts/bt/StoreManager.sol\":1742:1777  bytes(prod.nameProduct).length != 0 */\n      sub\n        /* \"contracts/bt/StoreManager.sol\":1734:1799  require(bytes(prod.nameProduct).length != 0, \"Product not found\") */\n      tag_88\n      jumpi\n      mload(0x40)\n      0x08c379a000000000000000000000000000000000000000000000000000000000\n      dup2\n      mstore\n      0x04\n      add\n      tag_89\n      swap1\n      tag_74\n      jump\t// in\n    tag_89:\n      mload(0x40)\n      dup1\n      swap2\n      sub\n      swap1\n      revert\n    tag_88:\n        /* \"contracts/bt/StoreManager.sol\":1834:1843  _quantity */\n      dup2\n        /* \"contracts/bt/StoreManager.sol\":1817:1821  prod */\n      dup2\n        /* \"contracts/bt/StoreManager.sol\":1817:1830  prod.quantity */\n      0x02\n      add\n      sload\n        /* \"contracts/bt/StoreManager.sol\":1817:1843  prod.quantity >= _quantity */\n      lt\n      iszero\n        /* \"contracts/bt/StoreManager.sol\":1809:1867  require(prod.quantity >= _quantity, \"Not enough quantity\") */\n      tag_90\n      jumpi\n      mload(0x40)\n      0x08c379a000000000000000000000000000000000000000000000000000000000\n      dup2\n      mstore\n      0x04\n      add\n      tag_91\n      swap1\n      tag_92\n      jump\t// in\n    tag_91:\n      mload(0x40)\n      dup1\n      swap2\n      sub\n      swap1\n      revert\n    tag_90:\n        /* \"contracts/bt/StoreManager.sol\":1895:1904  _quantity */\n      dup2\n        /* \"contracts/bt/StoreManager.sol\":1878:1882  prod */\n      dup2\n        /* \"contracts/bt/StoreManager.sol\":1878:1891  prod.quantity */\n      0x02\n      add\n      0x00\n        /* \"contracts/bt/StoreManager.sol\":1878:1904  prod.quantity -= _quantity */\n      dup3\n      dup3\n      sload\n      tag_93\n      swap2\n      swap1\n      tag_94\n      jump\t// in\n    tag_93:\n      swap3\n      pop\n      pop\n      dup2\n      swap1\n      sstore\n      pop\n        /* \"contracts/bt/StoreManager.sol\":1915:1928  userPurchases */\n      0x02\n        /* \"contracts/bt/StoreManager.sol\":1929:1938  _username */\n      dup5\n        /* \"contracts/bt/StoreManager.sol\":1915:1939  userPurchases[_username] */\n      mload(0x40)\n      tag_95\n      swap2\n      swap1\n      tag_58\n      jump\t// in\n    tag_95:\n      swap1\n      dup2\n      mstore\n      0x20\n      add\n      mload(0x40)\n      dup1\n      swap2\n      sub\n      swap1\n      keccak256\n        /* \"contracts/bt/StoreManager.sol\":1945:2065  Order({... */\n      mload(0x40)\n      dup1\n      0x60\n      add\n      0x40\n      mstore\n      dup1\n        /* \"contracts/bt/StoreManager.sol\":1978:1990  _nameProduct */\n      dup6\n        /* \"contracts/bt/StoreManager.sol\":1945:2065  Order({... */\n      dup2\n      mstore\n      0x20\n      add\n        /* \"contracts/bt/StoreManager.sol\":2011:2015  prod */\n      dup4\n        /* \"contracts/bt/StoreManager.sol\":2011:2021  prod.price */\n      0x01\n      add\n      sload\n        /* \"contracts/bt/StoreManager.sol\":1945:2065  Order({... */\n      dup2\n      mstore\n      0x20\n      add\n        /* \"contracts/bt/StoreManager.sol\":2045:2054  _quantity */\n      dup5\n        /* \"contracts/bt/StoreManager.sol\":1945:2065  Order({... */\n      dup2\n      mstore\n      pop\n        /* \"contracts/bt/StoreManager.sol\":1915:2066  userPurchases[_username].push(Order({... */\n      swap1\n      dup1\n      0x01\n      dup2\n      sload\n      add\n      dup1\n      dup3\n      sstore\n      dup1\n      swap2\n      pop\n      pop\n      0x01\n      swap1\n      sub\n      swap1\n      0x00\n      mstore\n      keccak256(0x00, 0x20)\n      swap1\n      0x03\n      mul\n      add\n      0x00\n      swap1\n      swap2\n      swap1\n      swap2\n      swap1\n      swap2\n      pop\n      0x00\n      dup3\n      add\n      mload\n      dup2\n      0x00\n      add\n      swap1\n      dup2\n      tag_97\n      swap2\n      swap1\n      tag_63\n      jump\t// in\n    tag_97:\n      pop\n      0x20\n      dup3\n      add\n      mload\n      dup2\n      0x01\n      add\n      sstore\n      0x40\n      dup3\n      add\n      mload\n      dup2\n      0x02\n      add\n      sstore\n      pop\n      pop\n        /* \"contracts/bt/StoreManager.sol\":1669:2073  {... */\n      pop\n        /* \"contracts/bt/StoreManager.sol\":1571:2073  function buyProduct(string memory _username, string memory _nameProduct, uint _quantity) external {... */\n      pop\n      pop\n      pop\n      jump\t// out\n    tag_38:\n      mload(0x40)\n      dup1\n      0x60\n      add\n      0x40\n      mstore\n      dup1\n      0x60\n      dup2\n      mstore\n      0x20\n      add\n      0x00\n      dup2\n      mstore\n      0x20\n      add\n      0x00\n      dup2\n      mstore\n      pop\n      swap1\n      jump\t// out\n        /* \"#utility.yul\":7:143   */\n    tag_98:\n        /* \"#utility.yul\":96:102   */\n      0x00\n        /* \"#utility.yul\":130:135   */\n      dup2\n        /* \"#utility.yul\":124:136   */\n      mload\n        /* \"#utility.yul\":114:136   */\n      swap1\n      pop\n        /* \"#utility.yul\":7:143   */\n      swap2\n      swap1\n      pop\n      jump\t// out\n        /* \"#utility.yul\":149:355   */\n    tag_99:\n        /* \"#utility.yul\":270:281   */\n      0x00\n        /* \"#utility.yul\":304:310   */\n      dup3\n        /* \"#utility.yul\":299:302   */\n      dup3\n        /* \"#utility.yul\":292:311   */\n      mstore\n        /* \"#utility.yul\":344:348   */\n      0x20\n        /* \"#utility.yul\":339:342   */\n      dup3\n        /* \"#utility.yul\":335:349   */\n      add\n        /* \"#utility.yul\":320:349   */\n      swap1\n      pop\n        /* \"#utility.yul\":149:355   */\n      swap3\n      swap2\n      pop\n      pop\n      jump\t// out\n        /* \"#utility.yul\":361:515   */\n    tag_100:\n        /* \"#utility.yul\":450:454   */\n      0x00\n        /* \"#utility.yul\":473:476   */\n      dup2\n        /* \"#utility.yul\":465:476   */\n      swap1\n      pop\n        /* \"#utility.yul\":503:507   */\n      0x20\n        /* \"#utility.yul\":498:501   */\n      dup3\n        /* \"#utility.yul\":494:508   */\n      add\n        /* \"#utility.yul\":486:508   */\n      swap1\n      pop\n        /* \"#utility.yul\":361:515   */\n      swap2\n      swap1\n      pop\n      jump\t// out\n        /* \"#utility.yul\":521:620   */\n    tag_101:\n        /* \"#utility.yul\":573:579   */\n      0x00\n        /* \"#utility.yul\":607:612   */\n      dup2\n        /* \"#utility.yul\":601:613   */\n      mload\n        /* \"#utility.yul\":591:613   */\n      swap1\n      pop\n        /* \"#utility.yul\":521:620   */\n      swap2\n      swap1\n      pop\n      jump\t// out\n        /* \"#utility.yul\":626:785   */\n    tag_102:\n        /* \"#utility.yul\":700:711   */\n      0x00\n        /* \"#utility.yul\":734:740   */\n      dup3\n        /* \"#utility.yul\":729:732   */\n      dup3\n        /* \"#utility.yul\":722:741   */\n      mstore\n        /* \"#utility.yul\":774:778   */\n      0x20\n        /* \"#utility.yul\":769:772   */\n      dup3\n        /* \"#utility.yul\":765:779   */\n      add\n        /* \"#utility.yul\":750:779   */\n      swap1\n      pop\n        /* \"#utility.yul\":626:785   */\n      swap3\n      swap2\n      pop\n      pop\n      jump\t// out\n        /* \"#utility.yul\":791:930   */\n    tag_103:\n        /* \"#utility.yul\":880:886   */\n      dup3\n        /* \"#utility.yul\":875:878   */\n      dup2\n        /* \"#utility.yul\":870:873   */\n      dup4\n        /* \"#utility.yul\":864:887   */\n      mcopy\n        /* \"#utility.yul\":921:922   */\n      0x00\n        /* \"#utility.yul\":912:918   */\n      dup4\n        /* \"#utility.yul\":907:910   */\n      dup4\n        /* \"#utility.yul\":903:919   */\n      add\n        /* \"#utility.yul\":896:923   */\n      mstore\n        /* \"#utility.yul\":791:930   */\n      pop\n      pop\n      pop\n      jump\t// out\n        /* \"#utility.yul\":936:1038   */\n    tag_104:\n        /* \"#utility.yul\":977:983   */\n      0x00\n        /* \"#utility.yul\":1028:1030   */\n      0x1f\n        /* \"#utility.yul\":1024:1031   */\n      not\n        /* \"#utility.yul\":1019:1021   */\n      0x1f\n        /* \"#utility.yul\":1012:1017   */\n      dup4\n        /* \"#utility.yul\":1008:1022   */\n      add\n        /* \"#utility.yul\":1004:1032   */\n      and\n        /* \"#utility.yul\":994:1032   */\n      swap1\n      pop\n        /* \"#utility.yul\":936:1038   */\n      swap2\n      swap1\n      pop\n      jump\t// out\n        /* \"#utility.yul\":1044:1401   */\n    tag_105:\n        /* \"#utility.yul\":1122:1125   */\n      0x00\n        /* \"#utility.yul\":1150:1189   */\n      tag_167\n        /* \"#utility.yul\":1183:1188   */\n      dup3\n        /* \"#utility.yul\":1150:1189   */\n      tag_101\n      jump\t// in\n    tag_167:\n        /* \"#utility.yul\":1205:1266   */\n      tag_168\n        /* \"#utility.yul\":1259:1265   */\n      dup2\n        /* \"#utility.yul\":1254:1257   */\n      dup6\n        /* \"#utility.yul\":1205:1266   */\n      tag_102\n      jump\t// in\n    tag_168:\n        /* \"#utility.yul\":1198:1266   */\n      swap4\n      pop\n        /* \"#utility.yul\":1275:1340   */\n      tag_169\n        /* \"#utility.yul\":1333:1339   */\n      dup2\n        /* \"#utility.yul\":1328:1331   */\n      dup6\n        /* \"#utility.yul\":1321:1325   */\n      0x20\n        /* \"#utility.yul\":1314:1319   */\n      dup7\n        /* \"#utility.yul\":1310:1326   */\n      add\n        /* \"#utility.yul\":1275:1340   */\n      tag_103\n      jump\t// in\n    tag_169:\n        /* \"#utility.yul\":1365:1394   */\n      tag_170\n        /* \"#utility.yul\":1387:1393   */\n      dup2\n        /* \"#utility.yul\":1365:1394   */\n      tag_104\n      jump\t// in\n    tag_170:\n        /* \"#utility.yul\":1360:1363   */\n      dup5\n        /* \"#utility.yul\":1356:1395   */\n      add\n        /* \"#utility.yul\":1349:1395   */\n      swap2\n      pop\n        /* \"#utility.yul\":1126:1401   */\n      pop\n        /* \"#utility.yul\":1044:1401   */\n      swap3\n      swap2\n      pop\n      pop\n      jump\t// out\n        /* \"#utility.yul\":1407:1484   */\n    tag_106:\n        /* \"#utility.yul\":1444:1451   */\n      0x00\n        /* \"#utility.yul\":1473:1478   */\n      dup2\n        /* \"#utility.yul\":1462:1478   */\n      swap1\n      pop\n        /* \"#utility.yul\":1407:1484   */\n      swap2\n      swap1\n      pop\n      jump\t// out\n        /* \"#utility.yul\":1490:1598   */\n    tag_107:\n        /* \"#utility.yul\":1567:1591   */\n      tag_173\n        /* \"#utility.yul\":1585:1590   */\n      dup2\n        /* \"#utility.yul\":1567:1591   */\n      tag_106\n      jump\t// in\n    tag_173:\n        /* \"#utility.yul\":1562:1565   */\n      dup3\n        /* \"#utility.yul\":1555:1592   */\n      mstore\n        /* \"#utility.yul\":1490:1598   */\n      pop\n      pop\n      jump\t// out\n        /* \"#utility.yul\":1644:2420   */\n    tag_108:\n        /* \"#utility.yul\":1747:1750   */\n      0x00\n        /* \"#utility.yul\":1783:1787   */\n      0x60\n        /* \"#utility.yul\":1778:1781   */\n      dup4\n        /* \"#utility.yul\":1774:1788   */\n      add\n        /* \"#utility.yul\":1877:1881   */\n      0x00\n        /* \"#utility.yul\":1870:1875   */\n      dup4\n        /* \"#utility.yul\":1866:1882   */\n      add\n        /* \"#utility.yul\":1860:1883   */\n      mload\n        /* \"#utility.yul\":1930:1933   */\n      dup5\n        /* \"#utility.yul\":1924:1928   */\n      dup3\n        /* \"#utility.yul\":1920:1934   */\n      sub\n        /* \"#utility.yul\":1913:1917   */\n      0x00\n        /* \"#utility.yul\":1908:1911   */\n      dup7\n        /* \"#utility.yul\":1904:1918   */\n      add\n        /* \"#utility.yul\":1897:1935   */\n      mstore\n        /* \"#utility.yul\":1956:2029   */\n      tag_175\n        /* \"#utility.yul\":2024:2028   */\n      dup3\n        /* \"#utility.yul\":2010:2022   */\n      dup3\n        /* \"#utility.yul\":1956:2029   */\n      tag_105\n      jump\t// in\n    tag_175:\n        /* \"#utility.yul\":1948:2029   */\n      swap2\n      pop\n        /* \"#utility.yul\":1798:2040   */\n      pop\n        /* \"#utility.yul\":2123:2127   */\n      0x20\n        /* \"#utility.yul\":2116:2121   */\n      dup4\n        /* \"#utility.yul\":2112:2128   */\n      add\n        /* \"#utility.yul\":2106:2129   */\n      mload\n        /* \"#utility.yul\":2142:2205   */\n      tag_176\n        /* \"#utility.yul\":2199:2203   */\n      0x20\n        /* \"#utility.yul\":2194:2197   */\n      dup7\n        /* \"#utility.yul\":2190:2204   */\n      add\n        /* \"#utility.yul\":2176:2188   */\n      dup3\n        /* \"#utility.yul\":2142:2205   */\n      tag_107\n      jump\t// in\n    tag_176:\n        /* \"#utility.yul\":2050:2215   */\n      pop\n        /* \"#utility.yul\":2301:2305   */\n      0x40\n        /* \"#utility.yul\":2294:2299   */\n      dup4\n        /* \"#utility.yul\":2290:2306   */\n      add\n        /* \"#utility.yul\":2284:2307   */\n      mload\n        /* \"#utility.yul\":2320:2383   */\n      tag_177\n        /* \"#utility.yul\":2377:2381   */\n      0x40\n        /* \"#utility.yul\":2372:2375   */\n      dup7\n        /* \"#utility.yul\":2368:2382   */\n      add\n        /* \"#utility.yul\":2354:2366   */\n      dup3\n        /* \"#utility.yul\":2320:2383   */\n      tag_107\n      jump\t// in\n    tag_177:\n        /* \"#utility.yul\":2225:2393   */\n      pop\n        /* \"#utility.yul\":2410:2414   */\n      dup1\n        /* \"#utility.yul\":2403:2414   */\n      swap2\n      pop\n        /* \"#utility.yul\":1752:2420   */\n      pop\n        /* \"#utility.yul\":1644:2420   */\n      swap3\n      swap2\n      pop\n      pop\n      jump\t// out\n        /* \"#utility.yul\":2426:2670   */\n    tag_109:\n        /* \"#utility.yul\":2539:2549   */\n      0x00\n        /* \"#utility.yul\":2574:2664   */\n      tag_179\n        /* \"#utility.yul\":2660:2663   */\n      dup4\n        /* \"#utility.yul\":2652:2658   */\n      dup4\n        /* \"#utility.yul\":2574:2664   */\n      tag_108\n      jump\t// in\n    tag_179:\n        /* \"#utility.yul\":2560:2664   */\n      swap1\n      pop\n        /* \"#utility.yul\":2426:2670   */\n      swap3\n      swap2\n      pop\n      pop\n      jump\t// out\n        /* \"#utility.yul\":2676:2811   */\n    tag_110:\n        /* \"#utility.yul\":2768:2772   */\n      0x00\n        /* \"#utility.yul\":2800:2804   */\n      0x20\n        /* \"#utility.yul\":2795:2798   */\n      dup3\n        /* \"#utility.yul\":2791:2805   */\n      add\n        /* \"#utility.yul\":2783:2805   */\n      swap1\n      pop\n        /* \"#utility.yul\":2676:2811   */\n      swap2\n      swap1\n      pop\n      jump\t// out\n        /* \"#utility.yul\":2861:3948   */\n    tag_111:\n        /* \"#utility.yul\":3024:3027   */\n      0x00\n        /* \"#utility.yul\":3053:3129   */\n      tag_182\n        /* \"#utility.yul\":3123:3128   */\n      dup3\n        /* \"#utility.yul\":3053:3129   */\n      tag_98\n      jump\t// in\n    tag_182:\n        /* \"#utility.yul\":3145:3253   */\n      tag_183\n        /* \"#utility.yul\":3246:3252   */\n      dup2\n        /* \"#utility.yul\":3241:3244   */\n      dup6\n        /* \"#utility.yul\":3145:3253   */\n      tag_99\n      jump\t// in\n    tag_183:\n        /* \"#utility.yul\":3138:3253   */\n      swap4\n      pop\n        /* \"#utility.yul\":3279:3282   */\n      dup4\n        /* \"#utility.yul\":3324:3328   */\n      0x20\n        /* \"#utility.yul\":3316:3322   */\n      dup3\n        /* \"#utility.yul\":3312:3329   */\n      mul\n        /* \"#utility.yul\":3307:3310   */\n      dup6\n        /* \"#utility.yul\":3303:3330   */\n      add\n        /* \"#utility.yul\":3354:3432   */\n      tag_184\n        /* \"#utility.yul\":3426:3431   */\n      dup6\n        /* \"#utility.yul\":3354:3432   */\n      tag_100\n      jump\t// in\n    tag_184:\n        /* \"#utility.yul\":3455:3462   */\n      dup1\n        /* \"#utility.yul\":3486:3487   */\n      0x00\n        /* \"#utility.yul\":3471:3903   */\n    tag_185:\n        /* \"#utility.yul\":3496:3502   */\n      dup6\n        /* \"#utility.yul\":3493:3494   */\n      dup2\n        /* \"#utility.yul\":3490:3503   */\n      lt\n        /* \"#utility.yul\":3471:3903   */\n      iszero\n      tag_187\n      jumpi\n        /* \"#utility.yul\":3567:3576   */\n      dup5\n        /* \"#utility.yul\":3561:3565   */\n      dup5\n        /* \"#utility.yul\":3557:3577   */\n      sub\n        /* \"#utility.yul\":3552:3555   */\n      dup10\n        /* \"#utility.yul\":3545:3578   */\n      mstore\n        /* \"#utility.yul\":3618:3624   */\n      dup2\n        /* \"#utility.yul\":3612:3625   */\n      mload\n        /* \"#utility.yul\":3646:3754   */\n      tag_188\n        /* \"#utility.yul\":3749:3753   */\n      dup6\n        /* \"#utility.yul\":3734:3747   */\n      dup3\n        /* \"#utility.yul\":3646:3754   */\n      tag_109\n      jump\t// in\n    tag_188:\n        /* \"#utility.yul\":3638:3754   */\n      swap5\n      pop\n        /* \"#utility.yul\":3777:3859   */\n      tag_189\n        /* \"#utility.yul\":3852:3858   */\n      dup4\n        /* \"#utility.yul\":3777:3859   */\n      tag_110\n      jump\t// in\n    tag_189:\n        /* \"#utility.yul\":3767:3859   */\n      swap3\n      pop\n        /* \"#utility.yul\":3888:3892   */\n      0x20\n        /* \"#utility.yul\":3883:3886   */\n      dup11\n        /* \"#utility.yul\":3879:3893   */\n      add\n        /* \"#utility.yul\":3872:3893   */\n      swap10\n      pop\n        /* \"#utility.yul\":3531:3903   */\n      pop\n        /* \"#utility.yul\":3518:3519   */\n      0x01\n        /* \"#utility.yul\":3515:3516   */\n      dup2\n        /* \"#utility.yul\":3511:3520   */\n      add\n        /* \"#utility.yul\":3506:3520   */\n      swap1\n      pop\n        /* \"#utility.yul\":3471:3903   */\n      jump(tag_185)\n    tag_187:\n        /* \"#utility.yul\":3475:3489   */\n      pop\n        /* \"#utility.yul\":3919:3923   */\n      dup3\n        /* \"#utility.yul\":3912:3923   */\n      swap8\n      pop\n        /* \"#utility.yul\":3939:3942   */\n      dup8\n        /* \"#utility.yul\":3932:3942   */\n      swap6\n      pop\n        /* \"#utility.yul\":3029:3948   */\n      pop\n      pop\n      pop\n      pop\n      pop\n        /* \"#utility.yul\":2861:3948   */\n      swap3\n      swap2\n      pop\n      pop\n      jump\t// out\n        /* \"#utility.yul\":3954:4415   */\n    tag_11:\n        /* \"#utility.yul\":4141:4145   */\n      0x00\n        /* \"#utility.yul\":4179:4181   */\n      0x20\n        /* \"#utility.yul\":4168:4177   */\n      dup3\n        /* \"#utility.yul\":4164:4182   */\n      add\n        /* \"#utility.yul\":4156:4182   */\n      swap1\n      pop\n        /* \"#utility.yul\":4228:4237   */\n      dup2\n        /* \"#utility.yul\":4222:4226   */\n      dup2\n        /* \"#utility.yul\":4218:4238   */\n      sub\n        /* \"#utility.yul\":4214:4215   */\n      0x00\n        /* \"#utility.yul\":4203:4212   */\n      dup4\n        /* \"#utility.yul\":4199:4216   */\n      add\n        /* \"#utility.yul\":4192:4239   */\n      mstore\n        /* \"#utility.yul\":4256:4408   */\n      tag_191\n        /* \"#utility.yul\":4403:4407   */\n      dup2\n        /* \"#utility.yul\":4394:4400   */\n      dup5\n        /* \"#utility.yul\":4256:4408   */\n      tag_111\n      jump\t// in\n    tag_191:\n        /* \"#utility.yul\":4248:4408   */\n      swap1\n      pop\n        /* \"#utility.yul\":3954:4415   */\n      swap3\n      swap2\n      pop\n      pop\n      jump\t// out\n        /* \"#utility.yul\":4421:4496   */\n    tag_112:\n        /* \"#utility.yul\":4454:4460   */\n      0x00\n        /* \"#utility.yul\":4487:4489   */\n      0x40\n        /* \"#utility.yul\":4481:4490   */\n      mload\n        /* \"#utility.yul\":4471:4490   */\n      swap1\n      pop\n        /* \"#utility.yul\":4421:4496   */\n      swap1\n      jump\t// out\n        /* \"#utility.yul\":4502:4619   */\n    tag_113:\n        /* \"#utility.yul\":4611:4612   */\n      0x00\n        /* \"#utility.yul\":4608:4609   */\n      0x00\n        /* \"#utility.yul\":4601:4613   */\n      revert\n        /* \"#utility.yul\":4625:4742   */\n    tag_114:\n        /* \"#utility.yul\":4734:4735   */\n      0x00\n        /* \"#utility.yul\":4731:4732   */\n      0x00\n        /* \"#utility.yul\":4724:4736   */\n      revert\n        /* \"#utility.yul\":4748:4865   */\n    tag_115:\n        /* \"#utility.yul\":4857:4858   */\n      0x00\n        /* \"#utility.yul\":4854:4855   */\n      0x00\n        /* \"#utility.yul\":4847:4859   */\n      revert\n        /* \"#utility.yul\":4871:4988   */\n    tag_116:\n        /* \"#utility.yul\":4980:4981   */\n      0x00\n        /* \"#utility.yul\":4977:4978   */\n      0x00\n        /* \"#utility.yul\":4970:4982   */\n      revert\n        /* \"#utility.yul\":4994:5174   */\n    tag_34:\n        /* \"#utility.yul\":5042:5119   */\n      0x4e487b7100000000000000000000000000000000000000000000000000000000\n        /* \"#utility.yul\":5039:5040   */\n      0x00\n        /* \"#utility.yul\":5032:5120   */\n      mstore\n        /* \"#utility.yul\":5139:5143   */\n      0x41\n        /* \"#utility.yul\":5136:5137   */\n      0x04\n        /* \"#utility.yul\":5129:5144   */\n      mstore\n        /* \"#utility.yul\":5163:5167   */\n      0x24\n        /* \"#utility.yul\":5160:5161   */\n      0x00\n        /* \"#utility.yul\":5153:5168   */\n      revert\n        /* \"#utility.yul\":5180:5461   */\n    tag_117:\n        /* \"#utility.yul\":5263:5290   */\n      tag_199\n        /* \"#utility.yul\":5285:5289   */\n      dup3\n        /* \"#utility.yul\":5263:5290   */\n      tag_104\n      jump\t// in\n    tag_199:\n        /* \"#utility.yul\":5255:5261   */\n      dup2\n        /* \"#utility.yul\":5251:5291   */\n      add\n        /* \"#utility.yul\":5393:5399   */\n      dup2\n        /* \"#utility.yul\":5381:5391   */\n      dup2\n        /* \"#utility.yul\":5378:5400   */\n      lt\n        /* \"#utility.yul\":5357:5375   */\n      0xffffffffffffffff\n        /* \"#utility.yul\":5345:5355   */\n      dup3\n        /* \"#utility.yul\":5342:5376   */\n      gt\n        /* \"#utility.yul\":5339:5401   */\n      or\n        /* \"#utility.yul\":5336:5424   */\n      iszero\n      tag_200\n      jumpi\n        /* \"#utility.yul\":5404:5422   */\n      tag_201\n      tag_34\n      jump\t// in\n    tag_201:\n        /* \"#utility.yul\":5336:5424   */\n    tag_200:\n        /* \"#utility.yul\":5444:5454   */\n      dup1\n        /* \"#utility.yul\":5440:5442   */\n      0x40\n        /* \"#utility.yul\":5433:5455   */\n      mstore\n        /* \"#utility.yul\":5223:5461   */\n      pop\n        /* \"#utility.yul\":5180:5461   */\n      pop\n      pop\n      jump\t// out\n        /* \"#utility.yul\":5467:5596   */\n    tag_118:\n        /* \"#utility.yul\":5501:5507   */\n      0x00\n        /* \"#utility.yul\":5528:5548   */\n      tag_203\n      tag_112\n      jump\t// in\n    tag_203:\n        /* \"#utility.yul\":5518:5548   */\n      swap1\n      pop\n        /* \"#utility.yul\":5557:5590   */\n      tag_204\n        /* \"#utility.yul\":5585:5589   */\n      dup3\n        /* \"#utility.yul\":5577:5583   */\n      dup3\n        /* \"#utility.yul\":5557:5590   */\n      tag_117\n      jump\t// in\n    tag_204:\n        /* \"#utility.yul\":5467:5596   */\n      swap2\n      swap1\n      pop\n      jump\t// out\n        /* \"#utility.yul\":5602:5910   */\n    tag_119:\n        /* \"#utility.yul\":5664:5668   */\n      0x00\n        /* \"#utility.yul\":5754:5772   */\n      0xffffffffffffffff\n        /* \"#utility.yul\":5746:5752   */\n      dup3\n        /* \"#utility.yul\":5743:5773   */\n      gt\n        /* \"#utility.yul\":5740:5796   */\n      iszero\n      tag_206\n      jumpi\n        /* \"#utility.yul\":5776:5794   */\n      tag_207\n      tag_34\n      jump\t// in\n    tag_207:\n        /* \"#utility.yul\":5740:5796   */\n    tag_206:\n        /* \"#utility.yul\":5814:5843   */\n      tag_208\n        /* \"#utility.yul\":5836:5842   */\n      dup3\n        /* \"#utility.yul\":5814:5843   */\n      tag_104\n      jump\t// in\n    tag_208:\n        /* \"#utility.yul\":5806:5843   */\n      swap1\n      pop\n        /* \"#utility.yul\":5898:5902   */\n      0x20\n        /* \"#utility.yul\":5892:5896   */\n      dup2\n        /* \"#utility.yul\":5888:5903   */\n      add\n        /* \"#utility.yul\":5880:5903   */\n      swap1\n      pop\n        /* \"#utility.yul\":5602:5910   */\n      swap2\n      swap1\n      pop\n      jump\t// out\n        /* \"#utility.yul\":5916:6064   */\n    tag_120:\n        /* \"#utility.yul\":6014:6020   */\n      dup3\n        /* \"#utility.yul\":6009:6012   */\n      dup2\n        /* \"#utility.yul\":6004:6007   */\n      dup4\n        /* \"#utility.yul\":5991:6021   */\n      calldatacopy\n        /* \"#utility.yul\":6055:6056   */\n      0x00\n        /* \"#utility.yul\":6046:6052   */\n      dup4\n        /* \"#utility.yul\":6041:6044   */\n      dup4\n        /* \"#utility.yul\":6037:6053   */\n      add\n        /* \"#utility.yul\":6030:6057   */\n      mstore\n        /* \"#utility.yul\":5916:6064   */\n      pop\n      pop\n      pop\n      jump\t// out\n        /* \"#utility.yul\":6070:6495   */\n    tag_121:\n        /* \"#utility.yul\":6148:6153   */\n      0x00\n        /* \"#utility.yul\":6173:6239   */\n      tag_211\n        /* \"#utility.yul\":6189:6238   */\n      tag_212\n        /* \"#utility.yul\":6231:6237   */\n      dup5\n        /* \"#utility.yul\":6189:6238   */\n      tag_119\n      jump\t// in\n    tag_212:\n        /* \"#utility.yul\":6173:6239   */\n      tag_118\n      jump\t// in\n    tag_211:\n        /* \"#utility.yul\":6164:6239   */\n      swap1\n      pop\n        /* \"#utility.yul\":6262:6268   */\n      dup3\n        /* \"#utility.yul\":6255:6260   */\n      dup2\n        /* \"#utility.yul\":6248:6269   */\n      mstore\n        /* \"#utility.yul\":6300:6304   */\n      0x20\n        /* \"#utility.yul\":6293:6298   */\n      dup2\n        /* \"#utility.yul\":6289:6305   */\n      add\n        /* \"#utility.yul\":6338:6341   */\n      dup5\n        /* \"#utility.yul\":6329:6335   */\n      dup5\n        /* \"#utility.yul\":6324:6327   */\n      dup5\n        /* \"#utility.yul\":6320:6336   */\n      add\n        /* \"#utility.yul\":6317:6342   */\n      gt\n        /* \"#utility.yul\":6314:6426   */\n      iszero\n      tag_213\n      jumpi\n        /* \"#utility.yul\":6345:6424   */\n      tag_214\n      tag_116\n      jump\t// in\n    tag_214:\n        /* \"#utility.yul\":6314:6426   */\n    tag_213:\n        /* \"#utility.yul\":6435:6489   */\n      tag_215\n        /* \"#utility.yul\":6482:6488   */\n      dup5\n        /* \"#utility.yul\":6477:6480   */\n      dup3\n        /* \"#utility.yul\":6472:6475   */\n      dup6\n        /* \"#utility.yul\":6435:6489   */\n      tag_120\n      jump\t// in\n    tag_215:\n        /* \"#utility.yul\":6154:6495   */\n      pop\n        /* \"#utility.yul\":6070:6495   */\n      swap4\n      swap3\n      pop\n      pop\n      pop\n      jump\t// out\n        /* \"#utility.yul\":6515:6855   */\n    tag_122:\n        /* \"#utility.yul\":6571:6576   */\n      0x00\n        /* \"#utility.yul\":6620:6623   */\n      dup3\n        /* \"#utility.yul\":6613:6617   */\n      0x1f\n        /* \"#utility.yul\":6605:6611   */\n      dup4\n        /* \"#utility.yul\":6601:6618   */\n      add\n        /* \"#utility.yul\":6597:6624   */\n      slt\n        /* \"#utility.yul\":6587:6709   */\n      tag_217\n      jumpi\n        /* \"#utility.yul\":6628:6707   */\n      tag_218\n      tag_115\n      jump\t// in\n    tag_218:\n        /* \"#utility.yul\":6587:6709   */\n    tag_217:\n        /* \"#utility.yul\":6745:6751   */\n      dup2\n        /* \"#utility.yul\":6732:6752   */\n      calldataload\n        /* \"#utility.yul\":6770:6849   */\n      tag_219\n        /* \"#utility.yul\":6845:6848   */\n      dup5\n        /* \"#utility.yul\":6837:6843   */\n      dup3\n        /* \"#utility.yul\":6830:6834   */\n      0x20\n        /* \"#utility.yul\":6822:6828   */\n      dup7\n        /* \"#utility.yul\":6818:6835   */\n      add\n        /* \"#utility.yul\":6770:6849   */\n      tag_121\n      jump\t// in\n    tag_219:\n        /* \"#utility.yul\":6761:6849   */\n      swap2\n      pop\n        /* \"#utility.yul\":6577:6855   */\n      pop\n        /* \"#utility.yul\":6515:6855   */\n      swap3\n      swap2\n      pop\n      pop\n      jump\t// out\n        /* \"#utility.yul\":6861:6983   */\n    tag_123:\n        /* \"#utility.yul\":6934:6958   */\n      tag_221\n        /* \"#utility.yul\":6952:6957   */\n      dup2\n        /* \"#utility.yul\":6934:6958   */\n      tag_106\n      jump\t// in\n    tag_221:\n        /* \"#utility.yul\":6927:6932   */\n      dup2\n        /* \"#utility.yul\":6924:6959   */\n      eq\n        /* \"#utility.yul\":6914:6977   */\n      tag_222\n      jumpi\n        /* \"#utility.yul\":6973:6974   */\n      0x00\n        /* \"#utility.yul\":6970:6971   */\n      0x00\n        /* \"#utility.yul\":6963:6975   */\n      revert\n        /* \"#utility.yul\":6914:6977   */\n    tag_222:\n        /* \"#utility.yul\":6861:6983   */\n      pop\n      jump\t// out\n        /* \"#utility.yul\":6989:7128   */\n    tag_124:\n        /* \"#utility.yul\":7035:7040   */\n      0x00\n        /* \"#utility.yul\":7073:7079   */\n      dup2\n        /* \"#utility.yul\":7060:7080   */\n      calldataload\n        /* \"#utility.yul\":7051:7080   */\n      swap1\n      pop\n        /* \"#utility.yul\":7089:7122   */\n      tag_224\n        /* \"#utility.yul\":7116:7121   */\n      dup2\n        /* \"#utility.yul\":7089:7122   */\n      tag_123\n      jump\t// in\n    tag_224:\n        /* \"#utility.yul\":6989:7128   */\n      swap3\n      swap2\n      pop\n      pop\n      jump\t// out\n        /* \"#utility.yul\":7134:7933   */\n    tag_14:\n        /* \"#utility.yul\":7221:7227   */\n      0x00\n        /* \"#utility.yul\":7229:7235   */\n      0x00\n        /* \"#utility.yul\":7237:7243   */\n      0x00\n        /* \"#utility.yul\":7286:7288   */\n      0x60\n        /* \"#utility.yul\":7274:7283   */\n      dup5\n        /* \"#utility.yul\":7265:7272   */\n      dup7\n        /* \"#utility.yul\":7261:7284   */\n      sub\n        /* \"#utility.yul\":7257:7289   */\n      slt\n        /* \"#utility.yul\":7254:7373   */\n      iszero\n      tag_226\n      jumpi\n        /* \"#utility.yul\":7292:7371   */\n      tag_227\n      tag_113\n      jump\t// in\n    tag_227:\n        /* \"#utility.yul\":7254:7373   */\n    tag_226:\n        /* \"#utility.yul\":7440:7441   */\n      0x00\n        /* \"#utility.yul\":7429:7438   */\n      dup5\n        /* \"#utility.yul\":7425:7442   */\n      add\n        /* \"#utility.yul\":7412:7443   */\n      calldataload\n        /* \"#utility.yul\":7470:7488   */\n      0xffffffffffffffff\n        /* \"#utility.yul\":7462:7468   */\n      dup2\n        /* \"#utility.yul\":7459:7489   */\n      gt\n        /* \"#utility.yul\":7456:7573   */\n      iszero\n      tag_228\n      jumpi\n        /* \"#utility.yul\":7492:7571   */\n      tag_229\n      tag_114\n      jump\t// in\n    tag_229:\n        /* \"#utility.yul\":7456:7573   */\n    tag_228:\n        /* \"#utility.yul\":7597:7660   */\n      tag_230\n        /* \"#utility.yul\":7652:7659   */\n      dup7\n        /* \"#utility.yul\":7643:7649   */\n      dup3\n        /* \"#utility.yul\":7632:7641   */\n      dup8\n        /* \"#utility.yul\":7628:7650   */\n      add\n        /* \"#utility.yul\":7597:7660   */\n      tag_122\n      jump\t// in\n    tag_230:\n        /* \"#utility.yul\":7587:7660   */\n      swap4\n      pop\n        /* \"#utility.yul\":7383:7670   */\n      pop\n        /* \"#utility.yul\":7709:7711   */\n      0x20\n        /* \"#utility.yul\":7735:7788   */\n      tag_231\n        /* \"#utility.yul\":7780:7787   */\n      dup7\n        /* \"#utility.yul\":7771:7777   */\n      dup3\n        /* \"#utility.yul\":7760:7769   */\n      dup8\n        /* \"#utility.yul\":7756:7778   */\n      add\n        /* \"#utility.yul\":7735:7788   */\n      tag_124\n      jump\t// in\n    tag_231:\n        /* \"#utility.yul\":7725:7788   */\n      swap3\n      pop\n        /* \"#utility.yul\":7680:7798   */\n      pop\n        /* \"#utility.yul\":7837:7839   */\n      0x40\n        /* \"#utility.yul\":7863:7916   */\n      tag_232\n        /* \"#utility.yul\":7908:7915   */\n      dup7\n        /* \"#utility.yul\":7899:7905   */\n      dup3\n        /* \"#utility.yul\":7888:7897   */\n      dup8\n        /* \"#utility.yul\":7884:7906   */\n      add\n        /* \"#utility.yul\":7863:7916   */\n      tag_124\n      jump\t// in\n    tag_232:\n        /* \"#utility.yul\":7853:7916   */\n      swap2\n      pop\n        /* \"#utility.yul\":7808:7926   */\n      pop\n        /* \"#utility.yul\":7134:7933   */\n      swap3\n      pop\n      swap3\n      pop\n      swap3\n      jump\t// out\n        /* \"#utility.yul\":7939:8448   */\n    tag_18:\n        /* \"#utility.yul\":8008:8014   */\n      0x00\n        /* \"#utility.yul\":8057:8059   */\n      0x20\n        /* \"#utility.yul\":8045:8054   */\n      dup3\n        /* \"#utility.yul\":8036:8043   */\n      dup5\n        /* \"#utility.yul\":8032:8055   */\n      sub\n        /* \"#utility.yul\":8028:8060   */\n      slt\n        /* \"#utility.yul\":8025:8144   */\n      iszero\n      tag_234\n      jumpi\n        /* \"#utility.yul\":8063:8142   */\n      tag_235\n      tag_113\n      jump\t// in\n    tag_235:\n        /* \"#utility.yul\":8025:8144   */\n    tag_234:\n        /* \"#utility.yul\":8211:8212   */\n      0x00\n        /* \"#utility.yul\":8200:8209   */\n      dup3\n        /* \"#utility.yul\":8196:8213   */\n      add\n        /* \"#utility.yul\":8183:8214   */\n      calldataload\n        /* \"#utility.yul\":8241:8259   */\n      0xffffffffffffffff\n        /* \"#utility.yul\":8233:8239   */\n      dup2\n        /* \"#utility.yul\":8230:8260   */\n      gt\n        /* \"#utility.yul\":8227:8344   */\n      iszero\n      tag_236\n      jumpi\n        /* \"#utility.yul\":8263:8342   */\n      tag_237\n      tag_114\n      jump\t// in\n    tag_237:\n        /* \"#utility.yul\":8227:8344   */\n    tag_236:\n        /* \"#utility.yul\":8368:8431   */\n      tag_238\n        /* \"#utility.yul\":8423:8430   */\n      dup5\n        /* \"#utility.yul\":8414:8420   */\n      dup3\n        /* \"#utility.yul\":8403:8412   */\n      dup6\n        /* \"#utility.yul\":8399:8421   */\n      add\n        /* \"#utility.yul\":8368:8431   */\n      tag_122\n      jump\t// in\n    tag_238:\n        /* \"#utility.yul\":8358:8431   */\n      swap2\n      pop\n        /* \"#utility.yul\":8154:8441   */\n      pop\n        /* \"#utility.yul\":7939:8448   */\n      swap3\n      swap2\n      pop\n      pop\n      jump\t// out\n        /* \"#utility.yul\":8454:8572   */\n    tag_125:\n        /* \"#utility.yul\":8541:8565   */\n      tag_240\n        /* \"#utility.yul\":8559:8564   */\n      dup2\n        /* \"#utility.yul\":8541:8565   */\n      tag_106\n      jump\t// in\n    tag_240:\n        /* \"#utility.yul\":8536:8539   */\n      dup3\n        /* \"#utility.yul\":8529:8566   */\n      mstore\n        /* \"#utility.yul\":8454:8572   */\n      pop\n      pop\n      jump\t// out\n        /* \"#utility.yul\":8578:8910   */\n    tag_21:\n        /* \"#utility.yul\":8699:8703   */\n      0x00\n        /* \"#utility.yul\":8737:8739   */\n      0x40\n        /* \"#utility.yul\":8726:8735   */\n      dup3\n        /* \"#utility.yul\":8722:8740   */\n      add\n        /* \"#utility.yul\":8714:8740   */\n      swap1\n      pop\n        /* \"#utility.yul\":8750:8821   */\n      tag_242\n        /* \"#utility.yul\":8818:8819   */\n      0x00\n        /* \"#utility.yul\":8807:8816   */\n      dup4\n        /* \"#utility.yul\":8803:8820   */\n      add\n        /* \"#utility.yul\":8794:8800   */\n      dup6\n        /* \"#utility.yul\":8750:8821   */\n      tag_125\n      jump\t// in\n    tag_242:\n        /* \"#utility.yul\":8831:8903   */\n      tag_243\n        /* \"#utility.yul\":8899:8901   */\n      0x20\n        /* \"#utility.yul\":8888:8897   */\n      dup4\n        /* \"#utility.yul\":8884:8902   */\n      add\n        /* \"#utility.yul\":8875:8881   */\n      dup5\n        /* \"#utility.yul\":8831:8903   */\n      tag_125\n      jump\t// in\n    tag_243:\n        /* \"#utility.yul\":8578:8910   */\n      swap4\n      swap3\n      pop\n      pop\n      pop\n      jump\t// out\n        /* \"#utility.yul\":8916:9051   */\n    tag_126:\n        /* \"#utility.yul\":9004:9010   */\n      0x00\n        /* \"#utility.yul\":9038:9043   */\n      dup2\n        /* \"#utility.yul\":9032:9044   */\n      mload\n        /* \"#utility.yul\":9022:9044   */\n      swap1\n      pop\n        /* \"#utility.yul\":8916:9051   */\n      swap2\n      swap1\n      pop\n      jump\t// out\n        /* \"#utility.yul\":9057:9262   */\n    tag_127:\n        /* \"#utility.yul\":9177:9188   */\n      0x00\n        /* \"#utility.yul\":9211:9217   */\n      dup3\n        /* \"#utility.yul\":9206:9209   */\n      dup3\n        /* \"#utility.yul\":9199:9218   */\n      mstore\n        /* \"#utility.yul\":9251:9255   */\n      0x20\n        /* \"#utility.yul\":9246:9249   */\n      dup3\n        /* \"#utility.yul\":9242:9256   */\n      add\n        /* \"#utility.yul\":9227:9256   */\n      swap1\n      pop\n        /* \"#utility.yul\":9057:9262   */\n      swap3\n      swap2\n      pop\n      pop\n      jump\t// out\n        /* \"#utility.yul\":9268:9421   */\n    tag_128:\n        /* \"#utility.yul\":9356:9360   */\n      0x00\n        /* \"#utility.yul\":9379:9382   */\n      dup2\n        /* \"#utility.yul\":9371:9382   */\n      swap1\n      pop\n        /* \"#utility.yul\":9409:9413   */\n      0x20\n        /* \"#utility.yul\":9404:9407   */\n      dup3\n        /* \"#utility.yul\":9400:9414   */\n      add\n        /* \"#utility.yul\":9392:9414   */\n      swap1\n      pop\n        /* \"#utility.yul\":9268:9421   */\n      swap2\n      swap1\n      pop\n      jump\t// out\n        /* \"#utility.yul\":9463:10237   */\n    tag_129:\n        /* \"#utility.yul\":9564:9567   */\n      0x00\n        /* \"#utility.yul\":9600:9604   */\n      0x60\n        /* \"#utility.yul\":9595:9598   */\n      dup4\n        /* \"#utility.yul\":9591:9605   */\n      add\n        /* \"#utility.yul\":9694:9698   */\n      0x00\n        /* \"#utility.yul\":9687:9692   */\n      dup4\n        /* \"#utility.yul\":9683:9699   */\n      add\n        /* \"#utility.yul\":9677:9700   */\n      mload\n        /* \"#utility.yul\":9747:9750   */\n      dup5\n        /* \"#utility.yul\":9741:9745   */\n      dup3\n        /* \"#utility.yul\":9737:9751   */\n      sub\n        /* \"#utility.yul\":9730:9734   */\n      0x00\n        /* \"#utility.yul\":9725:9728   */\n      dup7\n        /* \"#utility.yul\":9721:9735   */\n      add\n        /* \"#utility.yul\":9714:9752   */\n      mstore\n        /* \"#utility.yul\":9773:9846   */\n      tag_248\n        /* \"#utility.yul\":9841:9845   */\n      dup3\n        /* \"#utility.yul\":9827:9839   */\n      dup3\n        /* \"#utility.yul\":9773:9846   */\n      tag_105\n      jump\t// in\n    tag_248:\n        /* \"#utility.yul\":9765:9846   */\n      swap2\n      pop\n        /* \"#utility.yul\":9615:9857   */\n      pop\n        /* \"#utility.yul\":9940:9944   */\n      0x20\n        /* \"#utility.yul\":9933:9938   */\n      dup4\n        /* \"#utility.yul\":9929:9945   */\n      add\n        /* \"#utility.yul\":9923:9946   */\n      mload\n        /* \"#utility.yul\":9959:10022   */\n      tag_249\n        /* \"#utility.yul\":10016:10020   */\n      0x20\n        /* \"#utility.yul\":10011:10014   */\n      dup7\n        /* \"#utility.yul\":10007:10021   */\n      add\n        /* \"#utility.yul\":9993:10005   */\n      dup3\n        /* \"#utility.yul\":9959:10022   */\n      tag_107\n      jump\t// in\n    tag_249:\n        /* \"#utility.yul\":9867:10032   */\n      pop\n        /* \"#utility.yul\":10118:10122   */\n      0x40\n        /* \"#utility.yul\":10111:10116   */\n      dup4\n        /* \"#utility.yul\":10107:10123   */\n      add\n        /* \"#utility.yul\":10101:10124   */\n      mload\n        /* \"#utility.yul\":10137:10200   */\n      tag_250\n        /* \"#utility.yul\":10194:10198   */\n      0x40\n        /* \"#utility.yul\":10189:10192   */\n      dup7\n        /* \"#utility.yul\":10185:10199   */\n      add\n        /* \"#utility.yul\":10171:10183   */\n      dup3\n        /* \"#utility.yul\":10137:10200   */\n      tag_107\n      jump\t// in\n    tag_250:\n        /* \"#utility.yul\":10042:10210   */\n      pop\n        /* \"#utility.yul\":10227:10231   */\n      dup1\n        /* \"#utility.yul\":10220:10231   */\n      swap2\n      pop\n        /* \"#utility.yul\":9569:10237   */\n      pop\n        /* \"#utility.yul\":9463:10237   */\n      swap3\n      swap2\n      pop\n      pop\n      jump\t// out\n        /* \"#utility.yul\":10243:10483   */\n    tag_130:\n        /* \"#utility.yul\":10354:10364   */\n      0x00\n        /* \"#utility.yul\":10389:10477   */\n      tag_252\n        /* \"#utility.yul\":10473:10476   */\n      dup4\n        /* \"#utility.yul\":10465:10471   */\n      dup4\n        /* \"#utility.yul\":10389:10477   */\n      tag_129\n      jump\t// in\n    tag_252:\n        /* \"#utility.yul\":10375:10477   */\n      swap1\n      pop\n        /* \"#utility.yul\":10243:10483   */\n      swap3\n      swap2\n      pop\n      pop\n      jump\t// out\n        /* \"#utility.yul\":10489:10623   */\n    tag_131:\n        /* \"#utility.yul\":10580:10584   */\n      0x00\n        /* \"#utility.yul\":10612:10616   */\n      0x20\n        /* \"#utility.yul\":10607:10610   */\n      dup3\n        /* \"#utility.yul\":10603:10617   */\n      add\n        /* \"#utility.yul\":10595:10617   */\n      swap1\n      pop\n        /* \"#utility.yul\":10489:10623   */\n      swap2\n      swap1\n      pop\n      jump\t// out\n        /* \"#utility.yul\":10669:11748   */\n    tag_132:\n        /* \"#utility.yul\":10830:10833   */\n      0x00\n        /* \"#utility.yul\":10859:10934   */\n      tag_255\n        /* \"#utility.yul\":10928:10933   */\n      dup3\n        /* \"#utility.yul\":10859:10934   */\n      tag_126\n      jump\t// in\n    tag_255:\n        /* \"#utility.yul\":10950:11057   */\n      tag_256\n        /* \"#utility.yul\":11050:11056   */\n      dup2\n        /* \"#utility.yul\":11045:11048   */\n      dup6\n        /* \"#utility.yul\":10950:11057   */\n      tag_127\n      jump\t// in\n    tag_256:\n        /* \"#utility.yul\":10943:11057   */\n      swap4\n      pop\n        /* \"#utility.yul\":11083:11086   */\n      dup4\n        /* \"#utility.yul\":11128:11132   */\n      0x20\n        /* \"#utility.yul\":11120:11126   */\n      dup3\n        /* \"#utility.yul\":11116:11133   */\n      mul\n        /* \"#utility.yul\":11111:11114   */\n      dup6\n        /* \"#utility.yul\":11107:11134   */\n      add\n        /* \"#utility.yul\":11158:11235   */\n      tag_257\n        /* \"#utility.yul\":11229:11234   */\n      dup6\n        /* \"#utility.yul\":11158:11235   */\n      tag_128\n      jump\t// in\n    tag_257:\n        /* \"#utility.yul\":11258:11265   */\n      dup1\n        /* \"#utility.yul\":11289:11290   */\n      0x00\n        /* \"#utility.yul\":11274:11703   */\n    tag_258:\n        /* \"#utility.yul\":11299:11305   */\n      dup6\n        /* \"#utility.yul\":11296:11297   */\n      dup2\n        /* \"#utility.yul\":11293:11306   */\n      lt\n        /* \"#utility.yul\":11274:11703   */\n      iszero\n      tag_260\n      jumpi\n        /* \"#utility.yul\":11370:11379   */\n      dup5\n        /* \"#utility.yul\":11364:11368   */\n      dup5\n        /* \"#utility.yul\":11360:11380   */\n      sub\n        /* \"#utility.yul\":11355:11358   */\n      dup10\n        /* \"#utility.yul\":11348:11381   */\n      mstore\n        /* \"#utility.yul\":11421:11427   */\n      dup2\n        /* \"#utility.yul\":11415:11428   */\n      mload\n        /* \"#utility.yul\":11449:11555   */\n      tag_261\n        /* \"#utility.yul\":11550:11554   */\n      dup6\n        /* \"#utility.yul\":11535:11548   */\n      dup3\n        /* \"#utility.yul\":11449:11555   */\n      tag_130\n      jump\t// in\n    tag_261:\n        /* \"#utility.yul\":11441:11555   */\n      swap5\n      pop\n        /* \"#utility.yul\":11578:11659   */\n      tag_262\n        /* \"#utility.yul\":11652:11658   */\n      dup4\n        /* \"#utility.yul\":11578:11659   */\n      tag_131\n      jump\t// in\n    tag_262:\n        /* \"#utility.yul\":11568:11659   */\n      swap3\n      pop\n        /* \"#utility.yul\":11688:11692   */\n      0x20\n        /* \"#utility.yul\":11683:11686   */\n      dup11\n        /* \"#utility.yul\":11679:11693   */\n      add\n        /* \"#utility.yul\":11672:11693   */\n      swap10\n      pop\n        /* \"#utility.yul\":11334:11703   */\n      pop\n        /* \"#utility.yul\":11321:11322   */\n      0x01\n        /* \"#utility.yul\":11318:11319   */\n      dup2\n        /* \"#utility.yul\":11314:11323   */\n      add\n        /* \"#utility.yul\":11309:11323   */\n      swap1\n      pop\n        /* \"#utility.yul\":11274:11703   */\n      jump(tag_258)\n    tag_260:\n        /* \"#utility.yul\":11278:11292   */\n      pop\n        /* \"#utility.yul\":11719:11723   */\n      dup3\n        /* \"#utility.yul\":11712:11723   */\n      swap8\n      pop\n        /* \"#utility.yul\":11739:11742   */\n      dup8\n        /* \"#utility.yul\":11732:11742   */\n      swap6\n      pop\n        /* \"#utility.yul\":10835:11748   */\n      pop\n      pop\n      pop\n      pop\n      pop\n        /* \"#utility.yul\":10669:11748   */\n      swap3\n      swap2\n      pop\n      pop\n      jump\t// out\n        /* \"#utility.yul\":11754:12211   */\n    tag_26:\n        /* \"#utility.yul\":11939:11943   */\n      0x00\n        /* \"#utility.yul\":11977:11979   */\n      0x20\n        /* \"#utility.yul\":11966:11975   */\n      dup3\n        /* \"#utility.yul\":11962:11980   */\n      add\n        /* \"#utility.yul\":11954:11980   */\n      swap1\n      pop\n        /* \"#utility.yul\":12026:12035   */\n      dup2\n        /* \"#utility.yul\":12020:12024   */\n      dup2\n        /* \"#utility.yul\":12016:12036   */\n      sub\n        /* \"#utility.yul\":12012:12013   */\n      0x00\n        /* \"#utility.yul\":12001:12010   */\n      dup4\n        /* \"#utility.yul\":11997:12014   */\n      add\n        /* \"#utility.yul\":11990:12037   */\n      mstore\n        /* \"#utility.yul\":12054:12204   */\n      tag_264\n        /* \"#utility.yul\":12199:12203   */\n      dup2\n        /* \"#utility.yul\":12190:12196   */\n      dup5\n        /* \"#utility.yul\":12054:12204   */\n      tag_132\n      jump\t// in\n    tag_264:\n        /* \"#utility.yul\":12046:12204   */\n      swap1\n      pop\n        /* \"#utility.yul\":11754:12211   */\n      swap3\n      swap2\n      pop\n      pop\n      jump\t// out\n        /* \"#utility.yul\":12217:13196   */\n    tag_29:\n        /* \"#utility.yul\":12314:12320   */\n      0x00\n        /* \"#utility.yul\":12322:12328   */\n      0x00\n        /* \"#utility.yul\":12330:12336   */\n      0x00\n        /* \"#utility.yul\":12379:12381   */\n      0x60\n        /* \"#utility.yul\":12367:12376   */\n      dup5\n        /* \"#utility.yul\":12358:12365   */\n      dup7\n        /* \"#utility.yul\":12354:12377   */\n      sub\n        /* \"#utility.yul\":12350:12382   */\n      slt\n        /* \"#utility.yul\":12347:12466   */\n      iszero\n      tag_266\n      jumpi\n        /* \"#utility.yul\":12385:12464   */\n      tag_267\n      tag_113\n      jump\t// in\n    tag_267:\n        /* \"#utility.yul\":12347:12466   */\n    tag_266:\n        /* \"#utility.yul\":12533:12534   */\n      0x00\n        /* \"#utility.yul\":12522:12531   */\n      dup5\n        /* \"#utility.yul\":12518:12535   */\n      add\n        /* \"#utility.yul\":12505:12536   */\n      calldataload\n        /* \"#utility.yul\":12563:12581   */\n      0xffffffffffffffff\n        /* \"#utility.yul\":12555:12561   */\n      dup2\n        /* \"#utility.yul\":12552:12582   */\n      gt\n        /* \"#utility.yul\":12549:12666   */\n      iszero\n      tag_268\n      jumpi\n        /* \"#utility.yul\":12585:12664   */\n      tag_269\n      tag_114\n      jump\t// in\n    tag_269:\n        /* \"#utility.yul\":12549:12666   */\n    tag_268:\n        /* \"#utility.yul\":12690:12753   */\n      tag_270\n        /* \"#utility.yul\":12745:12752   */\n      dup7\n        /* \"#utility.yul\":12736:12742   */\n      dup3\n        /* \"#utility.yul\":12725:12734   */\n      dup8\n        /* \"#utility.yul\":12721:12743   */\n      add\n        /* \"#utility.yul\":12690:12753   */\n      tag_122\n      jump\t// in\n    tag_270:\n        /* \"#utility.yul\":12680:12753   */\n      swap4\n      pop\n        /* \"#utility.yul\":12476:12763   */\n      pop\n        /* \"#utility.yul\":12830:12832   */\n      0x20\n        /* \"#utility.yul\":12819:12828   */\n      dup5\n        /* \"#utility.yul\":12815:12833   */\n      add\n        /* \"#utility.yul\":12802:12834   */\n      calldataload\n        /* \"#utility.yul\":12861:12879   */\n      0xffffffffffffffff\n        /* \"#utility.yul\":12853:12859   */\n      dup2\n        /* \"#utility.yul\":12850:12880   */\n      gt\n        /* \"#utility.yul\":12847:12964   */\n      iszero\n      tag_271\n      jumpi\n        /* \"#utility.yul\":12883:12962   */\n      tag_272\n      tag_114\n      jump\t// in\n    tag_272:\n        /* \"#utility.yul\":12847:12964   */\n    tag_271:\n        /* \"#utility.yul\":12988:13051   */\n      tag_273\n        /* \"#utility.yul\":13043:13050   */\n      dup7\n        /* \"#utility.yul\":13034:13040   */\n      dup3\n        /* \"#utility.yul\":13023:13032   */\n      dup8\n        /* \"#utility.yul\":13019:13041   */\n      add\n        /* \"#utility.yul\":12988:13051   */\n      tag_122\n      jump\t// in\n    tag_273:\n        /* \"#utility.yul\":12978:13051   */\n      swap3\n      pop\n        /* \"#utility.yul\":12773:13061   */\n      pop\n        /* \"#utility.yul\":13100:13102   */\n      0x40\n        /* \"#utility.yul\":13126:13179   */\n      tag_274\n        /* \"#utility.yul\":13171:13178   */\n      dup7\n        /* \"#utility.yul\":13162:13168   */\n      dup3\n        /* \"#utility.yul\":13151:13160   */\n      dup8\n        /* \"#utility.yul\":13147:13169   */\n      add\n        /* \"#utility.yul\":13126:13179   */\n      tag_124\n      jump\t// in\n    tag_274:\n        /* \"#utility.yul\":13116:13179   */\n      swap2\n      pop\n        /* \"#utility.yul\":13071:13189   */\n      pop\n        /* \"#utility.yul\":12217:13196   */\n      swap3\n      pop\n      swap3\n      pop\n      swap3\n      jump\t// out\n        /* \"#utility.yul\":13202:13382   */\n    tag_44:\n        /* \"#utility.yul\":13250:13327   */\n      0x4e487b7100000000000000000000000000000000000000000000000000000000\n        /* \"#utility.yul\":13247:13248   */\n      0x00\n        /* \"#utility.yul\":13240:13328   */\n      mstore\n        /* \"#utility.yul\":13347:13351   */\n      0x32\n        /* \"#utility.yul\":13344:13345   */\n      0x04\n        /* \"#utility.yul\":13337:13352   */\n      mstore\n        /* \"#utility.yul\":13371:13375   */\n      0x24\n        /* \"#utility.yul\":13368:13369   */\n      0x00\n        /* \"#utility.yul\":13361:13376   */\n      revert\n        /* \"#utility.yul\":13388:13568   */\n    tag_133:\n        /* \"#utility.yul\":13436:13513   */\n      0x4e487b7100000000000000000000000000000000000000000000000000000000\n        /* \"#utility.yul\":13433:13434   */\n      0x00\n        /* \"#utility.yul\":13426:13514   */\n      mstore\n        /* \"#utility.yul\":13533:13537   */\n      0x22\n        /* \"#utility.yul\":13530:13531   */\n      0x04\n        /* \"#utility.yul\":13523:13538   */\n      mstore\n        /* \"#utility.yul\":13557:13561   */\n      0x24\n        /* \"#utility.yul\":13554:13555   */\n      0x00\n        /* \"#utility.yul\":13547:13562   */\n      revert\n        /* \"#utility.yul\":13574:13894   */\n    tag_49:\n        /* \"#utility.yul\":13618:13624   */\n      0x00\n        /* \"#utility.yul\":13655:13656   */\n      0x02\n        /* \"#utility.yul\":13649:13653   */\n      dup3\n        /* \"#utility.yul\":13645:13657   */\n      div\n        /* \"#utility.yul\":13635:13657   */\n      swap1\n      pop\n        /* \"#utility.yul\":13702:13703   */\n      0x01\n        /* \"#utility.yul\":13696:13700   */\n      dup3\n        /* \"#utility.yul\":13692:13704   */\n      and\n        /* \"#utility.yul\":13723:13741   */\n      dup1\n        /* \"#utility.yul\":13713:13794   */\n      tag_278\n      jumpi\n        /* \"#utility.yul\":13779:13783   */\n      0x7f\n        /* \"#utility.yul\":13771:13777   */\n      dup3\n        /* \"#utility.yul\":13767:13784   */\n      and\n        /* \"#utility.yul\":13757:13784   */\n      swap2\n      pop\n        /* \"#utility.yul\":13713:13794   */\n    tag_278:\n        /* \"#utility.yul\":13841:13843   */\n      0x20\n        /* \"#utility.yul\":13833:13839   */\n      dup3\n        /* \"#utility.yul\":13830:13844   */\n      lt\n        /* \"#utility.yul\":13810:13828   */\n      dup2\n        /* \"#utility.yul\":13807:13845   */\n      sub\n        /* \"#utility.yul\":13804:13888   */\n      tag_279\n      jumpi\n        /* \"#utility.yul\":13860:13878   */\n      tag_280\n      tag_133\n      jump\t// in\n    tag_280:\n        /* \"#utility.yul\":13804:13888   */\n    tag_279:\n        /* \"#utility.yul\":13625:13894   */\n      pop\n        /* \"#utility.yul\":13574:13894   */\n      swap2\n      swap1\n      pop\n      jump\t// out\n        /* \"#utility.yul\":13900:14048   */\n    tag_134:\n        /* \"#utility.yul\":14002:14013   */\n      0x00\n        /* \"#utility.yul\":14039:14042   */\n      dup2\n        /* \"#utility.yul\":14024:14042   */\n      swap1\n      pop\n        /* \"#utility.yul\":13900:14048   */\n      swap3\n      swap2\n      pop\n      pop\n      jump\t// out\n        /* \"#utility.yul\":14054:14195   */\n    tag_135:\n        /* \"#utility.yul\":14103:14107   */\n      0x00\n        /* \"#utility.yul\":14126:14129   */\n      dup2\n        /* \"#utility.yul\":14118:14129   */\n      swap1\n      pop\n        /* \"#utility.yul\":14149:14152   */\n      dup2\n        /* \"#utility.yul\":14146:14147   */\n      0x00\n        /* \"#utility.yul\":14139:14153   */\n      mstore\n        /* \"#utility.yul\":14183:14187   */\n      0x20\n        /* \"#utility.yul\":14180:14181   */\n      0x00\n        /* \"#utility.yul\":14170:14188   */\n      keccak256\n        /* \"#utility.yul\":14162:14188   */\n      swap1\n      pop\n        /* \"#utility.yul\":14054:14195   */\n      swap2\n      swap1\n      pop\n      jump\t// out\n        /* \"#utility.yul\":14225:15099   */\n    tag_136:\n        /* \"#utility.yul\":14328:14331   */\n      0x00\n        /* \"#utility.yul\":14365:14370   */\n      dup2\n        /* \"#utility.yul\":14359:14371   */\n      sload\n        /* \"#utility.yul\":14394:14430   */\n      tag_284\n        /* \"#utility.yul\":14420:14429   */\n      dup2\n        /* \"#utility.yul\":14394:14430   */\n      tag_49\n      jump\t// in\n    tag_284:\n        /* \"#utility.yul\":14446:14535   */\n      tag_285\n        /* \"#utility.yul\":14528:14534   */\n      dup2\n        /* \"#utility.yul\":14523:14526   */\n      dup7\n        /* \"#utility.yul\":14446:14535   */\n      tag_134\n      jump\t// in\n    tag_285:\n        /* \"#utility.yul\":14439:14535   */\n      swap5\n      pop\n        /* \"#utility.yul\":14566:14567   */\n      0x01\n        /* \"#utility.yul\":14555:14564   */\n      dup3\n        /* \"#utility.yul\":14551:14568   */\n      and\n        /* \"#utility.yul\":14582:14583   */\n      0x00\n        /* \"#utility.yul\":14577:14743   */\n      dup2\n      eq\n      tag_287\n      jumpi\n        /* \"#utility.yul\":14757:14758   */\n      0x01\n        /* \"#utility.yul\":14752:15093   */\n      dup2\n      eq\n      tag_288\n      jumpi\n        /* \"#utility.yul\":14544:15093   */\n      jump(tag_286)\n        /* \"#utility.yul\":14577:14743   */\n    tag_287:\n        /* \"#utility.yul\":14661:14665   */\n      0xff\n        /* \"#utility.yul\":14657:14666   */\n      not\n        /* \"#utility.yul\":14646:14655   */\n      dup4\n        /* \"#utility.yul\":14642:14667   */\n      and\n        /* \"#utility.yul\":14637:14640   */\n      dup7\n        /* \"#utility.yul\":14630:14668   */\n      mstore\n        /* \"#utility.yul\":14723:14729   */\n      dup2\n        /* \"#utility.yul\":14716:14730   */\n      iszero\n        /* \"#utility.yul\":14709:14731   */\n      iszero\n        /* \"#utility.yul\":14701:14707   */\n      dup3\n        /* \"#utility.yul\":14697:14732   */\n      mul\n        /* \"#utility.yul\":14692:14695   */\n      dup7\n        /* \"#utility.yul\":14688:14733   */\n      add\n        /* \"#utility.yul\":14681:14733   */\n      swap4\n      pop\n        /* \"#utility.yul\":14577:14743   */\n      jump(tag_286)\n        /* \"#utility.yul\":14752:15093   */\n    tag_288:\n        /* \"#utility.yul\":14819:14857   */\n      tag_289\n        /* \"#utility.yul\":14851:14856   */\n      dup6\n        /* \"#utility.yul\":14819:14857   */\n      tag_135\n      jump\t// in\n    tag_289:\n        /* \"#utility.yul\":14879:14880   */\n      0x00\n        /* \"#utility.yul\":14893:15047   */\n    tag_290:\n        /* \"#utility.yul\":14907:14913   */\n      dup4\n        /* \"#utility.yul\":14904:14905   */\n      dup2\n        /* \"#utility.yul\":14901:14914   */\n      lt\n        /* \"#utility.yul\":14893:15047   */\n      iszero\n      tag_292\n      jumpi\n        /* \"#utility.yul\":14981:14988   */\n      dup2\n        /* \"#utility.yul\":14975:14989   */\n      sload\n        /* \"#utility.yul\":14971:14972   */\n      dup2\n        /* \"#utility.yul\":14966:14969   */\n      dup10\n        /* \"#utility.yul\":14962:14973   */\n      add\n        /* \"#utility.yul\":14955:14990   */\n      mstore\n        /* \"#utility.yul\":15031:15032   */\n      0x01\n        /* \"#utility.yul\":15022:15029   */\n      dup3\n        /* \"#utility.yul\":15018:15033   */\n      add\n        /* \"#utility.yul\":15007:15033   */\n      swap2\n      pop\n        /* \"#utility.yul\":14929:14933   */\n      0x20\n        /* \"#utility.yul\":14926:14927   */\n      dup2\n        /* \"#utility.yul\":14922:14934   */\n      add\n        /* \"#utility.yul\":14917:14934   */\n      swap1\n      pop\n        /* \"#utility.yul\":14893:15047   */\n      jump(tag_290)\n    tag_292:\n        /* \"#utility.yul\":15076:15082   */\n      dup4\n        /* \"#utility.yul\":15071:15074   */\n      dup9\n        /* \"#utility.yul\":15067:15083   */\n      add\n        /* \"#utility.yul\":15060:15083   */\n      swap6\n      pop\n        /* \"#utility.yul\":14759:15093   */\n      pop\n      pop\n        /* \"#utility.yul\":14544:15093   */\n    tag_286:\n      pop\n        /* \"#utility.yul\":14332:15099   */\n      pop\n      pop\n        /* \"#utility.yul\":14225:15099   */\n      swap3\n      swap2\n      pop\n      pop\n      jump\t// out\n        /* \"#utility.yul\":15105:15374   */\n    tag_47:\n        /* \"#utility.yul\":15234:15237   */\n      0x00\n        /* \"#utility.yul\":15256:15348   */\n      tag_294\n        /* \"#utility.yul\":15344:15347   */\n      dup3\n        /* \"#utility.yul\":15335:15341   */\n      dup5\n        /* \"#utility.yul\":15256:15348   */\n      tag_136\n      jump\t// in\n    tag_294:\n        /* \"#utility.yul\":15249:15348   */\n      swap2\n      pop\n        /* \"#utility.yul\":15365:15368   */\n      dup2\n        /* \"#utility.yul\":15358:15368   */\n      swap1\n      pop\n        /* \"#utility.yul\":15105:15374   */\n      swap3\n      swap2\n      pop\n      pop\n      jump\t// out\n        /* \"#utility.yul\":15380:15770   */\n    tag_137:\n        /* \"#utility.yul\":15486:15489   */\n      0x00\n        /* \"#utility.yul\":15514:15553   */\n      tag_296\n        /* \"#utility.yul\":15547:15552   */\n      dup3\n        /* \"#utility.yul\":15514:15553   */\n      tag_101\n      jump\t// in\n    tag_296:\n        /* \"#utility.yul\":15569:15658   */\n      tag_297\n        /* \"#utility.yul\":15651:15657   */\n      dup2\n        /* \"#utility.yul\":15646:15649   */\n      dup6\n        /* \"#utility.yul\":15569:15658   */\n      tag_134\n      jump\t// in\n    tag_297:\n        /* \"#utility.yul\":15562:15658   */\n      swap4\n      pop\n        /* \"#utility.yul\":15667:15732   */\n      tag_298\n        /* \"#utility.yul\":15725:15731   */\n      dup2\n        /* \"#utility.yul\":15720:15723   */\n      dup6\n        /* \"#utility.yul\":15713:15717   */\n      0x20\n        /* \"#utility.yul\":15706:15711   */\n      dup7\n        /* \"#utility.yul\":15702:15718   */\n      add\n        /* \"#utility.yul\":15667:15732   */\n      tag_103\n      jump\t// in\n    tag_298:\n        /* \"#utility.yul\":15757:15763   */\n      dup1\n        /* \"#utility.yul\":15752:15755   */\n      dup5\n        /* \"#utility.yul\":15748:15764   */\n      add\n        /* \"#utility.yul\":15741:15764   */\n      swap2\n      pop\n        /* \"#utility.yul\":15490:15770   */\n      pop\n        /* \"#utility.yul\":15380:15770   */\n      swap3\n      swap2\n      pop\n      pop\n      jump\t// out\n        /* \"#utility.yul\":15776:16051   */\n    tag_58:\n        /* \"#utility.yul\":15908:15911   */\n      0x00\n        /* \"#utility.yul\":15930:16025   */\n      tag_300\n        /* \"#utility.yul\":16021:16024   */\n      dup3\n        /* \"#utility.yul\":16012:16018   */\n      dup5\n        /* \"#utility.yul\":15930:16025   */\n      tag_137\n      jump\t// in\n    tag_300:\n        /* \"#utility.yul\":15923:16025   */\n      swap2\n      pop\n        /* \"#utility.yul\":16042:16045   */\n      dup2\n        /* \"#utility.yul\":16035:16045   */\n      swap1\n      pop\n        /* \"#utility.yul\":15776:16051   */\n      swap3\n      swap2\n      pop\n      pop\n      jump\t// out\n        /* \"#utility.yul\":16057:16150   */\n    tag_138:\n        /* \"#utility.yul\":16094:16100   */\n      0x00\n        /* \"#utility.yul\":16141:16143   */\n      0x20\n        /* \"#utility.yul\":16136:16138   */\n      0x1f\n        /* \"#utility.yul\":16129:16134   */\n      dup4\n        /* \"#utility.yul\":16125:16139   */\n      add\n        /* \"#utility.yul\":16121:16144   */\n      div\n        /* \"#utility.yul\":16111:16144   */\n      swap1\n      pop\n        /* \"#utility.yul\":16057:16150   */\n      swap2\n      swap1\n      pop\n      jump\t// out\n        /* \"#utility.yul\":16156:16263   */\n    tag_139:\n        /* \"#utility.yul\":16200:16208   */\n      0x00\n        /* \"#utility.yul\":16250:16255   */\n      dup3\n        /* \"#utility.yul\":16244:16248   */\n      dup3\n        /* \"#utility.yul\":16240:16256   */\n      shl\n        /* \"#utility.yul\":16219:16256   */\n      swap1\n      pop\n        /* \"#utility.yul\":16156:16263   */\n      swap3\n      swap2\n      pop\n      pop\n      jump\t// out\n        /* \"#utility.yul\":16269:16662   */\n    tag_140:\n        /* \"#utility.yul\":16338:16344   */\n      0x00\n        /* \"#utility.yul\":16388:16389   */\n      0x08\n        /* \"#utility.yul\":16376:16386   */\n      dup4\n        /* \"#utility.yul\":16372:16390   */\n      mul\n        /* \"#utility.yul\":16411:16508   */\n      tag_304\n        /* \"#utility.yul\":16441:16507   */\n      0xffffffffffffffffffffffffffffffffffffffffffffffffffffffffffffffff\n        /* \"#utility.yul\":16430:16439   */\n      dup3\n        /* \"#utility.yul\":16411:16508   */\n      tag_139\n      jump\t// in\n    tag_304:\n        /* \"#utility.yul\":16529:16568   */\n      tag_305\n        /* \"#utility.yul\":16559:16567   */\n      dup7\n        /* \"#utility.yul\":16548:16557   */\n      dup4\n        /* \"#utility.yul\":16529:16568   */\n      tag_139\n      jump\t// in\n    tag_305:\n        /* \"#utility.yul\":16517:16568   */\n      swap6\n      pop\n        /* \"#utility.yul\":16601:16605   */\n      dup1\n        /* \"#utility.yul\":16597:16606   */\n      not\n        /* \"#utility.yul\":16590:16595   */\n      dup5\n        /* \"#utility.yul\":16586:16607   */\n      and\n        /* \"#utility.yul\":16577:16607   */\n      swap4\n      pop\n        /* \"#utility.yul\":16650:16654   */\n      dup1\n        /* \"#utility.yul\":16640:16648   */\n      dup7\n        /* \"#utility.yul\":16636:16655   */\n      and\n        /* \"#utility.yul\":16629:16634   */\n      dup5\n        /* \"#utility.yul\":16626:16656   */\n      or\n        /* \"#utility.yul\":16616:16656   */\n      swap3\n      pop\n        /* \"#utility.yul\":16345:16662   */\n      pop\n      pop\n        /* \"#utility.yul\":16269:16662   */\n      swap4\n      swap3\n      pop\n      pop\n      pop\n      jump\t// out\n        /* \"#utility.yul\":16668:16728   */\n    tag_141:\n        /* \"#utility.yul\":16696:16699   */\n      0x00\n        /* \"#utility.yul\":16717:16722   */\n      dup2\n        /* \"#utility.yul\":16710:16722   */\n      swap1\n      pop\n        /* \"#utility.yul\":16668:16728   */\n      swap2\n      swap1\n      pop\n      jump\t// out\n        /* \"#utility.yul\":16734:16876   */\n    tag_142:\n        /* \"#utility.yul\":16784:16793   */\n      0x00\n        /* \"#utility.yul\":16817:16870   */\n      tag_308\n        /* \"#utility.yul\":16835:16869   */\n      tag_309\n        /* \"#utility.yul\":16844:16868   */\n      tag_310\n        /* \"#utility.yul\":16862:16867   */\n      dup5\n        /* \"#utility.yul\":16844:16868   */\n      tag_106\n      jump\t// in\n    tag_310:\n        /* \"#utility.yul\":16835:16869   */\n      tag_141\n      jump\t// in\n    tag_309:\n        /* \"#utility.yul\":16817:16870   */\n      tag_106\n      jump\t// in\n    tag_308:\n        /* \"#utility.yul\":16804:16870   */\n      swap1\n      pop\n        /* \"#utility.yul\":16734:16876   */\n      swap2\n      swap1\n      pop\n      jump\t// out\n        /* \"#utility.yul\":16882:16957   */\n    tag_143:\n        /* \"#utility.yul\":16925:16928   */\n      0x00\n        /* \"#utility.yul\":16946:16951   */\n      dup2\n        /* \"#utility.yul\":16939:16951   */\n      swap1\n      pop\n        /* \"#utility.yul\":16882:16957   */\n      swap2\n      swap1\n      pop\n      jump\t// out\n        /* \"#utility.yul\":16963:17232   */\n    tag_144:\n        /* \"#utility.yul\":17073:17112   */\n      tag_313\n        /* \"#utility.yul\":17104:17111   */\n      dup4\n        /* \"#utility.yul\":17073:17112   */\n      tag_142\n      jump\t// in\n    tag_313:\n        /* \"#utility.yul\":17134:17225   */\n      tag_314\n        /* \"#utility.yul\":17183:17224   */\n      tag_315\n        /* \"#utility.yul\":17207:17223   */\n      dup3\n        /* \"#utility.yul\":17183:17224   */\n      tag_143\n      jump\t// in\n    tag_315:\n        /* \"#utility.yul\":17175:17181   */\n      dup5\n        /* \"#utility.yul\":17168:17172   */\n      dup5\n        /* \"#utility.yul\":17162:17173   */\n      sload\n        /* \"#utility.yul\":17134:17225   */\n      tag_140\n      jump\t// in\n    tag_314:\n        /* \"#utility.yul\":17128:17132   */\n      dup3\n        /* \"#utility.yul\":17121:17226   */\n      sstore\n        /* \"#utility.yul\":17039:17232   */\n      pop\n        /* \"#utility.yul\":16963:17232   */\n      pop\n      pop\n      pop\n      jump\t// out\n        /* \"#utility.yul\":17238:17311   */\n    tag_145:\n        /* \"#utility.yul\":17283:17286   */\n      0x00\n        /* \"#utility.yul\":17304:17305   */\n      0x00\n        /* \"#utility.yul\":17297:17305   */\n      swap1\n      pop\n        /* \"#utility.yul\":17238:17311   */\n      swap1\n      jump\t// out\n        /* \"#utility.yul\":17317:17506   */\n    tag_146:\n        /* \"#utility.yul\":17394:17426   */\n      tag_318\n      tag_145\n      jump\t// in\n    tag_318:\n        /* \"#utility.yul\":17435:17500   */\n      tag_319\n        /* \"#utility.yul\":17493:17499   */\n      dup2\n        /* \"#utility.yul\":17485:17491   */\n      dup5\n        /* \"#utility.yul\":17479:17483   */\n      dup5\n        /* \"#utility.yul\":17435:17500   */\n      tag_144\n      jump\t// in\n    tag_319:\n        /* \"#utility.yul\":17370:17506   */\n      pop\n        /* \"#utility.yul\":17317:17506   */\n      pop\n      pop\n      jump\t// out\n        /* \"#utility.yul\":17512:17698   */\n    tag_147:\n        /* \"#utility.yul\":17572:17692   */\n    tag_321:\n        /* \"#utility.yul\":17589:17592   */\n      dup2\n        /* \"#utility.yul\":17582:17587   */\n      dup2\n        /* \"#utility.yul\":17579:17593   */\n      lt\n        /* \"#utility.yul\":17572:17692   */\n      iszero\n      tag_323\n      jumpi\n        /* \"#utility.yul\":17643:17682   */\n      tag_324\n        /* \"#utility.yul\":17680:17681   */\n      0x00\n        /* \"#utility.yul\":17673:17678   */\n      dup3\n        /* \"#utility.yul\":17643:17682   */\n      tag_146\n      jump\t// in\n    tag_324:\n        /* \"#utility.yul\":17616:17617   */\n      0x01\n        /* \"#utility.yul\":17609:17614   */\n      dup2\n        /* \"#utility.yul\":17605:17618   */\n      add\n        /* \"#utility.yul\":17596:17618   */\n      swap1\n      pop\n        /* \"#utility.yul\":17572:17692   */\n      jump(tag_321)\n    tag_323:\n        /* \"#utility.yul\":17512:17698   */\n      pop\n      pop\n      jump\t// out\n        /* \"#utility.yul\":17704:18247   */\n    tag_148:\n        /* \"#utility.yul\":17805:17807   */\n      0x1f\n        /* \"#utility.yul\":17800:17803   */\n      dup3\n        /* \"#utility.yul\":17797:17808   */\n      gt\n        /* \"#utility.yul\":17794:18240   */\n      iszero\n      tag_326\n      jumpi\n        /* \"#utility.yul\":17839:17877   */\n      tag_327\n        /* \"#utility.yul\":17871:17876   */\n      dup2\n        /* \"#utility.yul\":17839:17877   */\n      tag_135\n      jump\t// in\n    tag_327:\n        /* \"#utility.yul\":17923:17952   */\n      tag_328\n        /* \"#utility.yul\":17941:17951   */\n      dup5\n        /* \"#utility.yul\":17923:17952   */\n      tag_138\n      jump\t// in\n    tag_328:\n        /* \"#utility.yul\":17913:17921   */\n      dup2\n        /* \"#utility.yul\":17909:17953   */\n      add\n        /* \"#utility.yul\":18106:18108   */\n      0x20\n        /* \"#utility.yul\":18094:18104   */\n      dup6\n        /* \"#utility.yul\":18091:18109   */\n      lt\n        /* \"#utility.yul\":18088:18137   */\n      iszero\n      tag_329\n      jumpi\n        /* \"#utility.yul\":18127:18135   */\n      dup2\n        /* \"#utility.yul\":18112:18135   */\n      swap1\n      pop\n        /* \"#utility.yul\":18088:18137   */\n    tag_329:\n        /* \"#utility.yul\":18150:18230   */\n      tag_330\n        /* \"#utility.yul\":18206:18228   */\n      tag_331\n        /* \"#utility.yul\":18224:18227   */\n      dup6\n        /* \"#utility.yul\":18206:18228   */\n      tag_138\n      jump\t// in\n    tag_331:\n        /* \"#utility.yul\":18196:18204   */\n      dup4\n        /* \"#utility.yul\":18192:18229   */\n      add\n        /* \"#utility.yul\":18179:18190   */\n      dup3\n        /* \"#utility.yul\":18150:18230   */\n      tag_147\n      jump\t// in\n    tag_330:\n        /* \"#utility.yul\":17809:18240   */\n      pop\n      pop\n        /* \"#utility.yul\":17794:18240   */\n    tag_326:\n        /* \"#utility.yul\":17704:18247   */\n      pop\n      pop\n      pop\n      jump\t// out\n        /* \"#utility.yul\":18253:18370   */\n    tag_149:\n        /* \"#utility.yul\":18307:18315   */\n      0x00\n        /* \"#utility.yul\":18357:18362   */\n      dup3\n        /* \"#utility.yul\":18351:18355   */\n      dup3\n        /* \"#utility.yul\":18347:18363   */\n      shr\n        /* \"#utility.yul\":18326:18363   */\n      swap1\n      pop\n        /* \"#utility.yul\":18253:18370   */\n      swap3\n      swap2\n      pop\n      pop\n      jump\t// out\n        /* \"#utility.yul\":18376:18545   */\n    tag_150:\n        /* \"#utility.yul\":18420:18426   */\n      0x00\n        /* \"#utility.yul\":18453:18504   */\n      tag_334\n        /* \"#utility.yul\":18501:18502   */\n      0x00\n        /* \"#utility.yul\":18497:18503   */\n      not\n        /* \"#utility.yul\":18489:18494   */\n      dup5\n        /* \"#utility.yul\":18486:18487   */\n      0x08\n        /* \"#utility.yul\":18482:18495   */\n      mul\n        /* \"#utility.yul\":18453:18504   */\n      tag_149\n      jump\t// in\n    tag_334:\n        /* \"#utility.yul\":18449:18505   */\n      not\n        /* \"#utility.yul\":18534:18538   */\n      dup1\n        /* \"#utility.yul\":18528:18532   */\n      dup4\n        /* \"#utility.yul\":18524:18539   */\n      and\n        /* \"#utility.yul\":18514:18539   */\n      swap2\n      pop\n        /* \"#utility.yul\":18427:18545   */\n      pop\n        /* \"#utility.yul\":18376:18545   */\n      swap3\n      swap2\n      pop\n      pop\n      jump\t// out\n        /* \"#utility.yul\":18550:18845   */\n    tag_151:\n        /* \"#utility.yul\":18626:18630   */\n      0x00\n        /* \"#utility.yul\":18772:18801   */\n      tag_336\n        /* \"#utility.yul\":18797:18800   */\n      dup4\n        /* \"#utility.yul\":18791:18795   */\n      dup4\n        /* \"#utility.yul\":18772:18801   */\n      tag_150\n      jump\t// in\n    tag_336:\n        /* \"#utility.yul\":18764:18801   */\n      swap2\n      pop\n        /* \"#utility.yul\":18834:18837   */\n      dup3\n        /* \"#utility.yul\":18831:18832   */\n      0x02\n        /* \"#utility.yul\":18827:18838   */\n      mul\n        /* \"#utility.yul\":18821:18825   */\n      dup3\n        /* \"#utility.yul\":18818:18839   */\n      or\n        /* \"#utility.yul\":18810:18839   */\n      swap1\n      pop\n        /* \"#utility.yul\":18550:18845   */\n      swap3\n      swap2\n      pop\n      pop\n      jump\t// out\n        /* \"#utility.yul\":18850:20245   */\n    tag_63:\n        /* \"#utility.yul\":18967:19004   */\n      tag_338\n        /* \"#utility.yul\":19000:19003   */\n      dup3\n        /* \"#utility.yul\":18967:19004   */\n      tag_101\n      jump\t// in\n    tag_338:\n        /* \"#utility.yul\":19069:19087   */\n      0xffffffffffffffff\n        /* \"#utility.yul\":19061:19067   */\n      dup2\n        /* \"#utility.yul\":19058:19088   */\n      gt\n        /* \"#utility.yul\":19055:19111   */\n      iszero\n      tag_339\n      jumpi\n        /* \"#utility.yul\":19091:19109   */\n      tag_340\n      tag_34\n      jump\t// in\n    tag_340:\n        /* \"#utility.yul\":19055:19111   */\n    tag_339:\n        /* \"#utility.yul\":19135:19173   */\n      tag_341\n        /* \"#utility.yul\":19167:19171   */\n      dup3\n        /* \"#utility.yul\":19161:19172   */\n      sload\n        /* \"#utility.yul\":19135:19173   */\n      tag_49\n      jump\t// in\n    tag_341:\n        /* \"#utility.yul\":19220:19287   */\n      tag_342\n        /* \"#utility.yul\":19280:19286   */\n      dup3\n        /* \"#utility.yul\":19272:19278   */\n      dup3\n        /* \"#utility.yul\":19266:19270   */\n      dup6\n        /* \"#utility.yul\":19220:19287   */\n      tag_148\n      jump\t// in\n    tag_342:\n        /* \"#utility.yul\":19314:19315   */\n      0x00\n        /* \"#utility.yul\":19338:19342   */\n      0x20\n        /* \"#utility.yul\":19325:19342   */\n      swap1\n      pop\n        /* \"#utility.yul\":19370:19372   */\n      0x1f\n        /* \"#utility.yul\":19362:19368   */\n      dup4\n        /* \"#utility.yul\":19359:19373   */\n      gt\n        /* \"#utility.yul\":19387:19388   */\n      0x01\n        /* \"#utility.yul\":19382:20000   */\n      dup2\n      eq\n      tag_344\n      jumpi\n        /* \"#utility.yul\":20044:20045   */\n      0x00\n        /* \"#utility.yul\":20061:20067   */\n      dup5\n        /* \"#utility.yul\":20058:20135   */\n      iszero\n      tag_345\n      jumpi\n        /* \"#utility.yul\":20110:20119   */\n      dup3\n        /* \"#utility.yul\":20105:20108   */\n      dup8\n        /* \"#utility.yul\":20101:20120   */\n      add\n        /* \"#utility.yul\":20095:20121   */\n      mload\n        /* \"#utility.yul\":20086:20121   */\n      swap1\n      pop\n        /* \"#utility.yul\":20058:20135   */\n    tag_345:\n        /* \"#utility.yul\":20161:20228   */\n      tag_346\n        /* \"#utility.yul\":20221:20227   */\n      dup6\n        /* \"#utility.yul\":20214:20219   */\n      dup3\n        /* \"#utility.yul\":20161:20228   */\n      tag_151\n      jump\t// in\n    tag_346:\n        /* \"#utility.yul\":20155:20159   */\n      dup7\n        /* \"#utility.yul\":20148:20229   */\n      sstore\n        /* \"#utility.yul\":20017:20239   */\n      pop\n        /* \"#utility.yul\":19352:20239   */\n      jump(tag_343)\n        /* \"#utility.yul\":19382:20000   */\n    tag_344:\n        /* \"#utility.yul\":19434:19438   */\n      0x1f\n        /* \"#utility.yul\":19430:19439   */\n      not\n        /* \"#utility.yul\":19422:19428   */\n      dup5\n        /* \"#utility.yul\":19418:19440   */\n      and\n        /* \"#utility.yul\":19468:19505   */\n      tag_347\n        /* \"#utility.yul\":19500:19504   */\n      dup7\n        /* \"#utility.yul\":19468:19505   */\n      tag_135\n      jump\t// in\n    tag_347:\n        /* \"#utility.yul\":19527:19528   */\n      0x00\n        /* \"#utility.yul\":19541:19749   */\n    tag_348:\n        /* \"#utility.yul\":19555:19562   */\n      dup3\n        /* \"#utility.yul\":19552:19553   */\n      dup2\n        /* \"#utility.yul\":19549:19563   */\n      lt\n        /* \"#utility.yul\":19541:19749   */\n      iszero\n      tag_350\n      jumpi\n        /* \"#utility.yul\":19634:19643   */\n      dup5\n        /* \"#utility.yul\":19629:19632   */\n      dup10\n        /* \"#utility.yul\":19625:19644   */\n      add\n        /* \"#utility.yul\":19619:19645   */\n      mload\n        /* \"#utility.yul\":19611:19617   */\n      dup3\n        /* \"#utility.yul\":19604:19646   */\n      sstore\n        /* \"#utility.yul\":19685:19686   */\n      0x01\n        /* \"#utility.yul\":19677:19683   */\n      dup3\n        /* \"#utility.yul\":19673:19687   */\n      add\n        /* \"#utility.yul\":19663:19687   */\n      swap2\n      pop\n        /* \"#utility.yul\":19732:19734   */\n      0x20\n        /* \"#utility.yul\":19721:19730   */\n      dup6\n        /* \"#utility.yul\":19717:19735   */\n      add\n        /* \"#utility.yul\":19704:19735   */\n      swap5\n      pop\n        /* \"#utility.yul\":19578:19582   */\n      0x20\n        /* \"#utility.yul\":19575:19576   */\n      dup2\n        /* \"#utility.yul\":19571:19583   */\n      add\n        /* \"#utility.yul\":19566:19583   */\n      swap1\n      pop\n        /* \"#utility.yul\":19541:19749   */\n      jump(tag_348)\n    tag_350:\n        /* \"#utility.yul\":19777:19783   */\n      dup7\n        /* \"#utility.yul\":19768:19775   */\n      dup4\n        /* \"#utility.yul\":19765:19784   */\n      lt\n        /* \"#utility.yul\":19762:19941   */\n      iszero\n      tag_351\n      jumpi\n        /* \"#utility.yul\":19835:19844   */\n      dup5\n        /* \"#utility.yul\":19830:19833   */\n      dup10\n        /* \"#utility.yul\":19826:19845   */\n      add\n        /* \"#utility.yul\":19820:19846   */\n      mload\n        /* \"#utility.yul\":19878:19926   */\n      tag_352\n        /* \"#utility.yul\":19920:19924   */\n      0x1f\n        /* \"#utility.yul\":19912:19918   */\n      dup10\n        /* \"#utility.yul\":19908:19925   */\n      and\n        /* \"#utility.yul\":19897:19906   */\n      dup3\n        /* \"#utility.yul\":19878:19926   */\n      tag_150\n      jump\t// in\n    tag_352:\n        /* \"#utility.yul\":19870:19876   */\n      dup4\n        /* \"#utility.yul\":19863:19927   */\n      sstore\n        /* \"#utility.yul\":19785:19941   */\n      pop\n        /* \"#utility.yul\":19762:19941   */\n    tag_351:\n        /* \"#utility.yul\":19987:19988   */\n      0x01\n        /* \"#utility.yul\":19983:19984   */\n      0x02\n        /* \"#utility.yul\":19975:19981   */\n      dup9\n        /* \"#utility.yul\":19971:19985   */\n      mul\n        /* \"#utility.yul\":19967:19989   */\n      add\n        /* \"#utility.yul\":19961:19965   */\n      dup9\n        /* \"#utility.yul\":19954:19990   */\n      sstore\n        /* \"#utility.yul\":19389:20000   */\n      pop\n      pop\n      pop\n        /* \"#utility.yul\":19352:20239   */\n    tag_343:\n      pop\n        /* \"#utility.yul\":18942:20245   */\n      pop\n      pop\n      pop\n        /* \"#utility.yul\":18850:20245   */\n      pop\n      pop\n      jump\t// out\n        /* \"#utility.yul\":20251:20431   */\n    tag_152:\n        /* \"#utility.yul\":20299:20376   */\n      0x4e487b7100000000000000000000000000000000000000000000000000000000\n        /* \"#utility.yul\":20296:20297   */\n      0x00\n        /* \"#utility.yul\":20289:20377   */\n      mstore\n        /* \"#utility.yul\":20396:20400   */\n      0x11\n        /* \"#utility.yul\":20393:20394   */\n      0x04\n        /* \"#utility.yul\":20386:20401   */\n      mstore\n        /* \"#utility.yul\":20420:20424   */\n      0x24\n        /* \"#utility.yul\":20417:20418   */\n      0x00\n        /* \"#utility.yul\":20410:20425   */\n      revert\n        /* \"#utility.yul\":20437:20628   */\n    tag_68:\n        /* \"#utility.yul\":20477:20480   */\n      0x00\n        /* \"#utility.yul\":20496:20516   */\n      tag_355\n        /* \"#utility.yul\":20514:20515   */\n      dup3\n        /* \"#utility.yul\":20496:20516   */\n      tag_106\n      jump\t// in\n    tag_355:\n        /* \"#utility.yul\":20491:20516   */\n      swap2\n      pop\n        /* \"#utility.yul\":20530:20550   */\n      tag_356\n        /* \"#utility.yul\":20548:20549   */\n      dup4\n        /* \"#utility.yul\":20530:20550   */\n      tag_106\n      jump\t// in\n    tag_356:\n        /* \"#utility.yul\":20525:20550   */\n      swap3\n      pop\n        /* \"#utility.yul\":20573:20574   */\n      dup3\n        /* \"#utility.yul\":20570:20571   */\n      dup3\n        /* \"#utility.yul\":20566:20575   */\n      add\n        /* \"#utility.yul\":20559:20575   */\n      swap1\n      pop\n        /* \"#utility.yul\":20594:20597   */\n      dup1\n        /* \"#utility.yul\":20591:20592   */\n      dup3\n        /* \"#utility.yul\":20588:20598   */\n      gt\n        /* \"#utility.yul\":20585:20621   */\n      iszero\n      tag_357\n      jumpi\n        /* \"#utility.yul\":20601:20619   */\n      tag_358\n      tag_152\n      jump\t// in\n    tag_358:\n        /* \"#utility.yul\":20585:20621   */\n    tag_357:\n        /* \"#utility.yul\":20437:20628   */\n      swap3\n      swap2\n      pop\n      pop\n      jump\t// out\n        /* \"#utility.yul\":20634:20803   */\n    tag_153:\n        /* \"#utility.yul\":20718:20729   */\n      0x00\n        /* \"#utility.yul\":20752:20758   */\n      dup3\n        /* \"#utility.yul\":20747:20750   */\n      dup3\n        /* \"#utility.yul\":20740:20759   */\n      mstore\n        /* \"#utility.yul\":20792:20796   */\n      0x20\n        /* \"#utility.yul\":20787:20790   */\n      dup3\n        /* \"#utility.yul\":20783:20797   */\n      add\n        /* \"#utility.yul\":20768:20797   */\n      swap1\n      pop\n        /* \"#utility.yul\":20634:20803   */\n      swap3\n      swap2\n      pop\n      pop\n      jump\t// out\n        /* \"#utility.yul\":20809:20976   */\n    tag_154:\n        /* \"#utility.yul\":20949:20968   */\n      0x50726f64756374206e6f7420666f756e64000000000000000000000000000000\n        /* \"#utility.yul\":20945:20946   */\n      0x00\n        /* \"#utility.yul\":20937:20943   */\n      dup3\n        /* \"#utility.yul\":20933:20947   */\n      add\n        /* \"#utility.yul\":20926:20969   */\n      mstore\n        /* \"#utility.yul\":20809:20976   */\n      pop\n      jump\t// out\n        /* \"#utility.yul\":20982:21348   */\n    tag_155:\n        /* \"#utility.yul\":21124:21127   */\n      0x00\n        /* \"#utility.yul\":21145:21212   */\n      tag_362\n        /* \"#utility.yul\":21209:21211   */\n      0x11\n        /* \"#utility.yul\":21204:21207   */\n      dup4\n        /* \"#utility.yul\":21145:21212   */\n      tag_153\n      jump\t// in\n    tag_362:\n        /* \"#utility.yul\":21138:21212   */\n      swap2\n      pop\n        /* \"#utility.yul\":21221:21314   */\n      tag_363\n        /* \"#utility.yul\":21310:21313   */\n      dup3\n        /* \"#utility.yul\":21221:21314   */\n      tag_154\n      jump\t// in\n    tag_363:\n        /* \"#utility.yul\":21339:21341   */\n      0x20\n        /* \"#utility.yul\":21334:21337   */\n      dup3\n        /* \"#utility.yul\":21330:21342   */\n      add\n        /* \"#utility.yul\":21323:21342   */\n      swap1\n      pop\n        /* \"#utility.yul\":20982:21348   */\n      swap2\n      swap1\n      pop\n      jump\t// out\n        /* \"#utility.yul\":21354:21773   */\n    tag_74:\n        /* \"#utility.yul\":21520:21524   */\n      0x00\n        /* \"#utility.yul\":21558:21560   */\n      0x20\n        /* \"#utility.yul\":21547:21556   */\n      dup3\n        /* \"#utility.yul\":21543:21561   */\n      add\n        /* \"#utility.yul\":21535:21561   */\n      swap1\n      pop\n        /* \"#utility.yul\":21607:21616   */\n      dup2\n        /* \"#utility.yul\":21601:21605   */\n      dup2\n        /* \"#utility.yul\":21597:21617   */\n      sub\n        /* \"#utility.yul\":21593:21594   */\n      0x00\n        /* \"#utility.yul\":21582:21591   */\n      dup4\n        /* \"#utility.yul\":21578:21595   */\n      add\n        /* \"#utility.yul\":21571:21618   */\n      mstore\n        /* \"#utility.yul\":21635:21766   */\n      tag_365\n        /* \"#utility.yul\":21761:21765   */\n      dup2\n        /* \"#utility.yul\":21635:21766   */\n      tag_155\n      jump\t// in\n    tag_365:\n        /* \"#utility.yul\":21627:21766   */\n      swap1\n      pop\n        /* \"#utility.yul\":21354:21773   */\n      swap2\n      swap1\n      pop\n      jump\t// out\n        /* \"#utility.yul\":21779:21948   */\n    tag_156:\n        /* \"#utility.yul\":21919:21940   */\n      0x4e6f7420656e6f756768207175616e7469747900000000000000000000000000\n        /* \"#utility.yul\":21915:21916   */\n      0x00\n        /* \"#utility.yul\":21907:21913   */\n      dup3\n        /* \"#utility.yul\":21903:21917   */\n      add\n        /* \"#utility.yul\":21896:21941   */\n      mstore\n        /* \"#utility.yul\":21779:21948   */\n      pop\n      jump\t// out\n        /* \"#utility.yul\":21954:22320   */\n    tag_157:\n        /* \"#utility.yul\":22096:22099   */\n      0x00\n        /* \"#utility.yul\":22117:22184   */\n      tag_368\n        /* \"#utility.yul\":22181:22183   */\n      0x13\n        /* \"#utility.yul\":22176:22179   */\n      dup4\n        /* \"#utility.yul\":22117:22184   */\n      tag_153\n      jump\t// in\n    tag_368:\n        /* \"#utility.yul\":22110:22184   */\n      swap2\n      pop\n        /* \"#utility.yul\":22193:22286   */\n      tag_369\n        /* \"#utility.yul\":22282:22285   */\n      dup3\n        /* \"#utility.yul\":22193:22286   */\n      tag_156\n      jump\t// in\n    tag_369:\n        /* \"#utility.yul\":22311:22313   */\n      0x20\n        /* \"#utility.yul\":22306:22309   */\n      dup3\n        /* \"#utility.yul\":22302:22314   */\n      add\n        /* \"#utility.yul\":22295:22314   */\n      swap1\n      pop\n        /* \"#utility.yul\":21954:22320   */\n      swap2\n      swap1\n      pop\n      jump\t// out\n        /* \"#utility.yul\":22326:22745   */\n    tag_92:\n        /* \"#utility.yul\":22492:22496   */\n      0x00\n        /* \"#utility.yul\":22530:22532   */\n      0x20\n        /* \"#utility.yul\":22519:22528   */\n      dup3\n        /* \"#utility.yul\":22515:22533   */\n      add\n        /* \"#utility.yul\":22507:22533   */\n      swap1\n      pop\n        /* \"#utility.yul\":22579:22588   */\n      dup2\n        /* \"#utility.yul\":22573:22577   */\n      dup2\n        /* \"#utility.yul\":22569:22589   */\n      sub\n        /* \"#utility.yul\":22565:22566   */\n      0x00\n        /* \"#utility.yul\":22554:22563   */\n      dup4\n        /* \"#utility.yul\":22550:22567   */\n      add\n        /* \"#utility.yul\":22543:22590   */\n      mstore\n        /* \"#utility.yul\":22607:22738   */\n      tag_371\n        /* \"#utility.yul\":22733:22737   */\n      dup2\n        /* \"#utility.yul\":22607:22738   */\n      tag_157\n      jump\t// in\n    tag_371:\n        /* \"#utility.yul\":22599:22738   */\n      swap1\n      pop\n        /* \"#utility.yul\":22326:22745   */\n      swap2\n      swap1\n      pop\n      jump\t// out\n        /* \"#utility.yul\":22751:22945   */\n    tag_94:\n        /* \"#utility.yul\":22791:22795   */\n      0x00\n        /* \"#utility.yul\":22811:22831   */\n      tag_373\n        /* \"#utility.yul\":22829:22830   */\n      dup3\n        /* \"#utility.yul\":22811:22831   */\n      tag_106\n      jump\t// in\n    tag_373:\n        /* \"#utility.yul\":22806:22831   */\n      swap2\n      pop\n        /* \"#utility.yul\":22845:22865   */\n      tag_374\n        /* \"#utility.yul\":22863:22864   */\n      dup4\n        /* \"#utility.yul\":22845:22865   */\n      tag_106\n      jump\t// in\n    tag_374:\n        /* \"#utility.yul\":22840:22865   */\n      swap3\n      pop\n        /* \"#utility.yul\":22889:22890   */\n      dup3\n        /* \"#utility.yul\":22886:22887   */\n      dup3\n        /* \"#utility.yul\":22882:22891   */\n      sub\n        /* \"#utility.yul\":22874:22891   */\n      swap1\n      pop\n        /* \"#utility.yul\":22913:22914   */\n      dup2\n        /* \"#utility.yul\":22907:22911   */\n      dup2\n        /* \"#utility.yul\":22904:22915   */\n      gt\n        /* \"#utility.yul\":22901:22938   */\n      iszero\n      tag_375\n      jumpi\n        /* \"#utility.yul\":22918:22936   */\n      tag_376\n      tag_152\n      jump\t// in\n    tag_376:\n        /* \"#utility.yul\":22901:22938   */\n    tag_375:\n        /* \"#utility.yul\":22751:22945   */\n      swap3\n      swap2\n      pop\n      pop\n      jump\t// out\n\n    auxdata: 0xa264697066735822122005d56dabe995af37fd9bd561ef6b4dd0643cc7331e14f5a4e82b41a75c2ec4a564736f6c634300081e0033\n}\n",
				"bytecode": {
					"linkReferences": {},
					"object": "6080604052348015600e575f5ffd5b506111f38061001c5f395ff3fe608060405234801561000f575f5ffd5b5060043610610055575f3560e01c806302ee3a5214610059578063125b0b341461007757806357ba11b01461009357806380e345a0146100c4578063aa7acd50146100f4575b5f5ffd5b610061610110565b60405161006e919061084b565b60405180910390f35b610091600480360381019061008c91906109d2565b610299565b005b6100ad60048036038101906100a89190610a3e565b610393565b6040516100bb929190610a94565b60405180910390f35b6100de60048036038101906100d99190610a3e565b61041a565b6040516100eb9190610bc3565b60405180910390f35b61010e60048036038101906101099190610be3565b610537565b005b60605f60018054905067ffffffffffffffff81111561013257610131610884565b5b60405190808252806020026020018201604052801561016b57816020015b61015861069c565b8152602001906001900390816101505790505b5090505f5f90505b600180549050811015610291575f6001828154811061019557610194610c6b565b5b905f5260205f20016040516101aa9190610d91565b90815260200160405180910390206040518060600160405290815f820180546101d290610cc5565b80601f01602080910402602001604051908101604052809291908181526020018280546101fe90610cc5565b80156102495780601f1061022057610100808354040283529160200191610249565b820191905f5260205f20905b81548152906001019060200180831161022c57829003601f168201915b505050505081526020016001820154815260200160028201548152505082828151811061027957610278610c6b565b5b60200260200101819052508080600101915050610173565b508091505090565b5f5f846040516102a99190610dd7565b908152602001604051809103902090505f815f0180546102c890610cc5565b905003610369576040518060600160405280858152602001848152602001838152505f856040516102f99190610dd7565b90815260200160405180910390205f820151815f01908161031a9190610f7b565b506020820151816001015560408201518160020155905050600184908060018154018082558091505060019003905f5260205f20015f9091909190915090816103639190610f7b565b5061038d565b82816001018190555081816002015f8282546103859190611077565b925050819055505b50505050565b5f5f5f5f846040516103a59190610dd7565b908152602001604051809103902090505f815f0180546103c490610cc5565b905003610406576040517f08c379a00000000000000000000000000000000000000000000000000000000081526004016103fd90611104565b60405180910390fd5b806001015481600201549250925050915091565b606060028260405161042c9190610dd7565b9081526020016040518091039020805480602002602001604051908101604052809291908181526020015f905b8282101561052c578382905f5260205f2090600302016040518060600160405290815f8201805461048990610cc5565b80601f01602080910402602001604051908101604052809291908181526020018280546104b590610cc5565b80156105005780601f106104d757610100808354040283529160200191610500565b820191905f5260205f20905b8154815290600101906020018083116104e357829003601f168201915b505050505081526020016001820154815260200160028201548152505081526020019060010190610459565b505050509050919050565b5f5f836040516105479190610dd7565b908152602001604051809103902090505f815f01805461056690610cc5565b9050036105a8576040517f08c379a000000000000000000000000000000000000000000000000000000000815260040161059f90611104565b60405180910390fd5b81816002015410156105ef576040517f08c379a00000000000000000000000000000000000000000000000000000000081526004016105e69061116c565b60405180910390fd5b81816002015f828254610602919061118a565b925050819055506002846040516106199190610dd7565b908152602001604051809103902060405180606001604052808581526020018360010154815260200184815250908060018154018082558091505060019003905f5260205f2090600302015f909190919091505f820151815f01908161067f9190610f7b565b506020820151816001015560408201518160020155505050505050565b6040518060600160405280606081526020015f81526020015f81525090565b5f81519050919050565b5f82825260208201905092915050565b5f819050602082019050919050565b5f81519050919050565b5f82825260208201905092915050565b8281835e5f83830152505050565b5f601f19601f8301169050919050565b5f610726826106e4565b61073081856106ee565b93506107408185602086016106fe565b6107498161070c565b840191505092915050565b5f819050919050565b61076681610754565b82525050565b5f606083015f8301518482035f860152610786828261071c565b915050602083015161079b602086018261075d565b5060408301516107ae604086018261075d565b508091505092915050565b5f6107c4838361076c565b905092915050565b5f602082019050919050565b5f6107e2826106bb565b6107ec81856106c5565b9350836020820285016107fe856106d5565b805f5b85811015610839578484038952815161081a85826107b9565b9450610825836107cc565b925060208a01995050600181019050610801565b50829750879550505050505092915050565b5f6020820190508181035f83015261086381846107d8565b905092915050565b5f604051905090565b5f5ffd5b5f5ffd5b5f5ffd5b5f5ffd5b7f4e487b71000000000000000000000000000000000000000000000000000000005f52604160045260245ffd5b6108ba8261070c565b810181811067ffffffffffffffff821117156108d9576108d8610884565b5b80604052505050565b5f6108eb61086b565b90506108f782826108b1565b919050565b5f67ffffffffffffffff82111561091657610915610884565b5b61091f8261070c565b9050602081019050919050565b828183375f83830152505050565b5f61094c610947846108fc565b6108e2565b90508281526020810184848401111561096857610967610880565b5b61097384828561092c565b509392505050565b5f82601f83011261098f5761098e61087c565b5b813561099f84826020860161093a565b91505092915050565b6109b181610754565b81146109bb575f5ffd5b50565b5f813590506109cc816109a8565b92915050565b5f5f5f606084860312156109e9576109e8610874565b5b5f84013567ffffffffffffffff811115610a0657610a05610878565b5b610a128682870161097b565b9350506020610a23868287016109be565b9250506040610a34868287016109be565b9150509250925092565b5f60208284031215610a5357610a52610874565b5b5f82013567ffffffffffffffff811115610a7057610a6f610878565b5b610a7c8482850161097b565b91505092915050565b610a8e81610754565b82525050565b5f604082019050610aa75f830185610a85565b610ab46020830184610a85565b9392505050565b5f81519050919050565b5f82825260208201905092915050565b5f819050602082019050919050565b5f606083015f8301518482035f860152610afe828261071c565b9150506020830151610b13602086018261075d565b506040830151610b26604086018261075d565b508091505092915050565b5f610b3c8383610ae4565b905092915050565b5f602082019050919050565b5f610b5a82610abb565b610b648185610ac5565b935083602082028501610b7685610ad5565b805f5b85811015610bb15784840389528151610b928582610b31565b9450610b9d83610b44565b925060208a01995050600181019050610b79565b50829750879550505050505092915050565b5f6020820190508181035f830152610bdb8184610b50565b905092915050565b5f5f5f60608486031215610bfa57610bf9610874565b5b5f84013567ffffffffffffffff811115610c1757610c16610878565b5b610c238682870161097b565b935050602084013567ffffffffffffffff811115610c4457610c43610878565b5b610c508682870161097b565b9250506040610c61868287016109be565b9150509250925092565b7f4e487b71000000000000000000000000000000000000000000000000000000005f52603260045260245ffd5b7f4e487b71000000000000000000000000000000000000000000000000000000005f52602260045260245ffd5b5f6002820490506001821680610cdc57607f821691505b602082108103610cef57610cee610c98565b5b50919050565b5f81905092915050565b5f819050815f5260205f209050919050565b5f8154610d1d81610cc5565b610d278186610cf5565b9450600182165f8114610d415760018114610d5657610d88565b60ff1983168652811515820286019350610d88565b610d5f85610cff565b5f5b83811015610d8057815481890152600182019150602081019050610d61565b838801955050505b50505092915050565b5f610d9c8284610d11565b915081905092915050565b5f610db1826106e4565b610dbb8185610cf5565b9350610dcb8185602086016106fe565b80840191505092915050565b5f610de28284610da7565b915081905092915050565b5f6020601f8301049050919050565b5f82821b905092915050565b5f60088302610e377fffffffffffffffffffffffffffffffffffffffffffffffffffffffffffffffff82610dfc565b610e418683610dfc565b95508019841693508086168417925050509392505050565b5f819050919050565b5f610e7c610e77610e7284610754565b610e59565b610754565b9050919050565b5f819050919050565b610e9583610e62565b610ea9610ea182610e83565b848454610e08565b825550505050565b5f5f905090565b610ec0610eb1565b610ecb818484610e8c565b505050565b5b81811015610eee57610ee35f82610eb8565b600181019050610ed1565b5050565b601f821115610f3357610f0481610cff565b610f0d84610ded565b81016020851015610f1c578190505b610f30610f2885610ded565b830182610ed0565b50505b505050565b5f82821c905092915050565b5f610f535f1984600802610f38565b1980831691505092915050565b5f610f6b8383610f44565b9150826002028217905092915050565b610f84826106e4565b67ffffffffffffffff811115610f9d57610f9c610884565b5b610fa78254610cc5565b610fb2828285610ef2565b5f60209050601f831160018114610fe3575f8415610fd1578287015190505b610fdb8582610f60565b865550611042565b601f198416610ff186610cff565b5f5b8281101561101857848901518255600182019150602085019450602081019050610ff3565b868310156110355784890151611031601f891682610f44565b8355505b6001600288020188555050505b505050505050565b7f4e487b71000000000000000000000000000000000000000000000000000000005f52601160045260245ffd5b5f61108182610754565b915061108c83610754565b92508282019050808211156110a4576110a361104a565b5b92915050565b5f82825260208201905092915050565b7f50726f64756374206e6f7420666f756e640000000000000000000000000000005f82015250565b5f6110ee6011836110aa565b91506110f9826110ba565b602082019050919050565b5f6020820190508181035f83015261111b816110e2565b9050919050565b7f4e6f7420656e6f756768207175616e74697479000000000000000000000000005f82015250565b5f6111566013836110aa565b915061116182611122565b602082019050919050565b5f6020820190508181035f8301526111838161114a565b9050919050565b5f61119482610754565b915061119f83610754565b92508282039050818111156111b7576111b661104a565b5b9291505056fea264697066735822122005d56dabe995af37fd9bd561ef6b4dd0643cc7331e14f5a4e82b41a75c2ec4a564736f6c634300081e0033",
					"opcodes": "PUSH1 0x80 PUSH1 0x40 MSTORE CALLVALUE DUP1 ISZERO PUSH1 0xE JUMPI PUSH0 PUSH0 REVERT JUMPDEST POP PUSH2 0x11F3 DUP1 PUSH2 0x1C PUSH0 CODECOPY PUSH0 RETURN INVALID PUSH1 0x80 PUSH1 0x40 MSTORE CALLVALUE DUP1 ISZERO PUSH2 0xF JUMPI PUSH0 PUSH0 REVERT JUMPDEST POP PUSH1 0x4 CALLDATASIZE LT PUSH2 0x55 JUMPI PUSH0 CALLDATALOAD PUSH1 0xE0 SHR DUP1 PUSH4 0x2EE3A52 EQ PUSH2 0x59 JUMPI DUP1 PUSH4 0x125B0B34 EQ PUSH2 0x77 JUMPI DUP1 PUSH4 0x57BA11B0 EQ PUSH2 0x93 JUMPI DUP1 PUSH4 0x80E345A0 EQ PUSH2 0xC4 JUMPI DUP1 PUSH4 0xAA7ACD50 EQ PUSH2 0xF4 JUMPI JUMPDEST PUSH0 PUSH0 REVERT JUMPDEST PUSH2 0x61 PUSH2 0x110 JUMP JUMPDEST PUSH1 0x40 MLOAD PUSH2 0x6E SWAP2 SWAP1 PUSH2 0x84B JUMP JUMPDEST PUSH1 0x40 MLOAD DUP1 SWAP2 SUB SWAP1 RETURN JUMPDEST PUSH2 0x91 PUSH1 0x4 DUP1 CALLDATASIZE SUB DUP2 ADD SWAP1 PUSH2 0x8C SWAP2 SWAP1 PUSH2 0x9D2 JUMP JUMPDEST PUSH2 0x299 JUMP JUMPDEST STOP JUMPDEST PUSH2 0xAD PUSH1 0x4 DUP1 CALLDATASIZE SUB DUP2 ADD SWAP1 PUSH2 0xA8 SWAP2 SWAP1 PUSH2 0xA3E JUMP JUMPDEST PUSH2 0x393 JUMP JUMPDEST PUSH1 0x40 MLOAD PUSH2 0xBB SWAP3 SWAP2 SWAP1 PUSH2 0xA94 JUMP JUMPDEST PUSH1 0x40 MLOAD DUP1 SWAP2 SUB SWAP1 RETURN JUMPDEST PUSH2 0xDE PUSH1 0x4 DUP1 CALLDATASIZE SUB DUP2 ADD SWAP1 PUSH2 0xD9 SWAP2 SWAP1 PUSH2 0xA3E JUMP JUMPDEST PUSH2 0x41A JUMP JUMPDEST PUSH1 0x40 MLOAD PUSH2 0xEB SWAP2 SWAP1 PUSH2 0xBC3 JUMP JUMPDEST PUSH1 0x40 MLOAD DUP1 SWAP2 SUB SWAP1 RETURN JUMPDEST PUSH2 0x10E PUSH1 0x4 DUP1 CALLDATASIZE SUB DUP2 ADD SWAP1 PUSH2 0x109 SWAP2 SWAP1 PUSH2 0xBE3 JUMP JUMPDEST PUSH2 0x537 JUMP JUMPDEST STOP JUMPDEST PUSH1 0x60 PUSH0 PUSH1 0x1 DUP1 SLOAD SWAP1 POP PUSH8 0xFFFFFFFFFFFFFFFF DUP2 GT ISZERO PUSH2 0x132 JUMPI PUSH2 0x131 PUSH2 0x884 JUMP JUMPDEST JUMPDEST PUSH1 0x40 MLOAD SWAP1 DUP1 DUP3 MSTORE DUP1 PUSH1 0x20 MUL PUSH1 0x20 ADD DUP3 ADD PUSH1 0x40 MSTORE DUP1 ISZERO PUSH2 0x16B JUMPI DUP2 PUSH1 0x20 ADD JUMPDEST PUSH2 0x158 PUSH2 0x69C JUMP JUMPDEST DUP2 MSTORE PUSH1 0x20 ADD SWAP1 PUSH1 0x1 SWAP1 SUB SWAP1 DUP2 PUSH2 0x150 JUMPI SWAP1 POP JUMPDEST POP SWAP1 POP PUSH0 PUSH0 SWAP1 POP JUMPDEST PUSH1 0x1 DUP1 SLOAD SWAP1 POP DUP2 LT ISZERO PUSH2 0x291 JUMPI PUSH0 PUSH1 0x1 DUP3 DUP2 SLOAD DUP2 LT PUSH2 0x195 JUMPI PUSH2 0x194 PUSH2 0xC6B JUMP JUMPDEST JUMPDEST SWAP1 PUSH0 MSTORE PUSH1 0x20 PUSH0 KECCAK256 ADD PUSH1 0x40 MLOAD PUSH2 0x1AA SWAP2 SWAP1 PUSH2 0xD91 JUMP JUMPDEST SWAP1 DUP2 MSTORE PUSH1 0x20 ADD PUSH1 0x40 MLOAD DUP1 SWAP2 SUB SWAP1 KECCAK256 PUSH1 0x40 MLOAD DUP1 PUSH1 0x60 ADD PUSH1 0x40 MSTORE SWAP1 DUP2 PUSH0 DUP3 ADD DUP1 SLOAD PUSH2 0x1D2 SWAP1 PUSH2 0xCC5 JUMP JUMPDEST DUP1 PUSH1 0x1F ADD PUSH1 0x20 DUP1 SWAP2 DIV MUL PUSH1 0x20 ADD PUSH1 0x40 MLOAD SWAP1 DUP2 ADD PUSH1 0x40 MSTORE DUP1 SWAP3 SWAP2 SWAP1 DUP2 DUP2 MSTORE PUSH1 0x20 ADD DUP3 DUP1 SLOAD PUSH2 0x1FE SWAP1 PUSH2 0xCC5 JUMP JUMPDEST DUP1 ISZERO PUSH2 0x249 JUMPI DUP1 PUSH1 0x1F LT PUSH2 0x220 JUMPI PUSH2 0x100 DUP1 DUP4 SLOAD DIV MUL DUP4 MSTORE SWAP2 PUSH1 0x20 ADD SWAP2 PUSH2 0x249 JUMP JUMPDEST DUP3 ADD SWAP2 SWAP1 PUSH0 MSTORE PUSH1 0x20 PUSH0 KECCAK256 SWAP1 JUMPDEST DUP2 SLOAD DUP2 MSTORE SWAP1 PUSH1 0x1 ADD SWAP1 PUSH1 0x20 ADD DUP1 DUP4 GT PUSH2 0x22C JUMPI DUP3 SWAP1 SUB PUSH1 0x1F AND DUP3 ADD SWAP2 JUMPDEST POP POP POP POP POP DUP2 MSTORE PUSH1 0x20 ADD PUSH1 0x1 DUP3 ADD SLOAD DUP2 MSTORE PUSH1 0x20 ADD PUSH1 0x2 DUP3 ADD SLOAD DUP2 MSTORE POP POP DUP3 DUP3 DUP2 MLOAD DUP2 LT PUSH2 0x279 JUMPI PUSH2 0x278 PUSH2 0xC6B JUMP JUMPDEST JUMPDEST PUSH1 0x20 MUL PUSH1 0x20 ADD ADD DUP2 SWAP1 MSTORE POP DUP1 DUP1 PUSH1 0x1 ADD SWAP2 POP POP PUSH2 0x173 JUMP JUMPDEST POP DUP1 SWAP2 POP POP SWAP1 JUMP JUMPDEST PUSH0 PUSH0 DUP5 PUSH1 0x40 MLOAD PUSH2 0x2A9 SWAP2 SWAP1 PUSH2 0xDD7 JUMP JUMPDEST SWAP1 DUP2 MSTORE PUSH1 0x20 ADD PUSH1 0x40 MLOAD DUP1 SWAP2 SUB SWAP1 KECCAK256 SWAP1 POP PUSH0 DUP2 PUSH0 ADD DUP1 SLOAD PUSH2 0x2C8 SWAP1 PUSH2 0xCC5 JUMP JUMPDEST SWAP1 POP SUB PUSH2 0x369 JUMPI PUSH1 0x40 MLOAD DUP1 PUSH1 0x60 ADD PUSH1 0x40 MSTORE DUP1 DUP6 DUP2 MSTORE PUSH1 0x20 ADD DUP5 DUP2 MSTORE PUSH1 0x20 ADD DUP4 DUP2 MSTORE POP PUSH0 DUP6 PUSH1 0x40 MLOAD PUSH2 0x2F9 SWAP2 SWAP1 PUSH2 0xDD7 JUMP JUMPDEST SWAP1 DUP2 MSTORE PUSH1 0x20 ADD PUSH1 0x40 MLOAD DUP1 SWAP2 SUB SWAP1 KECCAK256 PUSH0 DUP3 ADD MLOAD DUP2 PUSH0 ADD SWAP1 DUP2 PUSH2 0x31A SWAP2 SWAP1 PUSH2 0xF7B JUMP JUMPDEST POP PUSH1 0x20 DUP3 ADD MLOAD DUP2 PUSH1 0x1 ADD SSTORE PUSH1 0x40 DUP3 ADD MLOAD DUP2 PUSH1 0x2 ADD SSTORE SWAP1 POP POP PUSH1 0x1 DUP5 SWAP1 DUP1 PUSH1 0x1 DUP2 SLOAD ADD DUP1 DUP3 SSTORE DUP1 SWAP2 POP POP PUSH1 0x1 SWAP1 SUB SWAP1 PUSH0 MSTORE PUSH1 0x20 PUSH0 KECCAK256 ADD PUSH0 SWAP1 SWAP2 SWAP1 SWAP2 SWAP1 SWAP2 POP SWAP1 DUP2 PUSH2 0x363 SWAP2 SWAP1 PUSH2 0xF7B JUMP JUMPDEST POP PUSH2 0x38D JUMP JUMPDEST DUP3 DUP2 PUSH1 0x1 ADD DUP2 SWAP1 SSTORE POP DUP2 DUP2 PUSH1 0x2 ADD PUSH0 DUP3 DUP3 SLOAD PUSH2 0x385 SWAP2 SWAP1 PUSH2 0x1077 JUMP JUMPDEST SWAP3 POP POP DUP2 SWAP1 SSTORE POP JUMPDEST POP POP POP POP JUMP JUMPDEST PUSH0 PUSH0 PUSH0 PUSH0 DUP5 PUSH1 0x40 MLOAD PUSH2 0x3A5 SWAP2 SWAP1 PUSH2 0xDD7 JUMP JUMPDEST SWAP1 DUP2 MSTORE PUSH1 0x20 ADD PUSH1 0x40 MLOAD DUP1 SWAP2 SUB SWAP1 KECCAK256 SWAP1 POP PUSH0 DUP2 PUSH0 ADD DUP1 SLOAD PUSH2 0x3C4 SWAP1 PUSH2 0xCC5 JUMP JUMPDEST SWAP1 POP SUB PUSH2 0x406 JUMPI PUSH1 0x40 MLOAD PUSH32 0x8C379A000000000000000000000000000000000000000000000000000000000 DUP2 MSTORE PUSH1 0x4 ADD PUSH2 0x3FD SWAP1 PUSH2 0x1104 JUMP JUMPDEST PUSH1 0x40 MLOAD DUP1 SWAP2 SUB SWAP1 REVERT JUMPDEST DUP1 PUSH1 0x1 ADD SLOAD DUP2 PUSH1 0x2 ADD SLOAD SWAP3 POP SWAP3 POP POP SWAP2 POP SWAP2 JUMP JUMPDEST PUSH1 0x60 PUSH1 0x2 DUP3 PUSH1 0x40 MLOAD PUSH2 0x42C SWAP2 SWAP1 PUSH2 0xDD7 JUMP JUMPDEST SWAP1 DUP2 MSTORE PUSH1 0x20 ADD PUSH1 0x40 MLOAD DUP1 SWAP2 SUB SWAP1 KECCAK256 DUP1 SLOAD DUP1 PUSH1 0x20 MUL PUSH1 0x20 ADD PUSH1 0x40 MLOAD SWAP1 DUP2 ADD PUSH1 0x40 MSTORE DUP1 SWAP3 SWAP2 SWAP1 DUP2 DUP2 MSTORE PUSH1 0x20 ADD PUSH0 SWAP1 JUMPDEST DUP3 DUP3 LT ISZERO PUSH2 0x52C JUMPI DUP4 DUP3 SWAP1 PUSH0 MSTORE PUSH1 0x20 PUSH0 KECCAK256 SWAP1 PUSH1 0x3 MUL ADD PUSH1 0x40 MLOAD DUP1 PUSH1 0x60 ADD PUSH1 0x40 MSTORE SWAP1 DUP2 PUSH0 DUP3 ADD DUP1 SLOAD PUSH2 0x489 SWAP1 PUSH2 0xCC5 JUMP JUMPDEST DUP1 PUSH1 0x1F ADD PUSH1 0x20 DUP1 SWAP2 DIV MUL PUSH1 0x20 ADD PUSH1 0x40 MLOAD SWAP1 DUP2 ADD PUSH1 0x40 MSTORE DUP1 SWAP3 SWAP2 SWAP1 DUP2 DUP2 MSTORE PUSH1 0x20 ADD DUP3 DUP1 SLOAD PUSH2 0x4B5 SWAP1 PUSH2 0xCC5 JUMP JUMPDEST DUP1 ISZERO PUSH2 0x500 JUMPI DUP1 PUSH1 0x1F LT PUSH2 0x4D7 JUMPI PUSH2 0x100 DUP1 DUP4 SLOAD DIV MUL DUP4 MSTORE SWAP2 PUSH1 0x20 ADD SWAP2 PUSH2 0x500 JUMP JUMPDEST DUP3 ADD SWAP2 SWAP1 PUSH0 MSTORE PUSH1 0x20 PUSH0 KECCAK256 SWAP1 JUMPDEST DUP2 SLOAD DUP2 MSTORE SWAP1 PUSH1 0x1 ADD SWAP1 PUSH1 0x20 ADD DUP1 DUP4 GT PUSH2 0x4E3 JUMPI DUP3 SWAP1 SUB PUSH1 0x1F AND DUP3 ADD SWAP2 JUMPDEST POP POP POP POP POP DUP2 MSTORE PUSH1 0x20 ADD PUSH1 0x1 DUP3 ADD SLOAD DUP2 MSTORE PUSH1 0x20 ADD PUSH1 0x2 DUP3 ADD SLOAD DUP2 MSTORE POP POP DUP2 MSTORE PUSH1 0x20 ADD SWAP1 PUSH1 0x1 ADD SWAP1 PUSH2 0x459 JUMP JUMPDEST POP POP POP POP SWAP1 POP SWAP2 SWAP1 POP JUMP JUMPDEST PUSH0 PUSH0 DUP4 PUSH1 0x40 MLOAD PUSH2 0x547 SWAP2 SWAP1 PUSH2 0xDD7 JUMP JUMPDEST SWAP1 DUP2 MSTORE PUSH1 0x20 ADD PUSH1 0x40 MLOAD DUP1 SWAP2 SUB SWAP1 KECCAK256 SWAP1 POP PUSH0 DUP2 PUSH0 ADD DUP1 SLOAD PUSH2 0x566 SWAP1 PUSH2 0xCC5 JUMP JUMPDEST SWAP1 POP SUB PUSH2 0x5A8 JUMPI PUSH1 0x40 MLOAD PUSH32 0x8C379A000000000000000000000000000000000000000000000000000000000 DUP2 MSTORE PUSH1 0x4 ADD PUSH2 0x59F SWAP1 PUSH2 0x1104 JUMP JUMPDEST PUSH1 0x40 MLOAD DUP1 SWAP2 SUB SWAP1 REVERT JUMPDEST DUP2 DUP2 PUSH1 0x2 ADD SLOAD LT ISZERO PUSH2 0x5EF JUMPI PUSH1 0x40 MLOAD PUSH32 0x8C379A000000000000000000000000000000000000000000000000000000000 DUP2 MSTORE PUSH1 0x4 ADD PUSH2 0x5E6 SWAP1 PUSH2 0x116C JUMP JUMPDEST PUSH1 0x40 MLOAD DUP1 SWAP2 SUB SWAP1 REVERT JUMPDEST DUP2 DUP2 PUSH1 0x2 ADD PUSH0 DUP3 DUP3 SLOAD PUSH2 0x602 SWAP2 SWAP1 PUSH2 0x118A JUMP JUMPDEST SWAP3 POP POP DUP2 SWAP1 SSTORE POP PUSH1 0x2 DUP5 PUSH1 0x40 MLOAD PUSH2 0x619 SWAP2 SWAP1 PUSH2 0xDD7 JUMP JUMPDEST SWAP1 DUP2 MSTORE PUSH1 0x20 ADD PUSH1 0x40 MLOAD DUP1 SWAP2 SUB SWAP1 KECCAK256 PUSH1 0x40 MLOAD DUP1 PUSH1 0x60 ADD PUSH1 0x40 MSTORE DUP1 DUP6 DUP2 MSTORE PUSH1 0x20 ADD DUP4 PUSH1 0x1 ADD SLOAD DUP2 MSTORE PUSH1 0x20 ADD DUP5 DUP2 MSTORE POP SWAP1 DUP1 PUSH1 0x1 DUP2 SLOAD ADD DUP1 DUP3 SSTORE DUP1 SWAP2 POP POP PUSH1 0x1 SWAP1 SUB SWAP1 PUSH0 MSTORE PUSH1 0x20 PUSH0 KECCAK256 SWAP1 PUSH1 0x3 MUL ADD PUSH0 SWAP1 SWAP2 SWAP1 SWAP2 SWAP1 SWAP2 POP PUSH0 DUP3 ADD MLOAD DUP2 PUSH0 ADD SWAP1 DUP2 PUSH2 0x67F SWAP2 SWAP1 PUSH2 0xF7B JUMP JUMPDEST POP PUSH1 0x20 DUP3 ADD MLOAD DUP2 PUSH1 0x1 ADD SSTORE PUSH1 0x40 DUP3 ADD MLOAD DUP2 PUSH1 0x2 ADD SSTORE POP POP POP POP POP POP JUMP JUMPDEST PUSH1 0x40 MLOAD DUP1 PUSH1 0x60 ADD PUSH1 0x40 MSTORE DUP1 PUSH1 0x60 DUP2 MSTORE PUSH1 0x20 ADD PUSH0 DUP2 MSTORE PUSH1 0x20 ADD PUSH0 DUP2 MSTORE POP SWAP1 JUMP JUMPDEST PUSH0 DUP2 MLOAD SWAP1 POP SWAP2 SWAP1 POP JUMP JUMPDEST PUSH0 DUP3 DUP3 MSTORE PUSH1 0x20 DUP3 ADD SWAP1 POP SWAP3 SWAP2 POP POP JUMP JUMPDEST PUSH0 DUP2 SWAP1 POP PUSH1 0x20 DUP3 ADD SWAP1 POP SWAP2 SWAP1 POP JUMP JUMPDEST PUSH0 DUP2 MLOAD SWAP1 POP SWAP2 SWAP1 POP JUMP JUMPDEST PUSH0 DUP3 DUP3 MSTORE PUSH1 0x20 DUP3 ADD SWAP1 POP SWAP3 SWAP2 POP POP JUMP JUMPDEST DUP3 DUP2 DUP4 MCOPY PUSH0 DUP4 DUP4 ADD MSTORE POP POP POP JUMP JUMPDEST PUSH0 PUSH1 0x1F NOT PUSH1 0x1F DUP4 ADD AND SWAP1 POP SWAP2 SWAP1 POP JUMP JUMPDEST PUSH0 PUSH2 0x726 DUP3 PUSH2 0x6E4 JUMP JUMPDEST PUSH2 0x730 DUP2 DUP6 PUSH2 0x6EE JUMP JUMPDEST SWAP4 POP PUSH2 0x740 DUP2 DUP6 PUSH1 0x20 DUP7 ADD PUSH2 0x6FE JUMP JUMPDEST PUSH2 0x749 DUP2 PUSH2 0x70C JUMP JUMPDEST DUP5 ADD SWAP2 POP POP SWAP3 SWAP2 POP POP JUMP JUMPDEST PUSH0 DUP2 SWAP1 POP SWAP2 SWAP1 POP JUMP JUMPDEST PUSH2 0x766 DUP2 PUSH2 0x754 JUMP JUMPDEST DUP3 MSTORE POP POP JUMP JUMPDEST PUSH0 PUSH1 0x60 DUP4 ADD PUSH0 DUP4 ADD MLOAD DUP5 DUP3 SUB PUSH0 DUP7 ADD MSTORE PUSH2 0x786 DUP3 DUP3 PUSH2 0x71C JUMP JUMPDEST SWAP2 POP POP PUSH1 0x20 DUP4 ADD MLOAD PUSH2 0x79B PUSH1 0x20 DUP7 ADD DUP3 PUSH2 0x75D JUMP JUMPDEST POP PUSH1 0x40 DUP4 ADD MLOAD PUSH2 0x7AE PUSH1 0x40 DUP7 ADD DUP3 PUSH2 0x75D JUMP JUMPDEST POP DUP1 SWAP2 POP POP SWAP3 SWAP2 POP POP JUMP JUMPDEST PUSH0 PUSH2 0x7C4 DUP4 DUP4 PUSH2 0x76C JUMP JUMPDEST SWAP1 POP SWAP3 SWAP2 POP POP JUMP JUMPDEST PUSH0 PUSH1 0x20 DUP3 ADD SWAP1 POP SWAP2 SWAP1 POP JUMP JUMPDEST PUSH0 PUSH2 0x7E2 DUP3 PUSH2 0x6BB JUMP JUMPDEST PUSH2 0x7EC DUP2 DUP6 PUSH2 0x6C5 JUMP JUMPDEST SWAP4 POP DUP4 PUSH1 0x20 DUP3 MUL DUP6 ADD PUSH2 0x7FE DUP6 PUSH2 0x6D5 JUMP JUMPDEST DUP1 PUSH0 JUMPDEST DUP6 DUP2 LT ISZERO PUSH2 0x839 JUMPI DUP5 DUP5 SUB DUP10 MSTORE DUP2 MLOAD PUSH2 0x81A DUP6 DUP3 PUSH2 0x7B9 JUMP JUMPDEST SWAP5 POP PUSH2 0x825 DUP4 PUSH2 0x7CC JUMP JUMPDEST SWAP3 POP PUSH1 0x20 DUP11 ADD SWAP10 POP POP PUSH1 0x1 DUP2 ADD SWAP1 POP PUSH2 0x801 JUMP JUMPDEST POP DUP3 SWAP8 POP DUP8 SWAP6 POP POP POP POP POP POP SWAP3 SWAP2 POP POP JUMP JUMPDEST PUSH0 PUSH1 0x20 DUP3 ADD SWAP1 POP DUP2 DUP2 SUB PUSH0 DUP4 ADD MSTORE PUSH2 0x863 DUP2 DUP5 PUSH2 0x7D8 JUMP JUMPDEST SWAP1 POP SWAP3 SWAP2 POP POP JUMP JUMPDEST PUSH0 PUSH1 0x40 MLOAD SWAP1 POP SWAP1 JUMP JUMPDEST PUSH0 PUSH0 REVERT JUMPDEST PUSH0 PUSH0 REVERT JUMPDEST PUSH0 PUSH0 REVERT JUMPDEST PUSH0 PUSH0 REVERT JUMPDEST PUSH32 0x4E487B7100000000000000000000000000000000000000000000000000000000 PUSH0 MSTORE PUSH1 0x41 PUSH1 0x4 MSTORE PUSH1 0x24 PUSH0 REVERT JUMPDEST PUSH2 0x8BA DUP3 PUSH2 0x70C JUMP JUMPDEST DUP2 ADD DUP2 DUP2 LT PUSH8 0xFFFFFFFFFFFFFFFF DUP3 GT OR ISZERO PUSH2 0x8D9 JUMPI PUSH2 0x8D8 PUSH2 0x884 JUMP JUMPDEST JUMPDEST DUP1 PUSH1 0x40 MSTORE POP POP POP JUMP JUMPDEST PUSH0 PUSH2 0x8EB PUSH2 0x86B JUMP JUMPDEST SWAP1 POP PUSH2 0x8F7 DUP3 DUP3 PUSH2 0x8B1 JUMP JUMPDEST SWAP2 SWAP1 POP JUMP JUMPDEST PUSH0 PUSH8 0xFFFFFFFFFFFFFFFF DUP3 GT ISZERO PUSH2 0x916 JUMPI PUSH2 0x915 PUSH2 0x884 JUMP JUMPDEST JUMPDEST PUSH2 0x91F DUP3 PUSH2 0x70C JUMP JUMPDEST SWAP1 POP PUSH1 0x20 DUP2 ADD SWAP1 POP SWAP2 SWAP1 POP JUMP JUMPDEST DUP3 DUP2 DUP4 CALLDATACOPY PUSH0 DUP4 DUP4 ADD MSTORE POP POP POP JUMP JUMPDEST PUSH0 PUSH2 0x94C PUSH2 0x947 DUP5 PUSH2 0x8FC JUMP JUMPDEST PUSH2 0x8E2 JUMP JUMPDEST SWAP1 POP DUP3 DUP2 MSTORE PUSH1 0x20 DUP2 ADD DUP5 DUP5 DUP5 ADD GT ISZERO PUSH2 0x968 JUMPI PUSH2 0x967 PUSH2 0x880 JUMP JUMPDEST JUMPDEST PUSH2 0x973 DUP5 DUP3 DUP6 PUSH2 0x92C JUMP JUMPDEST POP SWAP4 SWAP3 POP POP POP JUMP JUMPDEST PUSH0 DUP3 PUSH1 0x1F DUP4 ADD SLT PUSH2 0x98F JUMPI PUSH2 0x98E PUSH2 0x87C JUMP JUMPDEST JUMPDEST DUP2 CALLDATALOAD PUSH2 0x99F DUP5 DUP3 PUSH1 0x20 DUP7 ADD PUSH2 0x93A JUMP JUMPDEST SWAP2 POP POP SWAP3 SWAP2 POP POP JUMP JUMPDEST PUSH2 0x9B1 DUP2 PUSH2 0x754 JUMP JUMPDEST DUP2 EQ PUSH2 0x9BB JUMPI PUSH0 PUSH0 REVERT JUMPDEST POP JUMP JUMPDEST PUSH0 DUP2 CALLDATALOAD SWAP1 POP PUSH2 0x9CC DUP2 PUSH2 0x9A8 JUMP JUMPDEST SWAP3 SWAP2 POP POP JUMP JUMPDEST PUSH0 PUSH0 PUSH0 PUSH1 0x60 DUP5 DUP7 SUB SLT ISZERO PUSH2 0x9E9 JUMPI PUSH2 0x9E8 PUSH2 0x874 JUMP JUMPDEST JUMPDEST PUSH0 DUP5 ADD CALLDATALOAD PUSH8 0xFFFFFFFFFFFFFFFF DUP2 GT ISZERO PUSH2 0xA06 JUMPI PUSH2 0xA05 PUSH2 0x878 JUMP JUMPDEST JUMPDEST PUSH2 0xA12 DUP7 DUP3 DUP8 ADD PUSH2 0x97B JUMP JUMPDEST SWAP4 POP POP PUSH1 0x20 PUSH2 0xA23 DUP7 DUP3 DUP8 ADD PUSH2 0x9BE JUMP JUMPDEST SWAP3 POP POP PUSH1 0x40 PUSH2 0xA34 DUP7 DUP3 DUP8 ADD PUSH2 0x9BE JUMP JUMPDEST SWAP2 POP POP SWAP3 POP SWAP3 POP SWAP3 JUMP JUMPDEST PUSH0 PUSH1 0x20 DUP3 DUP5 SUB SLT ISZERO PUSH2 0xA53 JUMPI PUSH2 0xA52 PUSH2 0x874 JUMP JUMPDEST JUMPDEST PUSH0 DUP3 ADD CALLDATALOAD PUSH8 0xFFFFFFFFFFFFFFFF DUP2 GT ISZERO PUSH2 0xA70 JUMPI PUSH2 0xA6F PUSH2 0x878 JUMP JUMPDEST JUMPDEST PUSH2 0xA7C DUP5 DUP3 DUP6 ADD PUSH2 0x97B JUMP JUMPDEST SWAP2 POP POP SWAP3 SWAP2 POP POP JUMP JUMPDEST PUSH2 0xA8E DUP2 PUSH2 0x754 JUMP JUMPDEST DUP3 MSTORE POP POP JUMP JUMPDEST PUSH0 PUSH1 0x40 DUP3 ADD SWAP1 POP PUSH2 0xAA7 PUSH0 DUP4 ADD DUP6 PUSH2 0xA85 JUMP JUMPDEST PUSH2 0xAB4 PUSH1 0x20 DUP4 ADD DUP5 PUSH2 0xA85 JUMP JUMPDEST SWAP4 SWAP3 POP POP POP JUMP JUMPDEST PUSH0 DUP2 MLOAD SWAP1 POP SWAP2 SWAP1 POP JUMP JUMPDEST PUSH0 DUP3 DUP3 MSTORE PUSH1 0x20 DUP3 ADD SWAP1 POP SWAP3 SWAP2 POP POP JUMP JUMPDEST PUSH0 DUP2 SWAP1 POP PUSH1 0x20 DUP3 ADD SWAP1 POP SWAP2 SWAP1 POP JUMP JUMPDEST PUSH0 PUSH1 0x60 DUP4 ADD PUSH0 DUP4 ADD MLOAD DUP5 DUP3 SUB PUSH0 DUP7 ADD MSTORE PUSH2 0xAFE DUP3 DUP3 PUSH2 0x71C JUMP JUMPDEST SWAP2 POP POP PUSH1 0x20 DUP4 ADD MLOAD PUSH2 0xB13 PUSH1 0x20 DUP7 ADD DUP3 PUSH2 0x75D JUMP JUMPDEST POP PUSH1 0x40 DUP4 ADD MLOAD PUSH2 0xB26 PUSH1 0x40 DUP7 ADD DUP3 PUSH2 0x75D JUMP JUMPDEST POP DUP1 SWAP2 POP POP SWAP3 SWAP2 POP POP JUMP JUMPDEST PUSH0 PUSH2 0xB3C DUP4 DUP4 PUSH2 0xAE4 JUMP JUMPDEST SWAP1 POP SWAP3 SWAP2 POP POP JUMP JUMPDEST PUSH0 PUSH1 0x20 DUP3 ADD SWAP1 POP SWAP2 SWAP1 POP JUMP JUMPDEST PUSH0 PUSH2 0xB5A DUP3 PUSH2 0xABB JUMP JUMPDEST PUSH2 0xB64 DUP2 DUP6 PUSH2 0xAC5 JUMP JUMPDEST SWAP4 POP DUP4 PUSH1 0x20 DUP3 MUL DUP6 ADD PUSH2 0xB76 DUP6 PUSH2 0xAD5 JUMP JUMPDEST DUP1 PUSH0 JUMPDEST DUP6 DUP2 LT ISZERO PUSH2 0xBB1 JUMPI DUP5 DUP5 SUB DUP10 MSTORE DUP2 MLOAD PUSH2 0xB92 DUP6 DUP3 PUSH2 0xB31 JUMP JUMPDEST SWAP5 POP PUSH2 0xB9D DUP4 PUSH2 0xB44 JUMP JUMPDEST SWAP3 POP PUSH1 0x20 DUP11 ADD SWAP10 POP POP PUSH1 0x1 DUP2 ADD SWAP1 POP PUSH2 0xB79 JUMP JUMPDEST POP DUP3 SWAP8 POP DUP8 SWAP6 POP POP POP POP POP POP SWAP3 SWAP2 POP POP JUMP JUMPDEST PUSH0 PUSH1 0x20 DUP3 ADD SWAP1 POP DUP2 DUP2 SUB PUSH0 DUP4 ADD MSTORE PUSH2 0xBDB DUP2 DUP5 PUSH2 0xB50 JUMP JUMPDEST SWAP1 POP SWAP3 SWAP2 POP POP JUMP JUMPDEST PUSH0 PUSH0 PUSH0 PUSH1 0x60 DUP5 DUP7 SUB SLT ISZERO PUSH2 0xBFA JUMPI PUSH2 0xBF9 PUSH2 0x874 JUMP JUMPDEST JUMPDEST PUSH0 DUP5 ADD CALLDATALOAD PUSH8 0xFFFFFFFFFFFFFFFF DUP2 GT ISZERO PUSH2 0xC17 JUMPI PUSH2 0xC16 PUSH2 0x878 JUMP JUMPDEST JUMPDEST PUSH2 0xC23 DUP7 DUP3 DUP8 ADD PUSH2 0x97B JUMP JUMPDEST SWAP4 POP POP PUSH1 0x20 DUP5 ADD CALLDATALOAD PUSH8 0xFFFFFFFFFFFFFFFF DUP2 GT ISZERO PUSH2 0xC44 JUMPI PUSH2 0xC43 PUSH2 0x878 JUMP JUMPDEST JUMPDEST PUSH2 0xC50 DUP7 DUP3 DUP8 ADD PUSH2 0x97B JUMP JUMPDEST SWAP3 POP POP PUSH1 0x40 PUSH2 0xC61 DUP7 DUP3 DUP8 ADD PUSH2 0x9BE JUMP JUMPDEST SWAP2 POP POP SWAP3 POP SWAP3 POP SWAP3 JUMP JUMPDEST PUSH32 0x4E487B7100000000000000000000000000000000000000000000000000000000 PUSH0 MSTORE PUSH1 0x32 PUSH1 0x4 MSTORE PUSH1 0x24 PUSH0 REVERT JUMPDEST PUSH32 0x4E487B7100000000000000000000000000000000000000000000000000000000 PUSH0 MSTORE PUSH1 0x22 PUSH1 0x4 MSTORE PUSH1 0x24 PUSH0 REVERT JUMPDEST PUSH0 PUSH1 0x2 DUP3 DIV SWAP1 POP PUSH1 0x1 DUP3 AND DUP1 PUSH2 0xCDC JUMPI PUSH1 0x7F DUP3 AND SWAP2 POP JUMPDEST PUSH1 0x20 DUP3 LT DUP2 SUB PUSH2 0xCEF JUMPI PUSH2 0xCEE PUSH2 0xC98 JUMP JUMPDEST JUMPDEST POP SWAP2 SWAP1 POP JUMP JUMPDEST PUSH0 DUP2 SWAP1 POP SWAP3 SWAP2 POP POP JUMP JUMPDEST PUSH0 DUP2 SWAP1 POP DUP2 PUSH0 MSTORE PUSH1 0x20 PUSH0 KECCAK256 SWAP1 POP SWAP2 SWAP1 POP JUMP JUMPDEST PUSH0 DUP2 SLOAD PUSH2 0xD1D DUP2 PUSH2 0xCC5 JUMP JUMPDEST PUSH2 0xD27 DUP2 DUP7 PUSH2 0xCF5 JUMP JUMPDEST SWAP5 POP PUSH1 0x1 DUP3 AND PUSH0 DUP2 EQ PUSH2 0xD41 JUMPI PUSH1 0x1 DUP2 EQ PUSH2 0xD56 JUMPI PUSH2 0xD88 JUMP JUMPDEST PUSH1 0xFF NOT DUP4 AND DUP7 MSTORE DUP2 ISZERO ISZERO DUP3 MUL DUP7 ADD SWAP4 POP PUSH2 0xD88 JUMP JUMPDEST PUSH2 0xD5F DUP6 PUSH2 0xCFF JUMP JUMPDEST PUSH0 JUMPDEST DUP4 DUP2 LT ISZERO PUSH2 0xD80 JUMPI DUP2 SLOAD DUP2 DUP10 ADD MSTORE PUSH1 0x1 DUP3 ADD SWAP2 POP PUSH1 0x20 DUP2 ADD SWAP1 POP PUSH2 0xD61 JUMP JUMPDEST DUP4 DUP9 ADD SWAP6 POP POP POP JUMPDEST POP POP POP SWAP3 SWAP2 POP POP JUMP JUMPDEST PUSH0 PUSH2 0xD9C DUP3 DUP5 PUSH2 0xD11 JUMP JUMPDEST SWAP2 POP DUP2 SWAP1 POP SWAP3 SWAP2 POP POP JUMP JUMPDEST PUSH0 PUSH2 0xDB1 DUP3 PUSH2 0x6E4 JUMP JUMPDEST PUSH2 0xDBB DUP2 DUP6 PUSH2 0xCF5 JUMP JUMPDEST SWAP4 POP PUSH2 0xDCB DUP2 DUP6 PUSH1 0x20 DUP7 ADD PUSH2 0x6FE JUMP JUMPDEST DUP1 DUP5 ADD SWAP2 POP POP SWAP3 SWAP2 POP POP JUMP JUMPDEST PUSH0 PUSH2 0xDE2 DUP3 DUP5 PUSH2 0xDA7 JUMP JUMPDEST SWAP2 POP DUP2 SWAP1 POP SWAP3 SWAP2 POP POP JUMP JUMPDEST PUSH0 PUSH1 0x20 PUSH1 0x1F DUP4 ADD DIV SWAP1 POP SWAP2 SWAP1 POP JUMP JUMPDEST PUSH0 DUP3 DUP3 SHL SWAP1 POP SWAP3 SWAP2 POP POP JUMP JUMPDEST PUSH0 PUSH1 0x8 DUP4 MUL PUSH2 0xE37 PUSH32 0xFFFFFFFFFFFFFFFFFFFFFFFFFFFFFFFFFFFFFFFFFFFFFFFFFFFFFFFFFFFFFFFF DUP3 PUSH2 0xDFC JUMP JUMPDEST PUSH2 0xE41 DUP7 DUP4 PUSH2 0xDFC JUMP JUMPDEST SWAP6 POP DUP1 NOT DUP5 AND SWAP4 POP DUP1 DUP7 AND DUP5 OR SWAP3 POP POP POP SWAP4 SWAP3 POP POP POP JUMP JUMPDEST PUSH0 DUP2 SWAP1 POP SWAP2 SWAP1 POP JUMP JUMPDEST PUSH0 PUSH2 0xE7C PUSH2 0xE77 PUSH2 0xE72 DUP5 PUSH2 0x754 JUMP JUMPDEST PUSH2 0xE59 JUMP JUMPDEST PUSH2 0x754 JUMP JUMPDEST SWAP1 POP SWAP2 SWAP1 POP JUMP JUMPDEST PUSH0 DUP2 SWAP1 POP SWAP2 SWAP1 POP JUMP JUMPDEST PUSH2 0xE95 DUP4 PUSH2 0xE62 JUMP JUMPDEST PUSH2 0xEA9 PUSH2 0xEA1 DUP3 PUSH2 0xE83 JUMP JUMPDEST DUP5 DUP5 SLOAD PUSH2 0xE08 JUMP JUMPDEST DUP3 SSTORE POP POP POP POP JUMP JUMPDEST PUSH0 PUSH0 SWAP1 POP SWAP1 JUMP JUMPDEST PUSH2 0xEC0 PUSH2 0xEB1 JUMP JUMPDEST PUSH2 0xECB DUP2 DUP5 DUP5 PUSH2 0xE8C JUMP JUMPDEST POP POP POP JUMP JUMPDEST JUMPDEST DUP2 DUP2 LT ISZERO PUSH2 0xEEE JUMPI PUSH2 0xEE3 PUSH0 DUP3 PUSH2 0xEB8 JUMP JUMPDEST PUSH1 0x1 DUP2 ADD SWAP1 POP PUSH2 0xED1 JUMP JUMPDEST POP POP JUMP JUMPDEST PUSH1 0x1F DUP3 GT ISZERO PUSH2 0xF33 JUMPI PUSH2 0xF04 DUP2 PUSH2 0xCFF JUMP JUMPDEST PUSH2 0xF0D DUP5 PUSH2 0xDED JUMP JUMPDEST DUP2 ADD PUSH1 0x20 DUP6 LT ISZERO PUSH2 0xF1C JUMPI DUP2 SWAP1 POP JUMPDEST PUSH2 0xF30 PUSH2 0xF28 DUP6 PUSH2 0xDED JUMP JUMPDEST DUP4 ADD DUP3 PUSH2 0xED0 JUMP JUMPDEST POP POP JUMPDEST POP POP POP JUMP JUMPDEST PUSH0 DUP3 DUP3 SHR SWAP1 POP SWAP3 SWAP2 POP POP JUMP JUMPDEST PUSH0 PUSH2 0xF53 PUSH0 NOT DUP5 PUSH1 0x8 MUL PUSH2 0xF38 JUMP JUMPDEST NOT DUP1 DUP4 AND SWAP2 POP POP SWAP3 SWAP2 POP POP JUMP JUMPDEST PUSH0 PUSH2 0xF6B DUP4 DUP4 PUSH2 0xF44 JUMP JUMPDEST SWAP2 POP DUP3 PUSH1 0x2 MUL DUP3 OR SWAP1 POP SWAP3 SWAP2 POP POP JUMP JUMPDEST PUSH2 0xF84 DUP3 PUSH2 0x6E4 JUMP JUMPDEST PUSH8 0xFFFFFFFFFFFFFFFF DUP2 GT ISZERO PUSH2 0xF9D JUMPI PUSH2 0xF9C PUSH2 0x884 JUMP JUMPDEST JUMPDEST PUSH2 0xFA7 DUP3 SLOAD PUSH2 0xCC5 JUMP JUMPDEST PUSH2 0xFB2 DUP3 DUP3 DUP6 PUSH2 0xEF2 JUMP JUMPDEST PUSH0 PUSH1 0x20 SWAP1 POP PUSH1 0x1F DUP4 GT PUSH1 0x1 DUP2 EQ PUSH2 0xFE3 JUMPI PUSH0 DUP5 ISZERO PUSH2 0xFD1 JUMPI DUP3 DUP8 ADD MLOAD SWAP1 POP JUMPDEST PUSH2 0xFDB DUP6 DUP3 PUSH2 0xF60 JUMP JUMPDEST DUP7 SSTORE POP PUSH2 0x1042 JUMP JUMPDEST PUSH1 0x1F NOT DUP5 AND PUSH2 0xFF1 DUP7 PUSH2 0xCFF JUMP JUMPDEST PUSH0 JUMPDEST DUP3 DUP2 LT ISZERO PUSH2 0x1018 JUMPI DUP5 DUP10 ADD MLOAD DUP3 SSTORE PUSH1 0x1 DUP3 ADD SWAP2 POP PUSH1 0x20 DUP6 ADD SWAP5 POP PUSH1 0x20 DUP2 ADD SWAP1 POP PUSH2 0xFF3 JUMP JUMPDEST DUP7 DUP4 LT ISZERO PUSH2 0x1035 JUMPI DUP5 DUP10 ADD MLOAD PUSH2 0x1031 PUSH1 0x1F DUP10 AND DUP3 PUSH2 0xF44 JUMP JUMPDEST DUP4 SSTORE POP JUMPDEST PUSH1 0x1 PUSH1 0x2 DUP9 MUL ADD DUP9 SSTORE POP POP POP JUMPDEST POP POP POP POP POP POP JUMP JUMPDEST PUSH32 0x4E487B7100000000000000000000000000000000000000000000000000000000 PUSH0 MSTORE PUSH1 0x11 PUSH1 0x4 MSTORE PUSH1 0x24 PUSH0 REVERT JUMPDEST PUSH0 PUSH2 0x1081 DUP3 PUSH2 0x754 JUMP JUMPDEST SWAP2 POP PUSH2 0x108C DUP4 PUSH2 0x754 JUMP JUMPDEST SWAP3 POP DUP3 DUP3 ADD SWAP1 POP DUP1 DUP3 GT ISZERO PUSH2 0x10A4 JUMPI PUSH2 0x10A3 PUSH2 0x104A JUMP JUMPDEST JUMPDEST SWAP3 SWAP2 POP POP JUMP JUMPDEST PUSH0 DUP3 DUP3 MSTORE PUSH1 0x20 DUP3 ADD SWAP1 POP SWAP3 SWAP2 POP POP JUMP JUMPDEST PUSH32 0x50726F64756374206E6F7420666F756E64000000000000000000000000000000 PUSH0 DUP3 ADD MSTORE POP JUMP JUMPDEST PUSH0 PUSH2 0x10EE PUSH1 0x11 DUP4 PUSH2 0x10AA JUMP JUMPDEST SWAP2 POP PUSH2 0x10F9 DUP3 PUSH2 0x10BA JUMP JUMPDEST PUSH1 0x20 DUP3 ADD SWAP1 POP SWAP2 SWAP1 POP JUMP JUMPDEST PUSH0 PUSH1 0x20 DUP3 ADD SWAP1 POP DUP2 DUP2 SUB PUSH0 DUP4 ADD MSTORE PUSH2 0x111B DUP2 PUSH2 0x10E2 JUMP JUMPDEST SWAP1 POP SWAP2 SWAP1 POP JUMP JUMPDEST PUSH32 0x4E6F7420656E6F756768207175616E7469747900000000000000000000000000 PUSH0 DUP3 ADD MSTORE POP JUMP JUMPDEST PUSH0 PUSH2 0x1156 PUSH1 0x13 DUP4 PUSH2 0x10AA JUMP JUMPDEST SWAP2 POP PUSH2 0x1161 DUP3 PUSH2 0x1122 JUMP JUMPDEST PUSH1 0x20 DUP3 ADD SWAP1 POP SWAP2 SWAP1 POP JUMP JUMPDEST PUSH0 PUSH1 0x20 DUP3 ADD SWAP1 POP DUP2 DUP2 SUB PUSH0 DUP4 ADD MSTORE PUSH2 0x1183 DUP2 PUSH2 0x114A JUMP JUMPDEST SWAP1 POP SWAP2 SWAP1 POP JUMP JUMPDEST PUSH0 PUSH2 0x1194 DUP3 PUSH2 0x754 JUMP JUMPDEST SWAP2 POP PUSH2 0x119F DUP4 PUSH2 0x754 JUMP JUMPDEST SWAP3 POP DUP3 DUP3 SUB SWAP1 POP DUP2 DUP2 GT ISZERO PUSH2 0x11B7 JUMPI PUSH2 0x11B6 PUSH2 0x104A JUMP JUMPDEST JUMPDEST SWAP3 SWAP2 POP POP JUMP INVALID LOG2 PUSH5 0x6970667358 0x22 SLT KECCAK256 SDIV 0xD5 PUSH14 0xABE995AF37FD9BD561EF6B4DD064 EXTCODECOPY 0xC7 CALLER 0x1E EQ CREATE2 LOG4 0xE8 0x2B COINBASE 0xA7 TLOAD 0x2E 0xC4 0xA5 PUSH5 0x736F6C6343 STOP ADDMOD 0x1E STOP CALLER "
				},
				"gasEstimates": {
					"creation": {
						"codeDepositCost": "919000",
						"executionCost": "953",
						"totalCost": "919953"
					},
					"external": {
						"addProduct(string,uint256,uint256)": "infinite",
						"buyProduct(string,string,uint256)": "infinite",
						"getAllProducts()": "infinite",
						"getProductInfo(string)": "infinite",
						"getPurchaseHistory(string)": "infinite"
					}
				},
				"methodIdentifiers": {
					"addProduct(string,uint256,uint256)": "125b0b34",
					"buyProduct(string,string,uint256)": "aa7acd50",
					"getAllProducts()": "02ee3a52",
					"getProductInfo(string)": "57ba11b0",
					"getPurchaseHistory(string)": "80e345a0"
				}
			},
			"storageLayout": {
				"storage": [
					{
						"astId": 20,
						"contract": "contracts/bt/StoreManager.sol:StoreManager",
						"label": "products",
						"offset": 0,
						"slot": "0",
						"type": "t_mapping(t_string_memory_ptr,t_struct(Product)8_storage)"
					},
					{
						"astId": 23,
						"contract": "contracts/bt/StoreManager.sol:StoreManager",
						"label": "productNames",
						"offset": 0,
						"slot": "1",
						"type": "t_array(t_string_storage)dyn_storage"
					},
					{
						"astId": 29,
						"contract": "contracts/bt/StoreManager.sol:StoreManager",
						"label": "userPurchases",
						"offset": 0,
						"slot": "2",
						"type": "t_mapping(t_string_memory_ptr,t_array(t_struct(Order)15_storage)dyn_storage)"
					}
				],
				"types": {
					"t_array(t_string_storage)dyn_storage": {
						"base": "t_string_storage",
						"encoding": "dynamic_array",
						"label": "string[]",
						"numberOfBytes": "32"
					},
					"t_array(t_struct(Order)15_storage)dyn_storage": {
						"base": "t_struct(Order)15_storage",
						"encoding": "dynamic_array",
						"label": "struct Order[]",
						"numberOfBytes": "32"
					},
					"t_mapping(t_string_memory_ptr,t_array(t_struct(Order)15_storage)dyn_storage)": {
						"encoding": "mapping",
						"key": "t_string_memory_ptr",
						"label": "mapping(string => struct Order[])",
						"numberOfBytes": "32",
						"value": "t_array(t_struct(Order)15_storage)dyn_storage"
					},
					"t_mapping(t_string_memory_ptr,t_struct(Product)8_storage)": {
						"encoding": "mapping",
						"key": "t_string_memory_ptr",
						"label": "mapping(string => struct Product)",
						"numberOfBytes": "32",
						"value": "t_struct(Product)8_storage"
					},
					"t_string_memory_ptr": {
						"encoding": "bytes",
						"label": "string",
						"numberOfBytes": "32"
					},
					"t_string_storage": {
						"encoding": "bytes",
						"label": "string",
						"numberOfBytes": "32"
					},
					"t_struct(Order)15_storage": {
						"encoding": "inplace",
						"label": "struct Order",
						"members": [
							{
								"astId": 10,
								"contract": "contracts/bt/StoreManager.sol:StoreManager",
								"label": "nameProduct",
								"offset": 0,
								"slot": "0",
								"type": "t_string_storage"
							},
							{
								"astId": 12,
								"contract": "contracts/bt/StoreManager.sol:StoreManager",
								"label": "price",
								"offset": 0,
								"slot": "1",
								"type": "t_uint256"
							},
							{
								"astId": 14,
								"contract": "contracts/bt/StoreManager.sol:StoreManager",
								"label": "quantity",
								"offset": 0,
								"slot": "2",
								"type": "t_uint256"
							}
						],
						"numberOfBytes": "96"
					},
					"t_struct(Product)8_storage": {
						"encoding": "inplace",
						"label": "struct Product",
						"members": [
							{
								"astId": 3,
								"contract": "contracts/bt/StoreManager.sol:StoreManager",
								"label": "nameProduct",
								"offset": 0,
								"slot": "0",
								"type": "t_string_storage"
							},
							{
								"astId": 5,
								"contract": "contracts/bt/StoreManager.sol:StoreManager",
								"label": "price",
								"offset": 0,
								"slot": "1",
								"type": "t_uint256"
							},
							{
								"astId": 7,
								"contract": "contracts/bt/StoreManager.sol:StoreManager",
								"label": "quantity",
								"offset": 0,
								"slot": "2",
								"type": "t_uint256"
							}
						],
						"numberOfBytes": "96"
					},
					"t_uint256": {
						"encoding": "inplace",
						"label": "uint256",
						"numberOfBytes": "32"
					}
				}
			},
			"userdoc": {
				"kind": "user",
				"methods": {},
				"version": 1
			}
		}
	}
}